:10050600EF4E6015E4FDFC0DBD00010CBC38F8BDD6
:0905160054F5EF1F70EA1E80E7A6
:01051F0022B9
:0E056600E4F5B1F5B1F5B3F5B4F5ACF5AD22A1
:1004B9001205661205577F027E00120506D2AFD2D9
:1004C9008C7F057E00120506D294D2833094FD30CC
:0704D90083FA12001E80F5FA
:0F05570012000E1203551205331205450205203E
:0D000E007596307597307F027E0002050662
:1003550053B1FE43B20153B1FD43B20253B1F7436A
:10036500B20843B11053B2EF43B12053B2DF43B1EA
:100375004053B2BF43B18053B27F53B3FE43B40180
:1003850053B3FD43B40253B3FB43B40453B3F74330
:10039500B40853B3EF43B41043B38053B47F53ACA5
:1003A500FE43AD01C2B0C294C283C291C293C29250
:0703B500C280C281C2902248
:0304E00001120006
:0D057400E4FFC2EFD2EE30EFFDAFC3051281
:010581002257
:1005200053E8F043B38053B47FE4F5F643F6014358
:03053000E10122C4
:0704E300C103C10401130075
:10001E00E4F50FF510F5117F01FE12050620872A73
:10002E003086273085247F017E00120506051020BC
:10003E0087063086032085EEE510D3940F400B75AE
:10004E001101AF111203BCE4F51020872A20862778
:10005E003085247F017E00120506051020870620BC
:10006E0086032085EEE510D3940F400B751102AF79
:10007E00111203BCE4F51020872A30862720852430
:10008E007F017E001205060510208706308603309C
:10009E0085EEE510D3940F400B751103AF111203CB
:1000AE00BCE4F51030872A2086273085247F017E18
:1000BE000012050605103087062086032085EEE522
:1000CE0010D39402400B751104AF111203BCE4F56A
:1000DE001030872A3086272085247F017E00120566
:1000EE000605103087063086033085EEE510D39472
:1000FE0002400B751105AF111203BCE4F5103087E9
:10010E002A2086272085247F017E001205060510F1
:10011E003087062086033085EEE510D3940F400B12
:10012E00751106AF111203BCE4F510308407C2033B
:10013E00C200C20422200304D28ED203300012D297
:10014E008E0513C200E513D3940F4005D204E4F5D7
:10015E0013300416C204C2837F0A7E00120506C243
:0A016E00B0C294C2AF43870280FBC9
:010178002264
:1003BC00EF24FE601C14602514602E14603714604A
:1003CC004024057047D2917F0F7E00120506C29122
:1003DC0022D2937F0F7E00120506C29322D2927F07
:1003EC000F7E00120506C29222D2807F0F7E001271
:1003FC000506C28022D2817F0F7E00120506C281C3
:0D040C0022D2907F0F7E00120506C29022C2
:0E04EA0002090000010B00C105C10601080057
:10053300538EF753890F438910758CCB758AEAD292
:02054300A922EB
:03000B0002029559
:10029500C0E0C0F0C083C082C0D075D000C000C02F
:1002A50001C002C003C004C005C006C007C28C75EA
:1002B5008CEA758AEA0508E508D3940540751205A8
:1002C50074EF250AF50AE43509F509E512B4641F4A
:1002D500AE09AF0A7C007D641204198F0B751200FC
:1002E500D205AFC27509008F0A750900750A00307D
:1002F500052DE50BC394545012C283C2B07F327EE4
:1003050000120506C29443870280FBE50BC394598E
:100315005004D2068009E50BD3945B4002C2063037
:10032500060C300202C2B0300106D2B08002C2B063
:10033500750800D28CD007D006D005D004D003D0E4
:1003450002D001D000D0D0D082D083D0F0D0E0321E
:0D04F800C100C102C101020C0000010E0094
:10054500538EEF5389F0438901758DCB758BEAD2B4
:02055500AB22D7
:03001B0002046E6E
:10046E00C0E0C0D0C28E758DCB758BEA050DE50D43
:10047E007002050C050ED39470E50C94174008D24B
:10048E0000750C00750D00E50EC394145006C202E3
:10049E00D2018010E50EC394C85006D202C201806C
:0B04AE0003750E00D28ED0D0D0E032DB
:0300000002017981
:1001790075C7AA75C755439F0175AF0475A6307534
:10018900A70075C7AA75C75543A401AAAE75A631BC
:1001990075C7AA75C75543A401ABAE75A63275C715
:1001A900AA75C75543A401ACAE75A63375C7AA7520
:1001B900C75543A401ADAE75C7AA75C755539FFE70
:1001C90075C7AA75C75575910175C7AA75C7558AA7
:1001D9008475C7AA75C7558B8575C7AA75C7558C08
:1001E900EF75C7AA75C7558DF775C7AA75C7557530
:1001F9009100787FE4F6D8FD9000007FFF7E01E44E
:0C020900F0A3DFFCDEFA75812002025039
:100215000204B9E493A3F8E493A34003F68001F242
:1002250008DFF48029E493A3F85407240CC8C333EA
:10023500C4540F4420C8834004F456800146F6DFB9
:10024500E4800B01020408102040809004E0E47E65
:10025500019360BCA3FF543F30E509541FFEE493AE
:10026500A360010ECF54C025E060A840B8E493A375
:10027500FAE493A3F8E493A3C8C582C8CAC583CAA0
:10028500F0A3C8C582C8CAC583CADFE9DEE780BE58
:0105050000F5
:10041900BC000BBE0029EF8DF084FFADF022E4CCC7
:10042900F875F008EF2FFFEE33FEEC33FCEE9DEC90
:10043900984005FCEE9DFE0FD5F0E9E4CEFD22EDD6
:10044900F8F5F0EE8420D21CFEADF075F008EF2F20
:10045900FFED33FD4007985006D5F0F222C398FD11
:050469000FD5F0EA22AE
:00000001FF
