:10141C00E4F525F526121A61E525B40900506A9009
:10142C001432F828287302144D02145502145D026C
:10143C00146502146D02147502147D0214850214D5
:10144C008D12164975250180CF1219F97525028068
:10145C00C712197275250380BF1219DB752504801C
:10146C00B712199775250580AF120EBC752506802D
:10147C00A7121179752507809F1215117525088003
:0E148C009712138BE4F525808FE4F525808AF6
:0D1AF9007596307597307F027E00021A2D21
:1019BC00E4F5B1F5B2F5B3F5B4F5ACF5AD53B3FE52
:0F19CC0043B401C290C285F51C751D20C20022D4
:101A6100121AF91219BC121AC912003E121A78126E
:071A71001B1ED2AFD28C2234
:07149A00021C0000011B0011
:10164900E51D30E425300022C2AFD291D290531D5E
:10165900EF431D207F147E00121A2DD2AFD28C4386
:101669001D02153C1219F9C29122E51D30E524200D
:101679000021C2AFD291C290531DDF431D10D28009
:10168900D282D281D297D296D2957F1E7E00121A2B
:041699002DD2AF227D
:10197200E51D30E01F531DFEC285053BE53BD394B8
:10198200034005753B018007E53BB40302D2851293
:0519920012E6D2012263
:1019F900E51D30E114531DFD053CE53CD39403403E
:0A1A090003753C01120FAED201225A
:1019DB00E51D30E218531DFBE540C3941E40047512
:0E19EB00401E220540120B2CD201751B01225A
:10199700E51D30E31F531DF7E540D394004007E5ED
:1019A70040D3941E4004E4F540221540120B2CD27C
:0519B70001751B012277
:091B4600309103C29122D29122D8
:10138B00309108309005751B01D201200103021426
:10139B001BE51B600DD280D282D2817F0F7E0012A3
:1013AB001A2DE53BB4010DC280D282D2817F077E1C
:1013BB0000121A2DE53BB4020DD280C282D2817F7E
:1013CB00077E00121A2DE53BB4030DD280D282C2E8
:1013DB00817F077E00121A2DE53CB4010DC297D216
:1013EB0096D2957F077E00121A2DE53CB4020DD2E2
:1013FB0097C296D2957F077E00121A2DE53CB40357
:10140B000DD297D296C2957F077E00121A2DC2017C
:01141B0022AE
:01005A002283
:1018AF0053B1BF53B2BF53B17F53B27F75985043FB
:1018BF008920438780438E1053C4DFAB07AA06A944
:1018CF0005A8047F407E427D0F7C00120DCAEF04F5
:0918DF00F404F58DD28ED2992299
:10157C008F448E438D428C4153B1BF53B2BF53B194
:10158C007F53B27F75985043878053C4F843C4206F
:10159C00AB44AA43A942A8417F407E427D0F7C0008
:1015AC00120DCAC374FF9FFF74FF9EFEE49DFDE401
:1015BC009CFC7808120E838FC6AB44AA43A942A8A0
:1015CC00417F407E427D0F7C00120DCAC374FF9F89
:0915DC00FF8FC543C408D2992217
:070003003098FDAF99C2988F
:01000A0022D3
:081B5800C2998F993099FD221A
:1015E5008F488E478D468C4553B1FB53B2FB53B3A1
:1015F500BF53B4BF75F85075C40853C4DFAB48AAD0
:1016050047A946A8457F407E427D0F7C00120DCA42
:10161500C374FF9FFF74FF9EFEE49DFDE49CFC7870
:1016250008120E838FC6AB48AA47A946A8457F4036
:101635007E427D0F7C00120DCAC374FF9FFF8FC5CC
:0416450043C4082270
:071B600030F8FDAF9AC2F856
:011B6700225B
:081B6800C2F98F9A30F9FD2249
:101A1300EF4E6015E4FDFC0DBD00010CBC05F8BDE7
:091A230082F5EF1F70EA1E80E756
:011A2C002297
:101A2D00EF4E6015E4FDFC0DBD00010CBC38F8BD9A
:091A3D0054F5EF1F70EA1E80E76A
:011A4600227D
:1017D1008F4C8E4B8D4A8C49538EEF438910D28E9C
:1017E100E4FFFEFDFCAB4CAA4BA94AA849C3120E6B
:1017F100726025758BCA758DFA308FFDC28FE54CED
:1018010024FFF54CE54B34FFF54BE54A34FFF54A2F
:0B181100E54934FFF54980C8C28E2273
:10181C008F508E4F8D4E8C4D538EEF438910D28E40
:10182C00E4FFFEFDFCAB50AA4FA94EA84DC3120E0F
:10183C00726025758BEA758DCB308FFDC28FE550AC
:10184C0024FFF550E54F34FFF54FE54E34FFF54ED0
:0B185C00E54D34FFF54D80C8C28E2220
:10169D008F548E538D528C5153C9BF53C9DF43C9DB
:1016AD0010D2CAE4FFFEFDFCAB54AA53A952A851B7
:1016BD00C3120E72602575CC3075CDF830CFFDC2DA
:1016CD00CFE55424FFF554E55334FFF553E552347B
:0E16DD00FFF552E55134FFF55180C8C2CA2214
:1016EB008F588E578D568C5575C40743C408E4FF2D
:1016FB00FEFDFCAB58AA57A956A855C3120E726033
:10170B002875C52C75C6CFE5C430E4FB53C4EFE593
:10171B005824FFF558E55734FFF557E55634FFF5D8
:0D172B0056E55534FFF55580C553C4F7222F
:101738008F5C8E5B8D5A8C5975C40743C408E4FFCF
:10174800FEFDFCAB5CAA5BA95AA859C3120E7260D5
:101758002875C5D875C6FFE5C430E4FB53C4EFE56A
:101768005C24FFF55CE55B34FFF55BE55A34FFF577
:0D1778005AE55934FFF55980C553C4F722D6
:0C14A100015E00016000015F00015D00C1
:0D1AEB00E4FFC2EFD2EE30EFFDAFC3055EA9
:011AF80022CB
:10151100E55F6066E560120E96155A01155A0215CF
:101521005A03155F041564051569061573071546F9
:1015310010155020155530154B401542F00000157F
:1015410078B2008032431D02802D431D0180284363
:101551001D048023431D08801E121A478019753C03
:10156100038008753C028003753C01120FAED20165
:0B1571008005121B46D201E4F55F224A
:10003E0053B1EF53B2EF53E8F043E80543B1105319
:0C004E00B2EFE4F5F643F62043E1012296
:03005B00021B4F36
:091B4F00C2EF85C35D755F013230
:1014AD0002340000013A00013700C103C104C10537
:0C14BD0001330001390001380001360045
:101AC900538EF75389F0438901758CCB758AEAD215
:021AD900A92240
:10117900200303021239121AEB7534008F358535B5
:101189003AE53730E7020538E53AC394FD5060E5A2
:101199003A94B04006433781021237E53AD3949026
:1011A9004017E53730E10DE538D394084006755FFF
:1011B900017560204337828075E53AD394704017F2
:1011C900E53730E20DE538D394084006755F0175BF
:1011D90060304337848057E53AD39450400543370C
:1011E90088804BE53AD394304044433790803FE5BB
:1011F9003730E73530E006755F017560F0E5373067
:10120900E106755F01756020E53730E206755F011B
:10121900756030E53730E306755F01756040E53785
:1012290030E406755F01756010E4F537F538C203DF
:011239002292
:03000B0002191BBC
:10191B00C0E0C0D0C28C758CEA758AEA05330536F7
:10192B00E533D394094005D203753300E536D394E0
:0F193B00194005D204753600D28CD0D0D0E032DE
:10005E0000A50000A50000C30000A41100000000D0
:10006E000000000000101D3F000000000000000016
:10007E00000000000000000000007FFFFF000000F5
:10008E000000000000000000000000007FFFFF00E5
:10009E00C80083C4D5FFABFB241009FFABFA0800E0
:1000AE0009FFABFA000009FFABFBA41829FFAD84D2
:1000BE00000018FFAD85001FFFFFAD81001212FF7B
:1000CE00AD82001414FFAD83000088FFAD80005494
:1000DE0054FFAD87005454FFAD86000000FFAD867F
:1000EE00000001FFAD8600000000C20000C97A00CA
:1000FE00DF1E00DB7800DB7800C70000E00A00D5C9
:10010E005300E33E00CF0000E17000CB0000E22F71
:10011E0000D96200E52F00E47000D73001D09A00BC
:10012E00C60100DD0100D40A00DA0600DC0000A1E1
:10013E000500000000000400002700001600006B00
:10014E0000D80000A105000001000000000017000B
:10015E00003A00007B00D80000A10500000200005C
:10016E000300007C00003A00000000D80000A1054A
:10017E0000000300000000002300007F0000630069
:10018E00D80000A1050000040000000000310000AE
:10019E000D00002A00D80000A10500000500000097
:1001AE0000005600000D00003B00D80000A1050025
:1001BE00000600000000004400003A00004A00D88B
:1001CE000000A105000007000000000066000024EA
:1001DE0000001600D80000A1050000080000000075
:1001EE00005C00002400001D00D80000A1050000E6
:1001FE000900000000006D00003A00002500D80044
:10020E0000CF0100D10000D10900D11200D11B0096
:10021E00D12400D12D00D13600D13F00D14800D1DC
:10022E004C00D10C00CF0000D21300CF0000D32120
:10023E0000D61900CF0000E86100E94700CF00FFAB
:10024E00ABF30000C1FFABF4000001FFABF5301AB9
:10025E0048FFABF620EE7DFFABF7029078FFABF4D4
:10026E00000002FFABF5101A4AFFABF621E60006BE
:10027E00AA0600A27B61F4000000906170000002EB
:10028E00473C0A00380A0064F40000013460F400B0
:10029E000001DA05F420FFFFFF0464A0204C0020CB
:1002AE00480044B8000CC4A000001657F4007FF7B5
:1002BE00055F5C005F580057F4007FFF385F5C00FD
:1002CE005F5800205C0020580057F4007FFFBC5F91
:1002DE005C005F580057F4007FC7295F5C005F58D1
:1002EE00000AF08000007857F4007FF63A5F5C0059
:1002FE005F580057F4007FFF275F5C005F580020B7
:10030E005C0020580057F4007FFFB65F5C005F581A
:10031E000057F4007FC2235F5C005F580054F0006A
:10032E00FFFFF10C1EE20140C60000070140C500B0
:10033E0000010AF0A200008961F40000CDAC6170EA
:10034E000000021461F40000C8326170000001FF69
:10035E0060F4000000986070000001F80BF080005F
:10036E00009800000C0BF08000D36846F4004DF8A6
:10037E00F074F40000001E4E6C0000000C55BE0020
:10038E000140CEFFFF3F30FF0004CDCD20001B22E9
:10039E00090000000B0D104A00000A0A9DA1000082
:1003AE009F22090000000B0D104A0000040A9D81D7
:1003BE000000A508451A56F4000003FF200062084D
:1003CE00CC1A07F02D00003E57F0000002AC45F4A9
:1003DE000000000245F46AFF0FFF20006E5570000A
:0C03EE000002AC00000C00AC0000850018
:1007960000A50000A50000C30000A4110000000091
:1007A6000000000000101D3F0000000000000000D7
:1007B600000000000000000000007FFFFF000000B6
:1007C6000000000000000000000000007FFFFF00A6
:1007D600C80083C4D5FFABFB241009FFABFA0800A1
:1007E60009FFABFA000009FFABFBA41829FFAD8493
:1007F600000018FFAD85001FFFFFAD81001212FF3C
:10080600AD82001414FFAD83000088FFAD80005454
:1008160054FFAD87005454FFAD86000000FFAD863F
:10082600000001FFAD8600000000C20000C978008C
:10083600DF1E00DB7800DB7800C70000E00A00D589
:100846005300E33E00CF0400E17000CB0000E22F2E
:1008560000D97500E52F00E47000D73001D09A006A
:10086600C60100DD0100D40000DA0600DC0000A1AC
:100876000500000000000400001B00001600003BFD
:1008860000D80000A10500000100000000001200D1
:10089600003A00003F00D80000A105000002000059
:1008A6000000001800003A00005D00D80000A10515
:1008B60000000300000000002100000D00002100E0
:1008C600D80000A10500000400000000003200006E
:1008D6000D00003900D80000A10500000500000049
:1008E60000006800003A00002F00D80000A10500B3
:1008F600000600000000006E00003A00004100D82B
:100906000000A105000007000000000065000024AB
:1009160000002600D80000A1050000080000030022
:10092600007D00000D00000D00D80000A1050000AC
:100936000900000000006100000D00003F00D80023
:1009460000CF0100D10000D10900D11200D11B0057
:10095600D12400D12D00D13600D13F00D14800D19D
:100966004C00D11400CF0400D21400CF0400CF04F1
:1009760000E85800E94E00CF04FFABF30000C1FFCA
:10098600ABF4000001FFABF5301A48FFABF620EEE2
:100996007DFFABF7029078FFABF4000002FFABF5EA
:1009A600101A4AFFABF621E60006AA0600A27B61F2
:1009B600F4000000906170000002473C0A00380A0B
:1009C6000064F40000013460F4000001DA05F4204C
:1009D600FFFFFF0464A0204C0020480044B8000C30
:1009E600C4A000001657F4007FF7055F5C005F584F
:1009F6000057F4007FFF385F5C005F5800205C0002
:100A060020580057F4007FFFBC5F5C005F5800571A
:100A1600F4007FC7295F5C005F58000AF080000081
:100A26007857F4007FF63A5F5C005F580057F40091
:100A36007FFF275F5C005F5800205C00205800574E
:100A4600F4007FFFB65F5C005F580057F4007FC27A
:100A5600235F5C005F580054F000FFFFF10C1EE2BC
:100A66000140C60000070140C50000010AF0A200CF
:100A7600008961F40000CDAC61700000021461F4DD
:100A86000000C8326170000001FF60F400000098A9
:100A96006070000001F80BF08000009800000C0B5D
:100AA600F08000D36846F4004DF8F074F4000000BE
:100AB6001E4E6C0000000C55BE000140CEFFFF3FED
:100AC60030FF0004CDCD20001B22090000000B0DD5
:100AD600104A00000A0A9DA100009F22090000009A
:100AE6000B0D104A0000040A9D810000A508451A56
:100AF60056F4000003FF20006208CC1A07F02D0010
:100B0600003E57F0000002AC45F40000000245F438
:100B16006AFF0FFF20006E5570000002AC00000C4B
:060B260000AC0000850098
:1003FA0000A50000A50000C30000A4110000000031
:10040A000000000000101D3F000000000000000076
:10041A00000000000000000000007FFFFF00000055
:10042A000000000000000000000000007FFFFF0045
:10043A00C80083C4D5FFABFB241009FFABFA080040
:10044A0009FFABFA000009FFABFBA41829FFAD8432
:10045A00000018FFAD85001FFFFFAD81001212FFDB
:10046A00AD82001414FFAD83000088FFAD800054F4
:10047A0054FFAD87005454FFAD86000000FFAD86DF
:10048A00000001FFAD8600000000C20000C97A002A
:10049A00DF1E00DB7800DB7800C70000E00A00D529
:1004AA005900E35000CF0000E17000CB0000E22FBA
:1004BA0000D96F00E52F00E47000D73001D09A0010
:1004CA00C60100DD0100D40000DA0000DC0000A152
:1004DA000500000000000400001E00001600006B6A
:1004EA0000D80000A1050000010000000000000083
:1004FA00003A00003F00D80000A1050000020000F9
:10050A000000002B00003A00002B00D80000A105D3
:10051A0000000300000000002400003A00005E0012
:10052A00D80000A105000004000000000037000008
:10053A000D00003000D80000A105000005000000F1
:10054A0000006E00000D00002B00D80000A105007D
:10055A00000600000000004300003A00004500D8F1
:10056A000000A10500000700000000006500000D62
:10057A0000002900D80000A10500000800000000C2
:10058A00001200000D00001B00D80000A1050000A9
:10059A000900000200007000001700003D00D800AA
:1005AA0000CF0100D10000D10900D11200D11B00F7
:1005BA00D12400D12D00D13600D13F00D14800D13D
:1005CA004C00D10700CF0000D22E00CF0000D31379
:1005DA0000D60B00CF0000E85100E94800CF00FF29
:1005EA00ABF30000C1FFABF4000001FFABF5301A1A
:1005FA0048FFABF620EE7DFFABF7029078FFABF435
:10060A00000002FFABF5101A4AFFABF621E600061E
:10061A00AA0600A27B61F40000009061700000024B
:10062A00473C0A00380A0064F40000013460F40010
:10063A000001DA05F420FFFFFF0464A0204C00202B
:10064A00480044B8000CC4A000001657F4007FF715
:10065A00055F5C005F580057F4007FFF385F5C005D
:10066A005F5800205C0020580057F4007FFFBC5FF1
:10067A005C005F580057F4007FC7295F5C005F5831
:10068A00000AF08000007857F4007FF63A5F5C00B9
:10069A005F580057F4007FFF275F5C005F58002017
:1006AA005C0020580057F4007FFFB65F5C005F587B
:1006BA000057F4007FC2235F5C005F580054F000CB
:1006CA00FFFFF10C1EE20140C60000070140C50011
:1006DA0000010AF0A200008961F40000CDAC61704B
:1006EA000000021461F40000C8326170000001FFCA
:1006FA0060F4000000986070000001F80BF08000C0
:10070A00009800000C0BF08000D36846F4004DF806
:10071A00F074F40000001E4E6C0000000C55BE0080
:10072A000140CEFFFF3F30FF0004CDCD20001B2249
:10073A00090000000B0D104A00000A0A9DA10000E2
:10074A009F22090000000B0D104A0000040A9D8137
:10075A000000A508451A56F4000003FF20006208AD
:10076A00CC1A07F02D00003E57F0000002AC45F409
:10077A000000000245F46AFF0FFF20006E5570006A
:0C078A000002AC00000C00AC0000850078
:051AA200121AA7D29307
:0E1AA700E4FFFE0FBF00010EEF64324E70F53B
:011AB500220E
:041B7000C29280FCA1
:0A1B1E00D293121AA7D294021AA75C
:0A1B2800D294121AA2C294021AA766
:1018E800900000D293121AA7309423AF82AE83E4FB
:1018F800FCFD7B507AC3F9F8D3120E5C4010A3E5C7
:1019080082B488E4E583B413DF121B7080DAC293D3
:03191800021AA709
:0A1B3200C294121AA2D294021AA75C
:10194A00AD07E4FCC293121AA7ED30E704D29480E3
:10195A0002C294ED25E0FD121AA20CBC08E6C2935D
:08196A00121AA7D294021AA779
:10000E00C20A121AA7D209121AA7E4FCD20A121AAD
:10001E00A7ED25E0FFA209E4334FFDC20A121AA78D
:09002E000CBC08E8121AA7AF058A
:0100370022A6
:081785008B2B8A2C892DAD0786
:10178D00E4F532121B28AF0512194A1218E8E4F5D8
:10179D0032AF32E4FCFDFEAB31AA30A92FA82ED317
:1017AD00120E72401CAB2B052DE52DAA2C700205D7
:1017BD002C14F9120D63FF12194A1218E805328024
:0417CD00D0021B32F9
:1014C90004120000000001170001180001190001B1
:1014D9000B00C106C107C108010F00011100011667
:1014E90000010A00010C00010D00011A00010800A9
:0914F900010900010E00011000C0
:101A780043B10853B2F7D28353E9DF43EA0853EB83
:051A8800F7439B022260
:03003B0002109A16
:10109A00C0E0C0F0C083C082C0D075D000C000C01C
:0D10AA0001C002C003C004C005C006C0079D
:1010B700752200752300752400E5EC20E303021177
:1010C7005B53ECF7539BFD052205247F017E00123D
:1010D7001A133083F4E524C394055002806E7524F7
:1010E7000005247F017E00121A132083F475240063
:1010F7007522007523003083FD7F017E00121A13CD
:1011070030831C74122522F8C000E6FFC313D000F9
:10111700F674122522F8E64480F630831080FB74BB
:10112700122522F8C000E6FFC313D000F60523E519
:1011370023C3940840C00522E522C3940440B43079
:1011470083FD121A8D7F037E00121A13121B3C4374
:071157009B02800375EC0010
:10115E00D007D006D005D004D003D002D001D000E5
:0B116E00D0D0D082D083D0F0D0E0328F
:101A8D00E515F4B51409851417121B3CD20622E492
:051A9D00F517C206224E
:091B3C007F047812E4F608DFFCD6
:011B4500227D
:100EBC00E4F527200403020FADC204E51820E70374
:100ECC00020F710519E5176003020F71F5193091C6
:100EDC000FC291E50B64146005E50BB41502D291B9
:100EEC00E50B120E960F16100F1E110F50120F5805
:100EFC00130F60140F68150F26160F2E410F364A6C
:100F0C000F3E4B0F464C00000F6E755F80756001F5
:100F1C008050755F807560028048755F80756003D6
:100F2C008040755F807560408038755F80756004A7
:100F3C008030755F807560058028755F80051A7537
:100F4C006006801E755F807560208016755F8075E9
:100F5C006030800E755F807560F08006755F8075FF
:100F6C006007E4F518300639C20685170BE50B64EB
:100F7C001460053090028005E50BB414034318800F
:100F8C00E519D394024017E51724ED600B04700E9D
:100F9C00755F807560208006755F80756030E4F544
:010FAC00172D
:010FAD002221
:10186700FFAD83000088FFAD86000000FFAD860056
:101877000001FFAD86000000FFAD83000099FFADBA
:1018870086000000FFAD86000001FFAD8600000066
:10189700FFAD830000AAFFAD86000000FFAD860004
:0818A7000001FFAD8600000006
:0E150200013B01013C0101400F033D01D09A65
:100FAE00D291E53C24FE605214700302104C2402D0
:100FBE00600302108EE4F527F528AE27AF287C00DB
:100FCE007D03120D7C74FA2FF974033EFA7BFFE455
:100FDE00753103F530F52FF52E7FE6121785121AAF
:100FEE00A7121AA70528E52870020527C39434E531
:100FFE00276480948140C302108EE4F527F528AE55
:10100E0027AF287C007D03120D7C74962FF9740790
:10101E003EFA7BFFE4753103F530F52FF52E7FE6B2
:10102E00121785121AA7121AA70528E528700205AD
:10103E0027C39434E5276480948140C38042E4F54D
:10104E0027F528AE27AF287C007D03120D7C745E39
:10105E002FF974003EFA7BFFE4753103F530F52F5E
:10106E00F52E7FE6121785121AA7121AA70528E584
:10107E002870020527C39434E5276480948140C309
:0B108E001212E6754016120B2CC291E6
:011099002234
:100B2C00E540B41F004003020D62900B3DF82828ED
:100B3C0073020B9A020BA1020BA9020BB1020BB9A7
:100B4C00020BC1020BCF020BDF020BEF020BFF02F9
:100B5C000C0F020C1F020C2F020C3F020C4F020C4C
:100B6C005F020C6F020C7F020C8F020C9F020CAF09
:100B7C00020CBF020CCF020CDE020CED020CFC02CC
:100B8C000D0B020D1A020D29020D38020D47E4F56A
:100B9C003DF53F8026E4F53D753F50801EE4F53D64
:100BAC00753F648016E4F53D753F96800EE4F53D87
:100BBC00753FC88006E4F53D753FFAFB7A00793D38
:100BCC00020D54753D01753F137B007A00793DE4AD
:100BDC00020D54753D01753F2C7B007A00793DE484
:100BEC00020D54753D01753F317B007A00793DE46F
:100BFC00020D54753D01753F367B007A00793DE45A
:100C0C00020D54753D01753F3B7B007A00793DE444
:100C1C00020D54753D01753F407B007A00793DE42F
:100C2C00020D54753D01753F457B007A00793DE41A
:100C3C00020D54753D01753F4A7B007A00793DE405
:100C4C00020D54753D01753F4F7B007A00793DE4F0
:100C5C00020D54753D01753F547B007A00793DE4DB
:100C6C00020D54753D01753F597B007A00793DE4C6
:100C7C00020D54753D01753F5E7B007A00793DE4B1
:100C8C00020D54753D01753F637B007A00793DE49C
:100C9C00020D54753D01753F687B007A00793DE487
:100CAC00020D54753D01753F6D7B007A00793DE472
:100CBC00020D54753D01753F727B007A00793DE45D
:100CCC00020D54753D01753F777B007A00793DE448
:100CDC008076753D01753F7C7B007A00793DE48020
:100CEC0067753D01753F817B007A00793DE4805842
:100CFC00753D01753F867B007A00793DE48049752E
:100D0C003D01753F8B7B007A00793DE4803A753D5F
:100D1C0001753F907B007A00793DE4802B753D0195
:100D2C00753F957B007A00793DE4801C753D01751B
:100D3C003F987B007A00793DE4800D753D01753F4D
:100D4C009A7B007A00793DE4753103F530F52FF587
:070D5C002E7FE6121785222D
:011B7400224E
:03003800020FAE06
:1012E600E53B64017031F529E52975F003A424670F
:1012F600F9741835F0FA7BFFE4753103F530F52FF4
:10130600F52E7FE6121785121AA7121AA70529E5E8
:1013160029C3940840D222E53B64027031F529E5E1
:101326002975F003A4247FF9741835F0FA7BFFE4DD
:10133600753103F530F52FF52E7FE6121785121A53
:10134600A7121AA70529E529C3940840D222E53B2E
:1013560064037030F529E52975F003A42497F97420
:101366001835F0FA7BFFE4753103F530F52FF52ECD
:101376007FE6121785121AA7121AA70529E529C3AF
:04138600940840D2B5
:01138A002240
:101A4700308516E56024FE600A14600A24027009D6
:0A1A5700021ADB021B12121B06220A
:101AB600D287D2867F3C7E00121A2DC287C286E468
:031AC600F56122A5
:101ADB00D287D2867F197E00121A2DC287C2862228
:0C1B0600D2877F197E00121A2DC28722A0
:0C1B1200D2867F197E00121A2DC2862296
:0300000002123AAF
:10123A0075C7AA75C75575FD5A75C7AA75C7557575
:10124A00FDA5787FE4F6D8FD9000007FFF7E03E4D9
:0C125A00F0A3DFFCDEFA7581620212A135
:1012660002141CE493A3F8E493A34003F68001F26E
:1012760008DFF48029E493A3F85407240CC8C33389
:10128600C4540F4420C8834004F456800146F6DF58
:10129600E4800B010204081020408090149AE47E3A
:1012A600019360BCA3FF543F30E509541FFEE4934D
:1012B600A360010ECF54C025E060A840B8E493A314
:1012C600FAE493A3F8E493A3C8C582C8CAC583CA3F
:1012D600F0A3C8C582C8CAC583CADFE9DEE780BEF7
:0115100000DA
:100D6300BB010689828A83E0225002E722BBFE028E
:090D7300E32289828A83E49322C1
:100D7C00EF8DF0A4A8F0CF8CF0A428CE8DF0A42E8B
:020D8C00FE2245
:100D8E0075F008758200EF2FFFEE33FECD33CDCC1C
:100D9E0033CCC58233C5829BED9AEC99E58298409F
:100DAE000CF582EE9BFEED9AFDEC99FC0FD5F0D67C
:100DBE00E4CEFBE4CDFAE4CCF9A88222B800C1B9A6
:100DCE000059BA002DEC8BF084CFCECDFCE5F0CBE4
:100DDE00F97818EF2FFFEE33FEED33FDEC33FCEB1D
:100DEE0033FB10D703994004EB99FB0FD8E5E4F9D8
:100DFE00FA227818EF2FFFEE33FEED33FDEC33FCC5
:100E0E00C933C910D7059BE99A4007EC9BFCE99AB8
:100E1E00F90FD8E0E4C9FAE4CCFB2275F010EF2FFD
:100E2E00FFEE33FEED33FDCC33CCC833C810D707FD
:100E3E009BEC9AE899400AED9BFDEC9AFCE899F838
:0E0E4E000FD5F0DAE4CDFBE4CCFAE4C8F922CB
:100E5C00EB9FF5F0EA9E42F0E99D42F0EC6480C80D
:060E6C0064809845F022AD
:100E7200EB9FF5F0EA9E42F0E99D42F0E89C45F0D6
:010E8200224D
:100E8300E8600FECC313FCED13FDEE13FEEF13FF4D
:030E9300D8F12271
:100E9600D083D082F8E4937012740193700DA3A3EB
:100EA60093F8740193F5828883E4737402936860FF
:060EB600EFA3A3A380DFFF
:00000001FF
