:10144E00E4F525F526121AA0E525B40900506A9098
:10145E001464F828287302147F02148702148F0272
:10146E00149702149F0214A70214AF0214B70214A9
:10147E00BF12168175250180CF121A527525028072
:10148E00C71219AA75250380BF121A347525048058
:10149E00B71219CF75250580AF120EBC75250680C3
:1014AE00A7121195752507809F1215467525088080
:0E14BE0097121302E4F525808FE4F525808A4D
:0D1B3D007596307597307F027E00021A8683
:101A1500E4F5B1F5B2F5B3F5B4F5ACF5AD53B3FEF8
:0F1A250043B401C290C285F51D751E20C2002278
:101AA000121B3D121A15121B1D12003E121AB712FC
:071AB0001B62D2AFD28C22B1
:0714CC00021D0000011C00DD
:10168100E51E30E425300022C2AFD291D290531E24
:10169100EF431E207F147E00121A86D2AFD28C43F4
:1016A1001E02153C121A52C29122E51E30E5242079
:1016B1000021C2AFD291C290531EDF431E10D280CF
:1016C100D282D281D297D296D2957F1E7E00121AF3
:0416D10086D2AF22EC
:1019AA00E51E30E01F531EFEC285053BE53BD3947E
:1019BA00034005753B018007E53BB40302D285125B
:0519CA0013A9D2012267
:101A5200E51E30E114531EFD053CE53CD3940340E2
:0A1A620003753C01120FCAD20122E5
:101A3400E51E30E218531EFBE540C3941E400475B6
:0E1A4400401E220540120B2CD201751C0122FF
:1019CF00E51E30E31F531EF7E540D394004007E5B3
:1019DF0040D3941E4004E4F540221540120B2CD244
:0519EF0001751C01223E
:091B8A00309103C29122D2912294
:1013020020B00C751C01D2017F147E00121A8630A7
:10131200910F30900C751C01D2017F467E00121A8B
:10132200862001030213A8E51C600DD280D282D26E
:10133200817F467E00121A86E53BB4010DC280D23F
:1013420082D2817F077E00121A86E53BB4020DD25B
:1013520080C282D2817F077E00121A86E53BB403E7
:101362000DD280D282C2817F077E00121A86E53CAE
:10137200B4010DC297D296D2957F077E00121A86CB
:10138200E53CB4020DD297C296D2957F077E001239
:101392001A86E53CB4030DD297D296C2957F077E9A
:0713A20000121A86C20122AD
:01005A002283
:1018E70053B1BF53B2BF53B17F53B27F75985043C3
:1018F7008920438780438E1053C4DFAB07AA06A90C
:1019070005A8047F407E427D0F7C00120DCAEF04BC
:09191700F404F58DD28ED2992260
:1015B4008F448E438D428C4153B1BF53B2BF53B15C
:1015C4007F53B27F75985043878053C4F843C42037
:1015D400AB44AA43A942A8417F407E427D0F7C00D0
:1015E400120DCAC374FF9FFF74FF9EFEE49DFDE4C9
:1015F4009CFC7808120E838FC6AB44AA43A942A868
:10160400417F407E427D0F7C00120DCAC374FF9F50
:09161400FF8FC543C408D29922DE
:070003003098FDAF99C2988F
:01000A0022D3
:081B9C00C2998F993099FD22D6
:10161D008F488E478D468C4553B1FB53B2FB53B368
:10162D00BF53B4BF75F85075C40853C4DFAB48AA97
:10163D0047A946A8457F407E427D0F7C00120DCA0A
:10164D00C374FF9FFF74FF9EFEE49DFDE49CFC7838
:10165D0008120E838FC6AB48AA47A946A8457F40FE
:10166D007E427D0F7C00120DCAC374FF9FFF8FC594
:04167D0043C4082238
:071BA40030F8FDAF9AC2F812
:011BAB002217
:081BAC00C2F98F9A30F9FD2205
:101A6C00EF4E6015E4FDFC0DBD00010CBC05F8BD8E
:091A7C0082F5EF1F70EA1E80E7FD
:011A8500223E
:101A8600EF4E6015E4FDFC0DBD00010CBC38F8BD41
:091A960054F5EF1F70EA1E80E711
:011A9F002224
:101809008F4C8E4B8D4A8C49538EEF438910D28E63
:10181900E4FFFEFDFCAB4CAA4BA94AA849C3120E32
:10182900726025758BCA758DFA308FFDC28FE54CB4
:1018390024FFF54CE54B34FFF54BE54A34FFF54AF7
:0B184900E54934FFF54980C8C28E223B
:101854008F508E4F8D4E8C4D538EEF438910D28E08
:10186400E4FFFEFDFCAB50AA4FA94EA84DC3120ED7
:10187400726025758BEA758DCB308FFDC28FE55074
:1018840024FFF550E54F34FFF54FE54E34FFF54E98
:0B189400E54D34FFF54D80C8C28E22E8
:1016D5008F548E538D528C5153C9BF53C9DF43C9A3
:1016E50010D2CAE4FFFEFDFCAB54AA53A952A8517F
:1016F500C3120E72602575CC3075CDF830CFFDC2A2
:10170500CFE55424FFF554E55334FFF553E5523442
:0E171500FFF552E55134FFF55180C8C2CA22DB
:101723008F588E578D568C5575C40743C408E4FFF4
:10173300FEFDFCAB58AA57A956A855C3120E7260FA
:101743002875C52C75C6CFE5C430E4FB53C4EFE55B
:101753005824FFF558E55734FFF557E55634FFF5A0
:0D17630056E55534FFF55580C553C4F722F7
:101770008F5C8E5B8D5A8C5975C40743C408E4FF97
:10178000FEFDFCAB5CAA5BA95AA859C3120E72609D
:101790002875C5D875C6FFE5C430E4FB53C4EFE532
:1017A0005C24FFF55CE55B34FFF55BE55A34FFF53F
:0D17B0005AE55934FFF55980C553C4F7229E
:0C14D300015E00016000015F00015D008F
:0D1B2F00E4FFC2EFD2EE30EFFDAFC3055E64
:011B3C002286
:10154600E55F6069E560120E961592011592021527
:101556009203159704159C0515A10615AB07159260
:1015660008157E10158820158D30158340157AF0E4
:10157600000015B0B2008032431E02802D431E01CA
:101586008028431E048023431E08801E1219F480FF
:1015960019753C038008753C028003753C01120FE7
:0E15A600CAD2018005121B8AD201E4F55F2231
:10003E0053B1EF53B2EF53E8F043E80543B1105319
:0C004E00B2EFE4F5F643F62043E1012296
:03005B00021B93F2
:091B9300C2EF85C35D755F0132EC
:1014DF0002340000013A00013700C103C104C10505
:0C14EF0001330001390001380001360013
:101B1D00538EF75389F0438901758CCB758AEAD2C0
:021B2D00A922EB
:10119500200303021255121B2F7534008F35853538
:1011A5003AE53730E7020538E53AC394FD5060E586
:1011B5003A94B04006433781021253E53AD39490EE
:1011C5004017E53730E10DE538D394084006755FE3
:1011D500017560204337828075E53AD394704017D6
:1011E500E53730E20DE538D394084006755F0175A3
:1011F50060304337848057E53AD3945040054337F0
:1012050088804BE53AD394304044433790803FE59E
:101215003730E73530E006755F017560F0E537304A
:10122500E106755F01756020E53730E206755F01FF
:10123500756030E53730E306755F01756040E53769
:1012450030E406755F01756010E4F537F538C203C3
:011255002276
:03000B0002195384
:10195300C0E0C0D0C28C758CEA758AEA05330536BF
:10196300E533D394094005D203753300E536D394A8
:0F197300194005D204753600D28CD0D0D0E032A6
:10005E0000A50000A50000C30000A41100000000D0
:10006E000000000000101D3F000000000000000016
:10007E00000000000000000000007FFFFF000000F5
:10008E000000000000000000000000007FFFFF00E5
:10009E00C80083C4D5FFABFB241009FFABFA0800E0
:1000AE0009FFABFA000009FFABFBA41829FFAD84D2
:1000BE00000018FFAD85001FFFFFAD81001212FF7B
:1000CE00AD82001414FFAD83000088FFAD80005494
:1000DE0054FFAD87005454FFAD86000000FFAD867F
:1000EE00000001FFAD8600000000C20000C97A00CA
:1000FE00DF1E00DB7800DB7800C70000E00A00D5C9
:10010E005300E33E00CF0000E17000CB0000E22F71
:10011E0000D96200E52F00E47000D73001D09A00BC
:10012E00C60100DD0100D40A00DA0600DC0000A1E1
:10013E000500000000000400002700001600006B00
:10014E0000D80000A105000001000000000017000B
:10015E00003A00007B00D80000A10500000200005C
:10016E000300007C00003A00000000D80000A1054A
:10017E0000000300000000002300007F0000630069
:10018E00D80000A1050000040000000000310000AE
:10019E000D00002A00D80000A10500000500000097
:1001AE0000005600000D00003B00D80000A1050025
:1001BE00000600000000004400003A00004A00D88B
:1001CE000000A105000007000000000066000024EA
:1001DE0000001600D80000A1050000080000000075
:1001EE00005C00002400001D00D80000A1050000E6
:1001FE000900000000006D00003A00002500D80044
:10020E0000CF0100D10000D10900D11200D11B0096
:10021E00D12400D12D00D13600D13F00D14800D1DC
:10022E004C00D10C00CF0000D21300CF0000D32120
:10023E0000D61900CF0000E86100E94700CF00FFAB
:10024E00ABF30000C1FFABF4000001FFABF5301AB9
:10025E0048FFABF620EE7DFFABF7029078FFABF4D4
:10026E00000002FFABF5101A4AFFABF621E60006BE
:10027E00AA0600A27B61F4000000906170000002EB
:10028E00473C0A00380A0064F40000013460F400B0
:10029E000001DA05F420FFFFFF0464A0204C0020CB
:1002AE00480044B8000CC4A000001657F4007FF7B5
:1002BE00055F5C005F580057F4007FFF385F5C00FD
:1002CE005F5800205C0020580057F4007FFFBC5F91
:1002DE005C005F580057F4007FC7295F5C005F58D1
:1002EE00000AF08000007857F4007FF63A5F5C0059
:1002FE005F580057F4007FFF275F5C005F580020B7
:10030E005C0020580057F4007FFFB65F5C005F581A
:10031E000057F4007FC2235F5C005F580054F0006A
:10032E00FFFFF10C1EE20140C60000070140C500B0
:10033E0000010AF0A200008961F40000CDAC6170EA
:10034E000000021461F40000C8326170000001FF69
:10035E0060F4000000986070000001F80BF080005F
:10036E00009800000C0BF08000D36846F4004DF8A6
:10037E00F074F40000001E4E6C0000000C55BE0020
:10038E000140CEFFFF3F30FF0004CDCD20001B22E9
:10039E00090000000B0D104A00000A0A9DA1000082
:1003AE009F22090000000B0D104A0000040A9D81D7
:1003BE000000A508451A56F4000003FF200062084D
:1003CE00CC1A07F02D00003E57F0000002AC45F4A9
:1003DE000000000245F46AFF0FFF20006E5570000A
:0C03EE000002AC00000C00AC0000850018
:1007960000A50000A50000C30000A4110000000091
:1007A6000000000000101D3F0000000000000000D7
:1007B600000000000000000000007FFFFF000000B6
:1007C6000000000000000000000000007FFFFF00A6
:1007D600C80083C4D5FFABFB241009FFABFA0800A1
:1007E60009FFABFA000009FFABFBA41829FFAD8493
:1007F600000018FFAD85001FFFFFAD81001212FF3C
:10080600AD82001414FFAD83000088FFAD80005454
:1008160054FFAD87005454FFAD86000000FFAD863F
:10082600000001FFAD8600000000C20000C978008C
:10083600DF1E00DB7800DB7800C70000E00A00D589
:100846005300E33E00CF0400E17000CB0000E22F2E
:1008560000D97500E52F00E47000D73001D09A006A
:10086600C60100DD0100D40000DA0600DC0000A1AC
:100876000500000000000400001B00001600003BFD
:1008860000D80000A10500000100000000001200D1
:10089600003A00003F00D80000A105000002000059
:1008A6000000001800003A00005D00D80000A10515
:1008B60000000300000000002100000D00002100E0
:1008C600D80000A10500000400000000003200006E
:1008D6000D00003900D80000A10500000500000049
:1008E60000006800003A00002F00D80000A10500B3
:1008F600000600000000006E00003A00004100D82B
:100906000000A105000007000000000065000024AB
:1009160000002600D80000A1050000080000030022
:10092600007D00000D00000D00D80000A1050000AC
:100936000900000000006100000D00003F00D80023
:1009460000CF0100D10000D10900D11200D11B0057
:10095600D12400D12D00D13600D13F00D14800D19D
:100966004C00D11400CF0400D21400CF0400CF04F1
:1009760000E85800E94E00CF04FFABF30000C1FFCA
:10098600ABF4000001FFABF5301A48FFABF620EEE2
:100996007DFFABF7029078FFABF4000002FFABF5EA
:1009A600101A4AFFABF621E60006AA0600A27B61F2
:1009B600F4000000906170000002473C0A00380A0B
:1009C6000064F40000013460F4000001DA05F4204C
:1009D600FFFFFF0464A0204C0020480044B8000C30
:1009E600C4A000001657F4007FF7055F5C005F584F
:1009F6000057F4007FFF385F5C005F5800205C0002
:100A060020580057F4007FFFBC5F5C005F5800571A
:100A1600F4007FC7295F5C005F58000AF080000081
:100A26007857F4007FF63A5F5C005F580057F40091
:100A36007FFF275F5C005F5800205C00205800574E
:100A4600F4007FFFB65F5C005F580057F4007FC27A
:100A5600235F5C005F580054F000FFFFF10C1EE2BC
:100A66000140C60000070140C50000010AF0A200CF
:100A7600008961F40000CDAC61700000021461F4DD
:100A86000000C8326170000001FF60F400000098A9
:100A96006070000001F80BF08000009800000C0B5D
:100AA600F08000D36846F4004DF8F074F4000000BE
:100AB6001E4E6C0000000C55BE000140CEFFFF3FED
:100AC60030FF0004CDCD20001B22090000000B0DD5
:100AD600104A00000A0A9DA100009F22090000009A
:100AE6000B0D104A0000040A9D810000A508451A56
:100AF60056F4000003FF20006208CC1A07F02D0010
:100B0600003E57F0000002AC45F40000000245F438
:100B16006AFF0FFF20006E5570000002AC00000C4B
:060B260000AC0000850098
:1003FA0000A50000A50000C30000A4110000000031
:10040A000000000000101D3F000000000000000076
:10041A00000000000000000000007FFFFF00000055
:10042A000000000000000000000000007FFFFF0045
:10043A00C80083C4D5FFABFB241009FFABFA080040
:10044A0009FFABFA000009FFABFBA41829FFAD8432
:10045A00000018FFAD85001FFFFFAD81001212FFDB
:10046A00AD82001414FFAD83000088FFAD800054F4
:10047A0054FFAD87005454FFAD86000000FFAD86DF
:10048A00000001FFAD8600000000C20000C97A002A
:10049A00DF1E00DB7800DB7800C70000E00A00D529
:1004AA005900E35000CF0000E17000CB0000E22FBA
:1004BA0000D96F00E52F00E47000D73001D09A0010
:1004CA00C60100DD0100D40000DA0000DC0000A152
:1004DA000500000000000400001E00001600006B6A
:1004EA0000D80000A1050000010000000000000083
:1004FA00003A00003F00D80000A1050000020000F9
:10050A000000002B00003A00002B00D80000A105D3
:10051A0000000300000000002400003A00005E0012
:10052A00D80000A105000004000000000037000008
:10053A000D00003000D80000A105000005000000F1
:10054A0000006E00000D00002B00D80000A105007D
:10055A00000600000000004300003A00004500D8F1
:10056A000000A10500000700000000006500000D62
:10057A0000002900D80000A10500000800000000C2
:10058A00001200000D00001B00D80000A1050000A9
:10059A000900000200007000001700003D00D800AA
:1005AA0000CF0100D10000D10900D11200D11B00F7
:1005BA00D12400D12D00D13600D13F00D14800D13D
:1005CA004C00D10700CF0000D22E00CF0000D31379
:1005DA0000D60B00CF0000E85100E94800CF00FF29
:1005EA00ABF30000C1FFABF4000001FFABF5301A1A
:1005FA0048FFABF620EE7DFFABF7029078FFABF435
:10060A00000002FFABF5101A4AFFABF621E600061E
:10061A00AA0600A27B61F40000009061700000024B
:10062A00473C0A00380A0064F40000013460F40010
:10063A000001DA05F420FFFFFF0464A0204C00202B
:10064A00480044B8000CC4A000001657F4007FF715
:10065A00055F5C005F580057F4007FFF385F5C005D
:10066A005F5800205C0020580057F4007FFFBC5FF1
:10067A005C005F580057F4007FC7295F5C005F5831
:10068A00000AF08000007857F4007FF63A5F5C00B9
:10069A005F580057F4007FFF275F5C005F58002017
:1006AA005C0020580057F4007FFFB65F5C005F587B
:1006BA000057F4007FC2235F5C005F580054F000CB
:1006CA00FFFFF10C1EE20140C60000070140C50011
:1006DA0000010AF0A200008961F40000CDAC61704B
:1006EA000000021461F40000C8326170000001FFCA
:1006FA0060F4000000986070000001F80BF08000C0
:10070A00009800000C0BF08000D36846F4004DF806
:10071A00F074F40000001E4E6C0000000C55BE0080
:10072A000140CEFFFF3F30FF0004CDCD20001B2249
:10073A00090000000B0D104A00000A0A9DA10000E2
:10074A009F22090000000B0D104A0000040A9D8137
:10075A000000A508451A56F4000003FF20006208AD
:10076A00CC1A07F02D00003E57F0000002AC45F409
:10077A000000000245F46AFF0FFF20006E5570006A
:0C078A000002AC00000C00AC0000850078
:051AF600121AFBD2935F
:0E1AFB00E4FFFE0FBF00010EEF64324E70F5E7
:011B090022B9
:041BB400C29280FC5D
:0A1B6200D293121AFBD294021AFB70
:0A1B6C00D294121AF6C294021AFB7A
:10192000900000D293121AFB309423AF82AE83E46E
:10193000FCFD7B507AC3F9F8D3120E5C4010A3E58E
:1019400082B488E4E583B413DF121BB480DAC29357
:03195000021AFB7D
:0A1B7600C294121AF6D294021AFB70
:10198200AD07E4FCC293121AFBED30E704D2948057
:1019920002C294ED25E0FD121AF60CBC08E6C293D1
:0819A200121AFBD294021AFB99
:10000E00C20A121AFBD209121AFBE4FCD20A121A05
:10001E00FBED25E0FFA209E4334FFDC20A121AFBE5
:09002E000CBC08E8121AFBAF0536
:0100370022A6
:0817BD008B2B8A2C892DAD074E
:1017C500E4F532121B6CAF05121982121920E4F5EB
:1017D50032AF32E4FCFDFEAB31AA30A92FA82ED3DF
:1017E500120E72401CAB2B052DE52DAA2C7002059F
:1017F5002C14F9120D63FF1219821219200532807B
:04180500D0021B767C
:1014FB00041300000000011800011900011A00017B
:10150B000B00C106C107C108011000011200011731
:10151B0000010A00010C00010E00010D00011B006F
:0C152B00010800010900010F000111007F
:101AB70043B10853B2F7D28353E9DF43EA0853EB44
:051AC700F7439B022221
:03003B000210B6FA
:1010B600C0E0C0F0C083C082C0D075D000C000C000
:0D10C60001C002C003C004C005C006C00781
:1010D300752200752300752400E5EC20E30302115B
:1010E3007753ECF7539BFD052205247F017E001205
:1010F3001A6C3083F4E524C394055002806E752482
:101103000005247F017E00121A6C2083F4752400ED
:101113007522007523003083FD7F017E00121A6C57
:1011230030831C74132522F8C000E6FFC313D000DC
:10113300F674132522F8E64480F630831080FB749E
:10114300132522F8C000E6FFC313D000F60523E5FC
:1011530023C3940840C00522E522C3940440B4305D
:1011630083FD121ACC7F037E00121A6C121B80437C
:071173009B02800375EC00F4
:10117A00D007D006D005D004D003D002D001D000C9
:0B118A00D0D0D082D083D0F0D0E03273
:101ACC00E516F4B51509851518121B80D20622E40B
:051ADC00F518C206220E
:091B80007F047813E4F608DFFC91
:011B89002239
:100EBC00E4F527200403020FC9C204E51920E70357
:100ECC00020F78051AE5186003020F78F51A3091B5
:100EDC000FC291E50B64146005E50BB41502D291B9
:100EEC00E50B120E960F16100F25110F57120F5FF0
:100EFC00130F67140F6F150F2D160F35410F3D4A49
:100F0C000F454B0F4D4C00000F75E50EC39404506C
:100F1C0058755F807560018050755F8075600280C8
:100F2C0048755F807560038040755F807560408098
:100F3C0038755F807560048030755F8075600580E2
:100F4C0028755F80051B756006801E755F80756057
:100F5C00208016755F80756030800E755F807560BF
:100F6C00F08006755F80756007E4F51930064EC297
:100F7C000685180BE50B641460053090028005E5BE
:100F8C000BB41403431980E51AD39402402CE518D2
:100F9C0024EE601814601D2403701F050EE50ED39B
:100FAC0094044016755F80756008800E755F8075BF
:0D0FBC0060208006755F80756030E4F518D8
:010FC9002205
:10189F00FFAD83000088FFAD86000000FFAD86001E
:1018AF000001FFAD86000000FFAD83000099FFAD82
:1018BF0086000000FFAD86000001FFAD860000002E
:1018CF00FFAD830000AAFFAD86000000FFAD8600CC
:0818DF000001FFAD86000000CE
:0E153700013B01013C0201400F033D01D09A2F
:100FCA00D291E53C24FE6052147003021068240298
:100FDA0060030210AAE4F527F528AE27AF287C00A3
:100FEA007D03120D7C74FA2FF974033EFA7BFFE439
:100FFA00753103F530F52FF52E7FE61217BD121A5B
:10100A00FB121AFB0528E52870020527C39434E56C
:10101A00276480948140C30210AAE4F527F528AE1C
:10102A0027AF287C007D03120D7C74962FF9740774
:10103A003EFA7BFFE4753103F530F52FF52E7FE696
:10104A001217BD121AFB121AFB0528E528700205B1
:10105A0027C39434E5276480948140C38042E4F531
:10106A0027F528AE27AF287C007D03120D7C745E1D
:10107A002FF974003EFA7BFFE4753103F530F52F42
:10108A00F52E7FE61217BD121AFB121AFB0528E588
:10109A002870020527C39434E5276480948140C3ED
:0B10AA001213A9754016120B2CC29106
:0110B5002218
:100B2C00E540B41F004003020D62900B3DF82828ED
:100B3C0073020B9A020BA1020BA9020BB1020BB9A7
:100B4C00020BC1020BCF020BDF020BEF020BFF02F9
:100B5C000C0F020C1F020C2F020C3F020C4F020C4C
:100B6C005F020C6F020C7F020C8F020C9F020CAF09
:100B7C00020CBF020CCF020CDE020CED020CFC02CC
:100B8C000D0B020D1A020D29020D38020D47E4F56A
:100B9C003DF53F8026E4F53D753F50801EE4F53D64
:100BAC00753F648016E4F53D753F96800EE4F53D87
:100BBC00753FC88006E4F53D753FFAFB7A00793D38
:100BCC00020D54753D01753F137B007A00793DE4AD
:100BDC00020D54753D01753F2C7B007A00793DE484
:100BEC00020D54753D01753F317B007A00793DE46F
:100BFC00020D54753D01753F367B007A00793DE45A
:100C0C00020D54753D01753F3B7B007A00793DE444
:100C1C00020D54753D01753F407B007A00793DE42F
:100C2C00020D54753D01753F457B007A00793DE41A
:100C3C00020D54753D01753F4A7B007A00793DE405
:100C4C00020D54753D01753F4F7B007A00793DE4F0
:100C5C00020D54753D01753F547B007A00793DE4DB
:100C6C00020D54753D01753F597B007A00793DE4C6
:100C7C00020D54753D01753F5E7B007A00793DE4B1
:100C8C00020D54753D01753F637B007A00793DE49C
:100C9C00020D54753D01753F687B007A00793DE487
:100CAC00020D54753D01753F6D7B007A00793DE472
:100CBC00020D54753D01753F727B007A00793DE45D
:100CCC00020D54753D01753F777B007A00793DE448
:100CDC008076753D01753F7C7B007A00793DE48020
:100CEC0067753D01753F817B007A00793DE4805842
:100CFC00753D01753F867B007A00793DE48049752E
:100D0C003D01753F8B7B007A00793DE4803A753D5F
:100D1C0001753F907B007A00793DE4802B753D0195
:100D2C00753F957B007A00793DE4801C753D01751B
:100D3C003F987B007A00793DE4800D753D01753F4D
:100D4C009A7B007A00793DE4753103F530F52FF587
:070D5C002E7FE61217BD22F5
:011BB800220A
:03003800020FCAEA
:1013A900E53B64017031F529E52975F003A4249F13
:1013B900F9741835F0FA7BFFE4753103F530F52F30
:1013C900F52E7FE61217BD121AFB121AFB0529E545
:1013D90029C3940840D222E53B64027031F529E51E
:1013E9002975F003A424B7F9741835F0FA7BFFE4E2
:1013F900753103F530F52FF52E7FE61217BD121A58
:10140900FB121AFB0529E529C3940840D222E53BC2
:1014190064037030F529E52975F003A424CFF97424
:101429001835F0FA7BFFE4753103F530F52FF52E09
:101439007FE61217BD121AFB121AFB0529E529C30B
:04144900940840D2F1
:01144D00227C
:1019F40030851DE56024FE600E14600E24FB600D2E
:101A04002407700C021B0A021B56021B4A121AE11D
:011A140022AF
:101AE100D287D2867F2C7E01121A86C287C286E4F3
:051AF100F561F50E2275
:101B0A00D287D2867F197E00121A86C287C286E4DD
:031B1A00F50E22A3
:0C1B4A00D2877F197E00121A86C2872203
:0C1B5600D2867F197E00121A86C28622F9
:0300000002125693
:1012560075C7AA75C75575FD5A75C7AA75C7557559
:10126600FDA5787FE4F6D8FD9000007FFF7E03E4BD
:0C127600F0A3DFFCDEFA7581620212BDFD
:1012820002144EE493A3F8E493A34003F68001F220
:1012920008DFF48029E493A3F85407240CC8C3336D
:1012A200C4540F4420C8834004F456800146F6DF3C
:1012B200E4800B01020408102040809014CCE47EEC
:1012C200019360BCA3FF543F30E509541FFEE49331
:1012D200A360010ECF54C025E060A840B8E493A3F8
:1012E200FAE493A3F8E493A3C8C582C8CAC583CA23
:1012F200F0A3C8C582C8CAC583CADFE9DEE780BEDB
:0115450000A5
:100D6300BB010689828A83E0225002E722BBFE028E
:090D7300E32289828A83E49322C1
:100D7C00EF8DF0A4A8F0CF8CF0A428CE8DF0A42E8B
:020D8C00FE2245
:100D8E0075F008758200EF2FFFEE33FECD33CDCC1C
:100D9E0033CCC58233C5829BED9AEC99E58298409F
:100DAE000CF582EE9BFEED9AFDEC99FC0FD5F0D67C
:100DBE00E4CEFBE4CDFAE4CCF9A88222B800C1B9A6
:100DCE000059BA002DEC8BF084CFCECDFCE5F0CBE4
:100DDE00F97818EF2FFFEE33FEED33FDEC33FCEB1D
:100DEE0033FB10D703994004EB99FB0FD8E5E4F9D8
:100DFE00FA227818EF2FFFEE33FEED33FDEC33FCC5
:100E0E00C933C910D7059BE99A4007EC9BFCE99AB8
:100E1E00F90FD8E0E4C9FAE4CCFB2275F010EF2FFD
:100E2E00FFEE33FEED33FDCC33CCC833C810D707FD
:100E3E009BEC9AE899400AED9BFDEC9AFCE899F838
:0E0E4E000FD5F0DAE4CDFBE4CCFAE4C8F922CB
:100E5C00EB9FF5F0EA9E42F0E99D42F0EC6480C80D
:060E6C0064809845F022AD
:100E7200EB9FF5F0EA9E42F0E99D42F0E89C45F0D6
:010E8200224D
:100E8300E8600FECC313FCED13FDEE13FEEF13FF4D
:030E9300D8F12271
:100E9600D083D082F8E4937012740193700DA3A3EB
:100EA60093F8740193F5828883E4737402936860FF
:060EB600EFA3A3A380DFFF
:00000001FF
