:10141F00E4F50EF50F121587E50E14601214601720
:10142F0014601C240370F11214B9750E0180E912B7
:10143F001361750E0280E11213A7750E0380D91286
:07144F001489E4F50E80D1C1
:0D162C007596307597307F027E0002156DB7
:10155300E4F5B1F5B2F5B3F5B4F5ACF5AD53B3FEBF
:0A15630043B401C290C202C200228C
:1015870012162C12155312160C1215371215CE12ED
:091597001639D2AFD28CD2CA225F
:1014B90030021A300017D291D290C202C280C2976C
:1014C9007F027E0012156D121154C2912220020B67
:0C14D900200008C290D202D280D29722DC
:06168100300902B29122C3
:10136100300142E5227006C280D282D281E522B4E8
:101371000106D280C282D281E522B40206D280D295
:1013810082C281E5237006C297D296D295E523B435
:101391000106D297C296D295E523B40206D297D21E
:0613A10096C295C2012274
:01168B00223C
:1013E60053B1BF53B2BF53B17F53B27F75985043C9
:1013F6008920438780438E1053C4DFAB07AA06A912
:1014060005A8047F407E427D0F7C00120CCFEF04BE
:09141600F404F58DD28ED2992266
:100F9F008F2A8E298D288C2753B1BF53B2BF53B1DF
:100FAF007F53B27F75985043878053C4F843C42052
:100FBF00AB2AAA29A928A8277F407E427D0F7C0053
:100FCF00120CCFC374FF9FFF74FF9EFEE49DFDE4E0
:100FDF009CFC7808120D888FC6AB2AAA29A928A8CD
:100FEF00277F407E427D0F7C00120CCFC374FF9F82
:090FFF00FF8FC543C408D29922FA
:070003003098FDAF99C2988F
:01000A0022D3
:08166100C2998F993099FD2216
:101008008F2E8E2D8D2C8C2B53B1FB53B2FB53B3EB
:10101800BF53B4BF75F85075C40853C4DFAB2EAACC
:101028002DA92CA82B7F407E427D0F7C00120CCF6F
:10103800C374FF9FFF74FF9EFEE49DFDE49CFC7853
:1010480008120D888FC6AB2EAA2DA92CA82B7F407D
:101058007E427D0F7C00120CCFC374FF9FFF8FC5AB
:0410680043C4082253
:0716690030F8FDAF9AC2F852
:011670002257
:08167100C2F98F9A30F9FD2245
:10156D00EF4E6015E4FDFC0DBD00010CBC38F8BD5F
:09157D0054F5EF1F70EA1E80E72F
:011586002242
:1011ED008F328E318D308C2F538EF7438901D28CF7
:1011FD00E4FFFEFDFCAB32AA31A930A82FC3120DBE
:10120D00776025758A7E758CFF308DFDC28DE53238
:10121D0024FFF532E53134FFF531E53034FFF5309B
:0B122D00E52F34FFF52F80C8C28C2293
:101238008F158E148D138C12538EF7438901D28C1F
:10124800E4FFFEFDFCAB15AA14A913A812C3120DE6
:10125800776025758ACA758CFA308DFDC28DE515C3
:1012680024FFF515E51434FFF514E51334FFF513E1
:0B127800E51234FFF51280C8C28C2282
:101283008F0D8E0C8D0B8C0A538EEF438910D28EEB
:10129300E4FFFEFDFCAB0DAA0CA90BA80AC3120DBB
:1012A300776025758BCA758DFA308FFDC28FE50D7A
:1012B30024FFF50DE50C34FFF50CE50B34FFF50BBE
:0B12C300E50A34FFF50A80C8C28E2245
:1012CE008F368E358D348C33538EEF438910D28EFC
:1012DE00E4FFFEFDFCAB36AA35A934A833C3120DCC
:1012EE00776025758BEA758DCB308FFDC28FE53615
:1012FE0024FFF536E53534FFF535E53434FFF534A6
:0B130E00E53334FFF53380C8C28E22A7
:10106C008F3A8E398D388C3753C9BF53C9DF43C97A
:10107C0010D2CAE4FFFEFDFCAB3AAA39A938A83756
:10108C00C3120D77602575CC3075CDF830CFFDC20D
:10109C00CFE53A24FFF53AE53934FFF539E5383434
:0E10AC00FFF538E53734FFF53780C8C2CA2299
:1010BA008F3E8E3D8D3C8C3B75C40743C408E4FFCC
:1010CA00FEFDFCAB3EAA3DA93CA83BC3120D7760CE
:1010DA002875C52C75C6CFE5C430E4FB53C4EFE5CB
:1010EA003E24FFF53EE53D34FFF53DE53C34FFF592
:0D10FA003CE53B34FFF53B80C553C4F722B5
:101107008F428E418D408C3F75C40743C408E4FF6E
:10111700FEFDFCAB42AA41A940A83FC3120D776070
:101127002875C5D875C6FFE5C430E4FB53C4EFE5A1
:101137004224FFF542E54134FFF541E54034FFF530
:0D11470040E53F34FFF53F80C553C4F7225B
:08000E00014800C10801470090
:0D161E00E4FFC2EFD2EE30EFFDAFC3054890
:01162B00229C
:1014890030082CE5477002B200E547B41005120098
:101499003ED201E547B420031215A0E547B4300355
:1014A9001215B7E547B44005120D9BD201C20822B7
:1015370053B1EF53B2EF53E8F043E80543B110530B
:0C154700B2EFE4F5F643F62043E1012288
:03005B0002167911
:08167900C2EF85C347D208321D
:0E00160002440000014600C103C10401430082
:10160C00538EF75389F0438901758CCB758AEAD2D6
:02161C00A92201
:03000B00020F07DA
:100F0700C0E0C0F0C083C082C0D075D000C000C0B0
:100F170001C002C003C004C005C006C007C28C756B
:100F27008CEA758AEA0543E543D39405404D1216CA
:100F37001E7544008F45854546E546C394FD5038E8
:100F4700E54694B04004B200802EE546D394904025
:100F570004B2978023E546D394704004B296801874
:100F6700E546D3945040060522D201800BE546D3CF
:100F7700943040040523D201754300D28CD007D0AA
:100F870006D005D004D003D002D001D000D0D0D0F5
:080F970082D083D0F0D0E032DB
:10005E0000A50000A50000C30000A41100000000D0
:10006E000000000000101D3F000000000000000016
:10007E00000000000000000000007FFFFF000000F5
:10008E000000000000000000000000007FFFFF00E5
:10009E00C80083C4D5FFABFB241009FFABFA0800E0
:1000AE0009FFABFA000009FFABFBA41829FFAD84D2
:1000BE00000018FFAD85001FFFFFAD81001212FF7B
:1000CE00AD82001414FFAD83000088FFAD80005494
:1000DE0054FFAD87005454FFAD86000000FFAD867F
:1000EE00000001FFAD8600000000C20000C97A00CA
:1000FE00DF1E00DB7800DB7800C70000E00A00D5C9
:10010E005300E33E00CF0000E17000CB0000E22F71
:10011E0000D96200E52F00E47000D73001D09A00BC
:10012E00C60100DD0100D40A00DA0600DC0000A1E1
:10013E000500000000000400002700001600006B00
:10014E0000D80000A105000001000000000017000B
:10015E00003A00007B00D80000A10500000200005C
:10016E000300007C00003A00000000D80000A1054A
:10017E0000000300000000002300007F0000630069
:10018E00D80000A1050000040000000000310000AE
:10019E000D00002A00D80000A10500000500000097
:1001AE0000005600000D00003B00D80000A1050025
:1001BE00000600000000004400003A00004A00D88B
:1001CE000000A105000007000000000066000024EA
:1001DE0000001600D80000A1050000080000000075
:1001EE00005C00002400001D00D80000A1050000E6
:1001FE000900000000006D00003A00002500D80044
:10020E0000CF0100D10000D10900D11200D11B0096
:10021E00D12400D12D00D13600D13F00D14800D1DC
:10022E004C00D10C00CF0000D21300CF0000D32120
:10023E0000D61900CF0000E86100E94700CF00FFAB
:10024E00ABF30000C1FFABF4000001FFABF5301AB9
:10025E0048FFABF620EE7DFFABF7029078FFABF4D4
:10026E00000002FFABF5101A4AFFABF621E60006BE
:10027E00AA0600A27B61F4000000906170000002EB
:10028E00473C0A00380A0064F40000013460F400B0
:10029E000001DA05F420FFFFFF0464A0204C0020CB
:1002AE00480044B8000CC4A000001657F4007FF7B5
:1002BE00055F5C005F580057F4007FFF385F5C00FD
:1002CE005F5800205C0020580057F4007FFFBC5F91
:1002DE005C005F580057F4007FC7295F5C005F58D1
:1002EE00000AF08000007857F4007FF63A5F5C0059
:1002FE005F580057F4007FFF275F5C005F580020B7
:10030E005C0020580057F4007FFFB65F5C005F581A
:10031E000057F4007FC2235F5C005F580054F0006A
:10032E00FFFFF10C1EE20140C60000070140C500B0
:10033E0000010AF0A200008961F40000CDAC6170EA
:10034E000000021461F40000C8326170000001FF69
:10035E0060F4000000986070000001F80BF080005F
:10036E00009800000C0BF08000D36846F4004DF8A6
:10037E00F074F40000001E4E6C0000000C55BE0020
:10038E000140CEFFFF3F30FF0004CDCD20001B22E9
:10039E00090000000B0D104A00000A0A9DA1000082
:1003AE009F22090000000B0D104A0000040A9D81D7
:1003BE000000A508451A56F4000003FF200062084D
:1003CE00CC1A07F02D00003E57F0000002AC45F4A9
:1003DE000000000245F46AFF0FFF20006E5570000A
:0C03EE000002AC00000C00AC0000850018
:1007960000A50000A50000C30000A4110000000091
:1007A6000000000000101D3F0000000000000000D7
:1007B600000000000000000000007FFFFF000000B6
:1007C6000000000000000000000000007FFFFF00A6
:1007D600C80083C4D5FFABFB241009FFABFA0800A1
:1007E60009FFABFA000009FFABFBA41829FFAD8493
:1007F600000018FFAD85001FFFFFAD81001212FF3C
:10080600AD82001414FFAD83000088FFAD80005454
:1008160054FFAD87005454FFAD86000000FFAD863F
:10082600000001FFAD8600000000C20000C978008C
:10083600DF1E00DB7800DB7800C70000E00A00D589
:100846005300E33E00CF0400E17000CB0000E22F2E
:1008560000D97500E52F00E47000D73001D09A006A
:10086600C60100DD0100D40000DA0600DC0000A1AC
:100876000500000000000400001B00001600003BFD
:1008860000D80000A10500000100000000001200D1
:10089600003A00003F00D80000A105000002000059
:1008A6000000001800003A00005D00D80000A10515
:1008B60000000300000000002100000D00002100E0
:1008C600D80000A10500000400000000003200006E
:1008D6000D00003900D80000A10500000500000049
:1008E60000006800003A00002F00D80000A10500B3
:1008F600000600000000006E00003A00004100D82B
:100906000000A105000007000000000065000024AB
:1009160000002600D80000A1050000080000030022
:10092600007D00000D00000D00D80000A1050000AC
:100936000900000000006100000D00003F00D80023
:1009460000CF0100D10000D10900D11200D11B0057
:10095600D12400D12D00D13600D13F00D14800D19D
:100966004C00D11400CF0400D21400CF0400CF04F1
:1009760000E85800E94E00CF04FFABF30000C1FFCA
:10098600ABF4000001FFABF5301A48FFABF620EEE2
:100996007DFFABF7029078FFABF4000002FFABF5EA
:1009A600101A4AFFABF621E60006AA0600A27B61F2
:1009B600F4000000906170000002473C0A00380A0B
:1009C6000064F40000013460F4000001DA05F4204C
:1009D600FFFFFF0464A0204C0020480044B8000C30
:1009E600C4A000001657F4007FF7055F5C005F584F
:1009F6000057F4007FFF385F5C005F5800205C0002
:100A060020580057F4007FFFBC5F5C005F5800571A
:100A1600F4007FC7295F5C005F58000AF080000081
:100A26007857F4007FF63A5F5C005F580057F40091
:100A36007FFF275F5C005F5800205C00205800574E
:100A4600F4007FFFB65F5C005F580057F4007FC27A
:100A5600235F5C005F580054F000FFFFF10C1EE2BC
:100A66000140C60000070140C50000010AF0A200CF
:100A7600008961F40000CDAC61700000021461F4DD
:100A86000000C8326170000001FF60F400000098A9
:100A96006070000001F80BF08000009800000C0B5D
:100AA600F08000D36846F4004DF8F074F4000000BE
:100AB6001E4E6C0000000C55BE000140CEFFFF3FED
:100AC60030FF0004CDCD20001B22090000000B0DD5
:100AD600104A00000A0A9DA100009F22090000009A
:100AE6000B0D104A0000040A9D810000A508451A56
:100AF60056F4000003FF20006208CC1A07F02D0010
:100B0600003E57F0000002AC45F40000000245F438
:100B16006AFF0FFF20006E5570000002AC00000C4B
:060B260000AC0000850098
:1003FA0000A50000A50000C30000A4110000000031
:10040A000000000000101D3F000000000000000076
:10041A00000000000000000000007FFFFF00000055
:10042A000000000000000000000000007FFFFF0045
:10043A00C80083C4D5FFABFB241009FFABFA080040
:10044A0009FFABFA000009FFABFBA41829FFAD8432
:10045A00000018FFAD85001FFFFFAD81001212FFDB
:10046A00AD82001414FFAD83000088FFAD800054F4
:10047A0054FFAD87005454FFAD86000000FFAD86DF
:10048A00000001FFAD8600000000C20000C97A002A
:10049A00DF1E00DB7800DB7800C70000E00A00D529
:1004AA005900E35000CF0000E17000CB0000E22FBA
:1004BA0000D96F00E52F00E47000D73001D09A0010
:1004CA00C60100DD0100D40000DA0000DC0000A152
:1004DA000500000000000400001E00001600006B6A
:1004EA0000D80000A1050000010000000000000083
:1004FA00003A00003F00D80000A1050000020000F9
:10050A000000002B00003A00002B00D80000A105D3
:10051A0000000300000000002400003A00005E0012
:10052A00D80000A105000004000000000037000008
:10053A000D00003000D80000A105000005000000F1
:10054A0000006E00000D00002B00D80000A105007D
:10055A00000600000000004300003A00004500D8F1
:10056A000000A10500000700000000006500000D62
:10057A0000002900D80000A10500000800000000C2
:10058A00001200000D00001B00D80000A1050000A9
:10059A000900000200007000001700003D00D800AA
:1005AA0000CF0100D10000D10900D11200D11B00F7
:1005BA00D12400D12D00D13600D13F00D14800D13D
:1005CA004C00D10700CF0000D22E00CF0000D31379
:1005DA0000D60B00CF0000E85100E94800CF00FF29
:1005EA00ABF30000C1FFABF4000001FFABF5301A1A
:1005FA0048FFABF620EE7DFFABF7029078FFABF435
:10060A00000002FFABF5101A4AFFABF621E600061E
:10061A00AA0600A27B61F40000009061700000024B
:10062A00473C0A00380A0064F40000013460F40010
:10063A000001DA05F420FFFFFF0464A0204C00202B
:10064A00480044B8000CC4A000001657F4007FF715
:10065A00055F5C005F580057F4007FFF385F5C005D
:10066A005F5800205C0020580057F4007FFFBC5FF1
:10067A005C005F580057F4007FC7295F5C005F5831
:10068A00000AF08000007857F4007FF63A5F5C00B9
:10069A005F580057F4007FFF275F5C005F58002017
:1006AA005C0020580057F4007FFFB65F5C005F587B
:1006BA000057F4007FC2235F5C005F580054F000CB
:1006CA00FFFFF10C1EE20140C60000070140C50011
:1006DA0000010AF0A200008961F40000CDAC61704B
:1006EA000000021461F40000C8326170000001FFCA
:1006FA0060F4000000986070000001F80BF08000C0
:10070A00009800000C0BF08000D36846F4004DF806
:10071A00F074F40000001E4E6C0000000C55BE0080
:10072A000140CEFFFF3F30FF0004CDCD20001B2249
:10073A00090000000B0D104A00000A0A9DA10000E2
:10074A009F22090000000B0D104A0000040A9D8137
:10075A000000A508451A56F4000003FF20006208AD
:10076A00CC1A07F02D00003E57F0000002AC45F409
:10077A000000000245F46AFF0FFF20006E5570006A
:0C078A000002AC00000C00AC0000850078
:0515F8001215FDD29365
:0E15FD00E4FFFE0FBF00010EEF64324E70F5EA
:01160B0022BC
:04168700C29280FC8F
:0A163900D2931215FDD2940215FDA4
:0A164300D2941215F8C2940215FDAE
:10145600900000D2931215FD309423AF82AE83E440
:10146600FCFD7B507AC3F9F8D3120D614010A3E559
:1014760082B488E4E583B413DF12168780DAC29358
:031486000215FD4F
:0A164D00C2941215F8D2940215FDA4
:10150F00AD07E4FCC2931215FDED30E704D29480D1
:10151F0002C294ED25E0FD1215F80CBC08E6C2934B
:08152F001215FDD2940215FD16
:1014E500C2061215FDD2051215FDE4FCD206121531
:1014F500FDED25E0FFA205E4334FFDC2061215FD03
:091505000CBC08E81215FDAF054D
:01150E0022BA
:0811A1008B138A148915AD07B8
:1011A900E4F51A121643AF0512150F121456E4F599
:1011B9001AAF1AE4FCFDFEAB19AA18A917A816D391
:1011C900120D77401CAB130515E515AA147002051D
:1011D9001414F9120C68FF12150F121456051A800F
:0411E900D002164DCD
:0B002400041B00000000011F00C109C8
:1015CE0043B10853B2F7D28353E9DF43EA0853EB32
:0515DE00F7439B02220F
:03003B00020B2C89
:100B2C00C0E0C0F0C083C082C0D075D000C000C08F
:0D0B3C0001C002C003C004C005C006C00710
:100B4900750800750900E5EC20E303020C4A53EC33
:100B5900F7539BFD7508007F017E007D007C001224
:100B69001283308303020C420508E508C394084048
:100B7900E63083FD7508007F017E007D007C001250
:100B89001283208303020C420508E508C39404403C
:100B9900E62083FD7508007509003083FD7F017E1D
:100BA900007D007C0012128330831B741B2508F81A
:100BB900C000E6C313D000F6741B2508F8E644808C
:100BC900F630830F80FB741B2508F8C000E6C313B9
:100BD900D000F60509E509C3940840BE0508E508F3
:100BE900C3940440B23083FD7508007F017E007D07
:100BF900007C00121283208302803E0508E508C3A9
:100C0900942840E7D2921215E37F027E007D007C92
:100C1900001212837508007F017E007D007C00129E
:100C2900128330830280120508E508C3940640E761
:100C39003083FD2083FD3083FD121657439B0280CC
:040C49000375EC0043
:100C4D00D007D006D005D004D003D002D001D000FB
:0B0C5D00D0D0D082D083D0F0D0E032A5
:1015E300E51EF4B51D09851D1F121657D20922E405
:0515F300F51FC20922F2
:091657007F04781BE4F608DFFCB7
:011660002267
:1013A70030093BE51F24F3600F24FB601514601A16
:1013B70014601F1460208024309021120D9BD201ED
:1013C700801A3090171215A0801230900F1215B79F
:0F13D700800AB2008006309003121681C20922EC
:10131900FFAD83000088FFAD86000000FFAD8600A9
:101329000001FFAD86000000FFAD83000099FFAD0D
:1013390086000000FFAD86000001FFAD86000000B9
:10134900FFAD830000AAFFAD86000000FFAD860057
:081359000001FFAD8600000059
:0B002F000122000123000324FFD09AEF
:10115400752201E4F523F510F511AE10AF117C00F2
:101164007D03120C8174FA2FF974033EFA7BFFE4B9
:10117400751903F518F517F5167FE61211A17F010D
:101184007E007D007C001212380511E51170020505
:0C11940010C39434E5106480948140BEC8
:0111A000222C
:1015A00005267B007A007924E4751903F518F517F0
:0715B000F5167FE60211A110
:1015B70015267B007A007924E4751903F518F517C9
:0715C700F5167FE60211A1F9
:01168C00223B
:10003E000523E523B401157BFF7A0379FAE47519DC
:0D004E000AF518F517F5167FE61211A1222C
:100D9B000522E522D394034003752201E522640169
:100DAB007036F510E51075F003A42419F97413359A
:100DBB00F0FA7BFFE4751903F518F517F5167FE6C6
:100DCB001211A17F017E007D007C001212380510EC
:100DDB00E510C3940840CD22E52264027036F5106D
:100DEB00E51075F003A42431F9741335F0FA7BFF89
:100DFB00E4751903F518F517F5167FE61211A17FA7
:100E0B00017E007D007C001212380510E510C394A2
:100E1B000840CD22E52264037035F510E51075F01E
:100E2B0003A42449F9741335F0FA7BFFE475190315
:100E3B00F518F517F5167FE61211A17F017E007DDF
:0F0E4B00007C001212380510E510C3940840CD4A
:010E5A002275
:03000000020E5B92
:100E5B0075C7AA75C75575FD5A75C7AA75C7557558
:100E6B00FDA5787FE4F6D8FD9000007FFF7E03E4BC
:0C0E7B00F0A3DFFCDEFA758149020EC214
:100E870002141FE493A3F8E493A34003F68001F24E
:100E970008DFF48029E493A3F85407240CC8C3336C
:100EA700C4540F4420C8834004F456800146F6DF3B
:100EB700E4800B010204081020408090000EE47EBD
:100EC700019360BCA3FF543F30E509541FFEE49330
:100ED700A360010ECF54C025E060A840B8E493A3F7
:100EE700FAE493A3F8E493A3C8C582C8CAC583CA22
:100EF700F0A3C8C582C8CAC583CADFE9DEE780BEDA
:01003A0000C5
:100C6800BB010689828A83E0225002E722BBFE028A
:090C7800E32289828A83E49322BD
:100C8100EF8DF0A4A8F0CF8CF0A428CE8DF0A42E87
:020C9100FE2241
:100C930075F008758200EF2FFFEE33FECD33CDCC18
:100CA30033CCC58233C5829BED9AEC99E58298409B
:100CB3000CF582EE9BFEED9AFDEC99FC0FD5F0D678
:100CC300E4CEFBE4CDFAE4CCF9A88222B800C1B9A2
:100CD3000059BA002DEC8BF084CFCECDFCE5F0CBE0
:100CE300F97818EF2FFFEE33FEED33FDEC33FCEB19
:100CF30033FB10D703994004EB99FB0FD8E5E4F9D4
:100D0300FA227818EF2FFFEE33FEED33FDEC33FCC0
:100D1300C933C910D7059BE99A4007EC9BFCE99AB4
:100D2300F90FD8E0E4C9FAE4CCFB2275F010EF2FF9
:100D3300FFEE33FEED33FDCC33CCC833C810D707F9
:100D43009BEC9AE899400AED9BFDEC9AFCE899F834
:0E0D53000FD5F0DAE4CDFBE4CCFAE4C8F922C7
:100D6100EB9FF5F0EA9E42F0E99D42F0EC6480C809
:060D710064809845F022A9
:100D7700EB9FF5F0EA9E42F0E99D42F0E89C45F0D2
:010D87002249
:100D8800E8600FECC313FCED13FDEE13FEEF13FF49
:030D9800D8F1226D
:00000001FF
