:10116000E4F50FF5101217A8E50FB4090050F99037
:101170001176F82828730211910211990211A10227
:1011800011A90211B10211B90211C10211C9021152
:10119000D1121341750F0180CF121774750F0280A1
:1011A000C71216ED750F0380BF121756750F048016
:1011B000B7121712750F0580AF12104E750F06800B
:1011C000A712126D750F07809F1211E7750F088027
:1011D0009730850E30B0081218B9E4F54E800375CB
:0711E0004E01E4F50F8081D0
:0D1840007596307597307F027E0002178E7E
:10173700E4F5B1F5B2F5B3F5B4F5ACF5AD53B3FED9
:0F17470043B401C290C285F51D751E20C2002259
:1017A80012184012173712181012003E1217BF12E3
:0717B8001865D2AFD28C22AC
:07161B00021D0000011C008C
:10134100E51E30E435300032C2AFD291D290531E47
:10135100EF431E207F147E0012178ED2AFD28C4332
:101361001E021523121774431E0115221216ED4396
:101371001E041527121756C29122E51E30E52420BE
:101381000021C2AFD291C290531EDF431E10D28002
:10139100D282D281D297D296D2957F1E7E00121729
:0413A1008ED2AF2217
:1016ED00E51E30E01F531EFEC2850522E522D39470
:1016FD000340057522018007E522B40302D285124D
:05170D000FA9D201222A
:10177400E51E30E114531EFD0523E523D3940340F5
:0A17840003752301120D6BD2012240
:10175600E51E30E218531EFBE527C3941E400475B0
:0E176600271E2205271210D7D201751C012262
:10171200E51E30E31F531EF7E527D394004007E58B
:1017220027D3941E4004E4F5272215271210D7D29E
:0517320001751C0122FD
:0618AE00300802B2912295
:1011E70020010302126CE51C600DD280D282D281ED
:1011F7007F147E0012178EE522B4010DC280D282C1
:10120700D2817F037E0012178EE522B4020DD280B1
:10121700C282D2817F037E0012178EE522B4030DAE
:10122700D280D282C2817F037E0012178EE523B45B
:10123700010DC297D296D2957F037E0012178EE5D5
:1012470023B4020DD297C296D2957F037E00121760
:101257008EE523B4030DD297D296C2957F037E0005
:0612670012178EC20122E5
:01005A002283
:1016590053B1BF53B2BF53B17F53B27F7598504353
:101669008920438780438E1053C4DFAB07AA06A99C
:1016790005A8047F407E427D0F7C00120B93EF0486
:09168900F404F58DD28ED29922F1
:1012D8008F358E348D338C3253B1BF53B2BF53B177
:1012E8007F53B27F75985043878053C4F843C42016
:1012F800AB35AA34A933A8327F407E427D0F7C00EB
:10130800120B93C374FF9FFF74FF9EFEE49DFDE4E0
:101318009CFC7808120C4C8FC6AB35AA34A933A8AC
:10132800327F407E427D0F7C00120B93C374FF9F77
:09133800FF8FC543C408D29922BD
:070003003098FDAF99C2988F
:01000A0022D3
:08189600C2998F993099FD22DF
:1013A5008F398E388D378C3653B1FB53B2FB53B31F
:1013B500BF53B4BF75F85075C40853C4DFAB39AA21
:1013C50038A937A8367F407E427D0F7C00120B93EB
:1013D500C374FF9FFF74FF9EFEE49DFDE49CFC78B3
:1013E50008120C4C8FC6AB39AA38A937A8367F40EE
:1013F5007E427D0F7C00120B93C374FF9FFF8FC548
:0414050043C40822B2
:07189E0030F8FDAF9AC2F81B
:0118A5002220
:0818A600C2F98F9A30F9FD220E
:10178E00EF4E6015E4FDFC0DBD00010CBC38F8BD3C
:09179E0054F5EF1F70EA1E80E70C
:0117A700221F
:10153D008F0E8E0D8D0C8C0B538EEF438910D28E2A
:10154D00E4FFFEFDFCAB0EAA0DA90CA80BC3120CFB
:10155D003B6025758BCA758DFA308FFDC28FE50EF8
:10156D0024FFF50EE50D34FFF50DE50C34FFF50CFC
:0B157D00E50B34FFF50B80C8C28E2286
:101588008F3D8E3C8D3B8C3A538EEF438910D28E23
:10159800E4FFFEFDFCAB3DAA3CA93BA83AC3120CF4
:1015A8003B6025758BEA758DCB308FFDC28FE53D8D
:1015B80024FFF53DE53C34FFF53CE53B34FFF53BC6
:0B15C800E53A34FFF53A80C8C28E22DD
:101409008F418E408D3F8C3E53C9BF53C9DF43C9BD
:1014190010D2CAE4FFFEFDFCAB41AA40A93FA83E99
:10142900C3120C3B602575CC3075CDF830CFFDC2A9
:10143900CFE54124FFF541E54034FFF540E53F3470
:0E144900FFF53FE53E34FFF53E80C8C2CA22E3
:101457008F458E448D438C4275C40743C408E4FF0F
:10146700FEFDFCAB45AA44A943A842C3120C3B604E
:101477002875C52C75C6CFE5C430E4FB53C4EFE52A
:101487004524FFF545E54434FFF544E54334FFF5CE
:0D14970043E54234FFF54280C553C4F722FF
:1014A4008F498E488D478C4675C40743C408E4FFB2
:1014B400FEFDFCAB49AA48A947A846C3120C3B60F1
:1014C4002875C5D875C6FFE5C430E4FB53C4EFE501
:1014D4004924FFF549E54834FFF548E54734FFF56D
:0D14E40047E54634FFF54680C553C4F722A6
:0C162200014B00014D00014C00014A008A
:0D183200E4FFC2EFD2EE30EFFDAFC3054B77
:01183F002286
:10126D00E54C6066E54D120C5F12B60112B8021224
:10127D00BD0312B60412C70512CC0612D10712A275
:10128D001012AC2012B13012A740129EF0000012C5
:10129D00D4B2008032431E02802D431E01802843AC
:1012AD001E048023431E08801E800A431E408017A3
:1012BD00431E808012431D01800D431D0280084393
:0B12CD001D048003431D08E4F54C22C3
:10003E0053B1EF53B2EF53E8F043E80543B1105319
:0C004E00B2EFE4F5F643F62043E1012296
:03005B0002188DFB
:09188D00C2EF85C34A754C01321B
:10162E0002290000012C00C103C104012800012B76
:01163E0000AB
:10181000538EF75389F0438901758CCB758AEAD2D0
:02182000A922FB
:03000B00020E449E
:100E4400C0E0C0F0C083C082C0D075D000C000C074
:100E540001C002C003C004C005C006C007C28C752F
:100E64008CEA758AEA0528E528D39414406E121892
:100E7400327529008F2A852A2CE52CC394FD5059FC
:100E8400E52C94B04008754C01754DF0804BE52C71
:100E9400D39490400A052B754C01754D208020E5B4
:100EA4002CD39470400A052B754C01754D30800F7E
:100EB400E52CD39450400C052B754C01754D407FA7
:100EC4001E8011E52CD39430400F052B754C017511
:100ED4004D107F0F7E0012178E752800D28CD0071C
:100EE400D006D005D004D003D002D001D000D0D099
:090EF400D082D083D0F0D0E032AE
:10005E0000A50000A50000C30000A41100000000D0
:10006E000000000000101D3F000000000000000016
:10007E00000000000000000000007FFFFF000000F5
:10008E000000000000000000000000007FFFFF00E5
:10009E00C80083C4D5FFABFB241009FFABFA0800E0
:1000AE0009FFABFA000009FFABFBA41829FFAD84D2
:1000BE00000018FFAD85001FFFFFAD81001212FF7B
:1000CE00AD82001414FFAD83000088FFAD80005494
:1000DE0054FFAD87005454FFAD86000000FFAD867F
:1000EE00000001FFAD8600000000C20000C97A00CA
:1000FE00DF1E00DB7800DB7800C70000E00A00D5C9
:10010E005300E33E00CF0000E17000CB0000E22F71
:10011E0000D96200E52F00E47000D73001D09A00BC
:10012E00C60100DD0100D40A00DA0600DC0000A1E1
:10013E000500000000000400002700001600006B00
:10014E0000D80000A105000001000000000017000B
:10015E00003A00007B00D80000A10500000200005C
:10016E000300007C00003A00000000D80000A1054A
:10017E0000000300000000002300007F0000630069
:10018E00D80000A1050000040000000000310000AE
:10019E000D00002A00D80000A10500000500000097
:1001AE0000005600000D00003B00D80000A1050025
:1001BE00000600000000004400003A00004A00D88B
:1001CE000000A105000007000000000066000024EA
:1001DE0000001600D80000A1050000080000000075
:1001EE00005C00002400001D00D80000A1050000E6
:1001FE000900000000006D00003A00002500D80044
:10020E0000CF0100D10000D10900D11200D11B0096
:10021E00D12400D12D00D13600D13F00D14800D1DC
:10022E004C00D10C00CF0000D21300CF0000D32120
:10023E0000D61900CF0000E86100E94700CF00FFAB
:10024E00ABF30000C1FFABF4000001FFABF5301AB9
:10025E0048FFABF620EE7DFFABF7029078FFABF4D4
:10026E00000002FFABF5101A4AFFABF621E60006BE
:10027E00AA0600A27B61F4000000906170000002EB
:10028E00473C0A00380A0064F40000013460F400B0
:10029E000001DA05F420FFFFFF0464A0204C0020CB
:1002AE00480044B8000CC4A000001657F4007FF7B5
:1002BE00055F5C005F580057F4007FFF385F5C00FD
:1002CE005F5800205C0020580057F4007FFFBC5F91
:1002DE005C005F580057F4007FC7295F5C005F58D1
:1002EE00000AF08000007857F4007FF63A5F5C0059
:1002FE005F580057F4007FFF275F5C005F580020B7
:10030E005C0020580057F4007FFFB65F5C005F581A
:10031E000057F4007FC2235F5C005F580054F0006A
:10032E00FFFFF10C1EE20140C60000070140C500B0
:10033E0000010AF0A200008961F40000CDAC6170EA
:10034E000000021461F40000C8326170000001FF69
:10035E0060F4000000986070000001F80BF080005F
:10036E00009800000C0BF08000D36846F4004DF8A6
:10037E00F074F40000001E4E6C0000000C55BE0020
:10038E000140CEFFFF3F30FF0004CDCD20001B22E9
:10039E00090000000B0D104A00000A0A9DA1000082
:1003AE009F22090000000B0D104A0000040A9D81D7
:1003BE000000A508451A56F4000003FF200062084D
:1003CE00CC1A07F02D00003E57F0000002AC45F4A9
:1003DE000000000245F46AFF0FFF20006E5570000A
:0C03EE000002AC00000C00AC0000850018
:1007960000A50000A50000C30000A4110000000091
:1007A6000000000000101D3F0000000000000000D7
:1007B600000000000000000000007FFFFF000000B6
:1007C6000000000000000000000000007FFFFF00A6
:1007D600C80083C4D5FFABFB241009FFABFA0800A1
:1007E60009FFABFA000009FFABFBA41829FFAD8493
:1007F600000018FFAD85001FFFFFAD81001212FF3C
:10080600AD82001414FFAD83000088FFAD80005454
:1008160054FFAD87005454FFAD86000000FFAD863F
:10082600000001FFAD8600000000C20000C978008C
:10083600DF1E00DB7800DB7800C70000E00A00D589
:100846005300E33E00CF0400E17000CB0000E22F2E
:1008560000D97500E52F00E47000D73001D09A006A
:10086600C60100DD0100D40000DA0600DC0000A1AC
:100876000500000000000400001B00001600003BFD
:1008860000D80000A10500000100000000001200D1
:10089600003A00003F00D80000A105000002000059
:1008A6000000001800003A00005D00D80000A10515
:1008B60000000300000000002100000D00002100E0
:1008C600D80000A10500000400000000003200006E
:1008D6000D00003900D80000A10500000500000049
:1008E60000006800003A00002F00D80000A10500B3
:1008F600000600000000006E00003A00004100D82B
:100906000000A105000007000000000065000024AB
:1009160000002600D80000A1050000080000030022
:10092600007D00000D00000D00D80000A1050000AC
:100936000900000000006100000D00003F00D80023
:1009460000CF0100D10000D10900D11200D11B0057
:10095600D12400D12D00D13600D13F00D14800D19D
:100966004C00D11400CF0400D21400CF0400CF04F1
:1009760000E85800E94E00CF04FFABF30000C1FFCA
:10098600ABF4000001FFABF5301A48FFABF620EEE2
:100996007DFFABF7029078FFABF4000002FFABF5EA
:1009A600101A4AFFABF621E60006AA0600A27B61F2
:1009B600F4000000906170000002473C0A00380A0B
:1009C6000064F40000013460F4000001DA05F4204C
:1009D600FFFFFF0464A0204C0020480044B8000C30
:1009E600C4A000001657F4007FF7055F5C005F584F
:1009F6000057F4007FFF385F5C005F5800205C0002
:100A060020580057F4007FFFBC5F5C005F5800571A
:100A1600F4007FC7295F5C005F58000AF080000081
:100A26007857F4007FF63A5F5C005F580057F40091
:100A36007FFF275F5C005F5800205C00205800574E
:100A4600F4007FFFB65F5C005F580057F4007FC27A
:100A5600235F5C005F580054F000FFFFF10C1EE2BC
:100A66000140C60000070140C50000010AF0A200CF
:100A7600008961F40000CDAC61700000021461F4DD
:100A86000000C8326170000001FF60F400000098A9
:100A96006070000001F80BF08000009800000C0B5D
:100AA600F08000D36846F4004DF8F074F4000000BE
:100AB6001E4E6C0000000C55BE000140CEFFFF3FED
:100AC60030FF0004CDCD20001B22090000000B0DD5
:100AD600104A00000A0A9DA100009F22090000009A
:100AE6000B0D104A0000040A9D810000A508451A56
:100AF60056F4000003FF20006208CC1A07F02D0010
:100B0600003E57F0000002AC45F40000000245F438
:100B16006AFF0FFF20006E5570000002AC00000C4B
:060B260000AC0000850098
:1003FA0000A50000A50000C30000A4110000000031
:10040A000000000000101D3F000000000000000076
:10041A00000000000000000000007FFFFF00000055
:10042A000000000000000000000000007FFFFF0045
:10043A00C80083C4D5FFABFB241009FFABFA080040
:10044A0009FFABFA000009FFABFBA41829FFAD8432
:10045A00000018FFAD85001FFFFFAD81001212FFDB
:10046A00AD82001414FFAD83000088FFAD800054F4
:10047A0054FFAD87005454FFAD86000000FFAD86DF
:10048A00000001FFAD8600000000C20000C97A002A
:10049A00DF1E00DB7800DB7800C70000E00A00D529
:1004AA005900E35000CF0000E17000CB0000E22FBA
:1004BA0000D96F00E52F00E47000D73001D09A0010
:1004CA00C60100DD0100D40000DA0000DC0000A152
:1004DA000500000000000400001E00001600006B6A
:1004EA0000D80000A1050000010000000000000083
:1004FA00003A00003F00D80000A1050000020000F9
:10050A000000002B00003A00002B00D80000A105D3
:10051A0000000300000000002400003A00005E0012
:10052A00D80000A105000004000000000037000008
:10053A000D00003000D80000A105000005000000F1
:10054A0000006E00000D00002B00D80000A105007D
:10055A00000600000000004300003A00004500D8F1
:10056A000000A10500000700000000006500000D62
:10057A0000002900D80000A10500000800000000C2
:10058A00001200000D00001B00D80000A1050000A9
:10059A000900000200007000001700003D00D800AA
:1005AA0000CF0100D10000D10900D11200D11B00F7
:1005BA00D12400D12D00D13600D13F00D14800D13D
:1005CA004C00D10700CF0000D22E00CF0000D31379
:1005DA0000D60B00CF0000E85100E94800CF00FF29
:1005EA00ABF30000C1FFABF4000001FFABF5301A1A
:1005FA0048FFABF620EE7DFFABF7029078FFABF435
:10060A00000002FFABF5101A4AFFABF621E600061E
:10061A00AA0600A27B61F40000009061700000024B
:10062A00473C0A00380A0064F40000013460F40010
:10063A000001DA05F420FFFFFF0464A0204C00202B
:10064A00480044B8000CC4A000001657F4007FF715
:10065A00055F5C005F580057F4007FFF385F5C005D
:10066A005F5800205C0020580057F4007FFFBC5FF1
:10067A005C005F580057F4007FC7295F5C005F5831
:10068A00000AF08000007857F4007FF63A5F5C00B9
:10069A005F580057F4007FFF275F5C005F58002017
:1006AA005C0020580057F4007FFFB65F5C005F587B
:1006BA000057F4007FC2235F5C005F580054F000CB
:1006CA00FFFFF10C1EE20140C60000070140C50011
:1006DA0000010AF0A200008961F40000CDAC61704B
:1006EA000000021461F40000C8326170000001FFCA
:1006FA0060F4000000986070000001F80BF08000C0
:10070A00009800000C0BF08000D36846F4004DF806
:10071A00F074F40000001E4E6C0000000C55BE0080
:10072A000140CEFFFF3F30FF0004CDCD20001B2249
:10073A00090000000B0D104A00000A0A9DA10000E2
:10074A009F22090000000B0D104A0000040A9D8137
:10075A000000A508451A56F4000003FF20006208AD
:10076A00CC1A07F02D00003E57F0000002AC45F409
:10077A000000000245F46AFF0FFF20006E5570006A
:0C078A000002AC00000C00AC0000850078
:0517E9001217EED2937F
:0E17EE00E4FFFE0FBF00010EEF64324E70F5F7
:0117FC0022CA
:0418B400C29280FC60
:0A186500D2931217EED2940217EE90
:0A186F00D2941217E9C2940217EE9A
:10169200900000D2931217EE309423AF82AE83E40F
:1016A200FCFD7B507AC3F9F8D3120C254010A3E558
:1016B20082B488E4E583B413DF1218B480DAC293EB
:0316C2000217EE1E
:0A187900C2941217E9D2940217EE90
:1016C500AD07E4FCC2931217EEED30E704D2948027
:1016D50002C294ED25E0FD1217E90CBC08E6C293A1
:0816E5001217EED2940217EE79
:10000E00C2061217EED2051217EEE4FCD206121734
:10001E00EEED25E0FFA205E4334FFDC2061217EE0A
:09002E000CBC08E81217EEAF0546
:0100370022A6
:0814F1008B148A158916AD0762
:1014F900E4F51B12186FAF051216C5121692E4F522
:101509001BAF1BE4FCFDFEAB1AAA19A918A817D337
:10151900120C3B401CAB140516E516AA1570020502
:101529001514F9120B2CFF1216C5121692051B8001
:04153900D00218794B
:0B163F00042D00000000013100C10874
:1017BF0043B10853B2F7D28353E9DF43EA0853EB3F
:0517CF00F7439B02221C
:03003B00020C852F
:100C8500C0E0C0F0C083C082C0D075D000C000C035
:0D0C950001C002C003C004C005C006C007B6
:100CA200750800750900750A00E5EC20E303020DE2
:100CB2004D53ECF7539BFD0508050A7F017E007D2D
:100CC200007C0012153D3083F0750A00050A7F0191
:100CD2007E007D007C0012153D2083F0750A0075B0
:100CE20008007509003083FD7F017E007D007C00D5
:100CF20012153D30831C742D2508F8C000E6FFC391
:100D020013D000F6742D2508F8E64480F6308310DF
:100D120080FB742D2508F8C000E6FFC313D000F64F
:100D22000509E509C3940840BC0508E508C3940415
:100D320040B03083FD1217D47F1E7E007D007C0000
:0E0D420012153D121883439B02800375EC00CE
:100D5000D007D006D005D004D003D002D001D000F7
:0B0D6000D0D0D082D083D0F0D0E032A1
:1017D400E530F4B52F09852F31121883D20822E49D
:0517E400F531C20822EE
:091883007F04782DE4F608DFFC77
:01188C002239
:10104E00E4F5112008030210D6E531120C5F108171
:10105E001010861110B61210BE1310C61410CE1535
:10106E00108E16109641109E4A10A64B10AE4C00D4
:10107E000010D4754D018003754D02754C8080466D
:10108E00754C80754D03803E754C80754D40803695
:10109E00754C80754D04802E754C80754D058026DF
:1010AE00754C80754D06801E754C80754D208016D2
:1010BE00754C80754D30800E754C80754DF08006E8
:0810CE00754C80754D07C20846
:0110D60022F7
:1015D300FFAD83000088FFAD86000000FFAD8600ED
:1015E3000001FFAD86000000FFAD83000099FFAD51
:1015F30086000000FFAD86000001FFAD86000000FD
:10160300FFAD830000AAFFAD86000000FFAD86009A
:081613000001FFAD860000009C
:0E164A0001220101230101270F032401D09A80
:100D6B00E52324FE604D147003020E012402600380
:100D7B00020E43E4F511F512AE11AF127C007D03A8
:100D8B00120B4574FA2FF974033EFA7BFFE4751AC4
:100D9B0003F519F518F5177FE61214F11217EE0586
:100DAB0012E51270020511C39434E511648094812D
:100DBB0040C622E4F511F512AE11AF127C007D0393
:100DCB00120B4574962FF974073EFA7BFFE4751AE4
:100DDB0003F519F518F5177FE61214F11217EE1239
:100DEB0017EE0512E51270020511C39434E5116478
:100DFB0080948140C322E4F511F512AE11AF127C41
:100E0B00007D03120B45745E2FF974003EFA7BFFD5
:100E1B00E4751A03F519F518F5177FE61214F1129C
:100E2B0017EE1217EE0512E51270020511C394347A
:080E3B00E5116480948140C3BD
:010E4300228C
:1010D700E527B41F00400302115F9010E8F82828A5
:1010E70073021147021147021147021147021147C4
:1010F7000211470211470211470211470211470225
:101107001147021147021147021147021147021105
:1011170047021147021147021147021147021147BF
:1011270002114702114702114702114702114702F4
:101137001147021147021147021147021147800068
:1011470075269A7B007A007924E4751A03F519F558
:0911570018F5177FE61214F122CD
:0118B800220D
:03003800020D6B4B
:100FA900E52264017031F511E51175F003A424D32C
:100FB900F9741535F0FA7BFFE4751A03F519F5187C
:100FC900F5177FE61214F11217EE1217EE0511E567
:100FD90011C3940840D222E52264027031F511E56B
:100FE9001175F003A424EBF9741535F0FA7BFFE4CD
:100FF900751A03F519F518F5177FE61214F112178A
:10100900EE1217EE0511E511C3940840D222E5222C
:1010190064037030F511E51175F003A42403F97424
:101029001635F0FA7BFFE4751A03F519F518F5176B
:101039007FE61214F11217EE1217EE0511E511C32E
:04104900940840D2F5
:01104D002280
:0118B900220C
:1017FD00D287D2867F3C7E0012178EC287C286E4C6
:03180D00F54E2273
:10182200D287D2867F197E0012178EC287C2862285
:0C184D00D2877F197E0012178EC28722FE
:0C185900D2867F197E0012178EC28622F4
:03000000020EFDF0
:100EFD0075C7AA75C75575FD5A75C7AA75C75575B6
:100F0D00FDA5787FE4F6D8FD9000007FFF7E03E419
:0C0F1D00F0A3DFFCDEFA75814F020F64C8
:100F2900021160E493A3F8E493A34003F68001F26D
:100F390008DFF48029E493A3F85407240CC8C333C9
:100F4900C4540F4420C8834004F456800146F6DF98
:100F5900E4800B010204081020408090161BE47EF7
:100F6900019360BCA3FF543F30E509541FFEE4938D
:100F7900A360010ECF54C025E060A840B8E493A354
:100F8900FAE493A3F8E493A3C8C582C8CAC583CA7F
:100F9900F0A3C8C582C8CAC583CADFE9DEE780BE37
:011658000091
:100B2C00BB010689828A83E0225002E722BBFE02C7
:090B3C00E32289828A83E49322FA
:100B4500EF8DF0A4A8F0CF8CF0A428CE8DF0A42EC4
:020B5500FE227E
:100B570075F008758200EF2FFFEE33FECD33CDCC55
:100B670033CCC58233C5829BED9AEC99E5829840D8
:100B77000CF582EE9BFEED9AFDEC99FC0FD5F0D6B5
:100B8700E4CEFBE4CDFAE4CCF9A88222B800C1B9DF
:100B97000059BA002DEC8BF084CFCECDFCE5F0CB1D
:100BA700F97818EF2FFFEE33FEED33FDEC33FCEB56
:100BB70033FB10D703994004EB99FB0FD8E5E4F911
:100BC700FA227818EF2FFFEE33FEED33FDEC33FCFE
:100BD700C933C910D7059BE99A4007EC9BFCE99AF2
:100BE700F90FD8E0E4C9FAE4CCFB2275F010EF2F37
:100BF700FFEE33FEED33FDCC33CCC833C810D70737
:100C07009BEC9AE899400AED9BFDEC9AFCE899F871
:0E0C17000FD5F0DAE4CDFBE4CCFAE4C8F92204
:100C2500EB9FF5F0EA9E42F0E99D42F0EC6480C846
:060C350064809845F022E6
:100C3B00EB9FF5F0EA9E42F0E99D42F0E89C45F00F
:010C4B002286
:100C4C00E8600FECC313FCED13FDEE13FEEF13FF86
:030C5C00D8F122AA
:100C5F00D083D082F8E4937012740193700DA3A324
:100C6F0093F8740193F5828883E473740293686038
:060C7F00EFA3A3A380DF38
:00000001FF
