:10142100E4F525F526121AA4E525B40900506A90C1
:101431001437F828287302145202145A0214620253
:10144100146A02147202147A02148202148A0214B7
:101451009212166675250180CF12000E7525028045
:10146100C712190675250380BF121A52752504800B
:10147100B71219ED75250580AF120E9A75250680F4
:10148100A7121165752507809F12151D7525088006
:0E149100971212D2E4F525808FE4F525808AAB
:0D1B41007596307597307F027E00021A8A7B
:101A3300E4F5B1F5B2F5B3F5B4F5ACF5AD53B3FEDA
:0F1A430043B401C290C285F51D751E20C200225A
:101AA400121B41121A33121B2112003E121ABB12CE
:071AB4001B66D2AFD28C22A9
:0B149F00C102C103021D0000011C007F
:10166600E51E30E426300023C2AFD291D290531E3D
:10167600EF431E207F147E00121A8AD2AFD28C430B
:101686001E0275401612000EC29122E51E30E52498
:10169600200021C2AFD291C290531EDF431E10D24A
:1016A60080D282D281D297D296D2957F1E7E0012A8
:0516B6001A8AD2AF22E8
:10190600E51E30E02D209104D291D203531EFEC273
:1019160085E53BD394034005753B018007E53BB461
:101926000302D28512137CC291D201300304C29104
:03193600C20322C7
:10000E00E51E30E127209106D291D203D202531E73
:10001E00FDE53CD394034003753C01121087D201D9
:0D002E00200303300206C291C203C2022269
:101A5200E51E30E218531EFBE540C3941E40047598
:0E1A6200401E220540120B1AD201751C0122F3
:1019ED00E51E30E31F531EF7E540D394004007E595
:1019FD0040D3941E4004E4F540221540120B1AD238
:051A0D0001751C01221F
:091B8E00309103C29122D2912290
:1012D20030850F20B00C751C01D2017F327E0012C6
:1012E2001A8A30910F30900C751C01D2017F647EF6
:1012F20000121A8A20010302137BE51C600DD280C2
:10130200D282D2817F0A7E00121A8AE53BB4010D95
:10131200C280D282D2817F077E00121A8AE53BB454
:10132200020DD280C282D2817F077E00121A8AE524
:101332003BB4030DD280D282C2817F077E00121A93
:101342008AE53CB4010DC297D296D2957F077E0002
:10135200121A8AE53CB4020DD297C296D2957F0743
:101362007E00121A8AE53CB4030DD297D296C2953A
:0A1372007F077E00121A8AC20122D2
:01005A002283
:1018CD0053B1BF53B2BF53B17F53B27F75985043DD
:1018DD008920438780438E1053C4DFAB07AA06A926
:1018ED0005A8047F407E427D0F7C00120DA8EF04F9
:0918FD00F404F58DD28ED299227B
:101599008F448E438D428C4153B1BF53B2BF53B177
:1015A9007F53B27F75985043878053C4F843C42052
:1015B900AB44AA43A942A8417F407E427D0F7C00EB
:1015C900120DA8C374FF9FFF74FF9EFEE49DFDE406
:1015D9009CFC7808120E618FC6AB44AA43A942A8A5
:1015E900417F407E427D0F7C00120DA8C374FF9F8E
:0915F900FF8FC543C408D29922FA
:070003003098FDAF99C2988F
:01000A0022D3
:081BA000C2998F993099FD22D2
:101602008F488E478D468C4553B1FB53B2FB53B383
:10161200BF53B4BF75F85075C40853C4DFAB48AAB2
:1016220047A946A8457F407E427D0F7C00120DA847
:10163200C374FF9FFF74FF9EFEE49DFDE49CFC7853
:1016420008120E618FC6AB48AA47A946A8457F403B
:101652007E427D0F7C00120DA8C374FF9FFF8FC5D1
:0416620043C4082253
:071BA80030F8FDAF9AC2F80E
:011BAF002213
:081BB000C2F98F9A30F9FD2201
:101A7000EF4E6015E4FDFC0DBD00010CBC05F8BD8A
:091A800082F5EF1F70EA1E80E7F9
:011A8900223A
:101A8A00EF4E6015E4FDFC0DBD00010CBC38F8BD3D
:091A9A0054F5EF1F70EA1E80E70D
:011AA3002220
:1017EF008F4C8E4B8D4A8C49538EEF438910D28E7E
:1017FF00E4FFFEFDFCAB4CAA4BA94AA849C3120E4D
:10180F00506025758BCA758DFA308FFDC28FE54CF0
:10181F0024FFF54CE54B34FFF54BE54A34FFF54A11
:0B182F00E54934FFF54980C8C28E2255
:10183A008F508E4F8D4E8C4D538EEF438910D28E22
:10184A00E4FFFEFDFCAB50AA4FA94EA84DC3120EF1
:10185A00506025758BEA758DCB308FFDC28FE550B0
:10186A0024FFF550E54F34FFF54FE54E34FFF54EB2
:0B187A00E54D34FFF54D80C8C28E2202
:1016BB008F548E538D528C5153C9BF53C9DF43C9BD
:1016CB0010D2CAE4FFFEFDFCAB54AA53A952A85199
:1016DB00C3120E50602575CC3075CDF830CFFDC2DE
:1016EB00CFE55424FFF554E55334FFF553E552345D
:0E16FB00FFF552E55134FFF55180C8C2CA22F6
:101709008F588E578D568C5575C40743C408E4FF0E
:10171900FEFDFCAB58AA57A956A855C3120E506036
:101729002875C52C75C6CFE5C430E4FB53C4EFE575
:101739005824FFF558E55734FFF557E55634FFF5BA
:0D17490056E55534FFF55580C553C4F72211
:101756008F5C8E5B8D5A8C5975C40743C408E4FFB1
:10176600FEFDFCAB5CAA5BA95AA859C3120E5060D9
:101776002875C5D875C6FFE5C430E4FB53C4EFE54C
:101786005C24FFF55CE55B34FFF55BE55A34FFF559
:0D1796005AE55934FFF55980C553C4F722B8
:0C14AA00015E00016000015F00015D00B8
:0D1B3300E4FFC2EFD2EE30EFFDAFC3055E60
:011B40002282
:10151D00E55F6077E560120E74156F01156F0215AA
:10152D006F03157404157B05158206159007156F4D
:10153D0008155510156520156A30155C401551F0CC
:10154D0000001595B2008040431E02053C803943D2
:10155D001E01053BD2018030431E04802B431E0823
:10156D008026121A128021D291753C03800CD291E3
:10157D00753C028005D291753C01121087D201C2D3
:0C158D00918005121B8ED201E4F55F2254
:10003E0053B1EF53B2EF53E8F043E80543B1105319
:0C004E00B2EFE4F5F643F62043E1012296
:03005B00021B97EE
:091B9700C2EF85C35D755F0132E8
:1014B60002340000013A00013700C105C106C10728
:0C14C6000133000139000138000136003C
:101B2100538EF75389F0438901758CCB758AEAD2BC
:021B3100A922E7
:10116500200503021225121B337534008F35853592
:101175003AE53730E7020538E53AC394FD5060E5B6
:101185003A94B04006433781021223E53AD394904E
:101195004017E53730E10DE538D394084006755F13
:1011A500017560204337828075E53AD39470401706
:1011B500E53730E20DE538D394084006755F0175D3
:1011C50060304337848057E53AD394504005433720
:1011D50088804BE53AD394304044433790803FE5CF
:1011E5003730E73530E006755F017560F0E537307B
:1011F500E106755F01756020E53730E206755F0130
:10120500756030E53730E306755F01756040E53799
:1012150030E406755F01756010E4F537F538C205F1
:0112250022A6
:03000B0002196C6B
:10196C00C0E0C0D0C28C758CEA758AEA05330536A6
:10197C00E533D394094005D205753300E536D3948D
:0F198C000F4005D206753600D28CD0D0D0E03295
:10005E0000A50000A50000C30000A41100000000D0
:10006E000000000000101D3F000000000000000016
:10007E00000000000000000000007FFFFF000000F5
:10008E000000000000000000000000007FFFFF00E5
:10009E00C80083C4D5FFABFB241009FFABFA0800E0
:1000AE0009FFABFA000009FFABFBA41829FFAD84D2
:1000BE00000018FFAD85001FFFFFAD81001212FF7B
:1000CE00AD82001414FFAD80005454FFAD87005470
:1000DE0054FFAD86000000FFAD86000001FFAD8627
:1000EE0000000000C20000C97A00DF1E00DB7800AD
:1000FE00DB7800C70000E00A00D55300E33E00CFD6
:10010E000000E17000CB0000E22F00D96200E52F65
:10011E0000E47000D73000D00000C60100DD010001
:10012E00D40A00DA0600DC0000A105000000000081
:10013E000400002700001600006B00D80000A10587
:10014E0000000100000000001700003A00007B00D4
:10015E00D80000A10500000200000300007C000092
:10016E003A00000000D80000A105000003000000C6
:10017E0000002300007F00006300D80000A10500EE
:10018E00000400000000003100000D00002A00D81D
:10019E000000A10500000500000000005600000D43
:1001AE0000003B00D80000A1050000060000000082
:1001BE00004400003A00004A00D80000A1050000EB
:1001CE000700000000006600002400001600D800A2
:1001DE0000A10500000800000000005C00002400E3
:1001EE00001D00D80000A10500000900000000005D
:1001FE006D00003A00002500D80000CF0100D100AC
:10020E0000D10900D11200D11B00D12400D12D0044
:10021E00D13600D13F00D14800D14C00D10C00CFD7
:10022E000000D21300CF0000D32100D61900CF005A
:10023E0000E86100E94700CF00FFABF30000C1FF0B
:10024E00ABF4000001FFABF5301A48FFABF620EE21
:10025E007DFFABF7029078FFABF4000002FFABF529
:10026E00101A4AFFABF621E60006AA0600A27B6131
:10027E00F4000000906170000002473C0A00380A4A
:10028E000064F40000013460F4000001DA05F4208B
:10029E00FFFFFF0464A0204C0020480044B8000C6F
:1002AE00C4A000001657F4007FF7055F5C005F588E
:1002BE000057F4007FFF385F5C005F5800205C0041
:1002CE0020580057F4007FFFBC5F5C005F5800575A
:1002DE00F4007FC7295F5C005F58000AF0800000C1
:1002EE007857F4007FF63A5F5C005F580057F400D1
:1002FE007FFF275F5C005F5800205C00205800578E
:10030E00F4007FFFB65F5C005F580057F4007FC2B9
:10031E00235F5C005F580054F000FFFFF10C1EE2FB
:10032E000140C60000070140C50000010AF0A2000E
:10033E00008961F40000CDAC61700000021461F41C
:10034E000000C8326170000001FF60F400000098E8
:10035E006070000001F80BF08000009800000C0B9C
:10036E00F08000D36846F4004DF8F074F4000000FD
:10037E001E4E6C0000000C55BE000140CEFFFF3F2C
:10038E0030FF0004CDCD20001B22090000000B0D14
:10039E00104A00000A0A9DA100009F2209000000D9
:1003AE000B0D104A0000040A9D810000A508451A95
:1003BE0056F4000003FF20006208CC1A07F02D004F
:1003CE00003E57F0000002AC45F40000000245F478
:1003DE006AFF0FFF20006E5570000002AC00000C8B
:0603EE0000AC00008500D8
:10078A0000A50000A50000C30000A411000000009D
:10079A000000000000101D3F0000000000000000E3
:1007AA00000000000000000000007FFFFF000000C2
:1007BA000000000000000000000000007FFFFF00B2
:1007CA00C80083C4D5FFABFB241009FFABFA0800AD
:1007DA0009FFABFA000009FFABFBA41829FFAD849F
:1007EA00000018FFAD85001FFFFFAD81001212FF48
:1007FA00AD82001414FFAD80005454FFAD8700543D
:10080A0054FFAD86000000FFAD86000001FFAD86F3
:10081A0000000000C20000C97800DF1E00DB78007B
:10082A00DB7800C70000E00A00D55300E33E00CFA2
:10083A000400E17000CB0000E22F00D97500E52F1B
:10084A0000E47000D73000D00000C60100DD0100CE
:10085A00D40000DA0600DC0000A105000000000058
:10086A000400001B00001600003B00D80000A10590
:10087A0000000100000000001200003A00003F00E2
:10088A00D80000A1050000020000000000180000C6
:10089A003A00005D00D80000A10500000300000036
:1008AA0000002100000D00002100D80000A1050071
:1008BA00000400000000003200000D00003900D8DA
:1008CA000000A10500000500000000006800003AD1
:1008DA0000002F00D80000A105000006000000005B
:1008EA00006E00003A00004100D80000A105000097
:1008FA000700000000006500002400002600D80060
:10090A0000A10500000800000300007D00000D00A2
:10091A00000D00D80000A105000009000000000039
:10092A006100000D00003F00D80000CF0100D10097
:10093A0000D10900D11200D11B00D12400D12D0011
:10094A00D13600D13F00D14800D14C00D11400CF9C
:10095A000400D21400CF0400CF0400E85800E94E86
:10096A0000CF04FFABF30000C1FFABF4000001FFAE
:10097A00ABF5301A48FFABF620EE7DFFABF70290DD
:10098A0078FFABF4000002FFABF5101A4AFFABF692
:10099A0021E60006AA0600A27B61F400000090612D
:1009AA0070000002473C0A00380A0064F4000001A3
:1009BA003460F4000001DA05F420FFFFFF0464A0AC
:1009CA00204C0020480044B8000CC4A00000165770
:1009DA00F4007FF7055F5C005F580057F4007FFF63
:1009EA00385F5C005F5800205C0020580057F40014
:1009FA007FFFBC5F5C005F580057F4007FC7295F28
:100A0A005C005F58000AF08000007857F4007FF617
:100A1A003A5F5C005F580057F4007FFF275F5C0075
:100A2A005F5800205C0020580057F4007FFFB65F33
:100A3A005C005F580057F4007FC2235F5C005F5878
:100A4A000054F000FFFFF10C1EE20140C60000074F
:100A5A000140C50000010AF0A200008961F400000B
:100A6A00CDAC61700000021461F40000C8326170FC
:100A7A00000001FF60F4000000986070000001F8B7
:100A8A000BF08000009800000C0BF08000D3684641
:100A9A00F4004DF8F074F40000001E4E6C000000E3
:100AAA000C55BE000140CEFFFF3F30FF0004CDCD04
:100ABA0020001B22090000000B0D104A00000A0A40
:100ACA009DA100009F22090000000B0D104A0000A2
:100ADA00040A9D810000A508451A56F4000003FF88
:100AEA0020006208CC1A07F02D00003E57F00000E3
:100AFA0002AC45F40000000245F46AFF0FFF200033
:100B0A006E5570000002AC00000C00AC00008500BD
:1003F40000A50000A50000C30000A4110000000037
:100404000000000000101D3F00000000000000007C
:10041400000000000000000000007FFFFF0000005B
:100424000000000000000000000000007FFFFF004B
:10043400C80083C4D5FFABFB241009FFABFA080046
:1004440009FFABFA000009FFABFBA41829FFAD8438
:10045400000018FFAD85001FFFFFAD81001212FFE1
:10046400AD82001414FFAD80005454FFAD870054D6
:1004740054FFAD86000000FFAD86000001FFAD868D
:1004840000000000C20000C97A00DF1E00DB780013
:10049400DB7800C70000E00A00D55900E35000CF24
:1004A4000000E17000CB0000E22F00D96F00E52FBF
:1004B40000E47000D73000D00000C60100DD010068
:1004C400D40000DA0000DC0000A1050000000000F8
:1004D4000400001E00001600006B00D80000A105F7
:1004E40000000100000000000000003A00003F008E
:1004F400D80000A10500000200000000002B00004D
:100504003A00002B00D80000A10500000300000001
:1005140000002400003A00005E00D80000A105009D
:10052400000400000000003700000D00003000D877
:100534000000A10500000500000000006E00000D91
:1005440000002B00D80000A10500000600000000F8
:10055400004300003A00004500D80000A105000057
:100564000700000000006500000D00002900D8000D
:1005740000A10500000800000000001200000D00AA
:10058400001B00D80000A1050000090000020000C3
:100594007000001700003D00D80000CF0100D1001A
:1005A40000D10900D11200D11B00D12400D12D00AB
:1005B400D13600D13F00D14800D14C00D10700CF43
:1005C4000000D22E00CF0000D31300D60B00CF00C2
:1005D40000E85100E94800CF00FFABF30000C1FF81
:1005E400ABF4000001FFABF5301A48FFABF620EE88
:1005F4007DFFABF7029078FFABF4000002FFABF590
:10060400101A4AFFABF621E60006AA0600A27B6197
:10061400F4000000906170000002473C0A00380AB0
:100624000064F40000013460F4000001DA05F420F1
:10063400FFFFFF0464A0204C0020480044B8000CD5
:10064400C4A000001657F4007FF7055F5C005F58F4
:100654000057F4007FFF385F5C005F5800205C00A7
:1006640020580057F4007FFFBC5F5C005F580057C0
:10067400F4007FC7295F5C005F58000AF080000027
:100684007857F4007FF63A5F5C005F580057F40037
:100694007FFF275F5C005F5800205C0020580057F4
:1006A400F4007FFFB65F5C005F580057F4007FC220
:1006B400235F5C005F580054F000FFFFF10C1EE262
:1006C4000140C60000070140C50000010AF0A20075
:1006D400008961F40000CDAC61700000021461F483
:1006E4000000C8326170000001FF60F4000000984F
:1006F4006070000001F80BF08000009800000C0B03
:10070400F08000D36846F4004DF8F074F400000063
:100714001E4E6C0000000C55BE000140CEFFFF3F92
:1007240030FF0004CDCD20001B22090000000B0D7A
:10073400104A00000A0A9DA100009F22090000003F
:100744000B0D104A0000040A9D810000A508451AFB
:1007540056F4000003FF20006208CC1A07F02D00B5
:10076400003E57F0000002AC45F40000000245F4DE
:100774006AFF0FFF20006E5570000002AC00000CF1
:0607840000AC000085003E
:051AFA00121AFFD29357
:0E1AFF00E4FFFE0FBF00010EEF64324E70F5E3
:011B0D0022B5
:041BB800C29280FC59
:0A1B6600D293121AFFD294021AFF64
:0A1B7000D294121AFAC294021AFF6E
:10193900900000D293121AFF309423AF82AE83E451
:10194900FCFD7B507AC3F9F8D3120E3A4010A3E597
:1019590082B488E4E583B413DF121BB880DAC2933A
:03196900021AFF60
:0A1B7A00C294121AFAD294021AFF64
:1019C500AD07E4FCC293121AFFED30E704D2948010
:1019D50002C294ED25E0FD121AFA0CBC08E6C2938A
:0819E500121AFFD294021AFF4E
:10199B00C20C121AFFD20B121AFFE4FCD20C121A51
:1019AB00FFED25E0FFA20BE4334FFDC20C121AFF33
:0919BB000CBC08E8121AFFAF058C
:0119C4002200
:0817A3008B2B8A2C892DAD0768
:1017AB00E4F532121B70AF051219C5121939E4F5A5
:1017BB0032AF32E4FCFDFEAB31AA30A92FA82ED3F9
:1017CB00120E50401CAB2B052DE52DAA2C700205DB
:1017DB002C14F9120D41FF1219C51219390532805B
:0417EB00D0021B7A93
:1014D200041300000000011800011900011A0001A4
:1014E2000B00C108C109C10A011000011200011755
:1014F20000010A00010C00010E00010D00011B0099
:0C150200010800010900010F00011100A8
:101ABB0043B10853B2F7D28353E9DF43EA0853EB40
:051ACB00F7439B02221D
:03003B00020FA809
:100FA800C0E0C0F0C083C082C0D075D000C000C00F
:0D0FB80001C002C003C004C005C006C00790
:100FC500752200752300752400E5EC20E30302106B
:100FD5006953ECF7539BFD052205247F017E001222
:100FE5001A703083F4E524C394055002806E75248D
:100FF5000005247F017E00121A702083F4752400F9
:101005007522007523003083FD7F017E00121A7062
:1010150030831C74132522F8C000E6FFC313D000EB
:10102500F674132522F8E64480F630831080FB74AD
:10103500132522F8C000E6FFC313D000F60523E50B
:1010450023C3940840C00522E522C3940440B4306C
:1010550083FD121AD07F037E00121A70121B84437F
:071065009B02800375EC0003
:10106C00D007D006D005D004D003D002D001D000D8
:0B107C00D0D0D082D083D0F0D0E03282
:101AD000E516F4B51509851518121B84D20822E401
:051AE000F518C2082208
:091B84007F047813E4F608DFFC8D
:011B8D002235
:100E9A00E4F527200603020FA7C206E51920E70397
:100EAA00020F56051AE5186003020F56F51A30911B
:100EBA000FC291E50B64146005E50BB41502D291DB
:100ECA00E50B120E740EF4100F03110F35120F3DBD
:100EDA00130F45140F4D150F0B160F13410F1B4A15
:100EEA000F234B0F2B4C00000F53E50EC3940450F5
:100EFA0058755F807560018050755F8075600280EB
:100F0A0048755F807560038040755F8075604080BA
:100F1A0038755F807560048030755F807560058004
:100F2A0028755F80051B756006801E755F80756079
:100F3A00208016755F80756030800E755F807560E1
:100F4A00F08006755F80756007E4F51930084EC2B7
:100F5A000885180BE50B641460053090028005E5DE
:100F6A000BB41403431980E51AD39402402CE518F4
:100F7A0024EE601814601D2403701F050EE50ED3BD
:100F8A0094044016755F80756008800E755F8075E1
:0D0F9A0060208006755F80756030E4F518FA
:010FA7002227
:10188500FFAD83000088FFAD86000000FFAD860038
:101895000001FFAD86000000FFAD83000099FFAD9C
:1018A50086000000FFAD86000001FFAD8600000048
:1018B500FFAD830000AAFFAD86000000FFAD8600E6
:0818C5000001FFAD86000000E8
:0E150E00013B01013C0201400F033D01D09A58
:10108700431E0112137CE53C24FE604F14700302DB
:10109700112324026003021162E4F527F528AE2725
:1010A700AF287C007D03120D5A74F42FF974033EA8
:1010B700FA7BFFE4753103F530F52FF52E7FE61245
:1010C70017A3121AFF0528E52870020527C39434D1
:1010D700E5276480948140C6021162E4F527F5286C
:1010E700AE27AF287C007D03120D5A748A2FF9743E
:1010F700073EFA7BFFE4753103F530F52FF52E7FB8
:10110700E61217A3121AFF0528E52870020527C360
:101117009434E5276480948140C6803FE4F527F541
:1011270028AE27AF287C007D03120D5A745E2FF975
:1011370074003EFA7BFFE4753103F530F52FF52E89
:101147007FE61217A3121AFF0528E5287002052764
:0E115700C39434E5276480948140C6020B1ACD
:100B1A00E540B41F004003020D40900B2BF8282833
:100B2A0073020B88020B8F020B97020B9F020BA713
:100B3A00020BAF020BBD020BCD020BDD020BED0265
:100B4A000BFD020C0D020C1D020C2D020C3D020CB9
:100B5A004D020C5D020C6D020C7D020C8D020C9D87
:100B6A00020CAD020CBC020CCB020CDA020CE9023C
:100B7A000CF8020D07020D16020D25020D25E4F5EB
:100B8A003DF53F8026E4F53D753F55801EE4F53D71
:100B9A00753F698016E4F53D753F9A800EE4F53D90
:100BAA00753FCD8006E4F53D753FFFFB7A00793D40
:100BBA00020D32753D01753F187B007A00793DE4DC
:100BCA00020D32753D01753F317B007A00793DE4B3
:100BDA00020D32753D01753F367B007A00793DE49E
:100BEA00020D32753D01753F3B7B007A00793DE489
:100BFA00020D32753D01753F407B007A00793DE474
:100C0A00020D32753D01753F457B007A00793DE45E
:100C1A00020D32753D01753F4A7B007A00793DE449
:100C2A00020D32753D01753F4F7B007A00793DE434
:100C3A00020D32753D01753F547B007A00793DE41F
:100C4A00020D32753D01753F597B007A00793DE40A
:100C5A00020D32753D01753F5E7B007A00793DE4F5
:100C6A00020D32753D01753F637B007A00793DE4E0
:100C7A00020D32753D01753F687B007A00793DE4CB
:100C8A00020D32753D01753F6D7B007A00793DE4B6
:100C9A00020D32753D01753F727B007A00793DE4A1
:100CAA00020D32753D01753F777B007A00793DE48C
:100CBA008076753D01753F7C7B007A00793DE48042
:100CCA0067753D01753F817B007A00793DE4805864
:100CDA00753D01753F867B007A00793DE480497550
:100CEA003D01753F8B7B007A00793DE4803A753D82
:100CFA0001753F907B007A00793DE4802B753D01B8
:100D0A00753F957B007A00793DE4801C753D01753D
:100D1A003F9A7B007A00793DE4800D753D01753F6D
:100D2A009F7B007A00793DE4753103F530F52FF5A4
:070D3A002E7FE61217A32231
:011BBF002203
:031BBC000210878D
:10137C00E53B64017031F529E52975F003A424855A
:10138C00F9741835F0FA7BFFE4753103F530F52F5D
:10139C00F52E7FE61217A3121AFF121AFF0529E584
:1013AC0029C3940840D222E53B64027031F529E54B
:1013BC002975F003A4249DF9741835F0FA7BFFE429
:1013CC00753103F530F52FF52E7FE61217A3121A9F
:1013DC00FF121AFF0529E529C3940840D222E53BE8
:1013EC0064037030F529E52975F003A424B5F9746C
:1013FC001835F0FA7BFFE4753103F530F52FF52E37
:10140C007FE61217A3121AFF121AFF0529E529C34A
:04141C00940840D21E
:0114200022A9
:101A120030851DE56024FE600E14600E24FB600D0F
:101A22002407700C021B0E021B5A021B4E121AE5EF
:011A32002291
:101AE500D287D2867F2C7E01121A8AC287C286E4EB
:051AF500F561F50E2271
:101B0E00D287D2867F197E00121A8AC287C286E4D5
:031B1E00F50E229F
:0C1B4E00D2877F197E00121A8AC28722FB
:0C1B5A00D2867F197E00121A8AC28622F1
:03000000021226C3
:1012260075C7AA75C75575FD5A75C7AA75C7557589
:10123600FDA5787FE4F6D8FD9000007FFF7E03E4ED
:0C124600F0A3DFFCDEFA75816202128D5D
:10125200021421E493A3F8E493A34003F68001F27D
:1012620008DFF48029E493A3F85407240CC8C3339D
:10127200C4540F4420C8834004F456800146F6DF6C
:10128200E4800B010204081020408090149FE47E49
:10129200019360BCA3FF543F30E509541FFEE49361
:1012A200A360010ECF54C025E060A840B8E493A328
:1012B200FAE493A3F8E493A3C8C582C8CAC583CA53
:1012C200F0A3C8C582C8CAC583CADFE9DEE780BE0B
:01151C0000CE
:100D4100BB010689828A83E0225002E722BBFE02B0
:090D5100E32289828A83E49322E3
:100D5A00EF8DF0A4A8F0CF8CF0A428CE8DF0A42EAD
:020D6A00FE2267
:100D6C0075F008758200EF2FFFEE33FECD33CDCC3E
:100D7C0033CCC58233C5829BED9AEC99E5829840C1
:100D8C000CF582EE9BFEED9AFDEC99FC0FD5F0D69E
:100D9C00E4CEFBE4CDFAE4CCF9A88222B800C1B9C8
:100DAC000059BA002DEC8BF084CFCECDFCE5F0CB06
:100DBC00F97818EF2FFFEE33FEED33FDEC33FCEB3F
:100DCC0033FB10D703994004EB99FB0FD8E5E4F9FA
:100DDC00FA227818EF2FFFEE33FEED33FDEC33FCE7
:100DEC00C933C910D7059BE99A4007EC9BFCE99ADB
:100DFC00F90FD8E0E4C9FAE4CCFB2275F010EF2F20
:100E0C00FFEE33FEED33FDCC33CCC833C810D7071F
:100E1C009BEC9AE899400AED9BFDEC9AFCE899F85A
:0E0E2C000FD5F0DAE4CDFBE4CCFAE4C8F922ED
:100E3A00EB9FF5F0EA9E42F0E99D42F0EC6480C82F
:060E4A0064809845F022CF
:100E5000EB9FF5F0EA9E42F0E99D42F0E89C45F0F8
:010E6000226F
:100E6100E8600FECC313FCED13FDEE13FEEF13FF6F
:030E7100D8F12293
:100E7400D083D082F8E4937012740193700DA3A30D
:100E840093F8740193F5828883E473740293686021
:060E9400EFA3A3A380DF21
:00000001FF
