:10144C00E4F525F526121ABDE525B40900506A907D
:10145C001462F828287302147D02148502148D027C
:10146C00149502149D0214A50214AD0214B50214B5
:10147C00BD12168375250180CF121A6F7525028057
:10148C00C712192D75250380BF121A5175250480BA
:10149C00B71219EC75250580AF120EAC75250680B8
:1014AC00A7121190752507809F1215487525088085
:0E14BC00971212FDE4F525808FE4F525808A55
:0D1B5A007596307597307F027E00021AA349
:101A3200E4F5B1F5B2F5B3F5B4F5ACF5AD53B3FEDB
:0F1A420043B401C290C285F51D751E20C200225B
:101ABD00121B5A121A32121B3A12003E121AD4126B
:071ACD001B7FD2AFD28C2277
:0B14CA00C102C103021D0000011C0054
:10168300E51E30E43030002DC2AFD291D290531E0C
:10169300EF431E207F147E00121AA3D2AFD28C43D5
:1016A3001E02153B753F16121A6F431E01153A129F
:1016B300192DC29122E51E30E524200021C2AFD2AC
:1016C30091C290531EDF431E10D280D282D281D2A8
:0F16D30097D296D2957F1E7E00121AA3D2AF2215
:10192D00E51E30E02F209104D291D203531EFEC24A
:10193D0085053AE53AD394034005753A018007E5EC
:10194D003AB40302D2851213A7C291D20130030417
:05195D00C291C203224B
:101A6F00E51E30E114531EFD053BE53BD3940340C7
:0A1A7F0003753B01120FBAD20122D9
:101A5100E51E30E218531EFBE53FC3941E4004759A
:0E1A61003F1E22053F120B2CD201751C0122E4
:1019EC00E51E30E31F531EF7E53FD394004007E597
:1019FC003FD3941E4004E4F53F22153F120B2CD22A
:051A0C0001751C012220
:091BA700309103C29122D2912277
:1012FD0030850F20B00C751C01D2017F327E00129B
:10130D001AA330910F30900C751C01D2017F647EB1
:10131D0000121AA32001030213A6E51C600DD28052
:10132D00D282D2817F0A7E00121AA3E53AB4010D52
:10133D00C280D282D2817F077E00121AA3E53AB411
:10134D00020DD280C282D2817F077E00121AA3E5E0
:10135D003AB4030DD280D282C2817F077E00121A69
:10136D00A3E53BB4010DC297D296D2957F077E00BF
:10137D00121AA3E53BB4020DD297C296D2957F0700
:10138D007E00121AA3E53BB4030DD297D296C295F7
:0A139D007F077E00121AA3C201228E
:01005A002283
:1018F40053B1BF53B2BF53B17F53B27F75985043B6
:101904008920438780438E1053C4DFAB07AA06A9FE
:1019140005A8047F407E427D0F7C00120DBAEF04BF
:09192400F404F58DD28ED2992253
:1015B6008F438E428D418C4053B1BF53B2BF53B15E
:1015C6007F53B27F75985043878053C4F843C42035
:1015D600AB43AA42A941A8407F407E427D0F7C00D2
:1015E600120DBAC374FF9FFF74FF9EFEE49DFDE4D7
:1015F6009CFC7808120E738FC6AB43AA42A941A879
:10160600407F407E427D0F7C00120DBAC374FF9F5F
:09161600FF8FC543C408D29922DC
:070003003098FDAF99C2988F
:01000A0022D3
:081BB900C2998F993099FD22B9
:10161F008F478E468D458C4453B1FB53B2FB53B36A
:10162F00BF53B4BF75F85075C40853C4DFAB47AA96
:10163F0046A945A8447F407E427D0F7C00120DBA1B
:10164F00C374FF9FFF74FF9EFEE49DFDE49CFC7836
:10165F0008120E738FC6AB47AA46A945A8447F4010
:10166F007E427D0F7C00120DBAC374FF9FFF8FC5A2
:04167F0043C4082236
:071BC10030F8FDAF9AC2F8F5
:011BC80022FA
:081BC900C2F98F9A30F9FD22E8
:101A8900EF4E6015E4FDFC0DBD00010CBC05F8BD71
:091A990082F5EF1F70EA1E80E7E0
:011AA2002221
:101AA300EF4E6015E4FDFC0DBD00010CBC38F8BD24
:091AB30054F5EF1F70EA1E80E7F4
:011ABC002207
:101816008F4B8E4A8D498C48538EEF438910D28E5A
:10182600E4FFFEFDFCAB4BAA4AA949A848C3120E29
:10183600626025758BCA758DFA308FFDC28FE54BB8
:1018460024FFF54BE54A34FFF54AE54934FFF549EF
:0B185600E54834FFF54880C8C28E2230
:101861008F4F8E4E8D4D8C4C538EEF438910D28EFF
:10187100E4FFFEFDFCAB4FAA4EA94DA84CC3120ECE
:10188100626025758BEA758DCB308FFDC28FE54F78
:1018910024FFF54FE54E34FFF54EE54D34FFF54D90
:0B18A100E54C34FFF54C80C8C28E22DD
:1016E2008F538E528D518C5053C9BF53C9DF43C99A
:1016F20010D2CAE4FFFEFDFCAB53AA52A951A85076
:10170200C3120E62602575CC3075CDF830CFFDC2A4
:10171200CFE55324FFF553E55234FFF552E551343A
:0E172200FFF551E55034FFF55080C8C2CA22D1
:101730008F578E568D558C5475C40743C408E4FFEB
:10174000FEFDFCAB57AA56A955A854C3120E626001
:101750002875C52C75C6CFE5C430E4FB53C4EFE54E
:101760005724FFF557E55634FFF556E55534FFF598
:0D17700055E55434FFF55480C553C4F722ED
:10177D008F5B8E5A8D598C5875C40743C408E4FF8E
:10178D00FEFDFCAB5BAA5AA959A858C3120E6260A4
:10179D002875C5D875C6FFE5C430E4FB53C4EFE525
:1017AD005B24FFF55BE55A34FFF55AE55934FFF537
:0D17BD0059E55834FFF55880C553C4F72294
:0C14D500015D00015F00015E00015C0091
:0D1B4C00E4FFC2EFD2EE30EFFDAFC3055D48
:011B59002269
:10154800E55E6069E55F120E861594011594021533
:101558009403159904159E0515A30615AD07159452
:1015680008158010158A20158F30158540157CF0D8
:10157800000015B2B2008032431E02802D431E01C6
:101588008028431E048023431E08801E121A1180DF
:1015980019753B038008753B028003753B01120FE8
:0E15A800BAD2018005121BA7D201E4F55E2223
:10003E0053B1EF53B2EF53E8F043E80543B1105319
:0C004E00B2EFE4F5F643F62043E1012296
:03005B00021BB0D5
:091BB000C2EF85C35C755E0132D1
:1014E10002330000013900013600C105C106C10700
:0C14F10001320001380001370001350015
:101B3A00538EF75389F0438901758CCB758AEAD2A3
:021B4A00A922CE
:10119000200503021250121B4C7533008F34853426
:1011A00039E53630E7020537E539C394FD5060E58F
:1011B0003994B0400643368102124EE539D39490FB
:1011C0004017E53630E10DE537D394084006755EEB
:1011D00001755F204336828075E539D394704017DE
:1011E000E53630E20DE537D394084006755E0175AB
:1011F0005F304336848057E539D3945040054336F9
:1012000088804BE539D394304044433690803FE5A5
:101210003630E73530E006755E01755FF0E5363053
:10122000E106755E01755F20E53630E206755E0108
:10123000755F30E53630E306755E01755F40E53673
:1012400030E406755E01755F10E4F536F537C205CA
:01125000227B
:03000B0002199542
:10199500C0E0C0D0C28C758CEA758AEA053205357F
:1019A500E532D394094005D205753200E535D39467
:0F19B5000F4005D206753500D28CD0D0D0E0326D
:10005E0000A50000A50000C30000A41100000000D0
:10006E000000000000101D3F000000000000000016
:10007E00000000000000000000007FFFFF000000F5
:10008E000000000000000000000000007FFFFF00E5
:10009E00C80083C4D5FFABFB241009FFABFA0800E0
:1000AE0009FFABFA000009FFABFBA41829FFAD84D2
:1000BE00000018FFAD85001FFFFFAD81001212FF7B
:1000CE00AD82001414FFAD83000088FFAD80005494
:1000DE0054FFAD87005454FFAD86000000FFAD867F
:1000EE00000001FFAD8600000000C20000C97A00CA
:1000FE00DF1E00DB7800DB7800C70000E00A00D5C9
:10010E005300E33E00CF0000E17000CB0000E22F71
:10011E0000D96200E52F00E47000D73001D09A00BC
:10012E00C60100DD0100D40A00DA0600DC0000A1E1
:10013E000500000000000400002700001600006B00
:10014E0000D80000A105000001000000000017000B
:10015E00003A00007B00D80000A10500000200005C
:10016E000300007C00003A00000000D80000A1054A
:10017E0000000300000000002300007F0000630069
:10018E00D80000A1050000040000000000310000AE
:10019E000D00002A00D80000A10500000500000097
:1001AE0000005600000D00003B00D80000A1050025
:1001BE00000600000000004400003A00004A00D88B
:1001CE000000A105000007000000000066000024EA
:1001DE0000001600D80000A1050000080000000075
:1001EE00005C00002400001D00D80000A1050000E6
:1001FE000900000000006D00003A00002500D80044
:10020E0000CF0100D10000D10900D11200D11B0096
:10021E00D12400D12D00D13600D13F00D14800D1DC
:10022E004C00D10C00CF0000D21300CF0000D32120
:10023E0000D61900CF0000E86100E94700CF00FFAB
:10024E00ABF30000C1FFABF4000001FFABF5301AB9
:10025E0048FFABF620EE7DFFABF7029078FFABF4D4
:10026E00000002FFABF5101A4AFFABF621E60006BE
:10027E00AA0600A27B61F4000000906170000002EB
:10028E00473C0A00380A0064F40000013460F400B0
:10029E000001DA05F420FFFFFF0464A0204C0020CB
:1002AE00480044B8000CC4A000001657F4007FF7B5
:1002BE00055F5C005F580057F4007FFF385F5C00FD
:1002CE005F5800205C0020580057F4007FFFBC5F91
:1002DE005C005F580057F4007FC7295F5C005F58D1
:1002EE00000AF08000007857F4007FF63A5F5C0059
:1002FE005F580057F4007FFF275F5C005F580020B7
:10030E005C0020580057F4007FFFB65F5C005F581A
:10031E000057F4007FC2235F5C005F580054F0006A
:10032E00FFFFF10C1EE20140C60000070140C500B0
:10033E0000010AF0A200008961F40000CDAC6170EA
:10034E000000021461F40000C8326170000001FF69
:10035E0060F4000000986070000001F80BF080005F
:10036E00009800000C0BF08000D36846F4004DF8A6
:10037E00F074F40000001E4E6C0000000C55BE0020
:10038E000140CEFFFF3F30FF0004CDCD20001B22E9
:10039E00090000000B0D104A00000A0A9DA1000082
:1003AE009F22090000000B0D104A0000040A9D81D7
:1003BE000000A508451A56F4000003FF200062084D
:1003CE00CC1A07F02D00003E57F0000002AC45F4A9
:1003DE000000000245F46AFF0FFF20006E5570000A
:0C03EE000002AC00000C00AC0000850018
:1007960000A50000A50000C30000A4110000000091
:1007A6000000000000101D3F0000000000000000D7
:1007B600000000000000000000007FFFFF000000B6
:1007C6000000000000000000000000007FFFFF00A6
:1007D600C80083C4D5FFABFB241009FFABFA0800A1
:1007E60009FFABFA000009FFABFBA41829FFAD8493
:1007F600000018FFAD85001FFFFFAD81001212FF3C
:10080600AD82001414FFAD83000088FFAD80005454
:1008160054FFAD87005454FFAD86000000FFAD863F
:10082600000001FFAD8600000000C20000C978008C
:10083600DF1E00DB7800DB7800C70000E00A00D589
:100846005300E33E00CF0400E17000CB0000E22F2E
:1008560000D97500E52F00E47000D73001D09A006A
:10086600C60100DD0100D40000DA0600DC0000A1AC
:100876000500000000000400001B00001600003BFD
:1008860000D80000A10500000100000000001200D1
:10089600003A00003F00D80000A105000002000059
:1008A6000000001800003A00005D00D80000A10515
:1008B60000000300000000002100000D00002100E0
:1008C600D80000A10500000400000000003200006E
:1008D6000D00003900D80000A10500000500000049
:1008E60000006800003A00002F00D80000A10500B3
:1008F600000600000000006E00003A00004100D82B
:100906000000A105000007000000000065000024AB
:1009160000002600D80000A1050000080000030022
:10092600007D00000D00000D00D80000A1050000AC
:100936000900000000006100000D00003F00D80023
:1009460000CF0100D10000D10900D11200D11B0057
:10095600D12400D12D00D13600D13F00D14800D19D
:100966004C00D11400CF0400D21400CF0400CF04F1
:1009760000E85800E94E00CF04FFABF30000C1FFCA
:10098600ABF4000001FFABF5301A48FFABF620EEE2
:100996007DFFABF7029078FFABF4000002FFABF5EA
:1009A600101A4AFFABF621E60006AA0600A27B61F2
:1009B600F4000000906170000002473C0A00380A0B
:1009C6000064F40000013460F4000001DA05F4204C
:1009D600FFFFFF0464A0204C0020480044B8000C30
:1009E600C4A000001657F4007FF7055F5C005F584F
:1009F6000057F4007FFF385F5C005F5800205C0002
:100A060020580057F4007FFFBC5F5C005F5800571A
:100A1600F4007FC7295F5C005F58000AF080000081
:100A26007857F4007FF63A5F5C005F580057F40091
:100A36007FFF275F5C005F5800205C00205800574E
:100A4600F4007FFFB65F5C005F580057F4007FC27A
:100A5600235F5C005F580054F000FFFFF10C1EE2BC
:100A66000140C60000070140C50000010AF0A200CF
:100A7600008961F40000CDAC61700000021461F4DD
:100A86000000C8326170000001FF60F400000098A9
:100A96006070000001F80BF08000009800000C0B5D
:100AA600F08000D36846F4004DF8F074F4000000BE
:100AB6001E4E6C0000000C55BE000140CEFFFF3FED
:100AC60030FF0004CDCD20001B22090000000B0DD5
:100AD600104A00000A0A9DA100009F22090000009A
:100AE6000B0D104A0000040A9D810000A508451A56
:100AF60056F4000003FF20006208CC1A07F02D0010
:100B0600003E57F0000002AC45F40000000245F438
:100B16006AFF0FFF20006E5570000002AC00000C4B
:060B260000AC0000850098
:1003FA0000A50000A50000C30000A4110000000031
:10040A000000000000101D3F000000000000000076
:10041A00000000000000000000007FFFFF00000055
:10042A000000000000000000000000007FFFFF0045
:10043A00C80083C4D5FFABFB241009FFABFA080040
:10044A0009FFABFA000009FFABFBA41829FFAD8432
:10045A00000018FFAD85001FFFFFAD81001212FFDB
:10046A00AD82001414FFAD83000088FFAD800054F4
:10047A0054FFAD87005454FFAD86000000FFAD86DF
:10048A00000001FFAD8600000000C20000C97A002A
:10049A00DF1E00DB7800DB7800C70000E00A00D529
:1004AA005900E35000CF0000E17000CB0000E22FBA
:1004BA0000D96F00E52F00E47000D73001D09A0010
:1004CA00C60100DD0100D40000DA0000DC0000A152
:1004DA000500000000000400001E00001600006B6A
:1004EA0000D80000A1050000010000000000000083
:1004FA00003A00003F00D80000A1050000020000F9
:10050A000000002B00003A00002B00D80000A105D3
:10051A0000000300000000002400003A00005E0012
:10052A00D80000A105000004000000000037000008
:10053A000D00003000D80000A105000005000000F1
:10054A0000006E00000D00002B00D80000A105007D
:10055A00000600000000004300003A00004500D8F1
:10056A000000A10500000700000000006500000D62
:10057A0000002900D80000A10500000800000000C2
:10058A00001200000D00001B00D80000A1050000A9
:10059A000900000200007000001700003D00D800AA
:1005AA0000CF0100D10000D10900D11200D11B00F7
:1005BA00D12400D12D00D13600D13F00D14800D13D
:1005CA004C00D10700CF0000D22E00CF0000D31379
:1005DA0000D60B00CF0000E85100E94800CF00FF29
:1005EA00ABF30000C1FFABF4000001FFABF5301A1A
:1005FA0048FFABF620EE7DFFABF7029078FFABF435
:10060A00000002FFABF5101A4AFFABF621E600061E
:10061A00AA0600A27B61F40000009061700000024B
:10062A00473C0A00380A0064F40000013460F40010
:10063A000001DA05F420FFFFFF0464A0204C00202B
:10064A00480044B8000CC4A000001657F4007FF715
:10065A00055F5C005F580057F4007FFF385F5C005D
:10066A005F5800205C0020580057F4007FFFBC5FF1
:10067A005C005F580057F4007FC7295F5C005F5831
:10068A00000AF08000007857F4007FF63A5F5C00B9
:10069A005F580057F4007FFF275F5C005F58002017
:1006AA005C0020580057F4007FFFB65F5C005F587B
:1006BA000057F4007FC2235F5C005F580054F000CB
:1006CA00FFFFF10C1EE20140C60000070140C50011
:1006DA0000010AF0A200008961F40000CDAC61704B
:1006EA000000021461F40000C8326170000001FFCA
:1006FA0060F4000000986070000001F80BF08000C0
:10070A00009800000C0BF08000D36846F4004DF806
:10071A00F074F40000001E4E6C0000000C55BE0080
:10072A000140CEFFFF3F30FF0004CDCD20001B2249
:10073A00090000000B0D104A00000A0A9DA10000E2
:10074A009F22090000000B0D104A0000040A9D8137
:10075A000000A508451A56F4000003FF20006208AD
:10076A00CC1A07F02D00003E57F0000002AC45F409
:10077A000000000245F46AFF0FFF20006E5570006A
:0C078A000002AC00000C00AC0000850078
:051B1300121B18D29323
:0E1B1800E4FFFE0FBF00010EEF64324E70F5C9
:011B2600229C
:041BD100C29280FC40
:0A1B7F00D293121B18D294021B1817
:0A1B8900D294121B13C294021B1821
:10196200900000D293121B18309423AF82AE83E40E
:10197200FCFD7B507AC3F9F8D3120E4C4010A3E55C
:1019820082B488E4E583B413DF121BD180DAC293F8
:03199200021B181D
:0A1B9300C294121B13D294021B1817
:1019C400AD07E4FCC293121B18ED30E704D29480F7
:1019D40002C294ED25E0FD121B130CBC08E6C29371
:0819E400121B18D294021B181B
:10000E00C20C121B18D20B121B18E4FCD20C121BC2
:10001E0018ED25E0FFA20BE4334FFDC20C121B18A6
:09002E000CBC08E8121B18AF0518
:0100370022A6
:0817CA008B2A8A2B892CAD0744
:1017D200E4F531121B89AF051219C4121962E4F53E
:1017E20031AF31E4FCFDFEAB30AA2FA92EA82DD3D8
:1017F200120E62401CAB2A052CE52CAA2B700205A6
:101802002B14F9120D53FF1219C4121962053180FB
:04181200D0021B9352
:1014FD00041300000000011800011900011A000179
:10150D000B00C108C109C10A011000011200011729
:10151D0000010A00010C00010E00010D00011B006D
:0C152D00010800010900010F000111007D
:101AD40043B10853B2F7D28353E9DF43EA0853EB27
:051AE400F7439B022204
:03003B000210B1FF
:1010B100C0E0C0F0C083C082C0D075D000C000C005
:0D10C10001C002C003C004C005C006C00786
:1010CE00752200752300752400E5EC20E303021160
:1010DE007253ECF7539BFD052205247F017E00120F
:1010EE001A893083F4E524C394055002806E75246A
:1010FE000005247F017E00121A892083F4752400D6
:10110E007522007523003083FD7F017E00121A893F
:10111E0030831C74132522F8C000E6FFC313D000E1
:10112E00F674132522F8E64480F630831080FB74A3
:10113E00132522F8C000E6FFC313D000F60523E501
:10114E0023C3940840C00522E522C3940440B43062
:10115E0083FD121AE97F037E00121A89121B9D432A
:07116E009B02800375EC00F9
:10117500D007D006D005D004D003D002D001D000CE
:0B118500D0D0D082D083D0F0D0E03278
:101AE900E516F4B51509851518121B9DD20822E4CF
:051AF900F518C20822EF
:091B9D007F047813E4F608DFFC74
:011BA600221C
:100EAC00E4F527200603020FB9C206E51920E70373
:100EBC00020F68051AE5186003020F68F51A3091E5
:100ECC000FC291E50B64146005E50BB41502D291C9
:100EDC00E50B120E860F06100F15110F47120F4F50
:100EEC00130F57140F5F150F1D160F25410F2D4AA9
:100EFC000F354B0F3D4C00000F65E50EC3940450AD
:100F0C0058755E80755F018050755E80755F0280DC
:100F1C0048755E80755F038040755E80755F4080AC
:100F2C0038755E80755F048030755E80755F0580F6
:100F3C0028755E80051B755F06801E755E80755F6B
:100F4C00208016755E80755F30800E755E80755FD3
:100F5C00F08006755E80755F07E4F51930084EC2A7
:100F6C000885180BE50B641460053090028005E5CC
:100F7C000BB41403431980E51AD39402402CE518E2
:100F8C0024EE601814601D2403701F050EE50ED3AB
:100F9C0094044016755E80755F08800E755E8075D2
:0D0FAC005F208006755E80755F30E4F518EB
:010FB9002215
:1018AC00FFAD83000088FFAD86000000FFAD860011
:1018BC000001FFAD86000000FFAD83000099FFAD75
:1018CC0086000000FFAD86000001FFAD8600000021
:1018DC00FFAD830000AAFFAD86000000FFAD8600BF
:0818EC000001FFAD86000000C1
:0E153900013A01013B02013F0F033C01D09A31
:100FBA00209106D291D203D202E53B24FE6052145C
:100FCA00700302105F240260030210A1E4F527F502
:100FDA0028AE27AF287C007D03120D6C74FA2FF916
:100FEA0074033EFA7BFFE4753003F52FF52EF52DD9
:100FFA007FE61217CA121B18121B180528E528705B
:10100A00020527C39434E5276480948140C3021003
:10101A00A1E4F527F528AE27AF287C007D03120D41
:10102A006C74962FF974073EFA7BFFE4753003F56A
:10103A002FF52EF52D7FE61217CA121B18121B1850
:10104A000528E52870020527C39434E527648094AF
:10105A008140C38042E4F527F528AE27AF287C00FB
:10106A007D03120D6C745E2FF974003EFA7BFFE467
:10107A00753003F52FF52EF52D7FE61217CA121BD0
:10108A0018121B180528E52870020527C39434E5B1
:10109A00276480948140C3120B2C2003033002067C
:0610AA00C291C203C20264
:0110B000221D
:100B2C00E53FB41F004003020D52900B3DF82828FE
:100B3C0073020B9A020BA1020BA9020BB1020BB9A7
:100B4C00020BC1020BCF020BDF020BEF020BFF02F9
:100B5C000C0F020C1F020C2F020C3F020C4F020C4C
:100B6C005F020C6F020C7F020C8F020C9F020CAF09
:100B7C00020CBF020CCE020CDD020CEC020CFB02D0
:100B8C000D0A020D19020D28020D37020D37E4F57E
:100B9C003CF53E8026E4F53C753E55801EE4F53C64
:100BAC00753E698016E4F53C753E9A800EE4F53C82
:100BBC00753ECD8006E4F53C753EFFFB7A00793C32
:100BCC00020D44753C01753E187B007A00793CE4BB
:100BDC00020D44753C01753E317B007A00793CE492
:100BEC00020D44753C01753E367B007A00793CE47D
:100BFC00020D44753C01753E3B7B007A00793CE468
:100C0C00020D44753C01753E407B007A00793CE452
:100C1C00020D44753C01753E457B007A00793CE43D
:100C2C00020D44753C01753E4A7B007A00793CE428
:100C3C00020D44753C01753E4F7B007A00793CE413
:100C4C00020D44753C01753E547B007A00793CE4FE
:100C5C00020D44753C01753E597B007A00793CE4E9
:100C6C00020D44753C01753E5E7B007A00793CE4D4
:100C7C00020D44753C01753E637B007A00793CE4BF
:100C8C00020D44753C01753E687B007A00793CE4AA
:100C9C00020D44753C01753E6D7B007A00793CE495
:100CAC00020D44753C01753E727B007A00793CE480
:100CBC00020D44753C01753E777B007A00793CE46B
:100CCC008076753C01753E7C7B007A00793CE48033
:100CDC0067753C01753E817B007A00793CE4805855
:100CEC00753C01753E867B007A00793CE480497541
:100CFC003C01753E8B7B007A00793CE4803A753C74
:100D0C0001753E907B007A00793CE4802B753C01A8
:100D1C00753E957B007A00793CE4801C753C01752E
:100D2C003E9A7B007A00793CE4800D753C01753E5F
:100D3C009F7B007A00793CE4753003F52FF52EF596
:070D4C002D7FE61217CA22F9
:011BD50022ED
:03003800020FBAFA
:1013A700E53A64017031F527E52775F003A424AC0D
:1013B700F9741835F0FA7BFFE4753003F52FF52E35
:1013C700F52D7FE61217CA121B18121B180527E501
:1013D70027C3940840D222E53A64027031F527E525
:1013E7002775F003A424C4F9741835F0FA7BFFE4D9
:1013F700753003F52FF52EF52D7FE61217CA121B50
:1014070018121B180527E527C3940840D222E53A8E
:1014170064037030F527E52775F003A424DCF9741D
:101427001835F0FA7BFFE4753003F52FF52EF52D0F
:101437007FE61217CA121B18121B180527E527C3C8
:04144700940840D2F3
:01144B00227E
:101A110030851DE55F24FE600E14600E24FB600D11
:101A21002407700C021B27021B73021B67121AFE8C
:011A31002292
:101AFE00D287D2867F2C7E01121AA3C287C286E4B9
:051B0E00F560F50E2258
:101B2700D287D2867F197E00121AA3C287C286E4A3
:031B3700F50E2286
:0C1B6700D2877F197E00121AA3C28722C9
:0C1B7300D2867F197E00121AA3C28622BF
:0300000002125198
:1012510075C7AA75C75575FD5A75C7AA75C755755E
:10126100FDA5787FE4F6D8FD9000007FFF7E03E4C2
:0C127100F0A3DFFCDEFA7581610212B808
:10127D0002144CE493A3F8E493A34003F68001F227
:10128D0008DFF48029E493A3F85407240CC8C33372
:10129D00C4540F4420C8834004F456800146F6DF41
:1012AD00E4800B01020408102040809014CAE47EF3
:1012BD00019360BCA3FF543F30E509541FFEE49336
:1012CD00A360010ECF54C025E060A840B8E493A3FD
:1012DD00FAE493A3F8E493A3C8C582C8CAC583CA28
:1012ED00F0A3C8C582C8CAC583CADFE9DEE780BEE0
:0115470000A3
:100D5300BB010689828A83E0225002E722BBFE029E
:090D6300E32289828A83E49322D1
:100D6C00EF8DF0A4A8F0CF8CF0A428CE8DF0A42E9B
:020D7C00FE2255
:100D7E0075F008758200EF2FFFEE33FECD33CDCC2C
:100D8E0033CCC58233C5829BED9AEC99E5829840AF
:100D9E000CF582EE9BFEED9AFDEC99FC0FD5F0D68C
:100DAE00E4CEFBE4CDFAE4CCF9A88222B800C1B9B6
:100DBE000059BA002DEC8BF084CFCECDFCE5F0CBF4
:100DCE00F97818EF2FFFEE33FEED33FDEC33FCEB2D
:100DDE0033FB10D703994004EB99FB0FD8E5E4F9E8
:100DEE00FA227818EF2FFFEE33FEED33FDEC33FCD5
:100DFE00C933C910D7059BE99A4007EC9BFCE99AC9
:100E0E00F90FD8E0E4C9FAE4CCFB2275F010EF2F0D
:100E1E00FFEE33FEED33FDCC33CCC833C810D7070D
:100E2E009BEC9AE899400AED9BFDEC9AFCE899F848
:0E0E3E000FD5F0DAE4CDFBE4CCFAE4C8F922DB
:100E4C00EB9FF5F0EA9E42F0E99D42F0EC6480C81D
:060E5C0064809845F022BD
:100E6200EB9FF5F0EA9E42F0E99D42F0E89C45F0E6
:010E7200225D
:100E7300E8600FECC313FCED13FDEE13FEEF13FF5D
:030E8300D8F12281
:100E8600D083D082F8E4937012740193700DA3A3FB
:100E960093F8740193F5828883E47374029368600F
:060EA600EFA3A3A380DF0F
:00000001FF
