:1011A200E4F50FF5101216ACE50F14601514601A71
:1011B20014601F146024240470EE1214EA750F01E7
:1011C20080E6121149750F0280DE1211F2750F03CB
:1011D20080D61215F6750F0480CE30850E30B00819
:1011E2001217CCE4F54E8003754E01E4F50F80B87A
:0D1755007596307597307F027E0002169267
:10167800E4F5B1F5B2F5B3F5B4F5ACF5AD53B3FE99
:0A16880043B401C290C202C2002266
:1016AC0012175512167812171612003E1216C51282
:0916BC00177AD2AFD28CD2CA22F7
:0315C600011D0004
:1014EA0030022230001FD291D290C202C280C28240
:1014FA00C281C297C296C2957F027E0012169212CC
:10150A000D7CC29122200213200010C290D202D276
:0C151A0080D282D281D297D296D2952244
:0617C200300902B2912281
:10114900300155E51D600DD280D282D2817F147E97
:1011590000121692E527B40106C280D282D281E537
:1011690027B40206D280C282D281E527B40306D20F
:1011790080D282C281E528B40106C297D296D2955F
:10118900E528B40206D297C296D295E528B403069B
:09119900D297D296C295C2012240
:0100380022A5
:1015260053B1BF53B2BF53B17F53B27F7598504387
:101536008920438780438E1053C4DFAB07AA06A9D0
:1015460005A8047F407E427D0F7C00120B93EF04BA
:09155600F404F58DD28ED2992225
:10107C008F2F8E2E8D2D8C2C53B1BF53B2BF53B1ED
:10108C007F53B27F75985043878053C4F843C42074
:10109C00AB2FAA2EA92DA82C7F407E427D0F7C0061
:1010AC00120B93C374FF9FFF74FF9EFEE49DFDE43F
:1010BC009CFC7808120C4C8FC6AB2FAA2EA92DA81D
:1010CC002C7F407E427D0F7C00120B93C374FF9FDC
:0910DC00FF8FC543C408D299221C
:070003003098FDAF99C2988F
:01000A0022D3
:0817A200C2998F993099FD22D4
:1010E5008F338E328D318C3053B1FB53B2FB53B3FA
:1010F500BF53B4BF75F85075C40853C4DFAB33AAEA
:1011050032A931A8307F407E427D0F7C00120B93BF
:10111500C374FF9FFF74FF9EFEE49DFDE49CFC7875
:1011250008120C4C8FC6AB33AA32A931A8307F40C8
:101135007E427D0F7C00120B93C374FF9FFF8FC50A
:0411450043C4082275
:0717AA0030F8FDAF9AC2F810
:0117B1002215
:0817B200C2F98F9A30F9FD2203
:10169200EF4E6015E4FDFC0DBD00010CBC38F8BD39
:0916A20054F5EF1F70EA1E80E709
:0116AB00221C
:101376008F378E368D358C34538EF7438901D28C58
:10138600E4FFFEFDFCAB37AA36A935A834C3120C20
:101396003B6025758A7E758CFF308DFDC28DE537E5
:1013A60024FFF537E53634FFF536E53534FFF535F8
:0B13B600E53434FFF53480C8C28C22FF
:1013C1008F178E168D158C14538EF7438901D28C8D
:1013D100E4FFFEFDFCAB17AA16A915A814C3120C55
:1013E1003B6025758ACA758CFA308DFDC28DE51773
:1013F10024FFF517E51634FFF516E51534FFF5154D
:0B140100E51434FFF51480C8C28C22F3
:10140C008F0E8E0D8D0C8C0B538EEF438910D28E5C
:10141C00E4FFFEFDFCAB0EAA0DA90CA80BC3120C2D
:10142C003B6025758BCA758DFA308FFDC28FE50E2A
:10143C0024FFF50EE50D34FFF50DE50C34FFF50C2E
:0B144C00E50B34FFF50B80C8C28E22B8
:101457008F3B8E3A8D398C38538EEF438910D28E5D
:10146700E4FFFEFDFCAB3BAA3AA939A838C3120C2E
:101477003B6025758BEA758DCB308FFDC28FE53BC1
:1014870024FFF53BE53A34FFF53AE53934FFF53902
:0B149700E53834FFF53880C8C28E2213
:101242008F3F8E3E8D3D8C3C53C9BF53C9DF43C98E
:1012520010D2CAE4FFFEFDFCAB3FAA3EA93DA83C6A
:10126200C3120C3B602575CC3075CDF830CFFDC272
:10127200CFE53F24FFF53FE53E34FFF53EE53D3443
:0E128200FFF53DE53C34FFF53C80C8C2CA22B2
:101290008F438E428D418C4075C40743C408E4FFE0
:1012A000FEFDFCAB43AA42A941A840C3120C3B601F
:1012B0002875C52C75C6CFE5C430E4FB53C4EFE5F3
:1012C0004324FFF543E54234FFF542E54134FFF5A1
:0D12D00041E54034FFF54080C553C4F722CE
:1012DD008F478E468D458C4475C40743C408E4FF83
:1012ED00FEFDFCAB47AA46A945A844C3120C3B60C2
:1012FD002875C5D875C6FFE5C430E4FB53C4EFE5CA
:10130D004724FFF547E54634FFF546E54534FFF53F
:0D131D0045E54434FFF54480C553C4F72274
:0815C900014D00C108014C00B6
:0D174700E4FFC2EFD2EE30EFFDAFC3054D61
:011754002272
:1015F60030082CE54C7002B200E54CB41005121709
:1016060038D201E54CB42003121626E54CB430035B
:1016160012155FE54CB44005120E74D201C20822C1
:10003E0053B1EF53B2EF53E8F043E80543B1105319
:0C004E00B2EFE4F5F643F62043E1012296
:03005B000217BACF
:0817BA00C2EF85C34CD20832D6
:0E15D10002490000014B00C103C104014800A3
:10171600538EF75389F0438901758CCB758AEAD2CB
:02172600A922F6
:03000B00020FE4FD
:100FE400C0E0C0F0C083C082C0D075D000C000C0D3
:100FF40001C002C003C004C005C006C007C28C758E
:101004008CEA758AEA0548E548D39405404D1217E1
:10101400477549008F4A854A4BE54BC394FD5038C8
:10102400E54B94B04004B200802EE54BD39490403D
:1010340004B2978023E54BD394704004B296801891
:10104400E54BD3945040060527D201800BE54BD3E2
:10105400943040040528D201754800D28CD007D0C2
:1010640006D005D004D003D002D001D000D0D0D017
:0810740082D083D0F0D0E032FD
:10005E0000A50000A50000C30000A41100000000D0
:10006E000000000000101D3F000000000000000016
:10007E00000000000000000000007FFFFF000000F5
:10008E000000000000000000000000007FFFFF00E5
:10009E00C80083C4D5FFABFB241009FFABFA0800E0
:1000AE0009FFABFA000009FFABFBA41829FFAD84D2
:1000BE00000018FFAD85001FFFFFAD81001212FF7B
:1000CE00AD82001414FFAD83000088FFAD80005494
:1000DE0054FFAD87005454FFAD86000000FFAD867F
:1000EE00000001FFAD8600000000C20000C97A00CA
:1000FE00DF1E00DB7800DB7800C70000E00A00D5C9
:10010E005300E33E00CF0000E17000CB0000E22F71
:10011E0000D96200E52F00E47000D73001D09A00BC
:10012E00C60100DD0100D40A00DA0600DC0000A1E1
:10013E000500000000000400002700001600006B00
:10014E0000D80000A105000001000000000017000B
:10015E00003A00007B00D80000A10500000200005C
:10016E000300007C00003A00000000D80000A1054A
:10017E0000000300000000002300007F0000630069
:10018E00D80000A1050000040000000000310000AE
:10019E000D00002A00D80000A10500000500000097
:1001AE0000005600000D00003B00D80000A1050025
:1001BE00000600000000004400003A00004A00D88B
:1001CE000000A105000007000000000066000024EA
:1001DE0000001600D80000A1050000080000000075
:1001EE00005C00002400001D00D80000A1050000E6
:1001FE000900000000006D00003A00002500D80044
:10020E0000CF0100D10000D10900D11200D11B0096
:10021E00D12400D12D00D13600D13F00D14800D1DC
:10022E004C00D10C00CF0000D21300CF0000D32120
:10023E0000D61900CF0000E86100E94700CF00FFAB
:10024E00ABF30000C1FFABF4000001FFABF5301AB9
:10025E0048FFABF620EE7DFFABF7029078FFABF4D4
:10026E00000002FFABF5101A4AFFABF621E60006BE
:10027E00AA0600A27B61F4000000906170000002EB
:10028E00473C0A00380A0064F40000013460F400B0
:10029E000001DA05F420FFFFFF0464A0204C0020CB
:1002AE00480044B8000CC4A000001657F4007FF7B5
:1002BE00055F5C005F580057F4007FFF385F5C00FD
:1002CE005F5800205C0020580057F4007FFFBC5F91
:1002DE005C005F580057F4007FC7295F5C005F58D1
:1002EE00000AF08000007857F4007FF63A5F5C0059
:1002FE005F580057F4007FFF275F5C005F580020B7
:10030E005C0020580057F4007FFFB65F5C005F581A
:10031E000057F4007FC2235F5C005F580054F0006A
:10032E00FFFFF10C1EE20140C60000070140C500B0
:10033E0000010AF0A200008961F40000CDAC6170EA
:10034E000000021461F40000C8326170000001FF69
:10035E0060F4000000986070000001F80BF080005F
:10036E00009800000C0BF08000D36846F4004DF8A6
:10037E00F074F40000001E4E6C0000000C55BE0020
:10038E000140CEFFFF3F30FF0004CDCD20001B22E9
:10039E00090000000B0D104A00000A0A9DA1000082
:1003AE009F22090000000B0D104A0000040A9D81D7
:1003BE000000A508451A56F4000003FF200062084D
:1003CE00CC1A07F02D00003E57F0000002AC45F4A9
:1003DE000000000245F46AFF0FFF20006E5570000A
:0C03EE000002AC00000C00AC0000850018
:1007960000A50000A50000C30000A4110000000091
:1007A6000000000000101D3F0000000000000000D7
:1007B600000000000000000000007FFFFF000000B6
:1007C6000000000000000000000000007FFFFF00A6
:1007D600C80083C4D5FFABFB241009FFABFA0800A1
:1007E60009FFABFA000009FFABFBA41829FFAD8493
:1007F600000018FFAD85001FFFFFAD81001212FF3C
:10080600AD82001414FFAD83000088FFAD80005454
:1008160054FFAD87005454FFAD86000000FFAD863F
:10082600000001FFAD8600000000C20000C978008C
:10083600DF1E00DB7800DB7800C70000E00A00D589
:100846005300E33E00CF0400E17000CB0000E22F2E
:1008560000D97500E52F00E47000D73001D09A006A
:10086600C60100DD0100D40000DA0600DC0000A1AC
:100876000500000000000400001B00001600003BFD
:1008860000D80000A10500000100000000001200D1
:10089600003A00003F00D80000A105000002000059
:1008A6000000001800003A00005D00D80000A10515
:1008B60000000300000000002100000D00002100E0
:1008C600D80000A10500000400000000003200006E
:1008D6000D00003900D80000A10500000500000049
:1008E60000006800003A00002F00D80000A10500B3
:1008F600000600000000006E00003A00004100D82B
:100906000000A105000007000000000065000024AB
:1009160000002600D80000A1050000080000030022
:10092600007D00000D00000D00D80000A1050000AC
:100936000900000000006100000D00003F00D80023
:1009460000CF0100D10000D10900D11200D11B0057
:10095600D12400D12D00D13600D13F00D14800D19D
:100966004C00D11400CF0400D21400CF0400CF04F1
:1009760000E85800E94E00CF04FFABF30000C1FFCA
:10098600ABF4000001FFABF5301A48FFABF620EEE2
:100996007DFFABF7029078FFABF4000002FFABF5EA
:1009A600101A4AFFABF621E60006AA0600A27B61F2
:1009B600F4000000906170000002473C0A00380A0B
:1009C6000064F40000013460F4000001DA05F4204C
:1009D600FFFFFF0464A0204C0020480044B8000C30
:1009E600C4A000001657F4007FF7055F5C005F584F
:1009F6000057F4007FFF385F5C005F5800205C0002
:100A060020580057F4007FFFBC5F5C005F5800571A
:100A1600F4007FC7295F5C005F58000AF080000081
:100A26007857F4007FF63A5F5C005F580057F40091
:100A36007FFF275F5C005F5800205C00205800574E
:100A4600F4007FFFB65F5C005F580057F4007FC27A
:100A5600235F5C005F580054F000FFFFF10C1EE2BC
:100A66000140C60000070140C50000010AF0A200CF
:100A7600008961F40000CDAC61700000021461F4DD
:100A86000000C8326170000001FF60F400000098A9
:100A96006070000001F80BF08000009800000C0B5D
:100AA600F08000D36846F4004DF8F074F4000000BE
:100AB6001E4E6C0000000C55BE000140CEFFFF3FED
:100AC60030FF0004CDCD20001B22090000000B0DD5
:100AD600104A00000A0A9DA100009F22090000009A
:100AE6000B0D104A0000040A9D810000A508451A56
:100AF60056F4000003FF20006208CC1A07F02D0010
:100B0600003E57F0000002AC45F40000000245F438
:100B16006AFF0FFF20006E5570000002AC00000C4B
:060B260000AC0000850098
:1003FA0000A50000A50000C30000A4110000000031
:10040A000000000000101D3F000000000000000076
:10041A00000000000000000000007FFFFF00000055
:10042A000000000000000000000000007FFFFF0045
:10043A00C80083C4D5FFABFB241009FFABFA080040
:10044A0009FFABFA000009FFABFBA41829FFAD8432
:10045A00000018FFAD85001FFFFFAD81001212FFDB
:10046A00AD82001414FFAD83000088FFAD800054F4
:10047A0054FFAD87005454FFAD86000000FFAD86DF
:10048A00000001FFAD8600000000C20000C97A002A
:10049A00DF1E00DB7800DB7800C70000E00A00D529
:1004AA005900E35000CF0000E17000CB0000E22FBA
:1004BA0000D96F00E52F00E47000D73001D09A0010
:1004CA00C60100DD0100D40000DA0000DC0000A152
:1004DA000500000000000400001E00001600006B6A
:1004EA0000D80000A1050000010000000000000083
:1004FA00003A00003F00D80000A1050000020000F9
:10050A000000002B00003A00002B00D80000A105D3
:10051A0000000300000000002400003A00005E0012
:10052A00D80000A105000004000000000037000008
:10053A000D00003000D80000A105000005000000F1
:10054A0000006E00000D00002B00D80000A105007D
:10055A00000600000000004300003A00004500D8F1
:10056A000000A10500000700000000006500000D62
:10057A0000002900D80000A10500000800000000C2
:10058A00001200000D00001B00D80000A1050000A9
:10059A000900000200007000001700003D00D800AA
:1005AA0000CF0100D10000D10900D11200D11B00F7
:1005BA00D12400D12D00D13600D13F00D14800D13D
:1005CA004C00D10700CF0000D22E00CF0000D31379
:1005DA0000D60B00CF0000E85100E94800CF00FF29
:1005EA00ABF30000C1FFABF4000001FFABF5301A1A
:1005FA0048FFABF620EE7DFFABF7029078FFABF435
:10060A00000002FFABF5101A4AFFABF621E600061E
:10061A00AA0600A27B61F40000009061700000024B
:10062A00473C0A00380A0064F40000013460F40010
:10063A000001DA05F420FFFFFF0464A0204C00202B
:10064A00480044B8000CC4A000001657F4007FF715
:10065A00055F5C005F580057F4007FFF385F5C005D
:10066A005F5800205C0020580057F4007FFFBC5FF1
:10067A005C005F580057F4007FC7295F5C005F5831
:10068A00000AF08000007857F4007FF63A5F5C00B9
:10069A005F580057F4007FFF275F5C005F58002017
:1006AA005C0020580057F4007FFFB65F5C005F587B
:1006BA000057F4007FC2235F5C005F580054F000CB
:1006CA00FFFFF10C1EE20140C60000070140C50011
:1006DA0000010AF0A200008961F40000CDAC61704B
:1006EA000000021461F40000C8326170000001FFCA
:1006FA0060F4000000986070000001F80BF08000C0
:10070A00009800000C0BF08000D36846F4004DF806
:10071A00F074F40000001E4E6C0000000C55BE0080
:10072A000140CEFFFF3F30FF0004CDCD20001B2249
:10073A00090000000B0D104A00000A0A9DA10000E2
:10074A009F22090000000B0D104A0000040A9D8137
:10075A000000A508451A56F4000003FF20006208AD
:10076A00CC1A07F02D00003E57F0000002AC45F409
:10077A000000000245F46AFF0FFF20006E5570006A
:0C078A000002AC00000C00AC0000850078
:0516EF001216F4D29375
:0E16F400E4FFFE0FBF00010EEF64324E70F5F2
:0117020022C4
:0417C800C29280FC4D
:0A177A00D2931216F4D2940216F472
:0A178400D2941216EFC2940216F47C
:10159300900000D2931216F4309423AF82AE83E40A
:1015A300FCFD7B507AC3F9F8D3120C254010A3E558
:1015B30082B488E4E583B413DF1217C880DAC293D8
:0315C3000216F419
:0A178E00C2941216EFD2940216F472
:10165000AD07E4FCC2931216F4ED30E704D2948097
:1016600002C294ED25E0FD1216EF0CBC08E6C29311
:081670001216F4D2940216F4E4
:10000E00C2061216F4D2051216F4E4FCD20612162B
:10001E00F4ED25E0FFA205E4334FFDC2061216F4FF
:09002E000CBC08E81216F4AF0541
:0100370022A6
:08132A008B158A168917AD0727
:10133200E4F51C121784AF05121650121593E4F54A
:101342001CAF1CE4FCFDFEAB1BAA1AA919A818D3FA
:10135200120C3B401CAB150517E517AA16700205C7
:101362001614F9120B2CFF121650121593051C803D
:04137200D002178E00
:0B15DF00042200000000012600C109EA
:1016C50043B10853B2F7D28353E9DF43EA0853EB3A
:0516D500F7439B022217
:03003B00020C5F55
:100C5F00C0E0C0F0C083C082C0D075D000C000C05B
:0D0C6F0001C002C003C004C005C006C007DC
:100C7C00750800750900750A00E5EC20E303020D08
:100C8C005E53ECF7539BFD0508050A7F017E007D42
:100C9C00007C0012140C3083F0E50AC39408500356
:100CAC00020D59750A00050A7F017E007D007C004B
:100CBC0012140C20830DE50AC394045006121798E5
:100CCC00020D592083E0750A007508007509003083
:100CDC0083FD7F017E007D007C0012140C30831B91
:100CEC0074222508F8C000E6C313D000F674222540
:100CFC0008F8E64480F630830F80FB74222508F850
:100D0C00C000E6C313D000F60509E509C3940840FA
:100D1C00BE0508E508C3940440B23083FD050A7F84
:100D2C00017E007D007C0012140CE50AD3941E4059
:100D3C0016750A001216DA1217987F287E007D00AD
:100D4C007C0012140C80062083D3121798439B024C
:050D5C00800375EC00AE
:100D6100D007D006D005D004D003D002D001D000E6
:0B0D7100D0D0D082D083D0F0D0E03290
:1016DA00E525F4B52409852426121798D20922E4AF
:0516EA00F526C20922F3
:091798007F047822E4F608DFFC6E
:0117A1002225
:1011F20030094CE52624F3601214601924FC601FA8
:1012020014602614602D14602E803230902F120E3E
:1012120074D2018028309025121738D201801E30F6
:10122200901B121626D201801430901112155FD233
:1012320001800AB20080063090031217C2C209224E
:1014A200FFAD83000088FFAD86000000FFAD86001F
:1014B2000001FFAD86000000FFAD83000099FFAD83
:1014C20086000000FFAD86000001FFAD860000002F
:1014D200FFAD830000AAFFAD86000000FFAD8600CD
:0814E2000001FFAD86000000CF
:0B15EA00012701012801032901D09A0C
:100D7C001217C2E52824FE6057147003020E2524B6
:100D8C00026003020E6CE4F511F512AE11AF127C89
:100D9C00007D03120B4574FA2FF974033EFA7BFFA6
:100DAC00E4751B03F51AF519F5187FE612132A7F63
:100DBC00017E007D007C001213C10512E512700249
:100DCC000511C39434E5116480948140BE020E6C0D
:100DDC00E4F511F512AE11AF127C007D03120B4538
:100DEC0074962FF974073EFA7BFFE4751B03F51A12
:100DFC00F519F5187FE612132A7F017E007D007C21
:100E0C00001213C10512E51270020511C39434E5EA
:100E1C00116480948140BE8047E4F511F512AE1147
:100E2C00AF127C007D03120B45745E2FF974003EEB
:100E3C00FA7BFFE4751B03F51AF519F5187FE6121A
:100E4C00132A7F017E007D007C001213C10512E580
:100E5C001270020511C39434E5116480948140BE74
:080E6C001527120E740217C2D3
:10162600751D01E52BC394F34004E4F51D227406F1
:10163600252BF52B7B007A007929E4751B03F51A17
:0A164600F519F5187FE612132A22A9
:10155F00751D01E52BD394005004E4F51D22E52BF6
:10156F00C394065003752B0674FA252BF52B7B00BD
:10157F007A007929E4751B03F51AF519F5187FE63A
:04158F0012132A22E7
:0100390022A4
:0F1738000528E528D394034003752801020D7C92
:100E7400C2850527E527D394034003752701E52799
:100E840064017036F513E51375F003A424A2F97414
:100E94001435F0FA7BFFE4751B03F51AF519F51800
:100EA4007FE612132A7F017E007D007C001213C1AD
:100EB4000513E513C3940840CD22E5276402703678
:100EC400F513E51375F003A424BAF9741435F0FA94
:100ED4007BFFE4751B03F51AF519F5187FE6121369
:100EE4002A7F017E007D007C001213C10513E513E7
:100EF400C3940840CD22E52764037037D285F513E7
:100F0400E51375F003A424D2F9741435F0FA7BFFC9
:100F1400E4751B03F51AF519F5187FE612132A7FF9
:100F2400017E007D007C001213C10513E513C394F8
:030F34000840CDA5
:010F37002297
:0417CC00751D012264
:10170300D287D2867F3C7E00121692C287C286E4BD
:03171300F54E226E
:10172800D287D2867F197E00121692C287C286227D
:0C176200D2877F197E00121692C28722E7
:0C176E00D2867F197E00121692C28622DD
:03000000020F38B4
:100F380075C7AA75C75575FD5A75C7AA75C755757A
:100F4800FDA5787FE4F6D8FD9000007FFF7E03E4DE
:0C0F5800F0A3DFFCDEFA75814F020F9F52
:100F64000211A2E493A3F8E493A34003F68001F2F0
:100F740008DFF48029E493A3F85407240CC8C3338E
:100F8400C4540F4420C8834004F456800146F6DF5D
:100F9400E4800B01020408102040809015C6E47E12
:100FA400019360BCA3FF543F30E509541FFEE49352
:100FB400A360010ECF54C025E060A840B8E493A319
:100FC400FAE493A3F8E493A3C8C582C8CAC583CA44
:100FD400F0A3C8C582C8CAC583CADFE9DEE780BEFC
:0115F50000F5
:100B2C00BB010689828A83E0225002E722BBFE02C7
:090B3C00E32289828A83E49322FA
:100B4500EF8DF0A4A8F0CF8CF0A428CE8DF0A42EC4
:020B5500FE227E
:100B570075F008758200EF2FFFEE33FECD33CDCC55
:100B670033CCC58233C5829BED9AEC99E5829840D8
:100B77000CF582EE9BFEED9AFDEC99FC0FD5F0D6B5
:100B8700E4CEFBE4CDFAE4CCF9A88222B800C1B9DF
:100B97000059BA002DEC8BF084CFCECDFCE5F0CB1D
:100BA700F97818EF2FFFEE33FEED33FDEC33FCEB56
:100BB70033FB10D703994004EB99FB0FD8E5E4F911
:100BC700FA227818EF2FFFEE33FEED33FDEC33FCFE
:100BD700C933C910D7059BE99A4007EC9BFCE99AF2
:100BE700F90FD8E0E4C9FAE4CCFB2275F010EF2F37
:100BF700FFEE33FEED33FDCC33CCC833C810D70737
:100C07009BEC9AE899400AED9BFDEC9AFCE899F871
:0E0C17000FD5F0DAE4CDFBE4CCFAE4C8F92204
:100C2500EB9FF5F0EA9E42F0E99D42F0EC6480C846
:060C350064809845F022E6
:100C3B00EB9FF5F0EA9E42F0E99D42F0E89C45F00F
:010C4B002286
:100C4C00E8600FECC313FCED13FDEE13FEEF13FF86
:030C5C00D8F122AA
:00000001FF
