:10155E00E4F50EF50F121620E50E14601214601746
:10156E0014601C240370F1121639750E0180E912F5
:10157E0014DF750E0280E1121595750E0380D912D7
:07158E0015C8E4F50E80D141
:0D1752007596307597307F027E0002003ED4
:1016FC00E4F5B1F5B2F5B3F5B4F5ACF5ADC295C200
:04170C0002C20022F3
:101620001217521216FC12000E1216BD12172212B9
:09163000164FD2AFD28CD2CA22AF
:10163900300208300005D295C2022220020720009C
:0616490004C295D202224A
:06178900300702B29722B6
:1014DF00300142E5597006C296D287D2B0E559B4B1
:1014EF000106D296C287D2B0E559B40206D296D27F
:1014FF0087C2B0E55A7006C284D283D282E55AB44D
:10150F000106D284C283D282E55AB40206D284D2B3
:06151F0083C282C201221A
:0100380022A5
:1015250053B1BF53B2BF53B17F53B27F7598504388
:101535008920438780438E1053C4DFAB07AA06A9D1
:1015450005A8047F407E427D0F7C00120D1EEF042E
:09155500F404F58DD28ED2992226
:101150008F1F8E1E8D1D8C1C53B1BF53B2BF53B158
:101160007F53B27F75985043878053C4F843C4209F
:10117000AB1FAA1EA91DA81C7F407E427D0F7C00CC
:10118000120D1EC374FF9FFF74FF9EFEE49DFDE4DD
:101190009CFC7808120DC18FC6AB1FAA1EA91DA802
:1011A0001C7F407E427D0F7C00120D1EC374FF9F8A
:0911B000FF8FC543C408D2992247
:070003003098FDAF99C2988F
:01000A0022D3
:08176900C2998F993099FD220D
:10121F008F3A8E398D388C3753B1FB53B2FB53B3A2
:10122F00BF53B4BF75F85075C40853C4DFAB3AAAA7
:10123F0039A938A8377F407E427D0F7C00120D1EE2
:10124F00C374FF9FFF74FF9EFEE49DFDE49CFC783A
:10125F0008120DC18FC6AB3AAA39A938A8377F40FB
:10126F007E427D0F7C00120D1EC374FF9FFF8FC542
:04127F0043C408223A
:0717710030F8FDAF9AC2F849
:01177800224E
:08177900C2F98F9A30F9FD223C
:10003E00EF4E6015E4FDFC0DBD00010CBC38F8BDA3
:09004E0054F5EF1F70EA1E80E773
:010057002286
:10136B008F3E8E3D8D3C8C3B538EF7438901D28C47
:10137B00E4FFFEFDFCAB3EAA3DA93CA83BC3120D0E
:10138B00B06025758A7E758CFF308DFDC28DE53E74
:10139B0024FFF53EE53D34FFF53DE53C34FFF53CE0
:0B13AB00E53B34FFF53B80C8C28C22FC
:1013B6008F428E418D408C3F538EF7438901D28CEC
:1013C600E4FFFEFDFCAB42AA41A940A83FC3120DB3
:1013D600B06025758ACA758CFA308DFDC28DE542DE
:1013E60024FFF542E54134FFF541E54034FFF54081
:0B13F600E53F34FFF53F80C8C28C22A9
:101401008F0D8E0C8D0B8C0A538EEF438910D28E6B
:10141100E4FFFEFDFCAB0DAA0CA90BA80AC3120D3B
:10142100B06025758BCA758DFA308FFDC28FE50DC1
:1014310024FFF50DE50C34FFF50CE50B34FFF50B3E
:0B144100E50A34FFF50A80C8C28E22C5
:10144C008F468E458D448C43538EEF438910D28E3C
:10145C00E4FFFEFDFCAB46AA45A944A843C3120D0C
:10146C00B06025758BEA758DCB308FFDC28FE5464C
:10147C0024FFF546E54534FFF545E54434FFF544D6
:0B148C00E54334FFF54380C8C28E2208
:101283008F4A8E498D488C4753C9BF53C9DF43C921
:1012930010D2CAE4FFFEFDFCAB4AAA49A948A847FD
:1012A300C3120DB0602575CC3075CDF830CFFDC2BB
:1012B300CFE54A24FFF54AE54934FFF549E54834CB
:0E12C300FFF548E54734FFF54780C8C2CA2250
:1012D1008F4E8E4D8D4C8C4B75C40743C408E4FF73
:1012E100FEFDFCAB4EAA4DA94CA84BC3120DB0603C
:1012F1002875C52C75C6CFE5C430E4FB53C4EFE5B2
:101301004E24FFF54EE54D34FFF54DE54C34FFF528
:0D1311004CE54B34FFF54B80C553C4F7226B
:10131E008F528E518D508C4F75C40743C408E4FF15
:10132E00FEFDFCAB52AA51A950A84FC3120DB060DE
:10133E002875C5D875C6FFE5C430E4FB53C4EFE588
:10134E005224FFF552E55134FFF551E55034FFF5C7
:0D135E0050E54F34FFF54F80C553C4F72212
:0815F800015800C10601570073
:0D174400E4FFC2EFD2EE30EFFDAFC3055859
:011751002275
:1015C80030062CE5577002B200E557B41005121624
:1015D800A7D201E557B42003121665E557B43003C6
:1015E80012167BE557B440051216E7D201C206224F
:10000E0053B1EF53B2EF53E8F043E80543B1105349
:10001E00B2EFE4F5F643F62043E10143E83053E155
:0A002E00F343E10253E1BFD2AE221A
:03005B0002178108
:08178100C2EF85C357D2063206
:0E16000002540000015600C103C10401530052
:10171000538EF75389F0438901758CCB758AEAD2D1
:02172000A922FC
:03000B000211B926
:1011B900C0E0C0F0C083C082C0D075D000C000C0FC
:1011C90001C002C003C004C005C006C007C28C75B7
:1011D9008CEA758AEA0553E553D39405401B121727
:1011E900447554008F55855556E556C3945450049B
:1011F900C2008002D200755300D28CD007D006D02D
:1012090005D004D003D002D001D000D0D0D082D0F4
:0612190083D0F0D0E032AA
:10005E0000A50000A50000C30000A41100000000D0
:10006E000000000000101D3F000000000000000016
:10007E00000000000000000000007FFFFF000000F5
:10008E000000000000000000000000007FFFFF00E5
:10009E00C80083C4D5FFABFB241009FFABFA0800E0
:1000AE0009FFABFA000009FFABFBA41829FFAD84D2
:1000BE00000018FFAD85001FFFFFAD81001212FF7B
:1000CE00AD82001414FFAD83000088FFAD80005494
:1000DE0054FFAD87005454FFAD86000000FFAD867F
:1000EE00000001FFAD8600000000C20000C97A00CA
:1000FE00DF1E00DB7800DB7800C70000E00A00D5C9
:10010E005300E33E00CF0000E17000CB0000E22F71
:10011E0000D96200E52F00E47000D73001D09A00BC
:10012E00C60100DD0100D40A00DA0600DC0000A1E1
:10013E000500000000000400002700001600006B00
:10014E0000D80000A105000001000000000017000B
:10015E00003A00007B00D80000A10500000200005C
:10016E000300007C00003A00000000D80000A1054A
:10017E0000000300000000002300007F0000630069
:10018E00D80000A1050000040000000000310000AE
:10019E000D00002A00D80000A10500000500000097
:1001AE0000005600000D00003B00D80000A1050025
:1001BE00000600000000004400003A00004A00D88B
:1001CE000000A105000007000000000066000024EA
:1001DE0000001600D80000A1050000080000000075
:1001EE00005C00002400001D00D80000A1050000E6
:1001FE000900000000006D00003A00002500D80044
:10020E0000CF0100D10000D10900D11200D11B0096
:10021E00D12400D12D00D13600D13F00D14800D1DC
:10022E004C00D10C00CF0000D21300CF0000D32120
:10023E0000D61900CF0000E86100E94700CF00FFAB
:10024E00ABF30000C1FFABF4000001FFABF5301AB9
:10025E0048FFABF620EE7DFFABF7029078FFABF4D4
:10026E00000002FFABF5101A4AFFABF621E60006BE
:10027E00AA0600A27B61F4000000906170000002EB
:10028E00473C0A00380A0064F40000013460F400B0
:10029E000001DA05F420FFFFFF0464A0204C0020CB
:1002AE00480044B8000CC4A000001657F4007FF7B5
:1002BE00055F5C005F580057F4007FFF385F5C00FD
:1002CE005F5800205C0020580057F4007FFFBC5F91
:1002DE005C005F580057F4007FC7295F5C005F58D1
:1002EE00000AF08000007857F4007FF63A5F5C0059
:1002FE005F580057F4007FFF275F5C005F580020B7
:10030E005C0020580057F4007FFFB65F5C005F581A
:10031E000057F4007FC2235F5C005F580054F0006A
:10032E00FFFFF10C1EE20140C60000070140C500B0
:10033E0000010AF0A200008961F40000CDAC6170EA
:10034E000000021461F40000C8326170000001FF69
:10035E0060F4000000986070000001F80BF080005F
:10036E00009800000C0BF08000D36846F4004DF8A6
:10037E00F074F40000001E4E6C0000000C55BE0020
:10038E000140CEFFFF3F30FF0004CDCD20001B22E9
:10039E00090000000B0D104A00000A0A9DA1000082
:1003AE009F22090000000B0D104A0000040A9D81D7
:1003BE000000A508451A56F4000003FF200062084D
:1003CE00CC1A07F02D00003E57F0000002AC45F4A9
:1003DE000000000245F46AFF0FFF20006E5570000A
:0C03EE000002AC00000C00AC0000850018
:1007960000A50000A50000C30000A4110000000091
:1007A6000000000000101D3F0000000000000000D7
:1007B600000000000000000000007FFFFF000000B6
:1007C6000000000000000000000000007FFFFF00A6
:1007D600C80083C4D5FFABFB241009FFABFA0800A1
:1007E60009FFABFA000009FFABFBA41829FFAD8493
:1007F600000018FFAD85001FFFFFAD81001212FF3C
:10080600AD82001414FFAD83000088FFAD80005454
:1008160054FFAD87005454FFAD86000000FFAD863F
:10082600000001FFAD8600000000C20000C978008C
:10083600DF1E00DB7800DB7800C70000E00A00D589
:100846005300E33E00CF0400E17000CB0000E22F2E
:1008560000D97500E52F00E47000D73001D09A006A
:10086600C60100DD0100D40000DA0600DC0000A1AC
:100876000500000000000400001B00001600003BFD
:1008860000D80000A10500000100000000001200D1
:10089600003A00003F00D80000A105000002000059
:1008A6000000001800003A00005D00D80000A10515
:1008B60000000300000000002100000D00002100E0
:1008C600D80000A10500000400000000003200006E
:1008D6000D00003900D80000A10500000500000049
:1008E60000006800003A00002F00D80000A10500B3
:1008F600000600000000006E00003A00004100D82B
:100906000000A105000007000000000065000024AB
:1009160000002600D80000A1050000080000030022
:10092600007D00000D00000D00D80000A1050000AC
:100936000900000000006100000D00003F00D80023
:1009460000CF0100D10000D10900D11200D11B0057
:10095600D12400D12D00D13600D13F00D14800D19D
:100966004C00D11400CF0400D21400CF0400CF04F1
:1009760000E85800E94E00CF04FFABF30000C1FFCA
:10098600ABF4000001FFABF5301A48FFABF620EEE2
:100996007DFFABF7029078FFABF4000002FFABF5EA
:1009A600101A4AFFABF621E60006AA0600A27B61F2
:1009B600F4000000906170000002473C0A00380A0B
:1009C6000064F40000013460F4000001DA05F4204C
:1009D600FFFFFF0464A0204C0020480044B8000C30
:1009E600C4A000001657F4007FF7055F5C005F584F
:1009F6000057F4007FFF385F5C005F5800205C0002
:100A060020580057F4007FFFBC5F5C005F5800571A
:100A1600F4007FC7295F5C005F58000AF080000081
:100A26007857F4007FF63A5F5C005F580057F40091
:100A36007FFF275F5C005F5800205C00205800574E
:100A4600F4007FFFB65F5C005F580057F4007FC27A
:100A5600235F5C005F580054F000FFFFF10C1EE2BC
:100A66000140C60000070140C50000010AF0A200CF
:100A7600008961F40000CDAC61700000021461F4DD
:100A86000000C8326170000001FF60F400000098A9
:100A96006070000001F80BF08000009800000C0B5D
:100AA600F08000D36846F4004DF8F074F4000000BE
:100AB6001E4E6C0000000C55BE000140CEFFFF3FED
:100AC60030FF0004CDCD20001B22090000000B0DD5
:100AD600104A00000A0A9DA100009F22090000009A
:100AE6000B0D104A0000040A9D810000A508451A56
:100AF60056F4000003FF20006208CC1A07F02D0010
:100B0600003E57F0000002AC45F40000000245F438
:100B16006AFF0FFF20006E5570000002AC00000C4B
:060B260000AC0000850098
:1003FA0000A50000A50000C30000A4110000000031
:10040A000000000000101D3F000000000000000076
:10041A00000000000000000000007FFFFF00000055
:10042A000000000000000000000000007FFFFF0045
:10043A00C80083C4D5FFABFB241009FFABFA080040
:10044A0009FFABFA000009FFABFBA41829FFAD8432
:10045A00000018FFAD85001FFFFFAD81001212FFDB
:10046A00AD82001414FFAD83000088FFAD800054F4
:10047A0054FFAD87005454FFAD86000000FFAD86DF
:10048A00000001FFAD8600000000C20000C97A002A
:10049A00DF1E00DB7800DB7800C70000E00A00D529
:1004AA005900E35000CF0000E17000CB0000E22FBA
:1004BA0000D96F00E52F00E47000D73001D09A0010
:1004CA00C60100DD0100D40000DA0000DC0000A152
:1004DA000500000000000400001E00001600006B6A
:1004EA0000D80000A1050000010000000000000083
:1004FA00003A00003F00D80000A1050000020000F9
:10050A000000002B00003A00002B00D80000A105D3
:10051A0000000300000000002400003A00005E0012
:10052A00D80000A105000004000000000037000008
:10053A000D00003000D80000A105000005000000F1
:10054A0000006E00000D00002B00D80000A105007D
:10055A00000600000000004300003A00004500D8F1
:10056A000000A10500000700000000006500000D62
:10057A0000002900D80000A10500000800000000C2
:10058A00001200000D00001B00D80000A1050000A9
:10059A000900000200007000001700003D00D800AA
:1005AA0000CF0100D10000D10900D11200D11B00F7
:1005BA00D12400D12D00D13600D13F00D14800D13D
:1005CA004C00D10700CF0000D22E00CF0000D31379
:1005DA0000D60B00CF0000E85100E94800CF00FF29
:1005EA00ABF30000C1FFABF4000001FFABF5301A1A
:1005FA0048FFABF620EE7DFFABF7029078FFABF435
:10060A00000002FFABF5101A4AFFABF621E600061E
:10061A00AA0600A27B61F40000009061700000024B
:10062A00473C0A00380A0064F40000013460F40010
:10063A000001DA05F420FFFFFF0464A0204C00202B
:10064A00480044B8000CC4A000001657F4007FF715
:10065A00055F5C005F580057F4007FFF385F5C005D
:10066A005F5800205C0020580057F4007FFFBC5FF1
:10067A005C005F580057F4007FC7295F5C005F5831
:10068A00000AF08000007857F4007FF63A5F5C00B9
:10069A005F580057F4007FFF275F5C005F58002017
:1006AA005C0020580057F4007FFFB65F5C005F587B
:1006BA000057F4007FC2235F5C005F580054F000CB
:1006CA00FFFFF10C1EE20140C60000070140C50011
:1006DA0000010AF0A200008961F40000CDAC61704B
:1006EA000000021461F40000C8326170000001FFCA
:1006FA0060F4000000986070000001F80BF08000C0
:10070A00009800000C0BF08000D36846F4004DF806
:10071A00F074F40000001E4E6C0000000C55BE0080
:10072A000140CEFFFF3F30FF0004CDCD20001B2249
:10073A00090000000B0D104A00000A0A9DA10000E2
:10074A009F22090000000B0D104A0000040A9D8137
:10075A000000A508451A56F4000003FF20006208AD
:10076A00CC1A07F02D00003E57F0000002AC45F409
:10077A000000000245F46AFF0FFF20006E5570006A
:0C078A000002AC00000C00AC0000850078
:1017220043B30843B40843B31043B41075BE0DD29B
:02173200C622CD
:10173400D2C4C2C330C308C2C6D2C6C2C3C2C62240
:0810DB008F108B118A1289139A
:1010E300E4F51BF51AF519F518D2C5C2C330C3FDD3
:1010F300E5BD64086003121734C2C58510BCC2C3C2
:1011030030C3FDE5BD641860028035AF17AE16AD80
:1011130015AC14AB1BAA1AA919A818C3120DB05009
:10112300247818120DD4AB11AA12A9138F828E83BF
:10113300120CB5F5BCC2C330C3FDE5BD642860CB5A
:0C11430012173480C6D2C4C2C320C4FD01
:01114F00227D
:080F30008F218B228A23892402
:100F3800E4F52CF52BF52AF529D2C5C2C330C3FD3B
:100F4800E5BD64086003121734C2C58521BCC2C35D
:100F580030C3FDE5BD641860028033E47F02FEFD06
:100F6800FCAB2CAA2BA92AA829C3120DB0502478AF
:100F780029120DD4AB22AA23A9248F828E83120CA6
:100F8800B5F5BCC2C330C3FDE5BD642860CD1217FA
:100F98003480C8D2C5C2C330C3FDE5BD6410600348
:100FA800121734C2C5E5214401F5BCC2C330C3FDE4
:100FB800E5BD64406003121734E4F52CF52BF52ADF
:100FC800F529AF28AE27AD26AC25AB2CAA2BA92A2C
:100FD800A829C3120DB05035D2C2C2C330C3FDE533
:100FE800BD645060031217347400252CF582E43474
:100FF80000F583E5BCF0E52C2401F52CE4352BF550
:101008002BE4352AF52AE43529F52980B5C2C2C270
:10101800C330C3FDE5BD64586003121734D2C4C29F
:06102800C320C4FD7F009F
:01102E00229F
:020B2C008F2D0B
:100B2E00D2C5C2C330C3FDE5BD64086003121734DD
:100B3E00C2C575BCA4C2C330C3FDE5BD6418600355
:100B4E00121734E4F5BCC2C330C3FDE5BD642860A2
:100B5E0003121734E4F5BCC2C330C3FDE5BD6428EF
:100B6E006003121734E4F531F530F52FF52EE47FDE
:100B7E0020FEFDFCAB31AA30A92FA82EC3120DB05A
:100B8E00502B852DBCC2C330C3FDE5BD6428600368
:100B9E00121734632DFFE5312401F531E43530F5BC
:100BAE0030E4352FF52FE4352EF52E80C1D2C4C298
:100BBE00C3D2C5C2C330C3FDE5BD640860031217BE
:100BCE0034C2C575BCA4C2C330C3FDE5BDB418DDC7
:100BDE00D2C4C2C320C4FDD2C5C2C330C3FDE5BD5D
:100BEE006408600312173475BCA4C2C5C2C330C3F7
:100BFE00FDE5BD64186003121734E4F5BCC2C330C2
:100C0E00C3FDE5BD64286003121734E4F5BCC2C30E
:100C1E0030C3FDE5BD64286003121734D2C5C2C3CC
:100C2E0030C3FDE5BD64106003121734C2C575BC38
:100C3E00A5C2C330C3FDE5BD64406003121734E4A2
:100C4E00F531F530F52FF52EE47F1FFEFDFCAB31AF
:100C5E00AA30A92FA82EC3120DB05033D2C2C2C3D0
:100C6E0030C3FDE5BD64506003121734E5BC652D3D
:100C7E006003121734632DFFE5312401F531E4359D
:100C8E0030F530E4352FF52FE4352EF52E80B9C230
:100C9E00C2C2C330C3FDE5BD64586003121734D21F
:060CAE00C4C2C320C4FD16
:010CB400221D
:0B160E00043200000000013600C1079C
:1016BD0043B10853B2F7D28353E9DF43EA0853EB42
:0516CD00F7439B02221F
:03003B00020DF4BF
:100DF400C0E0C0F0C083C082C0D075D000C000C0C5
:0D0E040001C002C003C004C005C006C00745
:100E1100750800750900E5EC20E303020F1253EC9D
:100E2100F7539BFD7508007F017E007D007C001259
:100E31001401308303020F0A0508E508C394084032
:100E4100E63083FD7508007F017E007D007C001285
:100E51001401208303020F0A0508E508C394044026
:100E6100E62083FD7508007509003083FD7F017E52
:100E7100007D007C0012140130831B74322508F8B8
:100E8100C000E6C313D000F674322508F8E64480AA
:100E9100F630830F80FB74322508F8C000E6C313D7
:100EA100D000F60509E509C3940840BE0508E50828
:100EB100C3940440B23083FD7508007F017E007D3C
:100EC100007C00121401208302803E0508E508C35E
:100ED100942840E7D2921216D27F027E007D007CD8
:100EE100001214017508007F017E007D007C001254
:100EF100140130830280120508E508C3940640E717
:100F01003083FD2083FD3083FD12175F439B0280F8
:040F11000375EC0078
:100F1500D007D006D005D004D003D002D001D00030
:0B0F2500D0D0D082D083D0F0D0E032DA
:1016D200E535F4B5340985343612175FD20722E4B2
:0516E200F536C20722ED
:09175F007F047832E4F608DFFC97
:01176800225E
:1015950030072FE53624F3600F24FB601214601426
:1015A50014601614601780181216E7D20180111204
:1015B5001665800C12167B8007B20080031217890E
:0315C500C2072238
:10149700FFAD83000088FFAD86000000FFAD86002A
:1014A7000001FFAD86000000FFAD83000099FFAD8E
:1014B70086000000FFAD86000001FFAD860000003A
:1014C700FFAD830000AAFFAD86000000FFAD8600D8
:0814D7000001FFAD86000000DA
:06161900015900015A0016
:10164F007BFF7A0379FAE47517E8751603F515F53C
:06165F00147FE60210DB1F
:101665007BFF7A0379FAE47517E8751603F515F526
:06167500147FE60210DB09
:10167B007BFF7A0379FAE47517E8751603F515F510
:06168B00147FE60210DBF3
:101691007BFF7A0379FAE47517E8751603F515F5FA
:0616A100147FE60210DBDD
:1016A7007BFF7A0379FAE47517E8751603F515F5E4
:0616B700147FE60210DBC7
:1016E7007BFF7A0379FAE4751718F516F515F514E3
:0516F7007FE60210DB9C
:0300000002102FBC
:10102F0075C7AA75C75575FD5A75C7AA75C7557582
:10103F00FDA5787FE4F6D8FD9000007FFF7E03E4E6
:0C104F00F0A3DFFCDEFA75815B02109656
:10105B0002155EE493A3F8E493A34003F68001F238
:10106B0008DFF48029E493A3F85407240CC8C33396
:10107B00C4540F4420C8834004F456800146F6DF65
:10108B00E4800B01020408102040809015F8E47EE8
:10109B00019360BCA3FF543F30E509541FFEE4935A
:1010AB00A360010ECF54C025E060A840B8E493A321
:1010BB00FAE493A3F8E493A3C8C582C8CAC583CA4C
:1010CB00F0A3C8C582C8CAC583CADFE9DEE780BE04
:01161F0000CA
:100CB500BB010CE58229F582E5833AF583E02250F4
:100CC50006E92582F8E622BBFE06E92582F8E2223E
:0D0CD500E58229F582E5833AF583E4932258
:100CE20075F008758200EF2FFFEE33FECD33CDCCC9
:100CF20033CCC58233C5829BED9AEC99E58298404C
:100D02000CF582EE9BFEED9AFDEC99FC0FD5F0D628
:100D1200E4CEFBE4CDFAE4CCF9A88222B800C1B952
:100D22000059BA002DEC8BF084CFCECDFCE5F0CB90
:100D3200F97818EF2FFFEE33FEED33FDEC33FCEBC9
:100D420033FB10D703994004EB99FB0FD8E5E4F984
:100D5200FA227818EF2FFFEE33FEED33FDEC33FC71
:100D6200C933C910D7059BE99A4007EC9BFCE99A65
:100D7200F90FD8E0E4C9FAE4CCFB2275F010EF2FAA
:100D8200FFEE33FEED33FDCC33CCC833C810D707AA
:100D92009BEC9AE899400AED9BFDEC9AFCE899F8E5
:0E0DA2000FD5F0DAE4CDFBE4CCFAE4C8F92278
:100DB000EB9FF5F0EA9E42F0E99D42F0E89C45F099
:010DC0002210
:100DC100E8600FECC313FCED13FDEE13FEEF13FF10
:030DD100D8F12234
:100DD4007401FF3395E0FEFDFC080808E6CF2FF60A
:100DE40018E6CE3EF618E6CD3DF618E6CC3CF622E3
:00000001FF
