:10143400E4F525F52612003EE525B40900506A902E
:10144400144AF828287302146502146D02147502F4
:10145400147D02148502148D02149502149D021445
:10146400A512167175250180CF12000E7525028014
:10147400C712194D75250380BF121A6375250480A0
:10148400B71219FE75250580AF120E9A75250680D0
:10149400A7121165752507809F12153075250880E0
:0E14A400971212E5E4F525808FE4F525808A85
:0D1B57007596307597307F027E00021AB738
:101A4400E4F5B1F5B2F5B3F5B4F5ACF5AD53B3FEC9
:0F1A540043B401C290C285F51D751E20C2002249
:10003E00121B57121A44121B37121A81121AD1129E
:0D004E001B7CD2AFD28C7F147E00021AB74B
:0B14B200C102C103021D0000011C006C
:10167100E51E30E426300023C2AFD291D290531E32
:10168100EF431E207F147E00121AB7D2AFD28C43D3
:101691001E0275401612000EC29122E51E30E52D84
:1016A10020002AC2AFC285D2917F147E00121AB7E0
:1016B100C290531EDF431E10D280D282D281D297B4
:0E16C100D296D2957F1E7E00121AB7D2AF22AB
:10194D00E51E30E02A531EFE7F147E00121AB7E505
:10195D003BD394034007753B01C285800BE53BB437
:10196D000304D2858002C28512138FC291D2012247
:10000E00E51E30E127209106D291D203D202531E73
:10001E00FDE53CD394034003753C01121087D201D9
:0D002E00200303300206C291C203C2022269
:101A6300E51E30E218531EFBE540C3941E40047587
:0E1A7300401E220540120B1AD201751C0122E2
:1019FE00E51E30E31F531EF7E540D394004007E584
:101A0E0040D3941E4004E4F540221540120B1AD226
:051A1E0001751C01220E
:091BA400309103C29122D291227A
:1012E50030850F20B00C751C01D2017F327E0012B3
:1012F5001AB730910F30900C751C01D2017F647EB6
:1013050000121AB720010302138EE51C600DD2806E
:10131500D282D2817F0A7E00121AB7E53BB4010D55
:10132500C280D282D2817F077E00121AB7E53BB414
:10133500020DD280C282D2817F077E00121AB7E5E4
:101345003BB4030DD280D282C2817F077E00121A80
:10135500B7E53CB4010DC297D296D2957F077E00C2
:10136500121AB7E53CB4020DD297C296D2957F0703
:101375007E00121AB7E53CB4030DD297D296C295FA
:0A1385007F077E00121AB7C2012292
:011BD50022ED
:1018E10053B1BF53B2BF53B17F53B27F75985043C9
:1018F1008920438780438E1053C4DFAB07AA06A912
:1019010005A8047F407E427D0F7C00120DA8EF04E4
:09191100F404F58DD28ED2992266
:1015A4008F448E438D428C4153B1BF53B2BF53B16C
:1015B4007F53B27F75985043878053C4F843C42047
:1015C400AB44AA43A942A8417F407E427D0F7C00E0
:1015D400120DA8C374FF9FFF74FF9EFEE49DFDE4FB
:1015E4009CFC7808120E618FC6AB44AA43A942A89A
:1015F400417F407E427D0F7C00120DA8C374FF9F83
:09160400FF8FC543C408D29922EE
:070003003098FDAF99C2988F
:01000A0022D3
:081BB600C2998F993099FD22BC
:10160D008F488E478D468C4553B1FB53B2FB53B378
:10161D00BF53B4BF75F85075C40853C4DFAB48AAA7
:10162D0047A946A8457F407E427D0F7C00120DA83C
:10163D00C374FF9FFF74FF9EFEE49DFDE49CFC7848
:10164D0008120E618FC6AB48AA47A946A8457F4030
:10165D007E427D0F7C00120DA8C374FF9FFF8FC5C6
:04166D0043C4082248
:071BBE0030F8FDAF9AC2F8F8
:011BC50022FD
:081BC600C2F98F9A30F9FD22EB
:101A9D00EF4E6015E4FDFC0DBD00010CBC05F8BD5D
:091AAD0082F5EF1F70EA1E80E7CC
:011AB600220D
:101AB700EF4E6015E4FDFC0DBD00010CBC38F8BD10
:091AC70054F5EF1F70EA1E80E7E0
:011AD00022F3
:101803008F4C8E4B8D4A8C49538EEF438910D28E69
:10181300E4FFFEFDFCAB4CAA4BA94AA849C3120E38
:10182300506025758BCA758DFA308FFDC28FE54CDC
:1018330024FFF54CE54B34FFF54BE54A34FFF54AFD
:0B184300E54934FFF54980C8C28E2241
:10184E008F508E4F8D4E8C4D538EEF438910D28E0E
:10185E00E4FFFEFDFCAB50AA4FA94EA84DC3120EDD
:10186E00506025758BEA758DCB308FFDC28FE5509C
:10187E0024FFF550E54F34FFF54FE54E34FFF54E9E
:0B188E00E54D34FFF54D80C8C28E22EE
:1016CF008F548E538D528C5153C9BF53C9DF43C9A9
:1016DF0010D2CAE4FFFEFDFCAB54AA53A952A85185
:1016EF00C3120E50602575CC3075CDF830CFFDC2CA
:1016FF00CFE55424FFF554E55334FFF553E5523449
:0E170F00FFF552E55134FFF55180C8C2CA22E1
:10171D008F588E578D568C5575C40743C408E4FFFA
:10172D00FEFDFCAB58AA57A956A855C3120E506022
:10173D002875C52C75C6CFE5C430E4FB53C4EFE561
:10174D005824FFF558E55734FFF557E55634FFF5A6
:0D175D0056E55534FFF55580C553C4F722FD
:10176A008F5C8E5B8D5A8C5975C40743C408E4FF9D
:10177A00FEFDFCAB5CAA5BA95AA859C3120E5060C5
:10178A002875C5D875C6FFE5C430E4FB53C4EFE538
:10179A005C24FFF55CE55B34FFF55BE55A34FFF545
:0D17AA005AE55934FFF55980C553C4F722A4
:0C14BD00015E00016000015F00015D00A5
:0D1B4900E4FFC2EFD2EE30EFFDAFC3055E4A
:011B5600226C
:10153000E55F606FE560120E741582011582021579
:101540008203158704158C05159106159B071582D6
:1015500008156810157820157D30156F401564F05A
:10156000000015A0B2008038431E02053C803143C4
:101570001E01053BD2018028431E048023431E0820
:10158000801E121A238019753C038008753C028066
:1015900003753C01121087D2018005121BA4D201F1
:0415A000E4F55F22ED
:101A810053B1EF53B2EF53E8F043E80543B11053BC
:0C1A9100B2EFE4F5F643F62043E1012239
:03005B00021BADD8
:091BAD00C2EF85C35D755F0132D2
:1014C90002340000013A00013700C105C106C10715
:0C14D90001330001390001380001360029
:101B3700538EF75389F0438901758CCB758AEAD2A6
:021B4700A922D1
:10116500200503021238121B497534008F35853569
:101175003AE53730E7020538E53AC394FD5067E5AF
:101185003A94B04006433781021236E53AD394903B
:10119500401BE53730E110E538D3940840093000AD
:1011A50006755F01756020433782021236E53AD332
:1011B5009470401AE53730E210E538D394084009B9
:1011C500300006755F017560304337848063E53A0A
:1011D500D3945040054337888057E53AD39430403F
:1011E50050433790804BE53730E74130E006755F77
:1011F500017560F0E53730E109300006755F01756E
:101205006020E53730E209300006755F0175603012
:10121500E53730E309300006755F01756040E53755
:1012250030E409300006755F01756010E4F537F5A7
:0412350038C2052294
:03000B0002197D5A
:10197D00C0E0C0D0C28C758CEA758AEA0533053695
:10198D00E533D394094005D205753300E536D3947C
:0F199D000F4005D206753600D28CD0D0D0E03284
:10005E0000D00000A50000A50000C30000A4110000
:10006E000000000000000000101D3F000000000016
:10007E00000000000000000000000000007FFFFFF5
:10008E000000000000000000000000000000007FE3
:10009E00FFFF00C80083C4D5FFABFB241009FFABE4
:1000AE00FA080009FFABFA000009FFABFBA4182900
:1000BE00FFAD84000018FFAD85001FFFFFAD81006E
:1000CE001212FFAD82001414FFAD80005454FFAD28
:1000DE0087005454FFAD86000000FFAD860000017E
:1000EE00FFAD8600000000C20000C97A00DF1E00CE
:1000FE00DB7800DB7800C70000E00A00D55300E390
:10010E003E00CF0000E17000CB0000E22F00D9626C
:10011E0000E52F00E47000D73000C60100DD0100BD
:10012E00D40A00DA0600DC0000A105000000000081
:10013E000400002700001600006B00D80000A10587
:10014E0000000100000000001700003A00007B00D4
:10015E00D80000A10500000200000300007C000092
:10016E003A00000000D80000A105000003000000C6
:10017E0000002300007F00006300D80000A10500EE
:10018E00000400000000003100000D00002A00D81D
:10019E000000A10500000500000000005600000D43
:1001AE0000003B00D80000A1050000060000000082
:1001BE00004400003A00004A00D80000A1050000EB
:1001CE000700000000006600002400001600D800A2
:1001DE0000A10500000800000000005C00002400E3
:1001EE00001D00D80000A10500000900000000005D
:1001FE006D00003A00002500D80000CF0100D100AC
:10020E0000D10900D11200D11B00D12400D12D0044
:10021E00D13600D13F00D14800D14C00D10C00CFD7
:10022E000000D21300CF0000D32100D61900CF005A
:10023E0000E86100E94700CF00FFABF30000C1FF0B
:10024E00ABF4000001FFABF5301A48FFABF620EE21
:10025E007DFFABF7029078FFABF4000002FFABF529
:10026E00101A4AFFABF621E60006AA0600A27B6131
:10027E00F4000000906170000002473C0A00380A4A
:10028E000064F40000013460F4000001DA05F4208B
:10029E00FFFFFF0464A0204C0020480044B8000C6F
:1002AE00C4A000001657F4007FF7055F5C005F588E
:1002BE000057F4007FFF385F5C005F5800205C0041
:1002CE0020580057F4007FFFBC5F5C005F5800575A
:1002DE00F4007FC7295F5C005F58000AF0800000C1
:1002EE007857F4007FF63A5F5C005F580057F400D1
:1002FE007FFF275F5C005F5800205C00205800578E
:10030E00F4007FFFB65F5C005F580057F4007FC2B9
:10031E00235F5C005F580054F000FFFFF10C1EE2FB
:10032E000140C60000070140C50000010AF0A2000E
:10033E00008961F40000CDAC61700000021461F41C
:10034E000000C8326170000001FF60F400000098E8
:10035E006070000001F80BF08000009800000C0B9C
:10036E00F08000D36846F4004DF8F074F4000000FD
:10037E001E4E6C0000000C55BE000140CEFFFF3F2C
:10038E0030FF0004CDCD20001B22090000000B0D14
:10039E00104A00000A0A9DA100009F2209000000D9
:1003AE000B0D104A0000040A9D810000A508451A95
:1003BE0056F4000003FF20006208CC1A07F02D004F
:1003CE00003E57F0000002AC45F40000000245F478
:1003DE006AFF0FFF20006E5570000002AC00000C8B
:0603EE0000AC00008500D8
:10078A0000D00000A50000A50000C30000A41100CD
:10079A000000000000000000101D3F0000000000E3
:1007AA00000000000000000000000000007FFFFFC2
:1007BA000000000000000000000000000000007FB0
:1007CA00FFFF00C80083C4D5FFABFB241009FFABB1
:1007DA00FA080009FFABFA000009FFABFBA41829CD
:1007EA00FFAD84000018FFAD85001FFFFFAD81003B
:1007FA001212FFAD82001414FFAD80005454FFADF5
:10080A0087005454FFAD86000000FFAD860000014A
:10081A00FFAD8600000000C20000C97800DF1E009C
:10082A00DB7800DB7800C70000E00A00D55300E35C
:10083A003E00CF0400E17000CB0000E22F00D97522
:10084A0000E52F00E47000D73000C60100DD01008A
:10085A00D40000DA0600DC0000A105000000000058
:10086A000400001B00001600003B00D80000A10590
:10087A0000000100000000001200003A00003F00E2
:10088A00D80000A1050000020000000000180000C6
:10089A003A00005D00D80000A10500000300000036
:1008AA0000002100000D00002100D80000A1050071
:1008BA00000400000000003200000D00003900D8DA
:1008CA000000A10500000500000000006800003AD1
:1008DA0000002F00D80000A105000006000000005B
:1008EA00006E00003A00004100D80000A105000097
:1008FA000700000000006500002400002600D80060
:10090A0000A10500000800000300007D00000D00A2
:10091A00000D00D80000A105000009000000000039
:10092A006100000D00003F00D80000CF0100D10097
:10093A0000D10900D11200D11B00D12400D12D0011
:10094A00D13600D13F00D14800D14C00D11400CF9C
:10095A000400D21400CF0400CF0400E85800E94E86
:10096A0000CF04FFABF30000C1FFABF4000001FFAE
:10097A00ABF5301A48FFABF620EE7DFFABF70290DD
:10098A0078FFABF4000002FFABF5101A4AFFABF692
:10099A0021E60006AA0600A27B61F400000090612D
:1009AA0070000002473C0A00380A0064F4000001A3
:1009BA003460F4000001DA05F420FFFFFF0464A0AC
:1009CA00204C0020480044B8000CC4A00000165770
:1009DA00F4007FF7055F5C005F580057F4007FFF63
:1009EA00385F5C005F5800205C0020580057F40014
:1009FA007FFFBC5F5C005F580057F4007FC7295F28
:100A0A005C005F58000AF08000007857F4007FF617
:100A1A003A5F5C005F580057F4007FFF275F5C0075
:100A2A005F5800205C0020580057F4007FFFB65F33
:100A3A005C005F580057F4007FC2235F5C005F5878
:100A4A000054F000FFFFF10C1EE20140C60000074F
:100A5A000140C50000010AF0A200008961F400000B
:100A6A00CDAC61700000021461F40000C8326170FC
:100A7A00000001FF60F4000000986070000001F8B7
:100A8A000BF08000009800000C0BF08000D3684641
:100A9A00F4004DF8F074F40000001E4E6C000000E3
:100AAA000C55BE000140CEFFFF3F30FF0004CDCD04
:100ABA0020001B22090000000B0D104A00000A0A40
:100ACA009DA100009F22090000000B0D104A0000A2
:100ADA00040A9D810000A508451A56F4000003FF88
:100AEA0020006208CC1A07F02D00003E57F00000E3
:100AFA0002AC45F40000000245F46AFF0FFF200033
:100B0A006E5570000002AC00000C00AC00008500BD
:1003F40000D00000A50000A50000C30000A4110067
:100404000000000000000000101D3F00000000007C
:10041400000000000000000000000000007FFFFF5B
:100424000000000000000000000000000000007F49
:10043400FFFF00C80083C4D5FFABFB241009FFAB4A
:10044400FA080009FFABFA000009FFABFBA4182966
:10045400FFAD84000018FFAD85001FFFFFAD8100D4
:100464001212FFAD82001414FFAD80005454FFAD8E
:1004740087005454FFAD86000000FFAD86000001E4
:10048400FFAD8600000000C20000C97A00DF1E0034
:10049400DB7800DB7800C70000E00A00D55900E3F0
:1004A4005000CF0000E17000CB0000E22F00D96FB4
:1004B40000E52F00E47000D73000C60100DD010024
:1004C400D40000DA0000DC0000A1050000000000F8
:1004D4000400001E00001600006B00D80000A105F7
:1004E40000000100000000000000003A00003F008E
:1004F400D80000A10500000200000000002B00004D
:100504003A00002B00D80000A10500000300000001
:1005140000002400003A00005E00D80000A105009D
:10052400000400000000003700000D00003000D877
:100534000000A10500000500000000006E00000D91
:1005440000002B00D80000A10500000600000000F8
:10055400004300003A00004500D80000A105000057
:100564000700000000006500000D00002900D8000D
:1005740000A10500000800000000001200000D00AA
:10058400001B00D80000A1050000090000020000C3
:100594007000001700003D00D80000CF0100D1001A
:1005A40000D10900D11200D11B00D12400D12D00AB
:1005B400D13600D13F00D14800D14C00D10700CF43
:1005C4000000D22E00CF0000D31300D60B00CF00C2
:1005D40000E85100E94800CF00FFABF30000C1FF81
:1005E400ABF4000001FFABF5301A48FFABF620EE88
:1005F4007DFFABF7029078FFABF4000002FFABF590
:10060400101A4AFFABF621E60006AA0600A27B6197
:10061400F4000000906170000002473C0A00380AB0
:100624000064F40000013460F4000001DA05F420F1
:10063400FFFFFF0464A0204C0020480044B8000CD5
:10064400C4A000001657F4007FF7055F5C005F58F4
:100654000057F4007FFF385F5C005F5800205C00A7
:1006640020580057F4007FFFBC5F5C005F580057C0
:10067400F4007FC7295F5C005F58000AF080000027
:100684007857F4007FF63A5F5C005F580057F40037
:100694007FFF275F5C005F5800205C0020580057F4
:1006A400F4007FFFB65F5C005F580057F4007FC220
:1006B400235F5C005F580054F000FFFFF10C1EE262
:1006C4000140C60000070140C50000010AF0A20075
:1006D400008961F40000CDAC61700000021461F483
:1006E4000000C8326170000001FF60F4000000984F
:1006F4006070000001F80BF08000009800000C0B03
:10070400F08000D36846F4004DF8F074F400000063
:100714001E4E6C0000000C55BE000140CEFFFF3F92
:1007240030FF0004CDCD20001B22090000000B0D7A
:10073400104A00000A0A9DA100009F22090000003F
:100744000B0D104A0000040A9D810000A508451AFB
:1007540056F4000003FF20006208CC1A07F02D00B5
:10076400003E57F0000002AC45F40000000245F4DE
:100774006AFF0FFF20006E5570000002AC00000CF1
:0607840000AC000085003E
:051B1000121B15D29329
:0E1B1500E4FFFE0FBF00010EEF64324E70F5CC
:011B2300229F
:041BCE00C29280FC43
:0A1B7C00D293121B15D294021B1520
:0A1B8600D294121B10C294021B152A
:10191A00900000D293121B15309423AF82AE83E459
:10192A00FCFD7B507AC3F9F8D3120E3A4010A3E5B6
:10193A0082B488E4E583B413DF121BCE80DAC29343
:03194A00021B1568
:0A1B9000C294121B10D294021B1520
:1019D600AD07E4FCC293121B15ED30E704D29480E8
:1019E60002C294ED25E0FD121B100CBC08E6C29362
:0819F600121B15D294021B150F
:1019AC00C20C121B15D20B121B15E4FCD20C121B11
:1019BC0015ED25E0FFA20BE4334FFDC20C121B15F5
:0919CC000CBC08E8121B15AF0564
:0119D50022EF
:0817B7008B2B8A2C892DAD0754
:1017BF00E4F532121B86AF051219D612191AE4F589
:1017CF0032AF32E4FCFDFEAB31AA30A92FA82ED3E5
:1017DF00120E50401CAB2B052DE52DAA2C700205C7
:1017EF002C14F9120D41FF1219D612191A05328055
:0417FF00D0021B9069
:1014E500041300000000011800011900011A000191
:1014F5000B00C108C109C10A011000011200011742
:1015050000010A00010C00010E00010D00011B0085
:0C151500010800010900010F0001110095
:101AD10043B10853B2F7D28353E9DF43EA0853EB2A
:051AE100F7439B022207
:03003B00020FA809
:100FA800C0E0C0F0C083C082C0D075D000C000C00F
:0D0FB80001C002C003C004C005C006C00790
:100FC500752200752300752400E5EC20E30302106B
:100FD5006953ECF7539BFD052205247F017E001222
:100FE5001A9D3083F4E524C394055002806E752460
:100FF5000005247F017E00121A9D2083F4752400CC
:101005007522007523003083FD7F017E00121A9D35
:1010150030831C74132522F8C000E6FFC313D000EB
:10102500F674132522F8E64480F630831080FB74AD
:10103500132522F8C000E6FFC313D000F60523E50B
:1010450023C3940840C00522E522C3940440B4306C
:1010550083FD121AE67F037E00121A9D121B9A4326
:071065009B02800375EC0003
:10106C00D007D006D005D004D003D002D001D000D8
:0B107C00D0D0D082D083D0F0D0E03282
:101AE600E516F4B51509851518121B9AD20822E4D5
:051AF600F518C20822F2
:091B9A007F047813E4F608DFFC77
:011BA300221F
:100E9A00E4F527200603020FA7C206E51920E70397
:100EAA00020F56051AE5186003020F56F51A30911B
:100EBA000FC291E50B64146005E50BB41502D291DB
:100ECA00E50B120E740EF4100F03110F35120F3DBD
:100EDA00130F45140F4D150F0B160F13410F1B4A15
:100EEA000F234B0F2B4C00000F53E50EC3940450F5
:100EFA0058755F807560018050755F8075600280EB
:100F0A0048755F807560038040755F8075604080BA
:100F1A0038755F807560048030755F807560058004
:100F2A0028755F80051B756006801E755F80756079
:100F3A00208016755F80756030800E755F807560E1
:100F4A00F08006755F80756007E4F51930084EC2B7
:100F5A000885180BE50B641460053090028005E5DE
:100F6A000BB41403431980E51AD39402402CE518F4
:100F7A0024EE601814601D2403701F050EE50ED3BD
:100F8A0094044016755F80756008800E755F8075E1
:0D0F9A0060208006755F80756030E4F518FA
:010FA7002227
:10189900FFAD83000088FFAD86000000FFAD860024
:1018A9000001FFAD86000000FFAD83000099FFAD88
:1018B90086000000FFAD86000001FFAD8600000034
:1018C900FFAD830000AAFFAD86000000FFAD8600D2
:0818D9000001FFAD86000000D4
:0E152100013B01013C0201400F033D01D09A45
:10108700431E0112138FE53C24FE604F14700302C8
:10109700112324026003021162E4F527F528AE2725
:1010A700AF287C007D03120D5A74F42FF974033EA8
:1010B700FA7BFFE4753103F530F52FF52E7FE61245
:1010C70017B7121B150528E52870020527C39434A6
:1010D700E5276480948140C6021162E4F527F5286C
:1010E700AE27AF287C007D03120D5A748A2FF9743E
:1010F700073EFA7BFFE4753103F530F52FF52E7FB8
:10110700E61217B7121B150528E52870020527C335
:101117009434E5276480948140C6803FE4F527F541
:1011270028AE27AF287C007D03120D5A745E2FF975
:1011370074003EFA7BFFE4753103F530F52FF52E89
:101147007FE61217B7121B150528E5287002052739
:0E115700C39434E5276480948140C6020B1ACD
:100B1A00E540B41F004003020D40900B2BF8282833
:100B2A0073020B88020B8F020B97020B9F020BA713
:100B3A00020BAF020BBD020BCD020BDD020BED0265
:100B4A000BFD020C0D020C1D020C2D020C3D020CB9
:100B5A004D020C5D020C6D020C7D020C8D020C9D87
:100B6A00020CAD020CBC020CCB020CDA020CE9023C
:100B7A000CF8020D07020D16020D25020D25E4F5EB
:100B8A003DF53F8026E4F53D753F55801EE4F53D71
:100B9A00753F698016E4F53D753F9A800EE4F53D90
:100BAA00753FCD8006E4F53D753FFFFB7A00793D40
:100BBA00020D32753D01753F187B007A00793DE4DC
:100BCA00020D32753D01753F317B007A00793DE4B3
:100BDA00020D32753D01753F367B007A00793DE49E
:100BEA00020D32753D01753F3B7B007A00793DE489
:100BFA00020D32753D01753F407B007A00793DE474
:100C0A00020D32753D01753F457B007A00793DE45E
:100C1A00020D32753D01753F4A7B007A00793DE449
:100C2A00020D32753D01753F4F7B007A00793DE434
:100C3A00020D32753D01753F547B007A00793DE41F
:100C4A00020D32753D01753F597B007A00793DE40A
:100C5A00020D32753D01753F5E7B007A00793DE4F5
:100C6A00020D32753D01753F637B007A00793DE4E0
:100C7A00020D32753D01753F687B007A00793DE4CB
:100C8A00020D32753D01753F6D7B007A00793DE4B6
:100C9A00020D32753D01753F727B007A00793DE4A1
:100CAA00020D32753D01753F777B007A00793DE48C
:100CBA008076753D01753F7C7B007A00793DE48042
:100CCA0067753D01753F817B007A00793DE4805864
:100CDA00753D01753F867B007A00793DE480497550
:100CEA003D01753F8B7B007A00793DE4803A753D82
:100CFA0001753F907B007A00793DE4802B753D01B8
:100D0A00753F957B007A00793DE4801C753D01753D
:100D1A003F9A7B007A00793DE4800D753D01753F6D
:100D2A009F7B007A00793DE4753103F530F52FF5A4
:070D3A002E7FE61217B7221D
:011BD60022EC
:031BD20002108777
:10138F00E53B64017031F529E52975F003A4249933
:10139F00F9741835F0FA7BFFE4753103F530F52F4A
:1013AF00F52E7FE61217B7121B15121B150529E52F
:1013BF0029C3940840D222E53B64027031F529E538
:1013CF002975F003A424B1F9741835F0FA7BFFE402
:1013DF00753103F530F52FF52E7FE61217B7121B77
:1013EF0015121B150529E529C3940840D222E53BA8
:1013FF0064037030F529E52975F003A424C9F97445
:10140F001835F0FA7BFFE4753103F530F52FF52E23
:10141F007FE61217B7121B15121B150529E529C3F5
:04142F00940840D20B
:011433002296
:101A230030851DE56024FE600E14600E24FB600DFE
:101A33002407700C021B24021B70021B64121AFB86
:011A43002280
:101AFB00D287D2867F2C7E01121AB7C287C286E4A8
:051B0B00F561F50E225A
:101B2400D287D2867F197E00121AB7C287C286E492
:031B3400F50E2289
:0C1B6400D2877F197E00121AB7C28722B8
:0C1B7000D2867F197E00121AB7C28622AE
:03000000021239B0
:1012390075C7AA75C75575FD5A75C7AA75C7557576
:10124900FDA5787FE4F6D8FD9000007FFF7E03E4DA
:0C125900F0A3DFFCDEFA7581620212A037
:10126500021434E493A3F8E493A34003F68001F257
:1012750008DFF48029E493A3F85407240CC8C3338A
:10128500C4540F4420C8834004F456800146F6DF59
:10129500E4800B01020408102040809014B2E47E23
:1012A500019360BCA3FF543F30E509541FFEE4934E
:1012B500A360010ECF54C025E060A840B8E493A315
:1012C500FAE493A3F8E493A3C8C582C8CAC583CA40
:1012D500F0A3C8C582C8CAC583CADFE9DEE780BEF8
:01152F0000BB
:100D4100BB010689828A83E0225002E722BBFE02B0
:090D5100E32289828A83E49322E3
:100D5A00EF8DF0A4A8F0CF8CF0A428CE8DF0A42EAD
:020D6A00FE2267
:100D6C0075F008758200EF2FFFEE33FECD33CDCC3E
:100D7C0033CCC58233C5829BED9AEC99E5829840C1
:100D8C000CF582EE9BFEED9AFDEC99FC0FD5F0D69E
:100D9C00E4CEFBE4CDFAE4CCF9A88222B800C1B9C8
:100DAC000059BA002DEC8BF084CFCECDFCE5F0CB06
:100DBC00F97818EF2FFFEE33FEED33FDEC33FCEB3F
:100DCC0033FB10D703994004EB99FB0FD8E5E4F9FA
:100DDC00FA227818EF2FFFEE33FEED33FDEC33FCE7
:100DEC00C933C910D7059BE99A4007EC9BFCE99ADB
:100DFC00F90FD8E0E4C9FAE4CCFB2275F010EF2F20
:100E0C00FFEE33FEED33FDCC33CCC833C810D7071F
:100E1C009BEC9AE899400AED9BFDEC9AFCE899F85A
:0E0E2C000FD5F0DAE4CDFBE4CCFAE4C8F922ED
:100E3A00EB9FF5F0EA9E42F0E99D42F0EC6480C82F
:060E4A0064809845F022CF
:100E5000EB9FF5F0EA9E42F0E99D42F0E89C45F0F8
:010E6000226F
:100E6100E8600FECC313FCED13FDEE13FEEF13FF6F
:030E7100D8F12293
:100E7400D083D082F8E4937012740193700DA3A30D
:100E840093F8740193F5828883E473740293686021
:060E9400EFA3A3A380DF21
:00000001FF
