:1013FC00E4F50FF5101219B5E50FB40800505F9025
:10140C001412F828287302142A02143202143A0215
:10141C00144202144A02145202145A021462121593
:10142C00A5750F0180D2121967750F0280CA1218A8
:10143C00E0750F0380C2121949750F0480BA121996
:10144C0005750F0580B212108E750F0680AA121446
:10145C00D8750F0780A2121376E4F50F809AE4F585
:03146C000F809559
:0D1A4D007596307597307F027E000219817A
:10192A00E4F5B1F5B2F5B3F5B4F5ACF5AD53B3FEE4
:0F193A0043B401C290C285F534753520C2002236
:1019B500121A4D12192A121A1D12003E1219CC12B2
:0719C5001A72D2AFD28C228E
:07180B00023400000133006C
:1015A500E53530E425300022C2AFD291D2905335D3
:1015B500EF4335207F147E00121981D2AFD28C43C0
:1015C50035021529121967C29122E53530E5242027
:1015D5000021C2AFD291C2905335DF433510D2807E
:1015E500D282D281D297D296D2957F1E7E001219D1
:0415F50081D2AF22CE
:1018E000E53530E01F5335FEC2850528E528D39441
:1018F0000340057528018007E528B40302D285124C
:0519000012D1D201220A
:10196700E53530E1145335FD0529E529D3940340C6
:0A19770003752901120EBCD20122F3
:10194900E53530E2185335FBE52DC3941E40047587
:0E1959002D1E22052D120B2CD20175330122FA
:10190500E53530E31F5335F7E52DD394004007E562
:101915002DD3941E4004E4F52D22152D120B2CD247
:051925000175330122F1
:061ABB00300802B2912286
:101376002001030213FBE533600DD280D282D281B5
:101386007F147E00121981E528B4010DC280D28235
:10139600D2817F037E00121981E528B4020DD28026
:1013A600C282D2817F037E00121981E528B4030D23
:1013B600D280D282C2817F037E00121981E529B4D0
:1013C600010DC297D296D2957F037E00121981E550
:1013D60029B4020DD297C296D2957F037E001219C8
:1013E60081E529B4030DD297D296C2957F037E007C
:0613F600121981C2012260
:01005A002283
:10184C0053B1BF53B2BF53B17F53B27F759850435E
:10185C008920438780438E1053C4DFAB07AA06A9A7
:10186C0005A8047F407E427D0F7C00120DCAEF0458
:09187C00F404F58DD28ED29922FC
:10146F008F3A8E398D388C3753B1BF53B2BF53B1CA
:10147F007F53B27F75985043878053C4F843C4207D
:10148F00AB3AAA39A938A8377F407E427D0F7C003E
:10149F00120DCAC374FF9FFF74FF9EFEE49DFDE40F
:1014AF009CFC7808120E838FC6AB3AAA39A938A8CC
:1014BF00377F407E427D0F7C00120DCAC374FF9FA1
:0914CF00FF8FC543C408D2992225
:070003003098FDAF99C2988F
:01000A0022D3
:081AA300C2998F993099FD22D0
:101541008F3E8E3D8D3C8C3B53B1FB53B2FB53B36D
:10155100BF53B4BF75F85075C40853C4DFAB3EAA7E
:101561003DA93CA83B7F407E427D0F7C00120DCA05
:10157100C374FF9FFF74FF9EFEE49DFDE49CFC7815
:1015810008120E838FC6AB3EAA3DA93CA83B7F4003
:101591007E427D0F7C00120DCAC374FF9FFF8FC571
:0415A10043C4082215
:071AAB0030F8FDAF9AC2F80C
:011AB2002211
:081AB300C2F98F9A30F9FD22FF
:10198100EF4E6015E4FDFC0DBD00010CBC38F8BD47
:0919910054F5EF1F70EA1E80E717
:01199A00222A
:10172D008F0E8E0D8D0C8C0B538EEF438910D28E38
:10173D00E4FFFEFDFCAB0EAA0DA90CA80BC3120E07
:10174D00726025758BCA758DFA308FFDC28FE50ECF
:10175D0024FFF50EE50D34FFF50DE50C34FFF50C0A
:0B176D00E50B34FFF50B80C8C28E2294
:101778008F428E418D408C3F538EEF438910D28E1D
:10178800E4FFFEFDFCAB42AA41A940A83FC3120EEC
:10179800726025758BEA758DCB308FFDC28FE5425F
:1017A80024FFF542E54134FFF541E54034FFF540BB
:0B17B800E53F34FFF53F80C8C28E22E1
:1015F9008F468E458D448C4353C9BF53C9DF43C9B8
:1016090010D2CAE4FFFEFDFCAB46AA45A944A84393
:10161900C3120E72602575CC3075CDF830CFFDC27E
:10162900CFE54624FFF546E54534FFF545E5443465
:0E163900FFF544E54334FFF54380C8C2CA22E2
:101647008F4A8E498D488C4775C40743C408E4FF09
:10165700FEFDFCAB4AAA49A948A847C3120E72600F
:101667002875C52C75C6CFE5C430E4FB53C4EFE538
:101677004A24FFF54AE54934FFF549E54834FFF5C3
:0D16870048E54734FFF54780C553C4F722FE
:101694008F4E8E4D8D4C8C4B75C40743C408E4FFAC
:1016A400FEFDFCAB4EAA4DA94CA84BC3120E7260B2
:1016B4002875C5D875C6FFE5C430E4FB53C4EFE50F
:1016C4004E24FFF54EE54D34FFF54DE54C34FFF562
:0D16D4004CE54B34FFF54B80C553C4F722A5
:0C181200015000015200015100014F0084
:0D1A3F00E4FFC2EFD2EE30EFFDAFC3055063
:011A4C002277
:1014D800E5516064E552120E961521011521021599
:1014E8002103152604152B05153006153A07150D89
:1014F80010151720151C301512401509F00000159D
:101508003DB2008030433502802B433501802643AD
:1015180035048021433508801C12199B80177529D2
:101528000180087529028003752903120EBCD201B7
:091538008003433408E4F551225C
:10003E0053B1EF53B2EF53E8F043E80543B1105319
:0C004E00B2EFE4F5F643F62043E1012296
:03005B00021A9AEC
:091A9A00C2EF85C34F7551013202
:10181E00022F0000013200C103C104012E0001316C
:01182E0000B9
:101A1D00538EF75389F0438901758CCB758AEAD2C1
:021A2D00A922EC
:03000B0002116C73
:10116C00C0E0C0F0C083C082C0D075D000C000C049
:10117C0001C002C003C004C005C006C007C28C7504
:10118C008CEA758AEA052EE52ED39414406E121A59
:10119C003F752F008F30853032E532C394FD5059A6
:1011AC00E53294B040087551017552F0804BE53230
:1011BC00D39490400A05317551017552208020E579
:1011CC0032D39470400A0531755101755230800F3D
:1011DC00E532D39450400C05317551017552407F66
:1011EC001E8011E532D39430400F053175510175D5
:1011FC0052107F0F7E00121981752E00D28CD007F1
:10120C00D006D005D004D003D002D001D000D0D06D
:09121C00D082D083D0F0D0E03282
:10005E0000A50000A50000C30000A41100000000D0
:10006E000000000000101D3F000000000000000016
:10007E00000000000000000000007FFFFF000000F5
:10008E000000000000000000000000007FFFFF00E5
:10009E00C80083C4D5FFABFB241009FFABFA0800E0
:1000AE0009FFABFA000009FFABFBA41829FFAD84D2
:1000BE00000018FFAD85001FFFFFAD81001212FF7B
:1000CE00AD82001414FFAD83000088FFAD80005494
:1000DE0054FFAD87005454FFAD86000000FFAD867F
:1000EE00000001FFAD8600000000C20000C97A00CA
:1000FE00DF1E00DB7800DB7800C70000E00A00D5C9
:10010E005300E33E00CF0000E17000CB0000E22F71
:10011E0000D96200E52F00E47000D73001D09A00BC
:10012E00C60100DD0100D40A00DA0600DC0000A1E1
:10013E000500000000000400002700001600006B00
:10014E0000D80000A105000001000000000017000B
:10015E00003A00007B00D80000A10500000200005C
:10016E000300007C00003A00000000D80000A1054A
:10017E0000000300000000002300007F0000630069
:10018E00D80000A1050000040000000000310000AE
:10019E000D00002A00D80000A10500000500000097
:1001AE0000005600000D00003B00D80000A1050025
:1001BE00000600000000004400003A00004A00D88B
:1001CE000000A105000007000000000066000024EA
:1001DE0000001600D80000A1050000080000000075
:1001EE00005C00002400001D00D80000A1050000E6
:1001FE000900000000006D00003A00002500D80044
:10020E0000CF0100D10000D10900D11200D11B0096
:10021E00D12400D12D00D13600D13F00D14800D1DC
:10022E004C00D10C00CF0000D21300CF0000D32120
:10023E0000D61900CF0000E86100E94700CF00FFAB
:10024E00ABF30000C1FFABF4000001FFABF5301AB9
:10025E0048FFABF620EE7DFFABF7029078FFABF4D4
:10026E00000002FFABF5101A4AFFABF621E60006BE
:10027E00AA0600A27B61F4000000906170000002EB
:10028E00473C0A00380A0064F40000013460F400B0
:10029E000001DA05F420FFFFFF0464A0204C0020CB
:1002AE00480044B8000CC4A000001657F4007FF7B5
:1002BE00055F5C005F580057F4007FFF385F5C00FD
:1002CE005F5800205C0020580057F4007FFFBC5F91
:1002DE005C005F580057F4007FC7295F5C005F58D1
:1002EE00000AF08000007857F4007FF63A5F5C0059
:1002FE005F580057F4007FFF275F5C005F580020B7
:10030E005C0020580057F4007FFFB65F5C005F581A
:10031E000057F4007FC2235F5C005F580054F0006A
:10032E00FFFFF10C1EE20140C60000070140C500B0
:10033E0000010AF0A200008961F40000CDAC6170EA
:10034E000000021461F40000C8326170000001FF69
:10035E0060F4000000986070000001F80BF080005F
:10036E00009800000C0BF08000D36846F4004DF8A6
:10037E00F074F40000001E4E6C0000000C55BE0020
:10038E000140CEFFFF3F30FF0004CDCD20001B22E9
:10039E00090000000B0D104A00000A0A9DA1000082
:1003AE009F22090000000B0D104A0000040A9D81D7
:1003BE000000A508451A56F4000003FF200062084D
:1003CE00CC1A07F02D00003E57F0000002AC45F4A9
:1003DE000000000245F46AFF0FFF20006E5570000A
:0C03EE000002AC00000C00AC0000850018
:1007960000A50000A50000C30000A4110000000091
:1007A6000000000000101D3F0000000000000000D7
:1007B600000000000000000000007FFFFF000000B6
:1007C6000000000000000000000000007FFFFF00A6
:1007D600C80083C4D5FFABFB241009FFABFA0800A1
:1007E60009FFABFA000009FFABFBA41829FFAD8493
:1007F600000018FFAD85001FFFFFAD81001212FF3C
:10080600AD82001414FFAD83000088FFAD80005454
:1008160054FFAD87005454FFAD86000000FFAD863F
:10082600000001FFAD8600000000C20000C978008C
:10083600DF1E00DB7800DB7800C70000E00A00D589
:100846005300E33E00CF0400E17000CB0000E22F2E
:1008560000D97500E52F00E47000D73001D09A006A
:10086600C60100DD0100D40000DA0600DC0000A1AC
:100876000500000000000400001B00001600003BFD
:1008860000D80000A10500000100000000001200D1
:10089600003A00003F00D80000A105000002000059
:1008A6000000001800003A00005D00D80000A10515
:1008B60000000300000000002100000D00002100E0
:1008C600D80000A10500000400000000003200006E
:1008D6000D00003900D80000A10500000500000049
:1008E60000006800003A00002F00D80000A10500B3
:1008F600000600000000006E00003A00004100D82B
:100906000000A105000007000000000065000024AB
:1009160000002600D80000A1050000080000030022
:10092600007D00000D00000D00D80000A1050000AC
:100936000900000000006100000D00003F00D80023
:1009460000CF0100D10000D10900D11200D11B0057
:10095600D12400D12D00D13600D13F00D14800D19D
:100966004C00D11400CF0400D21400CF0400CF04F1
:1009760000E85800E94E00CF04FFABF30000C1FFCA
:10098600ABF4000001FFABF5301A48FFABF620EEE2
:100996007DFFABF7029078FFABF4000002FFABF5EA
:1009A600101A4AFFABF621E60006AA0600A27B61F2
:1009B600F4000000906170000002473C0A00380A0B
:1009C6000064F40000013460F4000001DA05F4204C
:1009D600FFFFFF0464A0204C0020480044B8000C30
:1009E600C4A000001657F4007FF7055F5C005F584F
:1009F6000057F4007FFF385F5C005F5800205C0002
:100A060020580057F4007FFFBC5F5C005F5800571A
:100A1600F4007FC7295F5C005F58000AF080000081
:100A26007857F4007FF63A5F5C005F580057F40091
:100A36007FFF275F5C005F5800205C00205800574E
:100A4600F4007FFFB65F5C005F580057F4007FC27A
:100A5600235F5C005F580054F000FFFFF10C1EE2BC
:100A66000140C60000070140C50000010AF0A200CF
:100A7600008961F40000CDAC61700000021461F4DD
:100A86000000C8326170000001FF60F400000098A9
:100A96006070000001F80BF08000009800000C0B5D
:100AA600F08000D36846F4004DF8F074F4000000BE
:100AB6001E4E6C0000000C55BE000140CEFFFF3FED
:100AC60030FF0004CDCD20001B22090000000B0DD5
:100AD600104A00000A0A9DA100009F22090000009A
:100AE6000B0D104A0000040A9D810000A508451A56
:100AF60056F4000003FF20006208CC1A07F02D0010
:100B0600003E57F0000002AC45F40000000245F438
:100B16006AFF0FFF20006E5570000002AC00000C4B
:060B260000AC0000850098
:1003FA0000A50000A50000C30000A4110000000031
:10040A000000000000101D3F000000000000000076
:10041A00000000000000000000007FFFFF00000055
:10042A000000000000000000000000007FFFFF0045
:10043A00C80083C4D5FFABFB241009FFABFA080040
:10044A0009FFABFA000009FFABFBA41829FFAD8432
:10045A00000018FFAD85001FFFFFAD81001212FFDB
:10046A00AD82001414FFAD83000088FFAD800054F4
:10047A0054FFAD87005454FFAD86000000FFAD86DF
:10048A00000001FFAD8600000000C20000C97A002A
:10049A00DF1E00DB7800DB7800C70000E00A00D529
:1004AA005900E35000CF0000E17000CB0000E22FBA
:1004BA0000D96F00E52F00E47000D73001D09A0010
:1004CA00C60100DD0100D40000DA0000DC0000A152
:1004DA000500000000000400001E00001600006B6A
:1004EA0000D80000A1050000010000000000000083
:1004FA00003A00003F00D80000A1050000020000F9
:10050A000000002B00003A00002B00D80000A105D3
:10051A0000000300000000002400003A00005E0012
:10052A00D80000A105000004000000000037000008
:10053A000D00003000D80000A105000005000000F1
:10054A0000006E00000D00002B00D80000A105007D
:10055A00000600000000004300003A00004500D8F1
:10056A000000A10500000700000000006500000D62
:10057A0000002900D80000A10500000800000000C2
:10058A00001200000D00001B00D80000A1050000A9
:10059A000900000200007000001700003D00D800AA
:1005AA0000CF0100D10000D10900D11200D11B00F7
:1005BA00D12400D12D00D13600D13F00D14800D13D
:1005CA004C00D10700CF0000D22E00CF0000D31379
:1005DA0000D60B00CF0000E85100E94800CF00FF29
:1005EA00ABF30000C1FFABF4000001FFABF5301A1A
:1005FA0048FFABF620EE7DFFABF7029078FFABF435
:10060A00000002FFABF5101A4AFFABF621E600061E
:10061A00AA0600A27B61F40000009061700000024B
:10062A00473C0A00380A0064F40000013460F40010
:10063A000001DA05F420FFFFFF0464A0204C00202B
:10064A00480044B8000CC4A000001657F4007FF715
:10065A00055F5C005F580057F4007FFF385F5C005D
:10066A005F5800205C0020580057F4007FFFBC5FF1
:10067A005C005F580057F4007FC7295F5C005F5831
:10068A00000AF08000007857F4007FF63A5F5C00B9
:10069A005F580057F4007FFF275F5C005F58002017
:1006AA005C0020580057F4007FFFB65F5C005F587B
:1006BA000057F4007FC2235F5C005F580054F000CB
:1006CA00FFFFF10C1EE20140C60000070140C50011
:1006DA0000010AF0A200008961F40000CDAC61704B
:1006EA000000021461F40000C8326170000001FFCA
:1006FA0060F4000000986070000001F80BF08000C0
:10070A00009800000C0BF08000D36846F4004DF806
:10071A00F074F40000001E4E6C0000000C55BE0080
:10072A000140CEFFFF3F30FF0004CDCD20001B2249
:10073A00090000000B0D104A00000A0A9DA10000E2
:10074A009F22090000000B0D104A0000040A9D8137
:10075A000000A508451A56F4000003FF20006208AD
:10076A00CC1A07F02D00003E57F0000002AC45F409
:10077A000000000245F46AFF0FFF20006E5570006A
:0C078A000002AC00000C00AC0000850078
:0519F6001219FBD29361
:0E19FB00E4FFFE0FBF00010EEF64324E70F5E8
:011A090022BA
:041AC100C29280FC51
:0A1A7200D2931219FBD2940219FB63
:0A1A7C00D2941219F6C2940219FB6D
:10188500900000D2931219FB309423AF82AE83E40B
:10189500FCFD7B507AC3F9F8D3120E5C4010A3E52A
:1018A50082B488E4E583B413DF121AC180DAC293E7
:0318B5000219FB1A
:0A1A8600C2941219F6D2940219FB63
:1018B800AD07E4FCC2931219FBED30E704D2948023
:1018C80002C294ED25E0FD1219F60CBC08E6C2939D
:0818D8001219FBD2940219FB66
:10000E00C2061219FBD2051219FBE4FCD206121914
:10001E00FBED25E0FFA205E4334FFDC2061219FBEE
:09002E000CBC08E81219FBAF0537
:0100370022A6
:0816E1008B158A168917AD076D
:1016E900E4F51C121A7CAF051218B8121885E4F536
:1016F9001CAF1CE4FCFDFEAB1BAA1AA919A818D340
:10170900120E72401CAB150517E517AA16700205D3
:101719001614F9120D63FF1218B8121885051C80EA
:04172900D0021A864A
:0E182F00042200000000012600C1080127006D
:1019CC0043B10853B2F7D28353E9DF43EA0853EB30
:0519DC00F7439B02220D
:03003B00020FA809
:100FA800C0E0C0F0C083C082C0D075D000C000C00F
:0D0FB80001C002C003C004C005C006C00790
:100FC500750800750900750A00E5EC20E3030210B9
:100FD5007053ECF7539BFD0508050A7F017E007DE4
:100FE500007C0012172D3083F0750A00050A7F0179
:100FF5007E007D007C0012172D2083F0750A007598
:1010050008007509003083FD7F017E007D007C00AE
:1010150012172D30831C74222508F8C000E6FFC383
:1010250013D000F674222508F8E64480F6308310C4
:1010350080FB74222508F8C000E6FFC313D000F634
:101045000509E509C3940840BC0508E508C39404EF
:1010550040B03083FD1219E17F1E7E007D007C00CB
:0E10650012172D121A90439B02800375EC00A7
:10107300D007D006D005D004D003D002D001D000D1
:0B108300D0D0D082D083D0F0D0E0327B
:1019E100E525F4B52409852426121A90D20822E4AB
:0519F100F526C20822EA
:091A90007F047822E4F608DFFC73
:011A9900222A
:10108E00E4F51120080302116BE526120E9610C12D
:10109E001010D611112412113513114614115715B3
:1010AE0010EA1610FB41110C4A11144B111C4C0086
:1010BE000011690527E527C39402500302116975D3
:1010CE0051807552010211660527E527C39402501F
:1010DE0003021169755180755202807C0527E52740
:1010EE00C394024076755180755203806B0527E5D7
:1010FE0027C394024065755180755240805A7551D0
:10110E00807552048055755180755205804D75510C
:10111E008075520680450527E527C39402403C752D
:10112E00518075522080310527E527C39402402B4C
:10113E0075518075523080200527E527C3940240F3
:10114E001A7551807552F0800F0527E527C394025A
:0D115E004009755180755207E4F527C2085D
:01116B002261
:1017C300FFAD83000088FFAD86000000FFAD8600FB
:1017D3000001FFAD86000000FFAD83000099FFAD5F
:1017E30086000000FFAD86000001FFAD860000000B
:1017F300FFAD830000AAFFAD86000000FFAD8600A9
:081803000001FFAD86000000AA
:0E183D00012801012901012D0F032A01D09A73
:100EBC00D291E52924FE6052147003020F5A2402C9
:100ECC006003020F9CE4F511F512AE11AF127C0019
:100EDC007D03120D7C74FA2FF974033EFA7BFFE448
:100EEC00751B03F51AF519F5187FE61216E11219A0
:100EFC00FB1219FB0512E51270020511C39434E5BF
:100F0C00116480948140C3020F9CE4F511F512AE7C
:100F1C0011AF127C007D03120D7C74962FF97407AF
:100F2C003EFA7BFFE4751B03F51AF519F5187FE6FD
:100F3C001216E11219FB1219FB0512E512700205CB
:100F4C0011C39434E5116480948140C38042E4F56C
:100F5C0011F512AE11AF127C007D03120D7C745E84
:100F6C002FF974003EFA7BFFE4751B03F51AF51993
:100F7C00F5187FE61216E11219FB1219FB0512E5A2
:100F8C001270020511C39434E5116480948140C33E
:0B0F9C001212D1752D16120B2CC29101
:010FA7002227
:100B2C00E52DB41F004003020D62900B3DF8282800
:100B3C0073020B9A020BA1020BA9020BB1020BB9A7
:100B4C00020BC1020BCF020BDF020BEF020BFF02F9
:100B5C000C0F020C1F020C2F020C3F020C4F020C4C
:100B6C005F020C6F020C7F020C8F020C9F020CAF09
:100B7C00020CBF020CCF020CDE020CED020CFC02CC
:100B8C000D0B020D1A020D29020D38020D47E4F56A
:100B9C002AF52C8026E4F52A752C50801EE4F52AC3
:100BAC00752C648016E4F52A752C96800EE4F52AD3
:100BBC00752CC88006E4F52A752CFAFB7A00792A84
:100BCC00020D54752A01752C137B007A00792AE4E6
:100BDC00020D54752A01752C2C7B007A00792AE4BD
:100BEC00020D54752A01752C317B007A00792AE4A8
:100BFC00020D54752A01752C367B007A00792AE493
:100C0C00020D54752A01752C3B7B007A00792AE47D
:100C1C00020D54752A01752C407B007A00792AE468
:100C2C00020D54752A01752C457B007A00792AE453
:100C3C00020D54752A01752C4A7B007A00792AE43E
:100C4C00020D54752A01752C4F7B007A00792AE429
:100C5C00020D54752A01752C547B007A00792AE414
:100C6C00020D54752A01752C597B007A00792AE4FF
:100C7C00020D54752A01752C5E7B007A00792AE4EA
:100C8C00020D54752A01752C637B007A00792AE4D5
:100C9C00020D54752A01752C687B007A00792AE4C0
:100CAC00020D54752A01752C6D7B007A00792AE4AB
:100CBC00020D54752A01752C727B007A00792AE496
:100CCC00020D54752A01752C777B007A00792AE481
:100CDC008076752A01752C7C7B007A00792AE48059
:100CEC0067752A01752C817B007A00792AE480587B
:100CFC00752A01752C867B007A00792AE480497567
:100D0C002A01752C8B7B007A00792AE4803A752AAB
:100D1C0001752C907B007A00792AE4802B752A01CE
:100D2C00752C957B007A00792AE4801C752A017554
:100D3C002C987B007A00792AE4800D752A01752C99
:100D4C009A7B007A00792AE4751B03F51AF519F5DC
:070D5C00187FE61216E122E8
:011AC50022FE
:03003800020EBCF9
:1012D100E52864017031F513E51375F003A424C307
:1012E100F9741735F0FA7BFFE4751B03F51AF5194C
:1012F100F5187FE61216E11219FB1219FB0513E529
:1013010013C3940840D222E52864027031F513E535
:101311001375F003A424DBF9741735F0FA7BFFE4AD
:10132100751B03F51AF519F5187FE61216E1121966
:10133100FB1219FB0513E513C3940840D222E528DB
:1013410064037030F513E51375F003A424F3F97405
:101351001735F0FA7BFFE4751B03F51AF519F5183B
:101361007FE61216E11219FB1219FB0513E513C3EF
:04137100940840D2CA
:011375002255
:10199B00308516E55224FE600A14600A2402700991
:0A19AB00021A2F021A66121A5A22BD
:101A0A00D287D2867F3C7E00121981C287C286E4C1
:031A1A00F51D2295
:101A2F00D287D2867F197E00121981C287C2862281
:0C1A5A00D2877F197E00121981C28722FA
:0C1A6600D2867F197E00121981C28622F0
:03000000021225C4
:1012250075C7AA75C75575FD5A75C7AA75C755758A
:10123500FDA5787FE4F6D8FD9000007FFF7E03E4EE
:0C124500F0A3DFFCDEFA75815202128C6F
:101251000213FCE493A3F8E493A34003F68001F2A4
:1012610008DFF48029E493A3F85407240CC8C3339E
:10127100C4540F4420C8834004F456800146F6DF6D
:10128100E4800B010204081020408090180BE47EDA
:10129100019360BCA3FF543F30E509541FFEE49362
:1012A100A360010ECF54C025E060A840B8E493A329
:1012B100FAE493A3F8E493A3C8C582C8CAC583CA54
:1012C100F0A3C8C582C8CAC583CADFE9DEE780BE0C
:01184B00009C
:100D6300BB010689828A83E0225002E722BBFE028E
:090D7300E32289828A83E49322C1
:100D7C00EF8DF0A4A8F0CF8CF0A428CE8DF0A42E8B
:020D8C00FE2245
:100D8E0075F008758200EF2FFFEE33FECD33CDCC1C
:100D9E0033CCC58233C5829BED9AEC99E58298409F
:100DAE000CF582EE9BFEED9AFDEC99FC0FD5F0D67C
:100DBE00E4CEFBE4CDFAE4CCF9A88222B800C1B9A6
:100DCE000059BA002DEC8BF084CFCECDFCE5F0CBE4
:100DDE00F97818EF2FFFEE33FEED33FDEC33FCEB1D
:100DEE0033FB10D703994004EB99FB0FD8E5E4F9D8
:100DFE00FA227818EF2FFFEE33FEED33FDEC33FCC5
:100E0E00C933C910D7059BE99A4007EC9BFCE99AB8
:100E1E00F90FD8E0E4C9FAE4CCFB2275F010EF2FFD
:100E2E00FFEE33FEED33FDCC33CCC833C810D707FD
:100E3E009BEC9AE899400AED9BFDEC9AFCE899F838
:0E0E4E000FD5F0DAE4CDFBE4CCFAE4C8F922CB
:100E5C00EB9FF5F0EA9E42F0E99D42F0EC6480C80D
:060E6C0064809845F022AD
:100E7200EB9FF5F0EA9E42F0E99D42F0E89C45F0D6
:010E8200224D
:100E8300E8600FECC313FCED13FDEE13FEEF13FF4D
:030E9300D8F12271
:100E9600D083D082F8E4937012740193700DA3A3EB
:100EA60093F8740193F5828883E4737402936860FF
:060EB600EFA3A3A380DFFF
:00000001FF
