:10142300E4F525F526121A9EE525B40900506A90C5
:101433001439F828287302145402145C0214640249
:10144300146C02147402147C02148402148C0214AB
:101453009412166075250180CF12000E7525028047
:10146300C712190075250380BF121A4C7525048015
:10147300B71219E775250580AF120E9A75250680F8
:10148300A7121167752507809F12151F7525088000
:0E149300971212D4E4F525808FE4F525808AA7
:0D1B3B007596307597307F027E00021A8487
:101A2D00E4F5B1F5B2F5B3F5B4F5ACF5AD53B3FEE0
:0F1A3D0043B401C290C285F51D751E20C2002260
:101A9E00121B3B121A2D121B1B12003E121AB512EC
:071AAE001B60D2AFD28C22B5
:0B14A100C102C103021D0000011C007D
:10166000E51E30E426300023C2AFD291D290531E43
:10167000EF431E207F147E00121A84D2AFD28C4317
:101680001E0275401612000EC29122E51E30E5249E
:10169000200021C2AFD291C290531EDF431E10D250
:1016A00080D282D281D297D296D2957F1E7E0012AE
:0516B0001A84D2AF22F4
:10190000E51E30E02D209104D291D203531EFEC279
:1019100085E53BD394034005753B018007E53BB467
:101920000302D28512137EC291D201300304C29108
:03193000C20322CD
:10000E00E51E30E127209106D291D203D202531E73
:10001E00FDE53CD394034003753C01121089D201D7
:0D002E00200303300206C291C203C2022269
:101A4C00E51E30E218531EFBE540C3941E4004759E
:0E1A5C00401E220540120B1AD201751C0122F9
:1019E700E51E30E31F531EF7E540D394004007E59B
:1019F70040D3941E4004E4F540221540120B1AD23E
:051A070001751C012225
:091B8800309103C29122D2912296
:1012D40030850F20B00C751C01D2017F327E0012C4
:1012E4001A8430910F30900C751C01D2017F647EFA
:1012F40000121A8420010302137DE51C600DD280C4
:10130400D282D2817F0A7E00121A84E53BB4010D99
:10131400C280D282D2817F077E00121A84E53BB458
:10132400020DD280C282D2817F077E00121A84E528
:101334003BB4030DD280D282C2817F077E00121A91
:1013440084E53CB4010DC297D296D2957F077E0006
:10135400121A84E53CB4020DD297C296D2957F0747
:101364007E00121A84E53CB4030DD297D296C2953E
:0A1374007F077E00121A84C20122D6
:01005A002283
:1018C70053B1BF53B2BF53B17F53B27F75985043E3
:1018D7008920438780438E1053C4DFAB07AA06A92C
:1018E70005A8047F407E427D0F7C00120DA8EF04FF
:0918F700F404F58DD28ED2992281
:101593008F448E438D428C4153B1BF53B2BF53B17D
:1015A3007F53B27F75985043878053C4F843C42058
:1015B300AB44AA43A942A8417F407E427D0F7C00F1
:1015C300120DA8C374FF9FFF74FF9EFEE49DFDE40C
:1015D3009CFC7808120E618FC6AB44AA43A942A8AB
:1015E300417F407E427D0F7C00120DA8C374FF9F94
:0915F300FF8FC543C408D2992200
:070003003098FDAF99C2988F
:01000A0022D3
:081B9A00C2998F993099FD22D8
:1015FC008F488E478D468C4553B1FB53B2FB53B38A
:10160C00BF53B4BF75F85075C40853C4DFAB48AAB8
:10161C0047A946A8457F407E427D0F7C00120DA84D
:10162C00C374FF9FFF74FF9EFEE49DFDE49CFC7859
:10163C0008120E618FC6AB48AA47A946A8457F4041
:10164C007E427D0F7C00120DA8C374FF9FFF8FC5D7
:04165C0043C4082259
:071BA20030F8FDAF9AC2F814
:011BA9002219
:081BAA00C2F98F9A30F9FD2207
:101A6A00EF4E6015E4FDFC0DBD00010CBC05F8BD90
:091A7A0082F5EF1F70EA1E80E7FF
:011A83002240
:101A8400EF4E6015E4FDFC0DBD00010CBC38F8BD43
:091A940054F5EF1F70EA1E80E713
:011A9D002226
:1017E9008F4C8E4B8D4A8C49538EEF438910D28E84
:1017F900E4FFFEFDFCAB4CAA4BA94AA849C3120E53
:10180900506025758BCA758DFA308FFDC28FE54CF6
:1018190024FFF54CE54B34FFF54BE54A34FFF54A17
:0B182900E54934FFF54980C8C28E225B
:101834008F508E4F8D4E8C4D538EEF438910D28E28
:10184400E4FFFEFDFCAB50AA4FA94EA84DC3120EF7
:10185400506025758BEA758DCB308FFDC28FE550B6
:1018640024FFF550E54F34FFF54FE54E34FFF54EB8
:0B187400E54D34FFF54D80C8C28E2208
:1016B5008F548E538D528C5153C9BF53C9DF43C9C3
:1016C50010D2CAE4FFFEFDFCAB54AA53A952A8519F
:1016D500C3120E50602575CC3075CDF830CFFDC2E4
:1016E500CFE55424FFF554E55334FFF553E5523463
:0E16F500FFF552E55134FFF55180C8C2CA22FC
:101703008F588E578D568C5575C40743C408E4FF14
:10171300FEFDFCAB58AA57A956A855C3120E50603C
:101723002875C52C75C6CFE5C430E4FB53C4EFE57B
:101733005824FFF558E55734FFF557E55634FFF5C0
:0D17430056E55534FFF55580C553C4F72217
:101750008F5C8E5B8D5A8C5975C40743C408E4FFB7
:10176000FEFDFCAB5CAA5BA95AA859C3120E5060DF
:101770002875C5D875C6FFE5C430E4FB53C4EFE552
:101780005C24FFF55CE55B34FFF55BE55A34FFF55F
:0D1790005AE55934FFF55980C553C4F722BE
:0C14AC00015E00016000015F00015D00B6
:0D1B2D00E4FFC2EFD2EE30EFFDAFC3055E66
:011B3A002288
:10151F00E55F606CE560120E7415710115710215AF
:10152F007103157604157B05158006158A0715714D
:10153F0008155710156720156C30155E401553F0C0
:10154F000000158FB2008038431E02053C803143E6
:10155F001E01053BD2018028431E048023431E0831
:10156F00801E121A0C8019753C038008753C02808E
:10157F0003753C01121089D2018005121B88D2011C
:04158F00E4F55F22FE
:10003E0053B1EF53B2EF53E8F043E80543B1105319
:0C004E00B2EFE4F5F643F62043E1012296
:03005B00021B91F4
:091B9100C2EF85C35D755F0132EE
:1014B80002340000013A00013700C105C106C10726
:0C14C8000133000139000138000136003A
:101B1B00538EF75389F0438901758CCB758AEAD2C2
:021B2B00A922ED
:10116700200503021227121B2D7534008F35853594
:101177003AE53730E7020538E53AC394FD5060E5B4
:101187003A94B04006433781021225E53AD394904A
:101197004017E53730E10DE538D394084006755F11
:1011A700017560204337828075E53AD39470401704
:1011B700E53730E20DE538D394084006755F0175D1
:1011C70060304337848057E53AD39450400543371E
:1011D70088804BE53AD394304044433790803FE5CD
:1011E7003730E73530E006755F017560F0E5373079
:1011F700E106755F01756020E53730E206755F012E
:10120700756030E53730E306755F01756040E53797
:1012170030E406755F01756010E4F537F538C205EF
:0112270022A4
:03000B0002196671
:10196600C0E0C0D0C28C758CEA758AEA05330536AC
:10197600E533D394094005D205753300E536D39493
:0F1986000F4005D206753600D28CD0D0D0E0329B
:10005E0000D00000A50000A50000C30000A4110000
:10006E000000000000000000101D3F000000000016
:10007E00000000000000000000000000007FFFFFF5
:10008E000000000000000000000000000000007FE3
:10009E00FFFF00C80083C4D5FFABFB241009FFABE4
:1000AE00FA080009FFABFA000009FFABFBA4182900
:1000BE00FFAD84000018FFAD85001FFFFFAD81006E
:1000CE001212FFAD82001414FFAD80005454FFAD28
:1000DE0087005454FFAD86000000FFAD860000017E
:1000EE00FFAD8600000000C20000C97A00DF1E00CE
:1000FE00DB7800DB7800C70000E00A00D55300E390
:10010E003E00CF0000E17000CB0000E22F00D9626C
:10011E0000E52F00E47000D73000C60100DD0100BD
:10012E00D40A00DA0600DC0000A105000000000081
:10013E000400002700001600006B00D80000A10587
:10014E0000000100000000001700003A00007B00D4
:10015E00D80000A10500000200000300007C000092
:10016E003A00000000D80000A105000003000000C6
:10017E0000002300007F00006300D80000A10500EE
:10018E00000400000000003100000D00002A00D81D
:10019E000000A10500000500000000005600000D43
:1001AE0000003B00D80000A1050000060000000082
:1001BE00004400003A00004A00D80000A1050000EB
:1001CE000700000000006600002400001600D800A2
:1001DE0000A10500000800000000005C00002400E3
:1001EE00001D00D80000A10500000900000000005D
:1001FE006D00003A00002500D80000CF0100D100AC
:10020E0000D10900D11200D11B00D12400D12D0044
:10021E00D13600D13F00D14800D14C00D10C00CFD7
:10022E000000D21300CF0000D32100D61900CF005A
:10023E0000E86100E94700CF00FFABF30000C1FF0B
:10024E00ABF4000001FFABF5301A48FFABF620EE21
:10025E007DFFABF7029078FFABF4000002FFABF529
:10026E00101A4AFFABF621E60006AA0600A27B6131
:10027E00F4000000906170000002473C0A00380A4A
:10028E000064F40000013460F4000001DA05F4208B
:10029E00FFFFFF0464A0204C0020480044B8000C6F
:1002AE00C4A000001657F4007FF7055F5C005F588E
:1002BE000057F4007FFF385F5C005F5800205C0041
:1002CE0020580057F4007FFFBC5F5C005F5800575A
:1002DE00F4007FC7295F5C005F58000AF0800000C1
:1002EE007857F4007FF63A5F5C005F580057F400D1
:1002FE007FFF275F5C005F5800205C00205800578E
:10030E00F4007FFFB65F5C005F580057F4007FC2B9
:10031E00235F5C005F580054F000FFFFF10C1EE2FB
:10032E000140C60000070140C50000010AF0A2000E
:10033E00008961F40000CDAC61700000021461F41C
:10034E000000C8326170000001FF60F400000098E8
:10035E006070000001F80BF08000009800000C0B9C
:10036E00F08000D36846F4004DF8F074F4000000FD
:10037E001E4E6C0000000C55BE000140CEFFFF3F2C
:10038E0030FF0004CDCD20001B22090000000B0D14
:10039E00104A00000A0A9DA100009F2209000000D9
:1003AE000B0D104A0000040A9D810000A508451A95
:1003BE0056F4000003FF20006208CC1A07F02D004F
:1003CE00003E57F0000002AC45F40000000245F478
:1003DE006AFF0FFF20006E5570000002AC00000C8B
:0603EE0000AC00008500D8
:10078A0000D00000A50000A50000C30000A41100CD
:10079A000000000000000000101D3F0000000000E3
:1007AA00000000000000000000000000007FFFFFC2
:1007BA000000000000000000000000000000007FB0
:1007CA00FFFF00C80083C4D5FFABFB241009FFABB1
:1007DA00FA080009FFABFA000009FFABFBA41829CD
:1007EA00FFAD84000018FFAD85001FFFFFAD81003B
:1007FA001212FFAD82001414FFAD80005454FFADF5
:10080A0087005454FFAD86000000FFAD860000014A
:10081A00FFAD8600000000C20000C97800DF1E009C
:10082A00DB7800DB7800C70000E00A00D55300E35C
:10083A003E00CF0400E17000CB0000E22F00D97522
:10084A0000E52F00E47000D73000C60100DD01008A
:10085A00D40000DA0600DC0000A105000000000058
:10086A000400001B00001600003B00D80000A10590
:10087A0000000100000000001200003A00003F00E2
:10088A00D80000A1050000020000000000180000C6
:10089A003A00005D00D80000A10500000300000036
:1008AA0000002100000D00002100D80000A1050071
:1008BA00000400000000003200000D00003900D8DA
:1008CA000000A10500000500000000006800003AD1
:1008DA0000002F00D80000A105000006000000005B
:1008EA00006E00003A00004100D80000A105000097
:1008FA000700000000006500002400002600D80060
:10090A0000A10500000800000300007D00000D00A2
:10091A00000D00D80000A105000009000000000039
:10092A006100000D00003F00D80000CF0100D10097
:10093A0000D10900D11200D11B00D12400D12D0011
:10094A00D13600D13F00D14800D14C00D11400CF9C
:10095A000400D21400CF0400CF0400E85800E94E86
:10096A0000CF04FFABF30000C1FFABF4000001FFAE
:10097A00ABF5301A48FFABF620EE7DFFABF70290DD
:10098A0078FFABF4000002FFABF5101A4AFFABF692
:10099A0021E60006AA0600A27B61F400000090612D
:1009AA0070000002473C0A00380A0064F4000001A3
:1009BA003460F4000001DA05F420FFFFFF0464A0AC
:1009CA00204C0020480044B8000CC4A00000165770
:1009DA00F4007FF7055F5C005F580057F4007FFF63
:1009EA00385F5C005F5800205C0020580057F40014
:1009FA007FFFBC5F5C005F580057F4007FC7295F28
:100A0A005C005F58000AF08000007857F4007FF617
:100A1A003A5F5C005F580057F4007FFF275F5C0075
:100A2A005F5800205C0020580057F4007FFFB65F33
:100A3A005C005F580057F4007FC2235F5C005F5878
:100A4A000054F000FFFFF10C1EE20140C60000074F
:100A5A000140C50000010AF0A200008961F400000B
:100A6A00CDAC61700000021461F40000C8326170FC
:100A7A00000001FF60F4000000986070000001F8B7
:100A8A000BF08000009800000C0BF08000D3684641
:100A9A00F4004DF8F074F40000001E4E6C000000E3
:100AAA000C55BE000140CEFFFF3F30FF0004CDCD04
:100ABA0020001B22090000000B0D104A00000A0A40
:100ACA009DA100009F22090000000B0D104A0000A2
:100ADA00040A9D810000A508451A56F4000003FF88
:100AEA0020006208CC1A07F02D00003E57F00000E3
:100AFA0002AC45F40000000245F46AFF0FFF200033
:100B0A006E5570000002AC00000C00AC00008500BD
:1003F40000D00000A50000A50000C30000A4110067
:100404000000000000000000101D3F00000000007C
:10041400000000000000000000000000007FFFFF5B
:100424000000000000000000000000000000007F49
:10043400FFFF00C80083C4D5FFABFB241009FFAB4A
:10044400FA080009FFABFA000009FFABFBA4182966
:10045400FFAD84000018FFAD85001FFFFFAD8100D4
:100464001212FFAD82001414FFAD80005454FFAD8E
:1004740087005454FFAD86000000FFAD86000001E4
:10048400FFAD8600000000C20000C97A00DF1E0034
:10049400DB7800DB7800C70000E00A00D55900E3F0
:1004A4005000CF0000E17000CB0000E22F00D96FB4
:1004B40000E52F00E47000D73000C60100DD010024
:1004C400D40000DA0000DC0000A1050000000000F8
:1004D4000400001E00001600006B00D80000A105F7
:1004E40000000100000000000000003A00003F008E
:1004F400D80000A10500000200000000002B00004D
:100504003A00002B00D80000A10500000300000001
:1005140000002400003A00005E00D80000A105009D
:10052400000400000000003700000D00003000D877
:100534000000A10500000500000000006E00000D91
:1005440000002B00D80000A10500000600000000F8
:10055400004300003A00004500D80000A105000057
:100564000700000000006500000D00002900D8000D
:1005740000A10500000800000000001200000D00AA
:10058400001B00D80000A1050000090000020000C3
:100594007000001700003D00D80000CF0100D1001A
:1005A40000D10900D11200D11B00D12400D12D00AB
:1005B400D13600D13F00D14800D14C00D10700CF43
:1005C4000000D22E00CF0000D31300D60B00CF00C2
:1005D40000E85100E94800CF00FFABF30000C1FF81
:1005E400ABF4000001FFABF5301A48FFABF620EE88
:1005F4007DFFABF7029078FFABF4000002FFABF590
:10060400101A4AFFABF621E60006AA0600A27B6197
:10061400F4000000906170000002473C0A00380AB0
:100624000064F40000013460F4000001DA05F420F1
:10063400FFFFFF0464A0204C0020480044B8000CD5
:10064400C4A000001657F4007FF7055F5C005F58F4
:100654000057F4007FFF385F5C005F5800205C00A7
:1006640020580057F4007FFFBC5F5C005F580057C0
:10067400F4007FC7295F5C005F58000AF080000027
:100684007857F4007FF63A5F5C005F580057F40037
:100694007FFF275F5C005F5800205C0020580057F4
:1006A400F4007FFFB65F5C005F580057F4007FC220
:1006B400235F5C005F580054F000FFFFF10C1EE262
:1006C4000140C60000070140C50000010AF0A20075
:1006D400008961F40000CDAC61700000021461F483
:1006E4000000C8326170000001FF60F4000000984F
:1006F4006070000001F80BF08000009800000C0B03
:10070400F08000D36846F4004DF8F074F400000063
:100714001E4E6C0000000C55BE000140CEFFFF3F92
:1007240030FF0004CDCD20001B22090000000B0D7A
:10073400104A00000A0A9DA100009F22090000003F
:100744000B0D104A0000040A9D810000A508451AFB
:1007540056F4000003FF20006208CC1A07F02D00B5
:10076400003E57F0000002AC45F40000000245F4DE
:100774006AFF0FFF20006E5570000002AC00000CF1
:0607840000AC000085003E
:051AF400121AF9D29363
:0E1AF900E4FFFE0FBF00010EEF64324E70F5E9
:011B070022BB
:041BB200C29280FC5F
:0A1B6000D293121AF9D294021AF976
:0A1B6A00D294121AF4C294021AF980
:10193300900000D293121AF9309423AF82AE83E45D
:10194300FCFD7B507AC3F9F8D3120E3A4010A3E59D
:1019530082B488E4E583B413DF121BB280DAC29346
:03196300021AF96C
:0A1B7400C294121AF4D294021AF976
:1019BF00AD07E4FCC293121AF9ED30E704D294801C
:1019CF0002C294ED25E0FD121AF40CBC08E6C29396
:0819DF00121AF9D294021AF960
:10199500C20C121AF9D20B121AF9E4FCD20C121A63
:1019A500F9ED25E0FFA20BE4334FFDC20C121AF945
:0919B5000CBC08E8121AF9AF0598
:0119BE002206
:08179D008B2B8A2C892DAD076E
:1017A500E4F532121B6AAF051219BF121933E4F5BD
:1017B50032AF32E4FCFDFEAB31AA30A92FA82ED3FF
:1017C500120E50401CAB2B052DE52DAA2C700205E1
:1017D5002C14F9120D41FF1219BF1219330532806D
:0417E500D0021B749F
:1014D400041300000000011800011900011A0001A2
:1014E4000B00C108C109C10A011000011200011753
:1014F40000010A00010C00010E00010D00011B0097
:0C150400010800010900010F00011100A6
:101AB50043B10853B2F7D28353E9DF43EA0853EB46
:051AC500F7439B022223
:03003B00020FAA07
:100FAA00C0E0C0F0C083C082C0D075D000C000C00D
:0D0FBA0001C002C003C004C005C006C0078E
:100FC700752200752300752400E5EC20E303021069
:100FD7006B53ECF7539BFD052205247F017E00121E
:100FE7001A6A3083F4E524C394055002806E752491
:100FF7000005247F017E00121A6A2083F4752400FD
:101007007522007523003083FD7F017E00121A6A66
:1010170030831C74132522F8C000E6FFC313D000E9
:10102700F674132522F8E64480F630831080FB74AB
:10103700132522F8C000E6FFC313D000F60523E509
:1010470023C3940840C00522E522C3940440B4306A
:1010570083FD121ACA7F037E00121A6A121B7E438F
:071067009B02800375EC0001
:10106E00D007D006D005D004D003D002D001D000D6
:0B107E00D0D0D082D083D0F0D0E03280
:101ACA00E516F4B51509851518121B7ED20822E40D
:051ADA00F518C208220E
:091B7E007F047813E4F608DFFC93
:011B8700223B
:100E9A00E4F527200603020FA9C206E51920E70395
:100EAA00020F58051AE5186003020F58F51A309117
:100EBA000FC291E50B64146005E50BB41502D291DB
:100ECA00E50B120E740EF4100F03110F35120F3DBD
:100EDA00130F45140F4D150F0B160F13410F1B4A15
:100EEA000F234B0F2B4C00000F53E50EC3940450F5
:100EFA0058755F807560018050755F8075600280EB
:100F0A0048755F807560038040755F8075604080BA
:100F1A0038755F807560048030755F807560058004
:100F2A0028755F80051B756006801E755F80756079
:100F3A00208016755F80756030800E755F807560E1
:100F4A00F08006755F80756007E4F519F50B3008C7
:100F5A004EC20885180BE50B6414600530900280B8
:100F6A0005E50BB41403431980E51AD39402402C07
:100F7A00E51824EE601814601D2403701F050EE5A1
:100F8A000ED394044016755F80756008800E755FF5
:0F0F9A00807560208006755F80756030E4F51803
:010FA9002225
:10187F00FFAD83000088FFAD86000000FFAD86003E
:10188F000001FFAD86000000FFAD83000099FFADA2
:10189F0086000000FFAD86000001FFAD860000004E
:1018AF00FFAD830000AAFFAD86000000FFAD8600EC
:0818BF000001FFAD86000000EE
:0E151000013B01013C0201400F033D01D09A56
:10108900431E0112137EE53C24FE604F14700302D7
:10109900112524026003021164E4F527F528AE271F
:1010A900AF287C007D03120D5A74F42FF974033EA6
:1010B900FA7BFFE4753103F530F52FF52E7FE61243
:1010C900179D121AF90528E52870020527C39434DB
:1010D900E5276480948140C6021164E4F527F52868
:1010E900AE27AF287C007D03120D5A748A2FF9743C
:1010F900073EFA7BFFE4753103F530F52FF52E7FB6
:10110900E612179D121AF90528E52870020527C36A
:101119009434E5276480948140C6803FE4F527F53F
:1011290028AE27AF287C007D03120D5A745E2FF973
:1011390074003EFA7BFFE4753103F530F52FF52E87
:101149007FE612179D121AF90528E528700205276E
:0E115900C39434E5276480948140C6020B1ACB
:100B1A00E540B41F004003020D40900B2BF8282833
:100B2A0073020B88020B8F020B97020B9F020BA713
:100B3A00020BAF020BBD020BCD020BDD020BED0265
:100B4A000BFD020C0D020C1D020C2D020C3D020CB9
:100B5A004D020C5D020C6D020C7D020C8D020C9D87
:100B6A00020CAD020CBC020CCB020CDA020CE9023C
:100B7A000CF8020D07020D16020D25020D25E4F5EB
:100B8A003DF53F8026E4F53D753F55801EE4F53D71
:100B9A00753F698016E4F53D753F9A800EE4F53D90
:100BAA00753FCD8006E4F53D753FFFFB7A00793D40
:100BBA00020D32753D01753F187B007A00793DE4DC
:100BCA00020D32753D01753F317B007A00793DE4B3
:100BDA00020D32753D01753F367B007A00793DE49E
:100BEA00020D32753D01753F3B7B007A00793DE489
:100BFA00020D32753D01753F407B007A00793DE474
:100C0A00020D32753D01753F457B007A00793DE45E
:100C1A00020D32753D01753F4A7B007A00793DE449
:100C2A00020D32753D01753F4F7B007A00793DE434
:100C3A00020D32753D01753F547B007A00793DE41F
:100C4A00020D32753D01753F597B007A00793DE40A
:100C5A00020D32753D01753F5E7B007A00793DE4F5
:100C6A00020D32753D01753F637B007A00793DE4E0
:100C7A00020D32753D01753F687B007A00793DE4CB
:100C8A00020D32753D01753F6D7B007A00793DE4B6
:100C9A00020D32753D01753F727B007A00793DE4A1
:100CAA00020D32753D01753F777B007A00793DE48C
:100CBA008076753D01753F7C7B007A00793DE48042
:100CCA0067753D01753F817B007A00793DE4805864
:100CDA00753D01753F867B007A00793DE480497550
:100CEA003D01753F8B7B007A00793DE4803A753D82
:100CFA0001753F907B007A00793DE4802B753D01B8
:100D0A00753F957B007A00793DE4801C753D01753D
:100D1A003F9A7B007A00793DE4800D753D01753F6D
:100D2A009F7B007A00793DE4753103F530F52FF5A4
:070D3A002E7FE612179D2237
:011BB9002209
:031BB60002108991
:10137E00E53B64017031F529E52975F003A4247F5E
:10138E00F9741835F0FA7BFFE4753103F530F52F5B
:10139E00F52E7FE612179D121AF9121AF90529E594
:1013AE0029C3940840D222E53B64027031F529E549
:1013BE002975F003A42497F9741835F0FA7BFFE42D
:1013CE00753103F530F52FF52E7FE612179D121AA3
:1013DE00F9121AF90529E529C3940840D222E53BF2
:1013EE0064037030F529E52975F003A424AFF97470
:1013FE001835F0FA7BFFE4753103F530F52FF52E35
:10140E007FE612179D121AF9121AF90529E529C35A
:04141E00940840D21C
:0114220022A7
:101A0C0030851DE56024FE600E14600E24FB600D15
:101A1C002407700C021B08021B54021B48121ADF0D
:011A2C002297
:101ADF00D287D2867F2C7E01121A84C287C286E4F7
:051AEF00F561F50E2277
:101B0800D287D2867F197E00121A84C287C286E4E1
:031B1800F50E22A5
:0C1B4800D2877F197E00121A84C2872207
:0C1B5400D2867F197E00121A84C28622FD
:03000000021228C1
:1012280075C7AA75C75575FD5A75C7AA75C7557587
:10123800FDA5787FE4F6D8FD9000007FFF7E03E4EB
:0C124800F0A3DFFCDEFA75816202128F59
:10125400021423E493A3F8E493A34003F68001F279
:1012640008DFF48029E493A3F85407240CC8C3339B
:10127400C4540F4420C8834004F456800146F6DF6A
:10128400E4800B01020408102040809014A1E47E45
:10129400019360BCA3FF543F30E509541FFEE4935F
:1012A400A360010ECF54C025E060A840B8E493A326
:1012B400FAE493A3F8E493A3C8C582C8CAC583CA51
:1012C400F0A3C8C582C8CAC583CADFE9DEE780BE09
:01151E0000CC
:100D4100BB010689828A83E0225002E722BBFE02B0
:090D5100E32289828A83E49322E3
:100D5A00EF8DF0A4A8F0CF8CF0A428CE8DF0A42EAD
:020D6A00FE2267
:100D6C0075F008758200EF2FFFEE33FECD33CDCC3E
:100D7C0033CCC58233C5829BED9AEC99E5829840C1
:100D8C000CF582EE9BFEED9AFDEC99FC0FD5F0D69E
:100D9C00E4CEFBE4CDFAE4CCF9A88222B800C1B9C8
:100DAC000059BA002DEC8BF084CFCECDFCE5F0CB06
:100DBC00F97818EF2FFFEE33FEED33FDEC33FCEB3F
:100DCC0033FB10D703994004EB99FB0FD8E5E4F9FA
:100DDC00FA227818EF2FFFEE33FEED33FDEC33FCE7
:100DEC00C933C910D7059BE99A4007EC9BFCE99ADB
:100DFC00F90FD8E0E4C9FAE4CCFB2275F010EF2F20
:100E0C00FFEE33FEED33FDCC33CCC833C810D7071F
:100E1C009BEC9AE899400AED9BFDEC9AFCE899F85A
:0E0E2C000FD5F0DAE4CDFBE4CCFAE4C8F922ED
:100E3A00EB9FF5F0EA9E42F0E99D42F0EC6480C82F
:060E4A0064809845F022CF
:100E5000EB9FF5F0EA9E42F0E99D42F0E89C45F0F8
:010E6000226F
:100E6100E8600FECC313FCED13FDEE13FEEF13FF6F
:030E7100D8F12293
:100E7400D083D082F8E4937012740193700DA3A30D
:100E840093F8740193F5828883E473740293686021
:060E9400EFA3A3A380DF21
:00000001FF
