:10144500E4F50FF510121A31E50FB40800505F905E
:10145500145BF828287302147302147B02148302A8
:10146500148B02149302149B0214A30214AB1216DC
:1014750062750F0180D21219E3750F0280CA121925
:101485005C750F0380C21219C5750F0480BA121955
:1014950081750F0580B2121269750F0680AA1215A3
:1014A5002A750F0780A21213B4E4F50F809AE4F5AC
:0314B5000F809510
:0D1AC9007596307597307F027E000219FD82
:1019A600E4F5B1F5B2F5B3F5B4F5ACF5AD53B3FE68
:0F19B60043B401C290C285F543754420C200229C
:101A3100121AC91219A6121A9912003E121A481244
:071A41001AEED2AFD28C2295
:0714B80002430000014200A5
:10166200E54430E425300022C2AFD291D2905344F7
:10167200EF4344207F147E001219FDD2AFD28C4377
:101682004402153D1219E3C29122E54430E52420BB
:101692000021C2AFD291C2905344DF434410D280A2
:1016A200D282D281D297D296D2957F1E7E00121913
:0416B200FDD2AF2294
:10195C00E54430E01F5344FEC285053CE53CD3947E
:10196C00034005753C018007E53CB40302D28512A7
:05197C00130FD201224F
:1019E300E54430E1145344FD053DE53DD394034004
:0A19F30003753D01120FEBD2012233
:1019C500E54430E2185344FBE541C3941E400475D9
:0E19D500411E220541120B2CD2017542012247
:10198100E54430E31F5344F7E541D394004007E5B4
:1019910041D3941E4004E4F541221541120B2CD28F
:0519A100017542012266
:03003800B2912260
:1013B400309108309005754201D2012001030214D6
:1013C40044E542600DD280D282D2817F047E001235
:1013D40019FDE53CB4010DC280D282D2817F027E28
:1013E400001219FDE53CB4020DD280C282D2817F85
:1013F400027E001219FDE53CB4030DD280D282C2F4
:10140400817F027E001219FDE53DB4010DC297D221
:1014140096D2957F027E001219FDE53DB4020DD2ED
:1014240097C296D2957F027E001219FDE53DB40362
:101434000DD297D296C2957F027E001219FDC20189
:011444002285
:01005A002283
:1018C80053B1BF53B2BF53B17F53B27F75985043E2
:1018D8008920438780438E1053C4DFAB07AA06A92B
:1018E80005A8047F407E427D0F7C00120DCAEF04DC
:0918F800F404F58DD28ED2992280
:101595008F498E488D478C4653B1BF53B2BF53B167
:1015A5007F53B27F75985043878053C4F843C42056
:1015B500AB49AA48A947A8467F407E427D0F7C00DB
:1015C500120DCAC374FF9FFF74FF9EFEE49DFDE4E8
:1015D5009CFC7808120E838FC6AB49AA48A947A878
:1015E500467F407E427D0F7C00120DCAC374FF9F6B
:0915F500FF8FC543C408D29922FE
:070003003098FDAF99C2988F
:01000A0022D3
:081B1F00C2998F993099FD2253
:1015FE008F4D8E4C8D4B8C4A53B1FB53B2FB53B374
:10160E00BF53B4BF75F85075C40853C4DFAB4DAAB1
:10161E004CA94BA84A7F407E427D0F7C00120DCA1A
:10162E00C374FF9FFF74FF9EFEE49DFDE49CFC7857
:10163E0008120E838FC6AB4DAA4CA94BA84A7F4009
:10164E007E427D0F7C00120DCAC374FF9FFF8FC5B3
:04165E0043C4082257
:071B270030F8FDAF9AC2F88F
:011B2E002294
:081B2F00C2F98F9A30F9FD2282
:1019FD00EF4E6015E4FDFC0DBD00010CBC38F8BDCB
:091A0D0054F5EF1F70EA1E80E79A
:011A160022AD
:1017EA008F0E8E0D8D0C8C0B538EEF438910D28E7B
:1017FA00E4FFFEFDFCAB0EAA0DA90CA80BC3120E4A
:10180A00726025758BCA758DFA308FFDC28FE50E11
:10181A0024FFF50EE50D34FFF50DE50C34FFF50C4C
:0B182A00E50B34FFF50B80C8C28E22D6
:101835008F518E508D4F8C4E538EEF438910D28E23
:10184500E4FFFEFDFCAB51AA50A94FA84EC3120EF2
:10185500726025758BEA758DCB308FFDC28FE55192
:1018650024FFF551E55034FFF550E54F34FFF54FB2
:0B187500E54E34FFF54E80C8C28E2205
:1016B6008F558E548D538C5253C9BF53C9DF43C9BE
:1016C60010D2CAE4FFFEFDFCAB55AA54A953A8529A
:1016D600C3120E72602575CC3075CDF830CFFDC2C1
:1016E600CFE55524FFF555E55434FFF554E553345D
:0E16F600FFF553E55234FFF55280C8C2CA22F8
:101704008F598E588D578C5675C40743C408E4FF0F
:10171400FEFDFCAB59AA58A957A856C3120E726015
:101724002875C52C75C6CFE5C430E4FB53C4EFE57A
:101734005924FFF559E55834FFF558E55734FFF5BA
:0D17440057E55634FFF55680C553C4F72213
:101751008F5D8E5C8D5B8C5A75C40743C408E4FFB2
:10176100FEFDFCAB5DAA5CA95BA85AC3120E7260B8
:101771002875C5D875C6FFE5C430E4FB53C4EFE551
:101781005D24FFF55DE55C34FFF55CE55B34FFF559
:0D1791005BE55A34FFF55A80C553C4F722BA
:0C14BF00015F00016100016000015E009F
:0D1ABB00E4FFC2EFD2EE30EFFDAFC3055FD8
:011AC80022FB
:10152A00E5606066E561120E961573011573021582
:10153A007303157804157D05158206158C07155F4A
:10154A0010156920156E30156440155BF000001502
:10155A0091B2008032434402802D434401802843E3
:10156A0044048023434408801E121A178019753DCB
:10157A00018008753D028003753D03120FEBD2010D
:0B158A008005120038D201E4F5602259
:10003E0053B1EF53B2EF53E8F043E80543B1105319
:0C004E00B2EFE4F5F643F62043E1012296
:03005B00021B166F
:091B1600C2EF85C35E7560013267
:1014CB0002360000013B00013800C106C10701359F
:0714DB0000013A0001390095
:101A9900538EF75389F0438901758CCB758AEAD245
:021AA900A92270
:03000B00020EBC26
:100EBC00C0E0C0F0C083C082C0D075D000C000C0FC
:100ECC0001C002C003C004C005C006C007C28C75B7
:100EDC008CEA758AEA0535E535D394055003020F83
:100EEC00CE121ABB7536008F3785373BE53820E7B5
:100EFC0005E56030E7020539E539D3940F4019E573
:100F0C0033D394024003753201E533B401037532D7
:100F1C0002E5337003753204E53BC394FD5060E584
:100F2C003B94B04006433881020FCBE53BD3949001
:100F3C004017E53830E10DE539D3940F4006756064
:100F4C00017561204338828076E53BD3947040175D
:100F5C00E53830E20DE539D3940F40067560017524
:100F6C0061304338848058E53BD394504005433876
:100F7C0088804CE53BD3943040454338908040E525
:100F8C003830E73530E0067560017561F0E53830D2
:100F9C00E106756001756120E53830E20675600187
:100FAC00756130E53830E306756001756140E538F0
:100FBC0030E406756001756110753800753900757F
:100FCC003500D28CD007D006D005D004D003D00287
:0F0FDC00D001D000D0D0D082D083D0F0D0E0327E
:10005E0000A50000A50000C30000A41100000000D0
:10006E000000000000101D3F000000000000000016
:10007E00000000000000000000007FFFFF000000F5
:10008E000000000000000000000000007FFFFF00E5
:10009E00C80083C4D5FFABFB241009FFABFA0800E0
:1000AE0009FFABFA000009FFABFBA41829FFAD84D2
:1000BE00000018FFAD85001FFFFFAD81001212FF7B
:1000CE00AD82001414FFAD83000088FFAD80005494
:1000DE0054FFAD87005454FFAD86000000FFAD867F
:1000EE00000001FFAD8600000000C20000C97A00CA
:1000FE00DF1E00DB7800DB7800C70000E00A00D5C9
:10010E005300E33E00CF0000E17000CB0000E22F71
:10011E0000D96200E52F00E47000D73001D09A00BC
:10012E00C60100DD0100D40A00DA0600DC0000A1E1
:10013E000500000000000400002700001600006B00
:10014E0000D80000A105000001000000000017000B
:10015E00003A00007B00D80000A10500000200005C
:10016E000300007C00003A00000000D80000A1054A
:10017E0000000300000000002300007F0000630069
:10018E00D80000A1050000040000000000310000AE
:10019E000D00002A00D80000A10500000500000097
:1001AE0000005600000D00003B00D80000A1050025
:1001BE00000600000000004400003A00004A00D88B
:1001CE000000A105000007000000000066000024EA
:1001DE0000001600D80000A1050000080000000075
:1001EE00005C00002400001D00D80000A1050000E6
:1001FE000900000000006D00003A00002500D80044
:10020E0000CF0100D10000D10900D11200D11B0096
:10021E00D12400D12D00D13600D13F00D14800D1DC
:10022E004C00D10C00CF0000D21300CF0000D32120
:10023E0000D61900CF0000E86100E94700CF00FFAB
:10024E00ABF30000C1FFABF4000001FFABF5301AB9
:10025E0048FFABF620EE7DFFABF7029078FFABF4D4
:10026E00000002FFABF5101A4AFFABF621E60006BE
:10027E00AA0600A27B61F4000000906170000002EB
:10028E00473C0A00380A0064F40000013460F400B0
:10029E000001DA05F420FFFFFF0464A0204C0020CB
:1002AE00480044B8000CC4A000001657F4007FF7B5
:1002BE00055F5C005F580057F4007FFF385F5C00FD
:1002CE005F5800205C0020580057F4007FFFBC5F91
:1002DE005C005F580057F4007FC7295F5C005F58D1
:1002EE00000AF08000007857F4007FF63A5F5C0059
:1002FE005F580057F4007FFF275F5C005F580020B7
:10030E005C0020580057F4007FFFB65F5C005F581A
:10031E000057F4007FC2235F5C005F580054F0006A
:10032E00FFFFF10C1EE20140C60000070140C500B0
:10033E0000010AF0A200008961F40000CDAC6170EA
:10034E000000021461F40000C8326170000001FF69
:10035E0060F4000000986070000001F80BF080005F
:10036E00009800000C0BF08000D36846F4004DF8A6
:10037E00F074F40000001E4E6C0000000C55BE0020
:10038E000140CEFFFF3F30FF0004CDCD20001B22E9
:10039E00090000000B0D104A00000A0A9DA1000082
:1003AE009F22090000000B0D104A0000040A9D81D7
:1003BE000000A508451A56F4000003FF200062084D
:1003CE00CC1A07F02D00003E57F0000002AC45F4A9
:1003DE000000000245F46AFF0FFF20006E5570000A
:0C03EE000002AC00000C00AC0000850018
:1007960000A50000A50000C30000A4110000000091
:1007A6000000000000101D3F0000000000000000D7
:1007B600000000000000000000007FFFFF000000B6
:1007C6000000000000000000000000007FFFFF00A6
:1007D600C80083C4D5FFABFB241009FFABFA0800A1
:1007E60009FFABFA000009FFABFBA41829FFAD8493
:1007F600000018FFAD85001FFFFFAD81001212FF3C
:10080600AD82001414FFAD83000088FFAD80005454
:1008160054FFAD87005454FFAD86000000FFAD863F
:10082600000001FFAD8600000000C20000C978008C
:10083600DF1E00DB7800DB7800C70000E00A00D589
:100846005300E33E00CF0400E17000CB0000E22F2E
:1008560000D97500E52F00E47000D73001D09A006A
:10086600C60100DD0100D40000DA0600DC0000A1AC
:100876000500000000000400001B00001600003BFD
:1008860000D80000A10500000100000000001200D1
:10089600003A00003F00D80000A105000002000059
:1008A6000000001800003A00005D00D80000A10515
:1008B60000000300000000002100000D00002100E0
:1008C600D80000A10500000400000000003200006E
:1008D6000D00003900D80000A10500000500000049
:1008E60000006800003A00002F00D80000A10500B3
:1008F600000600000000006E00003A00004100D82B
:100906000000A105000007000000000065000024AB
:1009160000002600D80000A1050000080000030022
:10092600007D00000D00000D00D80000A1050000AC
:100936000900000000006100000D00003F00D80023
:1009460000CF0100D10000D10900D11200D11B0057
:10095600D12400D12D00D13600D13F00D14800D19D
:100966004C00D11400CF0400D21400CF0400CF04F1
:1009760000E85800E94E00CF04FFABF30000C1FFCA
:10098600ABF4000001FFABF5301A48FFABF620EEE2
:100996007DFFABF7029078FFABF4000002FFABF5EA
:1009A600101A4AFFABF621E60006AA0600A27B61F2
:1009B600F4000000906170000002473C0A00380A0B
:1009C6000064F40000013460F4000001DA05F4204C
:1009D600FFFFFF0464A0204C0020480044B8000C30
:1009E600C4A000001657F4007FF7055F5C005F584F
:1009F6000057F4007FFF385F5C005F5800205C0002
:100A060020580057F4007FFFBC5F5C005F5800571A
:100A1600F4007FC7295F5C005F58000AF080000081
:100A26007857F4007FF63A5F5C005F580057F40091
:100A36007FFF275F5C005F5800205C00205800574E
:100A4600F4007FFFB65F5C005F580057F4007FC27A
:100A5600235F5C005F580054F000FFFFF10C1EE2BC
:100A66000140C60000070140C50000010AF0A200CF
:100A7600008961F40000CDAC61700000021461F4DD
:100A86000000C8326170000001FF60F400000098A9
:100A96006070000001F80BF08000009800000C0B5D
:100AA600F08000D36846F4004DF8F074F4000000BE
:100AB6001E4E6C0000000C55BE000140CEFFFF3FED
:100AC60030FF0004CDCD20001B22090000000B0DD5
:100AD600104A00000A0A9DA100009F22090000009A
:100AE6000B0D104A0000040A9D810000A508451A56
:100AF60056F4000003FF20006208CC1A07F02D0010
:100B0600003E57F0000002AC45F40000000245F438
:100B16006AFF0FFF20006E5570000002AC00000C4B
:060B260000AC0000850098
:1003FA0000A50000A50000C30000A4110000000031
:10040A000000000000101D3F000000000000000076
:10041A00000000000000000000007FFFFF00000055
:10042A000000000000000000000000007FFFFF0045
:10043A00C80083C4D5FFABFB241009FFABFA080040
:10044A0009FFABFA000009FFABFBA41829FFAD8432
:10045A00000018FFAD85001FFFFFAD81001212FFDB
:10046A00AD82001414FFAD83000088FFAD800054F4
:10047A0054FFAD87005454FFAD86000000FFAD86DF
:10048A00000001FFAD8600000000C20000C97A002A
:10049A00DF1E00DB7800DB7800C70000E00A00D529
:1004AA005900E35000CF0000E17000CB0000E22FBA
:1004BA0000D96F00E52F00E47000D73001D09A0010
:1004CA00C60100DD0100D40000DA0000DC0000A152
:1004DA000500000000000400001E00001600006B6A
:1004EA0000D80000A1050000010000000000000083
:1004FA00003A00003F00D80000A1050000020000F9
:10050A000000002B00003A00002B00D80000A105D3
:10051A0000000300000000002400003A00005E0012
:10052A00D80000A105000004000000000037000008
:10053A000D00003000D80000A105000005000000F1
:10054A0000006E00000D00002B00D80000A105007D
:10055A00000600000000004300003A00004500D8F1
:10056A000000A10500000700000000006500000D62
:10057A0000002900D80000A10500000800000000C2
:10058A00001200000D00001B00D80000A1050000A9
:10059A000900000200007000001700003D00D800AA
:1005AA0000CF0100D10000D10900D11200D11B00F7
:1005BA00D12400D12D00D13600D13F00D14800D13D
:1005CA004C00D10700CF0000D22E00CF0000D31379
:1005DA0000D60B00CF0000E85100E94800CF00FF29
:1005EA00ABF30000C1FFABF4000001FFABF5301A1A
:1005FA0048FFABF620EE7DFFABF7029078FFABF435
:10060A00000002FFABF5101A4AFFABF621E600061E
:10061A00AA0600A27B61F40000009061700000024B
:10062A00473C0A00380A0064F40000013460F40010
:10063A000001DA05F420FFFFFF0464A0204C00202B
:10064A00480044B8000CC4A000001657F4007FF715
:10065A00055F5C005F580057F4007FFF385F5C005D
:10066A005F5800205C0020580057F4007FFFBC5FF1
:10067A005C005F580057F4007FC7295F5C005F5831
:10068A00000AF08000007857F4007FF63A5F5C00B9
:10069A005F580057F4007FFF275F5C005F58002017
:1006AA005C0020580057F4007FFFB65F5C005F587B
:1006BA000057F4007FC2235F5C005F580054F000CB
:1006CA00FFFFF10C1EE20140C60000070140C50011
:1006DA0000010AF0A200008961F40000CDAC61704B
:1006EA000000021461F40000C8326170000001FFCA
:1006FA0060F4000000986070000001F80BF08000C0
:10070A00009800000C0BF08000D36846F4004DF806
:10071A00F074F40000001E4E6C0000000C55BE0080
:10072A000140CEFFFF3F30FF0004CDCD20001B2249
:10073A00090000000B0D104A00000A0A9DA10000E2
:10074A009F22090000000B0D104A0000040A9D8137
:10075A000000A508451A56F4000003FF20006208AD
:10076A00CC1A07F02D00003E57F0000002AC45F409
:10077A000000000245F46AFF0FFF20006E5570006A
:0C078A000002AC00000C00AC0000850078
:051A7200121A77D29367
:0E1A7700E4FFFE0FBF00010EEF64324E70F56B
:011A8500223E
:041B3700C29280FCDA
:0A1AEE00D293121A77D294021A77ED
:0A1AF800D294121A72C294021A77F7
:10190100900000D293121A77309423AF82AE83E411
:10191100FCFD7B507AC3F9F8D3120E5C4010A3E5AD
:1019210082B488E4E583B413DF121B3780DAC293F3
:03193100021A7720
:0A1B0200C294121A72D294021A77EC
:10193400AD07E4FCC293121A77ED30E704D2948029
:1019440002C294ED25E0FD121A720CBC08E6C293A3
:08195400121A77D294021A77EF
:10000E00C209121A77D208121A77E4FCD209121A10
:10001E0077ED25E0FFA208E4334FFDC209121A77EF
:09002E000CBC08E8121A77AF05BA
:0100370022A6
:08179E008B158A168917AD07AF
:1017A600E4F51C121AF8AF05121934121901E4F502
:1017B6001CAF1CE4FCFDFEAB1BAA1AA919A818D382
:1017C600120E72401CAB150517E517AA1670020516
:1017D6001614F9120D63FF121934121901051C8033
:0417E600D0021B0210
:1014E200042C000000000131000132000133000130
:1014F2002500C103C104C105012900012B000130EF
:10150200000124000126000127000134000122000D
:09151200012300012800012A0058
:101A480043B10853B2F7D28353E9DF43EA0853EBB3
:051A5800F7439B022290
:03003B000210D7D9
:1010D700C0E0C0F0C083C082C0D075D000C000C0DF
:0D10E70001C002C003C004C005C006C00760
:1010F400750800750900750A00E5EC20E303021188
:101104009F53ECF7539BFD0508050A7F017E007D84
:10111400007C001217EA3083F0750A00050A7F018B
:101124007E007D007C001217EA2083F0750A0075AA
:1011340008007509003083FD7F017E007D007C007E
:101144001217EA30831C742C2508F8C000E6FFC38C
:1011540013D000F6742C2508F8E64480F63083108A
:1011640080FB742C2508F8C000E6FFC313D000F6FA
:101174000509E509C3940840BC0508E508C39404BF
:1011840040B03083FD121A5D7F1E7E007D007C001E
:0E1194001217EA121B0C439B02800375EC003D
:1011A200D007D006D005D004D003D002D001D000A1
:0B11B200D0D0D082D083D0F0D0E0324B
:101A5D00E52FF4B52E09852E31121B0CD20322E48D
:051A6D00F531C2032267
:091B0C007F04782CE4F608DFFCEC
:011B150022AD
:10126900E4F51120030302130EE531B52504053316
:101279008003E4F533E53264026003021309E531C2
:10128900120E9612B11012B91112EB1212F31312B7
:10129900FB1413031512C11612C94112D14A12D9EE
:1012A9004B12E14C00001309756080756101805093
:1012B9007560807561028048756080756103804042
:1012C9007560807561408038756080756104803013
:1012D90075608075610580287560800534756106C3
:1012E900801E75608075612080167560807561301B
:1012F900800E7560807561F0800675608075610784
:05130900C2038531253F
:01130E0022BC
:10188000FFAD83000088FFAD86000000FFAD86003D
:101890000001FFAD86000000FFAD83000099FFADA1
:1018A00086000000FFAD86000001FFAD860000004D
:1018B000FFAD830000AAFFAD86000000FFAD8600EB
:0818C0000001FFAD86000000ED
:0E151B00013C01013D0101410F033E01D09A48
:100FEB00D291E53D24FE6052147003021089240255
:100FFB0060030210CBE4F511F512AE11AF127C00B9
:10100B007D03120D7C74FA2FF974033EFA7BFFE417
:10101B00751B03F51AF519F5187FE612179E121AB0
:10102B0077121A770512E51270020511C39434E595
:10103B00116480948140C30210CBE4F511F512AE1C
:10104B0011AF127C007D03120D7C74962FF974077F
:10105B003EFA7BFFE4751B03F51AF519F5187FE6CD
:10106B0012179E121A77121A770512E512700205E3
:10107B0011C39434E5116480948140C38042E4F53C
:10108B0011F512AE11AF127C007D03120D7C745E54
:10109B002FF974003EFA7BFFE4751B03F51AF51963
:1010AB00F5187FE612179E121A77121A770512E5BA
:1010BB001270020511C39434E5116480948140C30E
:0B10CB0012130F754116120B2CC2917E
:0110D60022F7
:100B2C00E541B41F004003020D62900B3DF82828EC
:100B3C0073020B9A020BA1020BA9020BB1020BB9A7
:100B4C00020BC1020BCF020BDF020BEF020BFF02F9
:100B5C000C0F020C1F020C2F020C3F020C4F020C4C
:100B6C005F020C6F020C7F020C8F020C9F020CAF09
:100B7C00020CBF020CCF020CDE020CED020CFC02CC
:100B8C000D0B020D1A020D29020D38020D47E4F56A
:100B9C003EF5408026E4F53E754050801EE4F53E5F
:100BAC007540648016E4F53E754096800EE4F53E83
:100BBC007540C88006E4F53E7540FAFB7A00793E34
:100BCC00020D54753E017540137B007A00793EE4AA
:100BDC00020D54753E0175402C7B007A00793EE481
:100BEC00020D54753E017540317B007A00793EE46C
:100BFC00020D54753E017540367B007A00793EE457
:100C0C00020D54753E0175403B7B007A00793EE441
:100C1C00020D54753E017540407B007A00793EE42C
:100C2C00020D54753E017540457B007A00793EE417
:100C3C00020D54753E0175404A7B007A00793EE402
:100C4C00020D54753E0175404F7B007A00793EE4ED
:100C5C00020D54753E017540547B007A00793EE4D8
:100C6C00020D54753E017540597B007A00793EE4C3
:100C7C00020D54753E0175405E7B007A00793EE4AE
:100C8C00020D54753E017540637B007A00793EE499
:100C9C00020D54753E017540687B007A00793EE484
:100CAC00020D54753E0175406D7B007A00793EE46F
:100CBC00020D54753E017540727B007A00793EE45A
:100CCC00020D54753E017540777B007A00793EE445
:100CDC008076753E0175407C7B007A00793EE4801D
:100CEC0067753E017540817B007A00793EE480583F
:100CFC00753E017540867B007A00793EE48049752B
:100D0C003E0175408B7B007A00793EE4803A753E5B
:100D1C00017540907B007A00793EE4802B753E0192
:100D2C007540957B007A00793EE4801C753E017518
:100D3C0040987B007A00793EE4800D753E01754049
:100D4C009A7B007A00793EE4751B03F51AF519F5C8
:070D5C00187FE612179E222A
:011B3E002284
:031B3B00020FEBAB
:10130F00E53C64017031F513E51375F003A42480F7
:10131F00F9741835F0FA7BFFE4751B03F51AF5190C
:10132F00F5187FE612179E121A77121A770513E532
:10133F0013C3940840D222E53C64027031F513E5E3
:10134F001375F003A42498F9741835F0FA7BFFE4B1
:10135F00751B03F51AF519F5187FE612179E121A69
:10136F0077121A770513E513C3940840D222E53C90
:10137F0064037030F513E51375F003A424B0F9740A
:10138F001835F0FA7BFFE4751B03F51AF519F518FC
:10139F007FE612179E121A77121A770513E513C3F9
:0413AF00940840D28C
:0113B3002217
:101A1700308516E56124FE600A14600A2402700905
:0A1A2700021AAB021AE2121AD622CC
:101A8600D287D2867F3C7E001219FDC287C286E4C9
:031A9600F51D2219
:101AAB00D287D2867F197E001219FDC287C2862289
:0C1AD600D2877F197E001219FDC2872202
:0C1AE200D2867F197E001219FDC28622F8
:030000000211BD2D
:1011BD0075C7AA75C75575FD5A75C7AA75C75575F3
:1011CD00FDA5787FE4F6D8FD9000007FFF7E03E457
:0C11DD00F0A3DFFCDEFA75816102122431
:1011E900021445E493A3F8E493A34003F68001F2C3
:1011F90008DFF48029E493A3F85407240CC8C33307
:10120900C4540F4420C8834004F456800146F6DFD5
:10121900E4800B01020408102040809014B8E47E99
:10122900019360BCA3FF543F30E509541FFEE493CA
:10123900A360010ECF54C025E060A840B8E493A391
:10124900FAE493A3F8E493A3C8C582C8CAC583CABC
:10125900F0A3C8C582C8CAC583CADFE9DEE780BE74
:0115290000C1
:100D6300BB010689828A83E0225002E722BBFE028E
:090D7300E32289828A83E49322C1
:100D7C00EF8DF0A4A8F0CF8CF0A428CE8DF0A42E8B
:020D8C00FE2245
:100D8E0075F008758200EF2FFFEE33FECD33CDCC1C
:100D9E0033CCC58233C5829BED9AEC99E58298409F
:100DAE000CF582EE9BFEED9AFDEC99FC0FD5F0D67C
:100DBE00E4CEFBE4CDFAE4CCF9A88222B800C1B9A6
:100DCE000059BA002DEC8BF084CFCECDFCE5F0CBE4
:100DDE00F97818EF2FFFEE33FEED33FDEC33FCEB1D
:100DEE0033FB10D703994004EB99FB0FD8E5E4F9D8
:100DFE00FA227818EF2FFFEE33FEED33FDEC33FCC5
:100E0E00C933C910D7059BE99A4007EC9BFCE99AB8
:100E1E00F90FD8E0E4C9FAE4CCFB2275F010EF2FFD
:100E2E00FFEE33FEED33FDCC33CCC833C810D707FD
:100E3E009BEC9AE899400AED9BFDEC9AFCE899F838
:0E0E4E000FD5F0DAE4CDFBE4CCFAE4C8F922CB
:100E5C00EB9FF5F0EA9E42F0E99D42F0EC6480C80D
:060E6C0064809845F022AD
:100E7200EB9FF5F0EA9E42F0E99D42F0E89C45F0D6
:010E8200224D
:100E8300E8600FECC313FCED13FDEE13FEEF13FF4D
:030E9300D8F12271
:100E9600D083D082F8E4937012740193700DA3A3EB
:100EA60093F8740193F5828883E4737402936860FF
:060EB600EFA3A3A380DFFF
:00000001FF
