:10111900E4F50FF510121771E50FB4090050F990B5
:10112900112FF828287302114A02115202115A028A
:10113900116202116A02117202117A0211820211FC
:101149008A1212C6750F0180CF121718750F028007
:10115900C71217FD750F0380BF12180B750F048096
:10116900B7121819750F0580AF120F17750F068082
:10117900A7121698750F07809F12126D750F0880B8
:101189009730850E30B0081218AFE4F51E8003754C
:071199001E01E4F50F808147
:0D1835007596307597307F027E00021757C0
:10003E00E4F5B1F5B2F5B3F5B4F5ACF5AD53B3FEE9
:0C004E0043B401C290C285C202C200226D
:1017710012183512003E1217DB12173B12178A128C
:09178100185AD2AFD28CD2CA2250
:0615BD00014D00014E008B
:1012C600E54E30E42230001FC2AFD291D290534E89
:1012D600EF434E20C280C2977F147E00121757D26A
:1012E600AF120C85C29122E54E30E52220001FC2C6
:1012F600AFC290534EDF434E10D280D282D281D2FB
:0F13060097D296D2957F1E7E00121757D2AF2234
:10171800E54EB4011D534EFEC2850522E522D39441
:101728000340057522018007E522B40302D2851221
:031738000E63221B
:0E17FD00E54EB40208534EFD0523120C852262
:0E180B00E54EB40408534EFB052712000E22D2
:0E181900E54EB40808534EF7052712162F228D
:0618A200300902B29122A0
:10126D00300155E54D600DD280D282D2817F147E42
:10127D0000121757E522B40106C280D282D281E551
:10128D0022B40206D280C282D281E522B40306D2F4
:10129D0080D282C281E523B40106C297D296D2953F
:1012AD00E523B40206D297C296D295E523B4030680
:0912BD00D297D296C295C201221B
:01003A0022A3
:1015F60053B1BF53B2BF53B17F53B27F75985043B7
:101606008920438780438E1053C4DFAB07AA06A9FF
:1016160005A8047F407E427D0F7C00120B93EF04E9
:09162600F404F58DD28ED2992254
:1011A0008F308E2F8D2E8C2D53B1BF53B2BF53B1C4
:1011B0007F53B27F75985043878053C4F843C4204F
:1011C000AB30AA2FA92EA82D7F407E427D0F7C0038
:1011D000120B93C374FF9FFF74FF9EFEE49DFDE41A
:1011E0009CFC7808120C4C8FC6AB30AA2FA92EA8F5
:1011F0002D7F407E427D0F7C00120B93C374FF9FB6
:09120000FF8FC543C408D29922F6
:070003003098FDAF99C2988F
:01000A0022D3
:08188200C2998F993099FD22F3
:101209008F348E338D328C3153B1FB53B2FB53B3D0
:10121900BF53B4BF75F85075C40853C4DFAB34AAC3
:1012290033A932A8317F407E427D0F7C00120B9397
:10123900C374FF9FFF74FF9EFEE49DFDE49CFC7850
:1012490008120C4C8FC6AB34AA33A932A8317F409F
:101259007E427D0F7C00120B93C374FF9FFF8FC5E5
:0412690043C4082250
:07188A0030F8FDAF9AC2F82F
:011891002234
:08189200C2F98F9A30F9FD2222
:10175700EF4E6015E4FDFC0DBD00010CBC38F8BD73
:0917670054F5EF1F70EA1E80E743
:011770002256
:101449008F388E378D368C35538EF7438901D28C80
:10145900E4FFFEFDFCAB38AA37A936A835C3120C48
:101469003B6025758A7E758CFF308DFDC28DE53810
:1014790024FFF538E53734FFF537E53634FFF5361F
:0B148900E53534FFF53580C8C28C2229
:101494008F188E178D168C15538EF7438901D28CB5
:1014A400E4FFFEFDFCAB18AA17A916A815C3120C7D
:1014B4003B6025758ACA758CFA308DFDC28DE5189E
:1014C40024FFF518E51734FFF517E51634FFF51674
:0B14D400E51534FFF51580C8C28C221E
:1014DF008F0E8E0D8D0C8C0B538EEF438910D28E89
:1014EF00E4FFFEFDFCAB0EAA0DA90CA80BC3120C5A
:1014FF003B6025758BCA758DFA308FFDC28FE50E57
:10150F0024FFF50EE50D34FFF50DE50C34FFF50C5A
:0B151F00E50B34FFF50B80C8C28E22E4
:10152A008F3C8E3B8D3A8C39538EEF438910D28E85
:10153A00E4FFFEFDFCAB3CAA3BA93AA839C3120C56
:10154A003B6025758BEA758DCB308FFDC28FE53CEC
:10155A0024FFF53CE53B34FFF53BE53A34FFF53A29
:0B156A00E53934FFF53980C8C28E223D
:101315008F408E3F8D3E8C3D53C9BF53C9DF43C9B6
:1013250010D2CAE4FFFEFDFCAB40AA3FA93EA83D92
:10133500C3120C3B602575CC3075CDF830CFFDC29E
:10134500CFE54024FFF540E53F34FFF53FE53E346A
:0E135500FFF53EE53D34FFF53D80C8C2CA22DB
:101363008F448E438D428C4175C40743C408E4FF08
:10137300FEFDFCAB44AA43A942A841C3120C3B6047
:101383002875C52C75C6CFE5C430E4FB53C4EFE51F
:101393004424FFF544E54334FFF543E54234FFF5C8
:0D13A30042E54134FFF54180C553C4F722F7
:1013B0008F488E478D468C4575C40743C408E4FFAB
:1013C000FEFDFCAB48AA47A946A845C3120C3B60EA
:1013D0002875C5D875C6FFE5C430E4FB53C4EFE5F6
:1013E0004824FFF548E54734FFF547E54634FFF567
:0D13F00046E54534FFF54580C553C4F7229E
:0B15C300015100015200C1080150005E
:0D182700E4FFC2EFD2EE30EFFDAFC305517C
:011834002291
:1016980030082AE55224F0601424F0601824F06021
:1016A8001824F0600C24407012B200800E052380CC
:0E16B8000A05228006052780021527C2082297
:10173B0053B1EF53B2EF53E8F043E80543B1105305
:0C174B00B2EFE4F5F643F62043E1012282
:03005B0002189AEE
:08189A00C2EF85C350D20832F1
:0E15CE00024A0000014C00C103C104014900A3
:1017DB00538EF75389F0438901758CCB758AEAD206
:0217EB00A92231
:03000B000210766A
:10107600C0E0C0F0C083C082C0D075D000C000C040
:1010860001C002C003C004C005C006C007C28C75FB
:101096008CEA758AEA0549E549D394054058121841
:1010A60027754A008F4B854B4CE54CC394FD504346
:1010B600E54C94B04007755200D2088036E54CD313
:1010C60094904007755220D2088028E54CD394703E
:1010D6004007755230D208801AE54CD39450400729
:1010E600755240D208800CE54CD3943040057552B9
:1010F60010D208754900D28CD007D006D005D0048E
:10110600D003D002D001D000D0D0D082D083D0F08E
:03111600D0E032F4
:10005E0000A50000A50000C30000A41100000000D0
:10006E000000000000101D3F000000000000000016
:10007E00000000000000000000007FFFFF000000F5
:10008E000000000000000000000000007FFFFF00E5
:10009E00C80083C4D5FFABFB241009FFABFA0800E0
:1000AE0009FFABFA000009FFABFBA41829FFAD84D2
:1000BE00000018FFAD85001FFFFFAD81001212FF7B
:1000CE00AD82001414FFAD83000088FFAD80005494
:1000DE0054FFAD87005454FFAD86000000FFAD867F
:1000EE00000001FFAD8600000000C20000C97A00CA
:1000FE00DF1E00DB7800DB7800C70000E00A00D5C9
:10010E005300E33E00CF0000E17000CB0000E22F71
:10011E0000D96200E52F00E47000D73001D09A00BC
:10012E00C60100DD0100D40A00DA0600DC0000A1E1
:10013E000500000000000400002700001600006B00
:10014E0000D80000A105000001000000000017000B
:10015E00003A00007B00D80000A10500000200005C
:10016E000300007C00003A00000000D80000A1054A
:10017E0000000300000000002300007F0000630069
:10018E00D80000A1050000040000000000310000AE
:10019E000D00002A00D80000A10500000500000097
:1001AE0000005600000D00003B00D80000A1050025
:1001BE00000600000000004400003A00004A00D88B
:1001CE000000A105000007000000000066000024EA
:1001DE0000001600D80000A1050000080000000075
:1001EE00005C00002400001D00D80000A1050000E6
:1001FE000900000000006D00003A00002500D80044
:10020E0000CF0100D10000D10900D11200D11B0096
:10021E00D12400D12D00D13600D13F00D14800D1DC
:10022E004C00D10C00CF0000D21300CF0000D32120
:10023E0000D61900CF0000E86100E94700CF00FFAB
:10024E00ABF30000C1FFABF4000001FFABF5301AB9
:10025E0048FFABF620EE7DFFABF7029078FFABF4D4
:10026E00000002FFABF5101A4AFFABF621E60006BE
:10027E00AA0600A27B61F4000000906170000002EB
:10028E00473C0A00380A0064F40000013460F400B0
:10029E000001DA05F420FFFFFF0464A0204C0020CB
:1002AE00480044B8000CC4A000001657F4007FF7B5
:1002BE00055F5C005F580057F4007FFF385F5C00FD
:1002CE005F5800205C0020580057F4007FFFBC5F91
:1002DE005C005F580057F4007FC7295F5C005F58D1
:1002EE00000AF08000007857F4007FF63A5F5C0059
:1002FE005F580057F4007FFF275F5C005F580020B7
:10030E005C0020580057F4007FFFB65F5C005F581A
:10031E000057F4007FC2235F5C005F580054F0006A
:10032E00FFFFF10C1EE20140C60000070140C500B0
:10033E0000010AF0A200008961F40000CDAC6170EA
:10034E000000021461F40000C8326170000001FF69
:10035E0060F4000000986070000001F80BF080005F
:10036E00009800000C0BF08000D36846F4004DF8A6
:10037E00F074F40000001E4E6C0000000C55BE0020
:10038E000140CEFFFF3F30FF0004CDCD20001B22E9
:10039E00090000000B0D104A00000A0A9DA1000082
:1003AE009F22090000000B0D104A0000040A9D81D7
:1003BE000000A508451A56F4000003FF200062084D
:1003CE00CC1A07F02D00003E57F0000002AC45F4A9
:1003DE000000000245F46AFF0FFF20006E5570000A
:0C03EE000002AC00000C00AC0000850018
:1007960000A50000A50000C30000A4110000000091
:1007A6000000000000101D3F0000000000000000D7
:1007B600000000000000000000007FFFFF000000B6
:1007C6000000000000000000000000007FFFFF00A6
:1007D600C80083C4D5FFABFB241009FFABFA0800A1
:1007E60009FFABFA000009FFABFBA41829FFAD8493
:1007F600000018FFAD85001FFFFFAD81001212FF3C
:10080600AD82001414FFAD83000088FFAD80005454
:1008160054FFAD87005454FFAD86000000FFAD863F
:10082600000001FFAD8600000000C20000C978008C
:10083600DF1E00DB7800DB7800C70000E00A00D589
:100846005300E33E00CF0400E17000CB0000E22F2E
:1008560000D97500E52F00E47000D73001D09A006A
:10086600C60100DD0100D40000DA0600DC0000A1AC
:100876000500000000000400001B00001600003BFD
:1008860000D80000A10500000100000000001200D1
:10089600003A00003F00D80000A105000002000059
:1008A6000000001800003A00005D00D80000A10515
:1008B60000000300000000002100000D00002100E0
:1008C600D80000A10500000400000000003200006E
:1008D6000D00003900D80000A10500000500000049
:1008E60000006800003A00002F00D80000A10500B3
:1008F600000600000000006E00003A00004100D82B
:100906000000A105000007000000000065000024AB
:1009160000002600D80000A1050000080000030022
:10092600007D00000D00000D00D80000A1050000AC
:100936000900000000006100000D00003F00D80023
:1009460000CF0100D10000D10900D11200D11B0057
:10095600D12400D12D00D13600D13F00D14800D19D
:100966004C00D11400CF0400D21400CF0400CF04F1
:1009760000E85800E94E00CF04FFABF30000C1FFCA
:10098600ABF4000001FFABF5301A48FFABF620EEE2
:100996007DFFABF7029078FFABF4000002FFABF5EA
:1009A600101A4AFFABF621E60006AA0600A27B61F2
:1009B600F4000000906170000002473C0A00380A0B
:1009C6000064F40000013460F4000001DA05F4204C
:1009D600FFFFFF0464A0204C0020480044B8000C30
:1009E600C4A000001657F4007FF7055F5C005F584F
:1009F6000057F4007FFF385F5C005F5800205C0002
:100A060020580057F4007FFFBC5F5C005F5800571A
:100A1600F4007FC7295F5C005F58000AF080000081
:100A26007857F4007FF63A5F5C005F580057F40091
:100A36007FFF275F5C005F5800205C00205800574E
:100A4600F4007FFFB65F5C005F580057F4007FC27A
:100A5600235F5C005F580054F000FFFFF10C1EE2BC
:100A66000140C60000070140C50000010AF0A200CF
:100A7600008961F40000CDAC61700000021461F4DD
:100A86000000C8326170000001FF60F400000098A9
:100A96006070000001F80BF08000009800000C0B5D
:100AA600F08000D36846F4004DF8F074F4000000BE
:100AB6001E4E6C0000000C55BE000140CEFFFF3FED
:100AC60030FF0004CDCD20001B22090000000B0DD5
:100AD600104A00000A0A9DA100009F22090000009A
:100AE6000B0D104A0000040A9D810000A508451A56
:100AF60056F4000003FF20006208CC1A07F02D0010
:100B0600003E57F0000002AC45F40000000245F438
:100B16006AFF0FFF20006E5570000002AC00000C4B
:060B260000AC0000850098
:1003FA0000A50000A50000C30000A4110000000031
:10040A000000000000101D3F000000000000000076
:10041A00000000000000000000007FFFFF00000055
:10042A000000000000000000000000007FFFFF0045
:10043A00C80083C4D5FFABFB241009FFABFA080040
:10044A0009FFABFA000009FFABFBA41829FFAD8432
:10045A00000018FFAD85001FFFFFAD81001212FFDB
:10046A00AD82001414FFAD83000088FFAD800054F4
:10047A0054FFAD87005454FFAD86000000FFAD86DF
:10048A00000001FFAD8600000000C20000C97A002A
:10049A00DF1E00DB7800DB7800C70000E00A00D529
:1004AA005900E35000CF0000E17000CB0000E22FBA
:1004BA0000D96F00E52F00E47000D73001D09A0010
:1004CA00C60100DD0100D40000DA0000DC0000A152
:1004DA000500000000000400001E00001600006B6A
:1004EA0000D80000A1050000010000000000000083
:1004FA00003A00003F00D80000A1050000020000F9
:10050A000000002B00003A00002B00D80000A105D3
:10051A0000000300000000002400003A00005E0012
:10052A00D80000A105000004000000000037000008
:10053A000D00003000D80000A105000005000000F1
:10054A0000006E00000D00002B00D80000A105007D
:10055A00000600000000004300003A00004500D8F1
:10056A000000A10500000700000000006500000D62
:10057A0000002900D80000A10500000800000000C2
:10058A00001200000D00001B00D80000A1050000A9
:10059A000900000200007000001700003D00D800AA
:1005AA0000CF0100D10000D10900D11200D11B00F7
:1005BA00D12400D12D00D13600D13F00D14800D13D
:1005CA004C00D10700CF0000D22E00CF0000D31379
:1005DA0000D60B00CF0000E85100E94800CF00FF29
:1005EA00ABF30000C1FFABF4000001FFABF5301A1A
:1005FA0048FFABF620EE7DFFABF7029078FFABF435
:10060A00000002FFABF5101A4AFFABF621E600061E
:10061A00AA0600A27B61F40000009061700000024B
:10062A00473C0A00380A0064F40000013460F40010
:10063A000001DA05F420FFFFFF0464A0204C00202B
:10064A00480044B8000CC4A000001657F4007FF715
:10065A00055F5C005F580057F4007FFF385F5C005D
:10066A005F5800205C0020580057F4007FFFBC5FF1
:10067A005C005F580057F4007FC7295F5C005F5831
:10068A00000AF08000007857F4007FF63A5F5C00B9
:10069A005F580057F4007FFF275F5C005F58002017
:1006AA005C0020580057F4007FFFB65F5C005F587B
:1006BA000057F4007FC2235F5C005F580054F000CB
:1006CA00FFFFF10C1EE20140C60000070140C50011
:1006DA0000010AF0A200008961F40000CDAC61704B
:1006EA000000021461F40000C8326170000001FFCA
:1006FA0060F4000000986070000001F80BF08000C0
:10070A00009800000C0BF08000D36846F4004DF806
:10071A00F074F40000001E4E6C0000000C55BE0080
:10072A000140CEFFFF3F30FF0004CDCD20001B2249
:10073A00090000000B0D104A00000A0A9DA10000E2
:10074A009F22090000000B0D104A0000040A9D8137
:10075A000000A508451A56F4000003FF20006208AD
:10076A00CC1A07F02D00003E57F0000002AC45F409
:10077A000000000245F46AFF0FFF20006E5570006A
:0C078A000002AC00000C00AC0000850078
:0517B4001217B9D293E9
:0E17B900E4FFFE0FBF00010EEF64324E70F52C
:0117C70022FF
:0418A800C29280FC6C
:0A185A00D2931217B9D2940217B905
:0A186400D2941217B4C2940217B90F
:10166500900000D2931217B9309423AF82AE83E471
:10167500FCFD7B507AC3F9F8D3120C254010A3E585
:1016850082B488E4E583B413DF1218A880DAC29324
:031695000217B980
:0A186E00C2941217B4D2940217B905
:1016F000AD07E4FCC2931217B9ED30E704D2948031
:1017000002C294ED25E0FD1217B40CBC08E6C293AA
:081710001217B9D2940217B9B7
:1016C600C2061217B9D2051217B9E4FCD2061217D0
:1016D600B9ED25E0FFA205E4334FFDC2061217B9A6
:0916E6000CBC08E81217B9AF05AD
:0116EF0022D8
:0813FD008B168A178918AD0751
:10140500E4F51D121864AF051216F0121665E4F521
:101415001DAF1DE4FCFDFEAB1CAA1BA91AA819D320
:10142500120C3B401CAB160518E518AA17700205EF
:101435001714F9120B2CFF1216F0121665051D80F4
:04144500D002186E4B
:0B15DC00042800000000012C00C109E1
:10178A0043B10853B2F7D28353E9DF43EA0853EB74
:05179A00F7439B022251
:03003B00020D7D36
:100D7D00C0E0C0F0C083C082C0D075D000C000C03C
:0D0D8D0001C002C003C004C005C006C007BD
:100D9A00750800750900750A00E5EC20E303020EE8
:100DAA004553ECF7539BFD0508050A7F017E007D3C
:100DBA00007C001214DF3083F0750A00050A7F01F7
:100DCA007E007D007C001214DF2083F0750A007516
:100DDA0008007509003083FD7F017E007D007C00DC
:100DEA001214DF30831C74282508F8C000E6FFC3FC
:100DFA0013D000F674282508F8E64480F6308310EC
:100E0A0080FB74282508F8C000E6FFC313D000F65B
:100E1A000509E509C3940840BC0508E508C394041C
:100E2A0040B03083FD12179F7F1E7E007D007C003C
:0E0E3A001214DF121878439B02800375EC003F
:100E4800D007D006D005D004D003D002D001D000FE
:0B0E5800D0D0D082D083D0F0D0E032A8
:10179F00E52BF4B52A09852A2C121878D20922E4F0
:0517AF00F52CC2092227
:091878007F047828E4F608DFFC87
:011881002244
:100F1700E4F511200903020FC9E52C120C5F0F4AF3
:100F2700100F52110FA9120FB3130FBD140FC115D4
:100F37000F5A160F67410F714A0F824B0F934C00E0
:100F4700000FC730907A1217ED800E30907212188A
:100F57004E800630906A121842D201754D018060AA
:100F670030905D120E63D201805630905375110197
:100F7700E5236511604A7523018020309042751181
:100F870002E52365116039752302800F30903175B2
:100F97001103E523651160287523031218ACD201EC
:100FA700801E30901B12000ED20180143090111257
:100FB700162FD201800AB20080063090031218A2C1
:020FC700C2095D
:010FC9002205
:10157500FFAD83000088FFAD86000000FFAD86004B
:101585000001FFAD86000000FFAD83000099FFADAF
:1015950086000000FFAD86000001FFAD860000005B
:1015A500FFAD830000AAFFAD86000000FFAD8600F9
:0815B5000001FFAD86000000FB
:0E15E70001220101230101270F032401D09AE4
:100C85001218A2E52324FE6057147003020D2E24CA
:100C9500026003020D75E4F512F513AE12AF137C75
:100CA500007D03120B4574FA2FF974033EFA7BFF9E
:100CB500E4751C03F51BF51AF5197FE61213FD7F84
:100CC500017E007D007C001214940513E51370026B
:100CD5000512C39434E5126480948140BE020D75FB
:100CE500E4F512F513AE12AF137C007D03120B452C
:100CF50074962FF974073EFA7BFFE4751C03F51B08
:100D0500F51AF5197FE61213FD7F017E007D007C43
:100D1500001214940513E51370020512C39434E50B
:100D2500126480948140BE8047E4F512F513AE123B
:100D3500AF137C007D03120B45745E2FF974003EE2
:100D4500FA7BFFE4751C03F51BF51AF5197FE6120E
:100D550013FD7F017E007D007C001214940513E5D0
:100D65001370020512C39434E5126480948140BE69
:080D75001522120E630218A200
:10000E00754D01E526C394F34006E4F54DC2012279
:10001E0074062526F5267B007A007924E4751C03E8
:0C002E00F51BF51AF5197FE61213FD22F0
:10162F00754D01E526D394005006E4F54DC2012215
:10163F00E526C39406500375260674FA2526F5266B
:10164F007B007A007924E4751C03F51BF51AF51954
:06165F007FE61213FD22DC
:01005A002283
:0318AC00020C85A6
:100E6300E52264017036F514E51475F003A42475C6
:100E7300F9741535F0FA7BFFE4751C03F51BF51ABD
:100E8300F5197FE61213FD7F017E007D007C0012C1
:100E930014940514E514C3940840CD22E52264029A
:100EA3007036F514E51475F003A4248DF974153523
:100EB300F0FA7BFFE4751C03F51BF51AF5197FE6C1
:100EC3001213FD7F017E007D007C00121494051433
:100ED300E514C3940840CD22E52264037035F5146C
:100EE300E51475F003A424A5F9741535F0FA7BFF16
:100EF300E4751C03F51BF51AF5197FE61213FD7F44
:100F0300017E007D007C001214940514E514C39443
:030F13000840CDC6
:010F160022B8
:0118AF002216
:1017C800D287D2867F3C7E00121757C287C286E432
:0317D800F51E22D9
:1017ED00D287D2867F197E00121757C287C28622F2
:0C184200D2877F197E00121757C2872240
:0C184E00D2867F197E00121757C2862236
:03000000020FCA22
:100FCA0075C7AA75C75575FD5A75C7AA75C75575E8
:100FDA00FDA5787FE4F6D8FD9000007FFF7E03E44C
:0C0FEA00F0A3DFFCDEFA7581520210312A
:100FF600021119E493A3F8E493A34003F68001F2E7
:1010060008DFF48029E493A3F85407240CC8C333FB
:10101600C4540F4420C8834004F456800146F6DFCA
:10102600E4800B01020408102040809015BDE47E88
:10103600019360BCA3FF543F30E509541FFEE493BF
:10104600A360010ECF54C025E060A840B8E493A386
:10105600FAE493A3F8E493A3C8C582C8CAC583CAB1
:10106600F0A3C8C582C8CAC583CADFE9DEE780BE69
:0115F50000F5
:100B2C00BB010689828A83E0225002E722BBFE02C7
:090B3C00E32289828A83E49322FA
:100B4500EF8DF0A4A8F0CF8CF0A428CE8DF0A42EC4
:020B5500FE227E
:100B570075F008758200EF2FFFEE33FECD33CDCC55
:100B670033CCC58233C5829BED9AEC99E5829840D8
:100B77000CF582EE9BFEED9AFDEC99FC0FD5F0D6B5
:100B8700E4CEFBE4CDFAE4CCF9A88222B800C1B9DF
:100B97000059BA002DEC8BF084CFCECDFCE5F0CB1D
:100BA700F97818EF2FFFEE33FEED33FDEC33FCEB56
:100BB70033FB10D703994004EB99FB0FD8E5E4F911
:100BC700FA227818EF2FFFEE33FEED33FDEC33FCFE
:100BD700C933C910D7059BE99A4007EC9BFCE99AF2
:100BE700F90FD8E0E4C9FAE4CCFB2275F010EF2F37
:100BF700FFEE33FEED33FDCC33CCC833C810D70737
:100C07009BEC9AE899400AED9BFDEC9AFCE899F871
:0E0C17000FD5F0DAE4CDFBE4CCFAE4C8F92204
:100C2500EB9FF5F0EA9E42F0E99D42F0EC6480C846
:060C350064809845F022E6
:100C3B00EB9FF5F0EA9E42F0E99D42F0E89C45F00F
:010C4B002286
:100C4C00E8600FECC313FCED13FDEE13FEEF13FF86
:030C5C00D8F122AA
:100C5F00D083D082F8E4937012740193700DA3A324
:100C6F0093F8740193F5828883E473740293686038
:060C7F00EFA3A3A380DF38
:00000001FF
