:10140600E4F50FF5101219CEE50FB40800506690FA
:10141600141CF828287302143402143C02144402E3
:10142600144C02145402145C02146B021473121549
:10143600B8750F0180D2121980750F0280CA121872
:10144600F9750F0380C2121962750F0480BA12195A
:101456001E750F0580B2E527600612137AE4F5279C
:10146600750F0680A3121480750F07809B1212E970
:0A147600E4F50F8093E4F50F808E7B
:0D1A66007596307597307F027E0002199A48
:10194300E4F5B1F5B2F5B3F5B4F5ACF5AD53B3FECB
:0F19530043B401C290C285F536753720C2002219
:1019CE00121A66121943121A3612003E1219E51235
:0719DE001A8BD2AFD28C225C
:07181E000236000001350055
:1015B800E53730E425300022C2AFD291D2905337BC
:1015C800EF4337207F147E0012199AD2AFD28C4392
:1015D80037021530121980C29122E53730E52420F0
:1015E8000021C2AFD291C2905337DF433710D28067
:1015F800D282D281D297D296D2957F1E7E001219BE
:041608009AD2AF22A1
:1018F900E53730E01F5337FEC285052FE52FD39416
:10190900034005752F018007E52FB40302D2851224
:051919001244D201227E
:10198000E53730E1145337FD0530E530D39403409B
:0A19900003753001120FC6D20122C8
:10196200E53730E2185337FBE534C3941E40047563
:0E197200341E220534120B2CD20175350122D1
:10191E00E53730E31F5337F7E534D394004007E53E
:10192E0034D3941E4004E4F534221534120B2CD219
:05193E000175350122D6
:03003800B2912260
:1012E900309108309005753501D2012001030213B0
:1012F90079E535600DD280D282D2817F047E0012D9
:10130900199AE52FB4010DC280D282D2817F027E63
:101319000012199AE52FB4020DD280C282D2817FC0
:10132900027E0012199AE52FB4030DD280D282C22F
:10133900817F027E0012199AE530B4010DC297D25D
:1013490096D2957F027E0012199AE530B4020DD229
:1013590097C296D2957F027E0012199AE530B4039E
:101369000DD297D296C2957F027E0012199AC201B8
:011379002251
:01005A002283
:1018650053B1BF53B2BF53B17F53B27F7598504345
:101875008920438780438E1053C4DFAB07AA06A98E
:1018850005A8047F407E427D0F7C00120DCAEF043F
:09189500F404F58DD28ED29922E3
:1014EB008F3C8E3B8D3A8C3953B1BF53B2BF53B146
:1014FB007F53B27F75985043878053C4F843C42001
:10150B00AB3CAA3BA93AA8397F407E427D0F7C00B9
:10151B00120DCAC374FF9FFF74FF9EFEE49DFDE492
:10152B009CFC7808120E838FC6AB3CAA3BA93AA849
:10153B00397F407E427D0F7C00120DCAC374FF9F22
:09154B00FF8FC543C408D29922A8
:070003003098FDAF99C2988F
:01000A0022D3
:081ABC00C2998F993099FD22B7
:101554008F408E3F8D3E8C3D53B1FB53B2FB53B352
:10156400BF53B4BF75F85075C40853C4DFAB40AA69
:101574003FA93EA83D7F407E427D0F7C00120DCAEC
:10158400C374FF9FFF74FF9EFEE49DFDE49CFC7802
:1015940008120E838FC6AB40AA3FA93EA83D7F40E8
:1015A4007E427D0F7C00120DCAC374FF9FFF8FC55E
:0415B40043C4082202
:071AC40030F8FDAF9AC2F8F3
:011ACB0022F8
:081ACC00C2F98F9A30F9FD22E6
:10199A00EF4E6015E4FDFC0DBD00010CBC38F8BD2E
:0919AA0054F5EF1F70EA1E80E7FE
:0119B3002211
:101740008F0E8E0D8D0C8C0B538EEF438910D28E25
:10175000E4FFFEFDFCAB0EAA0DA90CA80BC3120EF4
:10176000726025758BCA758DFA308FFDC28FE50EBC
:1017700024FFF50EE50D34FFF50DE50C34FFF50CF7
:0B178000E50B34FFF50B80C8C28E2281
:10178B008F448E438D428C41538EEF438910D28E02
:10179B00E4FFFEFDFCAB44AA43A942A841C3120ED1
:1017AB00726025758BEA758DCB308FFDC28FE5444A
:1017BB0024FFF544E54334FFF543E54234FFF5429E
:0B17CB00E54134FFF54180C8C28E22CA
:10160C008F488E478D468C4553C9BF53C9DF43C99C
:10161C0010D2CAE4FFFEFDFCAB48AA47A946A84578
:10162C00C3120E72602575CC3075CDF830CFFDC26B
:10163C00CFE54824FFF548E54734FFF547E5463448
:0E164C00FFF546E54534FFF54580C8C2CA22C9
:10165A008F4C8E4B8D4A8C4975C40743C408E4FFEE
:10166A00FEFDFCAB4CAA4BA94AA849C3120E7260F4
:10167A002875C52C75C6CFE5C430E4FB53C4EFE525
:10168A004C24FFF54CE54B34FFF54BE54A34FFF5A6
:0D169A004AE54934FFF54980C553C4F722E5
:1016A7008F508E4F8D4E8C4D75C40743C408E4FF91
:1016B700FEFDFCAB50AA4FA94EA84DC3120E726097
:1016C7002875C5D875C6FFE5C430E4FB53C4EFE5FC
:1016D7005024FFF550E54F34FFF54FE54E34FFF545
:0D16E7004EE54D34FFF54D80C553C4F7228C
:0C18250001520001540001530001510069
:0D1A5800E4FFC2EFD2EE30EFFDAFC3055248
:011A6500225E
:10148000E5536066E554120E9614C90114C902149E
:10149000C90314CE0414D30514D80614E20714B5F6
:1014A0001014BF2014C43014BA4014B1F00000145A
:1014B000E7B2008032433702802D43370180284352
:1014C00037048023433708801E1219B48019753001
:1014D0000180087530028003753003120FC6D201F7
:0B14E0008005120038D201E4F5532211
:10003E0053B1EF53B2EF53E8F043E80543B1105319
:0C004E00B2EFE4F5F643F62043E1012296
:03005B00021AB3D3
:091AB300C2EF85C35175530132E5
:1018310002230000012800012500C103C104012287
:071841000001270001260051
:101A3600538EF75389F0438901758CCB758AEAD2A8
:021A4600A922D3
:03000B00020EBC26
:100EBC00C0E0C0F0C083C082C0D075D000C000C0FC
:100ECC0001C002C003C004C005C006C007C28C75B7
:100EDC008CEA758AEA0522E522D394055003020FA9
:100EEC00A9121A587523008F24852428E52530E78C
:100EFC00020526E528C394FD5060E52894B0400611
:100F0C00432581020FA6E528D394904017E52530A0
:100F1C00E10DE526D3940F4006755301755420431B
:100F2C0025828076E528D394704017E52530E20DB4
:100F3C00E526D3940F400675530175543043258430
:100F4C008058E528D394504005432588804CE528EB
:100F5C00D3943040454325908040E52530E735302B
:100F6C00E0067553017554F0E52530E10675530123
:100F7C00755420E52530E206755301755430E5258E
:100F8C0030E306755301755440E52530E40675537E
:100F9C0001755410752500752600752200D28CD071
:100FAC0007D006D005D004D003D002D001D000D099
:0A0FBC00D0D082D083D0F0D0E03214
:10005E0000A50000A50000C30000A41100000000D0
:10006E000000000000101D3F000000000000000016
:10007E00000000000000000000007FFFFF000000F5
:10008E000000000000000000000000007FFFFF00E5
:10009E00C80083C4D5FFABFB241009FFABFA0800E0
:1000AE0009FFABFA000009FFABFBA41829FFAD84D2
:1000BE00000018FFAD85001FFFFFAD81001212FF7B
:1000CE00AD82001414FFAD83000088FFAD80005494
:1000DE0054FFAD87005454FFAD86000000FFAD867F
:1000EE00000001FFAD8600000000C20000C97A00CA
:1000FE00DF1E00DB7800DB7800C70000E00A00D5C9
:10010E005300E33E00CF0000E17000CB0000E22F71
:10011E0000D96200E52F00E47000D73001D09A00BC
:10012E00C60100DD0100D40A00DA0600DC0000A1E1
:10013E000500000000000400002700001600006B00
:10014E0000D80000A105000001000000000017000B
:10015E00003A00007B00D80000A10500000200005C
:10016E000300007C00003A00000000D80000A1054A
:10017E0000000300000000002300007F0000630069
:10018E00D80000A1050000040000000000310000AE
:10019E000D00002A00D80000A10500000500000097
:1001AE0000005600000D00003B00D80000A1050025
:1001BE00000600000000004400003A00004A00D88B
:1001CE000000A105000007000000000066000024EA
:1001DE0000001600D80000A1050000080000000075
:1001EE00005C00002400001D00D80000A1050000E6
:1001FE000900000000006D00003A00002500D80044
:10020E0000CF0100D10000D10900D11200D11B0096
:10021E00D12400D12D00D13600D13F00D14800D1DC
:10022E004C00D10C00CF0000D21300CF0000D32120
:10023E0000D61900CF0000E86100E94700CF00FFAB
:10024E00ABF30000C1FFABF4000001FFABF5301AB9
:10025E0048FFABF620EE7DFFABF7029078FFABF4D4
:10026E00000002FFABF5101A4AFFABF621E60006BE
:10027E00AA0600A27B61F4000000906170000002EB
:10028E00473C0A00380A0064F40000013460F400B0
:10029E000001DA05F420FFFFFF0464A0204C0020CB
:1002AE00480044B8000CC4A000001657F4007FF7B5
:1002BE00055F5C005F580057F4007FFF385F5C00FD
:1002CE005F5800205C0020580057F4007FFFBC5F91
:1002DE005C005F580057F4007FC7295F5C005F58D1
:1002EE00000AF08000007857F4007FF63A5F5C0059
:1002FE005F580057F4007FFF275F5C005F580020B7
:10030E005C0020580057F4007FFFB65F5C005F581A
:10031E000057F4007FC2235F5C005F580054F0006A
:10032E00FFFFF10C1EE20140C60000070140C500B0
:10033E0000010AF0A200008961F40000CDAC6170EA
:10034E000000021461F40000C8326170000001FF69
:10035E0060F4000000986070000001F80BF080005F
:10036E00009800000C0BF08000D36846F4004DF8A6
:10037E00F074F40000001E4E6C0000000C55BE0020
:10038E000140CEFFFF3F30FF0004CDCD20001B22E9
:10039E00090000000B0D104A00000A0A9DA1000082
:1003AE009F22090000000B0D104A0000040A9D81D7
:1003BE000000A508451A56F4000003FF200062084D
:1003CE00CC1A07F02D00003E57F0000002AC45F4A9
:1003DE000000000245F46AFF0FFF20006E5570000A
:0C03EE000002AC00000C00AC0000850018
:1007960000A50000A50000C30000A4110000000091
:1007A6000000000000101D3F0000000000000000D7
:1007B600000000000000000000007FFFFF000000B6
:1007C6000000000000000000000000007FFFFF00A6
:1007D600C80083C4D5FFABFB241009FFABFA0800A1
:1007E60009FFABFA000009FFABFBA41829FFAD8493
:1007F600000018FFAD85001FFFFFAD81001212FF3C
:10080600AD82001414FFAD83000088FFAD80005454
:1008160054FFAD87005454FFAD86000000FFAD863F
:10082600000001FFAD8600000000C20000C978008C
:10083600DF1E00DB7800DB7800C70000E00A00D589
:100846005300E33E00CF0400E17000CB0000E22F2E
:1008560000D97500E52F00E47000D73001D09A006A
:10086600C60100DD0100D40000DA0600DC0000A1AC
:100876000500000000000400001B00001600003BFD
:1008860000D80000A10500000100000000001200D1
:10089600003A00003F00D80000A105000002000059
:1008A6000000001800003A00005D00D80000A10515
:1008B60000000300000000002100000D00002100E0
:1008C600D80000A10500000400000000003200006E
:1008D6000D00003900D80000A10500000500000049
:1008E60000006800003A00002F00D80000A10500B3
:1008F600000600000000006E00003A00004100D82B
:100906000000A105000007000000000065000024AB
:1009160000002600D80000A1050000080000030022
:10092600007D00000D00000D00D80000A1050000AC
:100936000900000000006100000D00003F00D80023
:1009460000CF0100D10000D10900D11200D11B0057
:10095600D12400D12D00D13600D13F00D14800D19D
:100966004C00D11400CF0400D21400CF0400CF04F1
:1009760000E85800E94E00CF04FFABF30000C1FFCA
:10098600ABF4000001FFABF5301A48FFABF620EEE2
:100996007DFFABF7029078FFABF4000002FFABF5EA
:1009A600101A4AFFABF621E60006AA0600A27B61F2
:1009B600F4000000906170000002473C0A00380A0B
:1009C6000064F40000013460F4000001DA05F4204C
:1009D600FFFFFF0464A0204C0020480044B8000C30
:1009E600C4A000001657F4007FF7055F5C005F584F
:1009F6000057F4007FFF385F5C005F5800205C0002
:100A060020580057F4007FFFBC5F5C005F5800571A
:100A1600F4007FC7295F5C005F58000AF080000081
:100A26007857F4007FF63A5F5C005F580057F40091
:100A36007FFF275F5C005F5800205C00205800574E
:100A4600F4007FFFB65F5C005F580057F4007FC27A
:100A5600235F5C005F580054F000FFFFF10C1EE2BC
:100A66000140C60000070140C50000010AF0A200CF
:100A7600008961F40000CDAC61700000021461F4DD
:100A86000000C8326170000001FF60F400000098A9
:100A96006070000001F80BF08000009800000C0B5D
:100AA600F08000D36846F4004DF8F074F4000000BE
:100AB6001E4E6C0000000C55BE000140CEFFFF3FED
:100AC60030FF0004CDCD20001B22090000000B0DD5
:100AD600104A00000A0A9DA100009F22090000009A
:100AE6000B0D104A0000040A9D810000A508451A56
:100AF60056F4000003FF20006208CC1A07F02D0010
:100B0600003E57F0000002AC45F40000000245F438
:100B16006AFF0FFF20006E5570000002AC00000C4B
:060B260000AC0000850098
:1003FA0000A50000A50000C30000A4110000000031
:10040A000000000000101D3F000000000000000076
:10041A00000000000000000000007FFFFF00000055
:10042A000000000000000000000000007FFFFF0045
:10043A00C80083C4D5FFABFB241009FFABFA080040
:10044A0009FFABFA000009FFABFBA41829FFAD8432
:10045A00000018FFAD85001FFFFFAD81001212FFDB
:10046A00AD82001414FFAD83000088FFAD800054F4
:10047A0054FFAD87005454FFAD86000000FFAD86DF
:10048A00000001FFAD8600000000C20000C97A002A
:10049A00DF1E00DB7800DB7800C70000E00A00D529
:1004AA005900E35000CF0000E17000CB0000E22FBA
:1004BA0000D96F00E52F00E47000D73001D09A0010
:1004CA00C60100DD0100D40000DA0000DC0000A152
:1004DA000500000000000400001E00001600006B6A
:1004EA0000D80000A1050000010000000000000083
:1004FA00003A00003F00D80000A1050000020000F9
:10050A000000002B00003A00002B00D80000A105D3
:10051A0000000300000000002400003A00005E0012
:10052A00D80000A105000004000000000037000008
:10053A000D00003000D80000A105000005000000F1
:10054A0000006E00000D00002B00D80000A105007D
:10055A00000600000000004300003A00004500D8F1
:10056A000000A10500000700000000006500000D62
:10057A0000002900D80000A10500000800000000C2
:10058A00001200000D00001B00D80000A1050000A9
:10059A000900000200007000001700003D00D800AA
:1005AA0000CF0100D10000D10900D11200D11B00F7
:1005BA00D12400D12D00D13600D13F00D14800D13D
:1005CA004C00D10700CF0000D22E00CF0000D31379
:1005DA0000D60B00CF0000E85100E94800CF00FF29
:1005EA00ABF30000C1FFABF4000001FFABF5301A1A
:1005FA0048FFABF620EE7DFFABF7029078FFABF435
:10060A00000002FFABF5101A4AFFABF621E600061E
:10061A00AA0600A27B61F40000009061700000024B
:10062A00473C0A00380A0064F40000013460F40010
:10063A000001DA05F420FFFFFF0464A0204C00202B
:10064A00480044B8000CC4A000001657F4007FF715
:10065A00055F5C005F580057F4007FFF385F5C005D
:10066A005F5800205C0020580057F4007FFFBC5FF1
:10067A005C005F580057F4007FC7295F5C005F5831
:10068A00000AF08000007857F4007FF63A5F5C00B9
:10069A005F580057F4007FFF275F5C005F58002017
:1006AA005C0020580057F4007FFFB65F5C005F587B
:1006BA000057F4007FC2235F5C005F580054F000CB
:1006CA00FFFFF10C1EE20140C60000070140C50011
:1006DA0000010AF0A200008961F40000CDAC61704B
:1006EA000000021461F40000C8326170000001FFCA
:1006FA0060F4000000986070000001F80BF08000C0
:10070A00009800000C0BF08000D36846F4004DF806
:10071A00F074F40000001E4E6C0000000C55BE0080
:10072A000140CEFFFF3F30FF0004CDCD20001B2249
:10073A00090000000B0D104A00000A0A9DA10000E2
:10074A009F22090000000B0D104A0000040A9D8137
:10075A000000A508451A56F4000003FF20006208AD
:10076A00CC1A07F02D00003E57F0000002AC45F409
:10077A000000000245F46AFF0FFF20006E5570006A
:0C078A000002AC00000C00AC0000850078
:051A0F00121A14D2932D
:0E1A1400E4FFFE0FBF00010EEF64324E70F5CE
:011A220022A1
:041AD400C29280FC3E
:0A1A8B00D293121A14D294021A1416
:0A1A9500D294121A0FC294021A1420
:10189E00900000D293121A14309423AF82AE83E4D8
:1018AE00FCFD7B507AC3F9F8D3120E5C4010A3E511
:1018BE0082B488E4E583B413DF121AD480DAC293BB
:0318CE00021A14E7
:0A1A9F00C294121A0FD294021A1416
:1018D100AD07E4FCC293121A14ED30E704D29480F0
:1018E10002C294ED25E0FD121A0F0CBC08E6C2936A
:0818F100121A14D294021A1419
:10000E00C206121A14D205121A14E4FCD206121ADF
:10001E0014ED25E0FFA205E4334FFDC206121A14BB
:09002E000CBC08E8121A14AF051D
:0100370022A6
:0816F4008B158A168917AD075A
:1016FC00E4F51C121A95AF051218D112189EE4F5D8
:10170C001CAF1CE4FCFDFEAB1BAA1AA919A818D32C
:10171C00120E72401CAB150517E517AA16700205C0
:10172C001614F9120D63FF1218D112189E051C80A5
:04173C00D0021A9F1E
:0E184800042900000000012D00C108012E003F
:1019E50043B10853B2F7D28353E9DF43EA0853EB17
:0519F500F7439B0222F4
:03003B000210B2FE
:1010B200C0E0C0F0C083C082C0D075D000C000C004
:0D10C20001C002C003C004C005C006C00785
:1010CF00750800750900750A00E5EC20E3030211AD
:1010DF007A53ECF7539BFD0508050A7F017E007DCF
:1010EF00007C001217403083F0750A00050A7F015B
:1010FF007E007D007C001217402083F0750A00757A
:10110F0008007509003083FD7F017E007D007C00A3
:10111F0012174030831C74292508F8C000E6FFC35E
:10112F0013D000F674292508F8E64480F6308310B2
:10113F0080FB74292508F8C000E6FFC313D000F622
:10114F000509E509C3940840BC0508E508C39404E4
:10115F0040B03083FD1219FA7F1E7E007D007C00A7
:0E116F00121740121AA9439B02800375EC0070
:10117D00D007D006D005D004D003D002D001D000C6
:0B118D00D0D0D082D083D0F0D0E03270
:1019FA00E52CF4B52B09852B2D121AA9D20822E45D
:051A0A00F52DC20822C9
:091AA9007F047829E4F608DFFC53
:011AB2002211
:10137A00E4F511200803021405E52D120E9613ADAB
:10138A001013B51113E51213ED1313F51413FD150C
:10139A0013BD1613C54113CD4A13D54B13DD4C00AB
:1013AA00001403755380755401804E75538075542B
:1013BA00028046755380755403803E755380755478
:1013CA00408036755380755404802E755380755449
:1013DA00058026755380755406801E755380755492
:1013EA00208016755380755430800E75538075545D
:0B13FA00F08006755380755407C20890
:0114050022C4
:1017D600FFAD83000088FFAD86000000FFAD8600E8
:1017E6000001FFAD86000000FFAD83000099FFAD4C
:1017F60086000000FFAD86000001FFAD86000000F8
:10180600FFAD830000AAFFAD86000000FFAD860095
:081816000001FFAD8600000097
:0E185600012F0101300101340F033101D09A3E
:100FC600D291E53024FE60521470030210642402AC
:100FD60060030210A6E4F511F512AE11AF127C0003
:100FE6007D03120D7C74FA2FF974033EFA7BFFE43D
:100FF600751B03F51AF519F5187FE61216F4121A81
:1010060014121A140512E51270020511C39434E580
:10101600116480948140C30210A6E4F511F512AE66
:1010260011AF127C007D03120D7C74962FF97407A4
:101036003EFA7BFFE4751B03F51AF519F5187FE6F2
:101046001216F4121A14121A140512E51270020579
:1010560011C39434E5116480948140C38042E4F561
:1010660011F512AE11AF127C007D03120D7C745E79
:101076002FF974003EFA7BFFE4751B03F51AF51988
:10108600F5187FE61216F4121A14121A140512E550
:101096001270020511C39434E5116480948140C333
:0B10A600121244753416120B2CC2917C
:0110B100221C
:100B2C00E534B41F004003020D62900B3DF82828F9
:100B3C0073020B9A020BA1020BA9020BB1020BB9A7
:100B4C00020BC1020BCF020BDF020BEF020BFF02F9
:100B5C000C0F020C1F020C2F020C3F020C4F020C4C
:100B6C005F020C6F020C7F020C8F020C9F020CAF09
:100B7C00020CBF020CCF020CDE020CED020CFC02CC
:100B8C000D0B020D1A020D29020D38020D47E4F56A
:100B9C0031F5338026E4F531753350801EE4F531A0
:100BAC007533648016E4F531753396800EE4F531B7
:100BBC007533C88006E4F5317533FAFB7A00793168
:100BCC00020D547531017533137B007A007931E4D1
:100BDC00020D5475310175332C7B007A007931E4A8
:100BEC00020D547531017533317B007A007931E493
:100BFC00020D547531017533367B007A007931E47E
:100C0C00020D5475310175333B7B007A007931E468
:100C1C00020D547531017533407B007A007931E453
:100C2C00020D547531017533457B007A007931E43E
:100C3C00020D5475310175334A7B007A007931E429
:100C4C00020D5475310175334F7B007A007931E414
:100C5C00020D547531017533547B007A007931E4FF
:100C6C00020D547531017533597B007A007931E4EA
:100C7C00020D5475310175335E7B007A007931E4D5
:100C8C00020D547531017533637B007A007931E4C0
:100C9C00020D547531017533687B007A007931E4AB
:100CAC00020D5475310175336D7B007A007931E496
:100CBC00020D547531017533727B007A007931E481
:100CCC00020D547531017533777B007A007931E46C
:100CDC00807675310175337C7B007A007931E48044
:100CEC00677531017533817B007A007931E4805866
:100CFC007531017533867B007A007931E480497552
:100D0C00310175338B7B007A007931E4803A75318F
:100D1C00017533907B007A007931E4802B753101B9
:100D2C007533957B007A007931E4801C753101753F
:100D3C0033987B007A007931E4800D75310175337D
:100D4C009A7B007A007931E4751B03F51AF519F5D5
:070D5C00187FE61216F422D5
:011ADB0022E8
:031AD800020FC634
:10124400E52F64017031F513E51375F003A424D67A
:10125400F9741735F0FA7BFFE4751B03F51AF519D9
:10126400F5187FE61216F4121A14121A140513E56F
:1012740013C3940840D222E52F64027031F513E5BC
:101284001375F003A424EEF9741735F0FA7BFFE428
:10129400751B03F51AF519F5187FE61216F4121AE0
:1012A40014121A140513E513C3940840D222E52F2F
:1012B40064037030F513E51375F003A42406F97480
:1012C4001835F0FA7BFFE4751B03F51AF519F518C8
:1012D4007FE61216F4121A14121A140513E513C336
:0412E400940840D258
:0112E80022E3
:1019B400308516E55424FE600A14600A2402700976
:0A19C400021A48021A7F121A732259
:101A2300D287D2867F3C7E0012199AC287C286E48F
:031A3300F51D227C
:101A4800D287D2867F197E0012199AC287C286224F
:0C1A7300D2877F197E0012199AC28722C8
:0C1A7F00D2867F197E0012199AC28622BE
:0300000002119852
:1011980075C7AA75C75575FD5A75C7AA75C7557518
:1011A800FDA5787FE4F6D8FD9000007FFF7E03E47C
:0C11B800F0A3DFFCDEFA7581540211FF89
:1011C400021406E493A3F8E493A34003F68001F227
:1011D40008DFF48029E493A3F85407240CC8C3332C
:1011E400C4540F4420C8834004F456800146F6DFFB
:1011F400E4800B010204081020408090181EE47E55
:10120400019360BCA3FF543F30E509541FFEE493EF
:10121400A360010ECF54C025E060A840B8E493A3B6
:10122400FAE493A3F8E493A3C8C582C8CAC583CAE1
:10123400F0A3C8C582C8CAC583CADFE9DEE780BE99
:011864000083
:100D6300BB010689828A83E0225002E722BBFE028E
:090D7300E32289828A83E49322C1
:100D7C00EF8DF0A4A8F0CF8CF0A428CE8DF0A42E8B
:020D8C00FE2245
:100D8E0075F008758200EF2FFFEE33FECD33CDCC1C
:100D9E0033CCC58233C5829BED9AEC99E58298409F
:100DAE000CF582EE9BFEED9AFDEC99FC0FD5F0D67C
:100DBE00E4CEFBE4CDFAE4CCF9A88222B800C1B9A6
:100DCE000059BA002DEC8BF084CFCECDFCE5F0CBE4
:100DDE00F97818EF2FFFEE33FEED33FDEC33FCEB1D
:100DEE0033FB10D703994004EB99FB0FD8E5E4F9D8
:100DFE00FA227818EF2FFFEE33FEED33FDEC33FCC5
:100E0E00C933C910D7059BE99A4007EC9BFCE99AB8
:100E1E00F90FD8E0E4C9FAE4CCFB2275F010EF2FFD
:100E2E00FFEE33FEED33FDCC33CCC833C810D707FD
:100E3E009BEC9AE899400AED9BFDEC9AFCE899F838
:0E0E4E000FD5F0DAE4CDFBE4CCFAE4C8F922CB
:100E5C00EB9FF5F0EA9E42F0E99D42F0EC6480C80D
:060E6C0064809845F022AD
:100E7200EB9FF5F0EA9E42F0E99D42F0E89C45F0D6
:010E8200224D
:100E8300E8600FECC313FCED13FDEE13FEEF13FF4D
:030E9300D8F12271
:100E9600D083D082F8E4937012740193700DA3A3EB
:100EA60093F8740193F5828883E4737402936860FF
:060EB600EFA3A3A380DFFF
:00000001FF
