:1014D700E4F50FF510121AC3E50FB40800505F903A
:1014E70014EDF828287302150502150D02151502CB
:1014F700151D02152502152D02153502153D12166B
:10150700F4750F0180D2121A75750F0280CA12196D
:10151700EE750F0380C2121A57750F0480BA121A9C
:1015270013750F0580B2120EBC750F0680AA12152F
:10153700BC750F0780A2121446E4F50F809AE4F5F4
:031547000F80957D
:0D1B5B007596307597307F027E00021A8F5C
:101A3800E4F5B1F5B2F5B3F5B4F5ACF5AD53B3FED5
:0F1A480043B401C290C285F543754420C2002209
:101AC300121B5B121A38121B2B12003E121ADA1267
:071AD3001B80D2AFD28C2270
:07154A000243000001420012
:1016F400E54430E425300022C2AFD291D290534465
:10170400EF4344207F147E00121A8FD2AFD28C4351
:101714004402153D121A75C29122E54430E5242095
:101724000021C2AFD291C2905344DF434410D2800F
:10173400D282D281D297D296D2957F1E7E00121A7F
:041744008FD2AF226F
:1019EE00E54430E01F5344FEC285053CE53CD394EC
:1019FE00034005753C018007E53CB40302D2851215
:051A0E0013A1D201222A
:101A7500E54430E1145344FD053DE53DD394034071
:0A1A850003753D01121123D2012266
:101A5700E54430E2185344FBE541C3941E40047546
:0E1A6700411E220541120B2CD20175420122B4
:101A1300E54430E31F5344F7E541D394004007E521
:101A230041D3941E4004E4F541221541120B2CD2FC
:051A33000175420122D3
:03003800B2912260
:10144600309108309005754201D201200103021443
:10145600D6E542600DD280D282D2817F047E001210
:101466001A8FE53CB4010DC280D282D2817F027E02
:1014760000121A8FE53CB4020DD280C282D2817F5F
:10148600027E00121A8FE53CB4030DD280D282C2CE
:10149600817F027E00121A8FE53DB4010DC297D2FC
:1014A60096D2957F027E00121A8FE53DB4020DD2C8
:1014B60097C296D2957F027E00121A8FE53DB4033D
:1014C6000DD297D296C2957F027E00121A8FC20164
:0114D60022F3
:01005A002283
:10195A0053B1BF53B2BF53B17F53B27F759850434F
:10196A008920438780438E1053C4DFAB07AA06A998
:10197A0005A8047F407E427D0F7C00120DCAEF0449
:09198A00F404F58DD28ED29922ED
:101627008F498E488D478C4653B1BF53B2BF53B1D4
:101637007F53B27F75985043878053C4F843C420C3
:10164700AB49AA48A947A8467F407E427D0F7C0048
:10165700120DCAC374FF9FFF74FF9EFEE49DFDE455
:101667009CFC7808120E838FC6AB49AA48A947A8E5
:10167700467F407E427D0F7C00120DCAC374FF9FD8
:09168700FF8FC543C408D299226B
:070003003098FDAF99C2988F
:01000A0022D3
:081BB100C2998F993099FD22C1
:101690008F4D8E4C8D4B8C4A53B1FB53B2FB53B3E1
:1016A000BF53B4BF75F85075C40853C4DFAB4DAA1F
:1016B0004CA94BA84A7F407E427D0F7C00120DCA88
:1016C000C374FF9FFF74FF9EFEE49DFDE49CFC78C5
:1016D00008120E838FC6AB4DAA4CA94BA84A7F4077
:1016E0007E427D0F7C00120DCAC374FF9FFF8FC521
:0416F00043C40822C5
:071BB90030F8FDAF9AC2F8FD
:011BC0002202
:081BC100C2F98F9A30F9FD22F0
:101A8F00EF4E6015E4FDFC0DBD00010CBC38F8BD38
:091A9F0054F5EF1F70EA1E80E708
:011AA800221B
:10187C008F0E8E0D8D0C8C0B538EEF438910D28EE8
:10188C00E4FFFEFDFCAB0EAA0DA90CA80BC3120EB7
:10189C00726025758BCA758DFA308FFDC28FE50E7F
:1018AC0024FFF50EE50D34FFF50DE50C34FFF50CBA
:0B18BC00E50B34FFF50B80C8C28E2244
:1018C7008F518E508D4F8C4E538EEF438910D28E91
:1018D700E4FFFEFDFCAB51AA50A94FA84EC3120E60
:1018E700726025758BEA758DCB308FFDC28FE55100
:1018F70024FFF551E55034FFF550E54F34FFF54F20
:0B190700E54E34FFF54E80C8C28E2272
:101748008F558E548D538C5253C9BF53C9DF43C92B
:1017580010D2CAE4FFFEFDFCAB55AA54A953A85207
:10176800C3120E72602575CC3075CDF830CFFDC22E
:10177800CFE55524FFF555E55434FFF554E55334CA
:0E178800FFF553E55234FFF55280C8C2CA2265
:101796008F598E588D578C5675C40743C408E4FF7D
:1017A600FEFDFCAB59AA58A957A856C3120E726083
:1017B6002875C52C75C6CFE5C430E4FB53C4EFE5E8
:1017C6005924FFF559E55834FFF558E55734FFF528
:0D17D60057E55634FFF55680C553C4F72281
:1017E3008F5D8E5C8D5B8C5A75C40743C408E4FF20
:1017F300FEFDFCAB5DAA5CA95BA85AC3120E726026
:101803002875C5D875C6FFE5C430E4FB53C4EFE5BE
:101813005D24FFF55DE55C34FFF55CE55B34FFF5C6
:0D1823005BE55A34FFF55A80C553C4F72227
:0C155100015F00016100016000015E000C
:0D1B4D00E4FFC2EFD2EE30EFFDAFC3055F45
:011B5A002268
:1015BC00E5606066E561120E9616050116050216C9
:1015CC000503160A04160F05161406161E0715F148
:1015DC001015FB2016003015F64015EDF000001626
:1015EC0023B2008032434402802D434401802843BF
:1015FC0044048023434408801E121AA98019753DA7
:10160C00018008753D028003753D03121123D20140
:0B161C008005120038D201E4F56022C6
:10003E0053B1EF53B2EF53E8F043E80543B1105319
:0C004E00B2EFE4F5F643F62043E1012296
:03005B00021BA8DD
:091BA800C2EF85C35E75600132D5
:10155D0002360000013B00013800C106C10701350C
:07156D0000013A0001390002
:101B2B00538EF75389F0438901758CCB758AEAD2B2
:021B3B00A922DD
:03000B00020FF0F1
:100FF000C0E0C0F0C083C082C0D075D000C000C0C7
:1010000001C002C003C004C005C006C007C28C7581
:101010008CEA758AEA0535E535D39405500302114B
:1010200006121B4D7536008F3785373BE53820E7B4
:1010300005E53230E7040539053AE53AD3940F4027
:101040001BE533D394024006433202756080E533DA
:10105000B40103433201753A00753300E53BC39494
:10106000FD5060E53B94B04006433881021103E532
:101070003BD394904017E53830E10DE539D3940F18
:1010800040067560017561204338828076E53BD368
:1010900094704017E53830E20DE539D3940F4006DF
:1010A0007560017561304338848058E53BD39450B6
:1010B0004005433888804CE53BD394304045433865
:1010C000908040E53830E73530E0067560017561A5
:1010D000F0E53830E106756001756120E53830E2F1
:1010E00006756001756130E53830E306756001759D
:1010F0006140E53830E406756001756110753800AF
:10110000753900753500D28CD007D006D005D004D3
:10111000D003D002D001D000D0D0D082D083D0F084
:03112000D0E032EA
:10005E0000A50000A50000C30000A41100000000D0
:10006E000000000000101D3F000000000000000016
:10007E00000000000000000000007FFFFF000000F5
:10008E000000000000000000000000007FFFFF00E5
:10009E00C80083C4D5FFABFB241009FFABFA0800E0
:1000AE0009FFABFA000009FFABFBA41829FFAD84D2
:1000BE00000018FFAD85001FFFFFAD81001212FF7B
:1000CE00AD82001414FFAD83000088FFAD80005494
:1000DE0054FFAD87005454FFAD86000000FFAD867F
:1000EE00000001FFAD8600000000C20000C97A00CA
:1000FE00DF1E00DB7800DB7800C70000E00A00D5C9
:10010E005300E33E00CF0000E17000CB0000E22F71
:10011E0000D96200E52F00E47000D73001D09A00BC
:10012E00C60100DD0100D40A00DA0600DC0000A1E1
:10013E000500000000000400002700001600006B00
:10014E0000D80000A105000001000000000017000B
:10015E00003A00007B00D80000A10500000200005C
:10016E000300007C00003A00000000D80000A1054A
:10017E0000000300000000002300007F0000630069
:10018E00D80000A1050000040000000000310000AE
:10019E000D00002A00D80000A10500000500000097
:1001AE0000005600000D00003B00D80000A1050025
:1001BE00000600000000004400003A00004A00D88B
:1001CE000000A105000007000000000066000024EA
:1001DE0000001600D80000A1050000080000000075
:1001EE00005C00002400001D00D80000A1050000E6
:1001FE000900000000006D00003A00002500D80044
:10020E0000CF0100D10000D10900D11200D11B0096
:10021E00D12400D12D00D13600D13F00D14800D1DC
:10022E004C00D10C00CF0000D21300CF0000D32120
:10023E0000D61900CF0000E86100E94700CF00FFAB
:10024E00ABF30000C1FFABF4000001FFABF5301AB9
:10025E0048FFABF620EE7DFFABF7029078FFABF4D4
:10026E00000002FFABF5101A4AFFABF621E60006BE
:10027E00AA0600A27B61F4000000906170000002EB
:10028E00473C0A00380A0064F40000013460F400B0
:10029E000001DA05F420FFFFFF0464A0204C0020CB
:1002AE00480044B8000CC4A000001657F4007FF7B5
:1002BE00055F5C005F580057F4007FFF385F5C00FD
:1002CE005F5800205C0020580057F4007FFFBC5F91
:1002DE005C005F580057F4007FC7295F5C005F58D1
:1002EE00000AF08000007857F4007FF63A5F5C0059
:1002FE005F580057F4007FFF275F5C005F580020B7
:10030E005C0020580057F4007FFFB65F5C005F581A
:10031E000057F4007FC2235F5C005F580054F0006A
:10032E00FFFFF10C1EE20140C60000070140C500B0
:10033E0000010AF0A200008961F40000CDAC6170EA
:10034E000000021461F40000C8326170000001FF69
:10035E0060F4000000986070000001F80BF080005F
:10036E00009800000C0BF08000D36846F4004DF8A6
:10037E00F074F40000001E4E6C0000000C55BE0020
:10038E000140CEFFFF3F30FF0004CDCD20001B22E9
:10039E00090000000B0D104A00000A0A9DA1000082
:1003AE009F22090000000B0D104A0000040A9D81D7
:1003BE000000A508451A56F4000003FF200062084D
:1003CE00CC1A07F02D00003E57F0000002AC45F4A9
:1003DE000000000245F46AFF0FFF20006E5570000A
:0C03EE000002AC00000C00AC0000850018
:1007960000A50000A50000C30000A4110000000091
:1007A6000000000000101D3F0000000000000000D7
:1007B600000000000000000000007FFFFF000000B6
:1007C6000000000000000000000000007FFFFF00A6
:1007D600C80083C4D5FFABFB241009FFABFA0800A1
:1007E60009FFABFA000009FFABFBA41829FFAD8493
:1007F600000018FFAD85001FFFFFAD81001212FF3C
:10080600AD82001414FFAD83000088FFAD80005454
:1008160054FFAD87005454FFAD86000000FFAD863F
:10082600000001FFAD8600000000C20000C978008C
:10083600DF1E00DB7800DB7800C70000E00A00D589
:100846005300E33E00CF0400E17000CB0000E22F2E
:1008560000D97500E52F00E47000D73001D09A006A
:10086600C60100DD0100D40000DA0600DC0000A1AC
:100876000500000000000400001B00001600003BFD
:1008860000D80000A10500000100000000001200D1
:10089600003A00003F00D80000A105000002000059
:1008A6000000001800003A00005D00D80000A10515
:1008B60000000300000000002100000D00002100E0
:1008C600D80000A10500000400000000003200006E
:1008D6000D00003900D80000A10500000500000049
:1008E60000006800003A00002F00D80000A10500B3
:1008F600000600000000006E00003A00004100D82B
:100906000000A105000007000000000065000024AB
:1009160000002600D80000A1050000080000030022
:10092600007D00000D00000D00D80000A1050000AC
:100936000900000000006100000D00003F00D80023
:1009460000CF0100D10000D10900D11200D11B0057
:10095600D12400D12D00D13600D13F00D14800D19D
:100966004C00D11400CF0400D21400CF0400CF04F1
:1009760000E85800E94E00CF04FFABF30000C1FFCA
:10098600ABF4000001FFABF5301A48FFABF620EEE2
:100996007DFFABF7029078FFABF4000002FFABF5EA
:1009A600101A4AFFABF621E60006AA0600A27B61F2
:1009B600F4000000906170000002473C0A00380A0B
:1009C6000064F40000013460F4000001DA05F4204C
:1009D600FFFFFF0464A0204C0020480044B8000C30
:1009E600C4A000001657F4007FF7055F5C005F584F
:1009F6000057F4007FFF385F5C005F5800205C0002
:100A060020580057F4007FFFBC5F5C005F5800571A
:100A1600F4007FC7295F5C005F58000AF080000081
:100A26007857F4007FF63A5F5C005F580057F40091
:100A36007FFF275F5C005F5800205C00205800574E
:100A4600F4007FFFB65F5C005F580057F4007FC27A
:100A5600235F5C005F580054F000FFFFF10C1EE2BC
:100A66000140C60000070140C50000010AF0A200CF
:100A7600008961F40000CDAC61700000021461F4DD
:100A86000000C8326170000001FF60F400000098A9
:100A96006070000001F80BF08000009800000C0B5D
:100AA600F08000D36846F4004DF8F074F4000000BE
:100AB6001E4E6C0000000C55BE000140CEFFFF3FED
:100AC60030FF0004CDCD20001B22090000000B0DD5
:100AD600104A00000A0A9DA100009F22090000009A
:100AE6000B0D104A0000040A9D810000A508451A56
:100AF60056F4000003FF20006208CC1A07F02D0010
:100B0600003E57F0000002AC45F40000000245F438
:100B16006AFF0FFF20006E5570000002AC00000C4B
:060B260000AC0000850098
:1003FA0000A50000A50000C30000A4110000000031
:10040A000000000000101D3F000000000000000076
:10041A00000000000000000000007FFFFF00000055
:10042A000000000000000000000000007FFFFF0045
:10043A00C80083C4D5FFABFB241009FFABFA080040
:10044A0009FFABFA000009FFABFBA41829FFAD8432
:10045A00000018FFAD85001FFFFFAD81001212FFDB
:10046A00AD82001414FFAD83000088FFAD800054F4
:10047A0054FFAD87005454FFAD86000000FFAD86DF
:10048A00000001FFAD8600000000C20000C97A002A
:10049A00DF1E00DB7800DB7800C70000E00A00D529
:1004AA005900E35000CF0000E17000CB0000E22FBA
:1004BA0000D96F00E52F00E47000D73001D09A0010
:1004CA00C60100DD0100D40000DA0000DC0000A152
:1004DA000500000000000400001E00001600006B6A
:1004EA0000D80000A1050000010000000000000083
:1004FA00003A00003F00D80000A1050000020000F9
:10050A000000002B00003A00002B00D80000A105D3
:10051A0000000300000000002400003A00005E0012
:10052A00D80000A105000004000000000037000008
:10053A000D00003000D80000A105000005000000F1
:10054A0000006E00000D00002B00D80000A105007D
:10055A00000600000000004300003A00004500D8F1
:10056A000000A10500000700000000006500000D62
:10057A0000002900D80000A10500000800000000C2
:10058A00001200000D00001B00D80000A1050000A9
:10059A000900000200007000001700003D00D800AA
:1005AA0000CF0100D10000D10900D11200D11B00F7
:1005BA00D12400D12D00D13600D13F00D14800D13D
:1005CA004C00D10700CF0000D22E00CF0000D31379
:1005DA0000D60B00CF0000E85100E94800CF00FF29
:1005EA00ABF30000C1FFABF4000001FFABF5301A1A
:1005FA0048FFABF620EE7DFFABF7029078FFABF435
:10060A00000002FFABF5101A4AFFABF621E600061E
:10061A00AA0600A27B61F40000009061700000024B
:10062A00473C0A00380A0064F40000013460F40010
:10063A000001DA05F420FFFFFF0464A0204C00202B
:10064A00480044B8000CC4A000001657F4007FF715
:10065A00055F5C005F580057F4007FFF385F5C005D
:10066A005F5800205C0020580057F4007FFFBC5FF1
:10067A005C005F580057F4007FC7295F5C005F5831
:10068A00000AF08000007857F4007FF63A5F5C00B9
:10069A005F580057F4007FFF275F5C005F58002017
:1006AA005C0020580057F4007FFFB65F5C005F587B
:1006BA000057F4007FC2235F5C005F580054F000CB
:1006CA00FFFFF10C1EE20140C60000070140C50011
:1006DA0000010AF0A200008961F40000CDAC61704B
:1006EA000000021461F40000C8326170000001FFCA
:1006FA0060F4000000986070000001F80BF08000C0
:10070A00009800000C0BF08000D36846F4004DF806
:10071A00F074F40000001E4E6C0000000C55BE0080
:10072A000140CEFFFF3F30FF0004CDCD20001B2249
:10073A00090000000B0D104A00000A0A9DA10000E2
:10074A009F22090000000B0D104A0000040A9D8137
:10075A000000A508451A56F4000003FF20006208AD
:10076A00CC1A07F02D00003E57F0000002AC45F409
:10077A000000000245F46AFF0FFF20006E5570006A
:0C078A000002AC00000C00AC0000850078
:051B0400121B09D29341
:0E1B0900E4FFFE0FBF00010EEF64324E70F5D8
:011B170022AB
:041BC900C29280FC48
:0A1B8000D293121B09D294021B0934
:0A1B8A00D294121B04C294021B093E
:10199300900000D293121B09309423AF82AE83E4EC
:1019A300FCFD7B507AC3F9F8D3120E5C4010A3E51B
:1019B30082B488E4E583B413DF121BC980DAC293CF
:0319C300021B09FB
:0A1B9400C294121B04D294021B0934
:1019C600AD07E4FCC293121B09ED30E704D2948004
:1019D60002C294ED25E0FD121B040CBC08E6C2937E
:0819E600121B09D294021B0937
:10000E00C209121B09D208121B09E4FCD209121BE9
:10001E0009ED25E0FFA208E4334FFDC209121B09CA
:09002E000CBC08E8121B09AF0527
:0100370022A6
:081830008B158A168917AD071C
:10183800E4F51C121B8AAF051219C6121993E4F5B8
:101848001CAF1CE4FCFDFEAB1BAA1AA919A818D3EF
:10185800120E72401CAB150517E517AA1670020583
:101868001614F9120D63FF1219C6121993051C807C
:04187800D0021B94EB
:10157400042C00000000013100013200013300019D
:101584002500C103C104C105012900012B0001305C
:10159400000124000126000127000134000122007B
:0915A400012300012800012A00C6
:101ADA0043B10853B2F7D28353E9DF43EA0853EB21
:051AEA00F7439B0222FE
:03003B0002120F9F
:10120F00C0E0C0F0C083C082C0D075D000C000C0A5
:0D121F0001C002C003C004C005C006C00726
:10122C00750800750900750A00E5EC20E30302124D
:10123C00D753ECF7539BFD0508050A7F017E007D13
:10124C00007C0012187C3083F0750A00050A7F01BF
:10125C007E007D007C0012187C2083F0750A0075DE
:10126C0008007509003083FD7F017E007D007C0045
:10127C0012187C30831C742C2508F8C000E6FFC3C0
:10128C0013D000F6742C2508F8E64480F630831051
:10129C0080FB742C2508F8C000E6FFC313D000F6C1
:1012AC000509E509C3940840BC0508E508C3940486
:1012BC0040B03083FD121AEF7F1E7E007D007C0053
:0E12CC0012187C121B9E439B02800375EC00DF
:1012DA00D007D006D005D004D003D002D001D00068
:0B12EA00D0D0D082D083D0F0D0E03212
:101AEF00E52FF4B52E09852E31121B9ED20322E469
:051AFF00F531C20322D5
:091B9E007F04782CE4F608DFFC5A
:011BA700221B
:100EBC00E4F511200303020FEF433280E531652581
:100ECC006003E4F5330533E53220E003020F605391
:100EDC0032FCE531120E960F08100F10110F421252
:100EEC000F4A130F52140F5A150F18160F20410FDB
:100EFC00284A0F304B0F384C00000F60756080751E
:100F0C0061018050756080756102804875608075E4
:100F1C0061038040756080756140803875608075B4
:100F2C00610480307560807561058028756080056E
:100F3C0034756106801E7560807561208016756041
:100F4C0080756130800E7560807561F0800675600B
:100F5C0080756107E53220E103020FEAE531120EDC
:100F6C00960F92100F9A110FCC120FD4130FDC1492
:100F7C000FE4150FA2160FAA410FB24A0FBA4B0F6E
:100F8C00C24C00000FEA756080756101805075607D
:100F9C008075610280487560807561038040756062
:100FAC008075614080387560807561048030756033
:100FBC008075610580287560800534756106801E1A
:100FCC007560807561208016756080756130800E4B
:100FDC007560807561F08006756080756107C2036D
:030FEC0085312527
:010FEF0022DF
:10191200FFAD83000088FFAD86000000FFAD8600AA
:101922000001FFAD86000000FFAD83000099FFAD0E
:1019320086000000FFAD86000001FFAD86000000BA
:10194200FFAD830000AAFFAD86000000FFAD860058
:081952000001FFAD860000005A
:0E15AD00013C01013D0101410F033E01D09AB6
:10112300D291E53D24FE60521470030211C12402E2
:101133006003021203E4F511F512AE11AF127C0045
:101143007D03120D7C74FA2FF974033EFA7BFFE4DE
:10115300751B03F51AF519F5187FE6121830121BE3
:1011630009121B090512E51270020511C39434E537
:10117300116480948140C3021203E4F511F512AEA9
:1011830011AF127C007D03120D7C74962FF9740746
:101193003EFA7BFFE4751B03F51AF519F5187FE694
:1011A300121830121B09121B090512E512700205F1
:1011B30011C39434E5116480948140C38042E4F503
:1011C30011F512AE11AF127C007D03120D7C745E1B
:1011D3002FF974003EFA7BFFE4751B03F51AF5192A
:1011E300F5187FE6121830121B09121B090512E5C8
:1011F3001270020511C39434E5116480948140C3D5
:0B1203001213A1754116120B2CC291B2
:01120E0022BD
:100B2C00E541B41F004003020D62900B3DF82828EC
:100B3C0073020B9A020BA1020BA9020BB1020BB9A7
:100B4C00020BC1020BCF020BDF020BEF020BFF02F9
:100B5C000C0F020C1F020C2F020C3F020C4F020C4C
:100B6C005F020C6F020C7F020C8F020C9F020CAF09
:100B7C00020CBF020CCF020CDE020CED020CFC02CC
:100B8C000D0B020D1A020D29020D38020D47E4F56A
:100B9C003EF5408026E4F53E754050801EE4F53E5F
:100BAC007540648016E4F53E754096800EE4F53E83
:100BBC007540C88006E4F53E7540FAFB7A00793E34
:100BCC00020D54753E017540137B007A00793EE4AA
:100BDC00020D54753E0175402C7B007A00793EE481
:100BEC00020D54753E017540317B007A00793EE46C
:100BFC00020D54753E017540367B007A00793EE457
:100C0C00020D54753E0175403B7B007A00793EE441
:100C1C00020D54753E017540407B007A00793EE42C
:100C2C00020D54753E017540457B007A00793EE417
:100C3C00020D54753E0175404A7B007A00793EE402
:100C4C00020D54753E0175404F7B007A00793EE4ED
:100C5C00020D54753E017540547B007A00793EE4D8
:100C6C00020D54753E017540597B007A00793EE4C3
:100C7C00020D54753E0175405E7B007A00793EE4AE
:100C8C00020D54753E017540637B007A00793EE499
:100C9C00020D54753E017540687B007A00793EE484
:100CAC00020D54753E0175406D7B007A00793EE46F
:100CBC00020D54753E017540727B007A00793EE45A
:100CCC00020D54753E017540777B007A00793EE445
:100CDC008076753E0175407C7B007A00793EE4801D
:100CEC0067753E017540817B007A00793EE480583F
:100CFC00753E017540867B007A00793EE48049752B
:100D0C003E0175408B7B007A00793EE4803A753E5B
:100D1C00017540907B007A00793EE4802B753E0192
:100D2C007540957B007A00793EE4801C753E017518
:100D3C0040987B007A00793EE4800D753E01754049
:100D4C009A7B007A00793EE4751B03F51AF519F5C8
:070D5C00187FE61218302297
:011BD00022F2
:031BCD00021123DF
:1013A100E53C64017031F513E51375F003A42412D3
:1013B100F9741935F0FA7BFFE4751B03F51AF51979
:1013C100F5187FE6121830121B09121B090513E5E7
:1013D10013C3940840D222E53C64027031F513E551
:1013E1001375F003A4242AF9741935F0FA7BFFE48C
:1013F100751B03F51AF519F5187FE6121830121B43
:1014010009121B090513E513C3940840D222E53CD8
:1014110064037030F513E51375F003A42442F974E5
:101421001935F0FA7BFFE4751B03F51AF519F51868
:101431007FE6121830121B09121B090513E513C3AD
:04144100940840D2F9
:011445002284
:101AA900308516E56124FE600A14600A2402700973
:0A1AB900021B3D021B74121B682281
:101B1800D287D2867F3C7E00121A8FC287C286E4A3
:031B2800F51D2286
:101B3D00D287D2867F197E00121A8FC287C2862263
:0C1B6800D2877F197E00121A8FC28722DC
:0C1B7400D2867F197E00121A8FC28622D2
:030000000212F5F4
:1012F50075C7AA75C75575FD5A75C7AA75C75575BA
:10130500FDA5787FE4F6D8FD9000007FFF7E03E41D
:0C131500F0A3DFFCDEFA75816102135CBE
:101321000214D7E493A3F8E493A34003F68001F2F7
:1013310008DFF48029E493A3F85407240CC8C333CD
:10134100C4540F4420C8834004F456800146F6DF9C
:10135100E4800B010204081020408090154AE47ECD
:10136100019360BCA3FF543F30E509541FFEE49391
:10137100A360010ECF54C025E060A840B8E493A358
:10138100FAE493A3F8E493A3C8C582C8CAC583CA83
:10139100F0A3C8C582C8CAC583CADFE9DEE780BE3B
:0115BB00002F
:100D6300BB010689828A83E0225002E722BBFE028E
:090D7300E32289828A83E49322C1
:100D7C00EF8DF0A4A8F0CF8CF0A428CE8DF0A42E8B
:020D8C00FE2245
:100D8E0075F008758200EF2FFFEE33FECD33CDCC1C
:100D9E0033CCC58233C5829BED9AEC99E58298409F
:100DAE000CF582EE9BFEED9AFDEC99FC0FD5F0D67C
:100DBE00E4CEFBE4CDFAE4CCF9A88222B800C1B9A6
:100DCE000059BA002DEC8BF084CFCECDFCE5F0CBE4
:100DDE00F97818EF2FFFEE33FEED33FDEC33FCEB1D
:100DEE0033FB10D703994004EB99FB0FD8E5E4F9D8
:100DFE00FA227818EF2FFFEE33FEED33FDEC33FCC5
:100E0E00C933C910D7059BE99A4007EC9BFCE99AB8
:100E1E00F90FD8E0E4C9FAE4CCFB2275F010EF2FFD
:100E2E00FFEE33FEED33FDCC33CCC833C810D707FD
:100E3E009BEC9AE899400AED9BFDEC9AFCE899F838
:0E0E4E000FD5F0DAE4CDFBE4CCFAE4C8F922CB
:100E5C00EB9FF5F0EA9E42F0E99D42F0EC6480C80D
:060E6C0064809845F022AD
:100E7200EB9FF5F0EA9E42F0E99D42F0E89C45F0D6
:010E8200224D
:100E8300E8600FECC313FCED13FDEE13FEEF13FF4D
:030E9300D8F12271
:100E9600D083D082F8E4937012740193700DA3A3EB
:100EA60093F8740193F5828883E4737402936860FF
:060EB600EFA3A3A380DFFF
:00000001FF
