:1013E400E4F50FF5101219ADE50FB408005066903E
:1013F40013FAF828287302141202141A021422028F
:10140400142A02143202143A021449021451121515
:1014140096750F0180D212195F750F0280CA1218D7
:10142400D8750F0380C2121941750F0480BA1218BF
:10143400FD750F0580B2E5266006121358E4F52603
:10144400750F0680A312145E750F07809B1212C7D6
:0A145400E4F50F8093E4F50F808E9D
:0D1A45007596307597307F027E000219798A
:10192200E4F5B1F5B2F5B3F5B4F5ACF5AD53B3FEEC
:0F19320043B401C290C285F535753620C2042238
:1019AD00121A45121922121A1512003E1219C412DA
:0719BD001A6AD2AFD28C229E
:0717B40002350000013400C2
:10159600E53630E425300422C2AFD291D2905336DC
:1015A600EF4336207F147E00121979D2AFD28C43D6
:1015B6003602152F12195FC29122E53630E5242036
:1015C6000421C2AFD291C2905336DF433610D28087
:1015D600D282D281D297D296D2957F1E7E001219E0
:0415E60079D2AF22E5
:1018D800E53630E01F5336FEC285052EE52ED3943B
:1018E800034005752E018007E52EB40302D2851248
:0518F8001222D20522BE
:10195F00E53630E1145336FD052FE52FD3940340C0
:0A196F0003752F01120EBCD20522F1
:10194100E53630E2185336FBE533C3941E40047587
:0E195100331E220533120B2CD20575340122F1
:1018FD00E53630E31F5336F7E533D394004007E563
:10190D0033D3941E4004E4F533221533120B2CD23D
:05191D000575340122F4
:03003800B2912260
:1012C700309108309005753401D2052005030213CB
:1012D70057E534600DD280D282D2817F047E00121E
:1012E7001979E52EB4010DC280D282D2817F027EA8
:1012F70000121979E52EB4020DD280C282D2817F05
:10130700027E00121979E52EB4030DD280D282C273
:10131700817F027E00121979E52FB4010DC297D2A1
:1013270096D2957F027E00121979E52FB4020DD26D
:1013370097C296D2957F027E00121979E52FB403E2
:101347000DD297D296C2957F027E00121979C205F7
:011357002273
:01005A002283
:1018440053B1BF53B2BF53B17F53B27F7598504366
:101854008920438780438E1053C4DFAB07AA06A9AF
:1018640005A8047F407E427D0F7C00120DCAEF0460
:09187400F404F58DD28ED2992204
:1014C9008F3B8E3A8D398C3853B1BF53B2BF53B16C
:1014D9007F53B27F75985043878053C4F843C42023
:1014E900AB3BAA3AA939A8387F407E427D0F7C00E0
:1014F900120DCAC374FF9FFF74FF9EFEE49DFDE4B5
:101509009CFC7808120E838FC6AB3BAA3AA939A86E
:10151900387F407E427D0F7C00120DCAC374FF9F45
:09152900FF8FC543C408D29922CA
:070003003098FDAF99C2988F
:01000A0022D3
:081A9B00C2998F993099FD22D8
:101532008F3F8E3E8D3D8C3C53B1FB53B2FB53B378
:10154200BF53B4BF75F85075C40853C4DFAB3FAA8C
:101552003EA93DA83C7F407E427D0F7C00120DCA11
:10156200C374FF9FFF74FF9EFEE49DFDE49CFC7824
:1015720008120E838FC6AB3FAA3EA93DA83C7F400E
:101582007E427D0F7C00120DCAC374FF9FFF8FC580
:0415920043C4082224
:071AA30030F8FDAF9AC2F814
:011AAA002219
:081AAB00C2F98F9A30F9FD2207
:10197900EF4E6015E4FDFC0DBD00010CBC38F8BD4F
:0919890054F5EF1F70EA1E80E71F
:011992002232
:10171E008F0E8E0D8D0C8C0B538EEF438910D28E47
:10172E00E4FFFEFDFCAB0EAA0DA90CA80BC3120E16
:10173E00726025758BCA758DFA308FFDC28FE50EDE
:10174E0024FFF50EE50D34FFF50DE50C34FFF50C19
:0B175E00E50B34FFF50B80C8C28E22A3
:101769008F438E428D418C40538EEF438910D28E28
:10177900E4FFFEFDFCAB43AA42A941A840C3120EF7
:10178900726025758BEA758DCB308FFDC28FE5436D
:1017990024FFF543E54234FFF542E54134FFF541C5
:0B17A900E54034FFF54080C8C28E22EE
:1015EA008F478E468D458C4453C9BF53C9DF43C9C3
:1015FA0010D2CAE4FFFEFDFCAB47AA46A945A8449F
:10160A00C3120E72602575CC3075CDF830CFFDC28D
:10161A00CFE54724FFF547E54634FFF546E545346F
:0E162A00FFF545E54434FFF54480C8C2CA22EE
:101638008F4B8E4A8D498C4875C40743C408E4FF14
:10164800FEFDFCAB4BAA4AA949A848C3120E72601A
:101658002875C52C75C6CFE5C430E4FB53C4EFE547
:101668004B24FFF54BE54A34FFF54AE54934FFF5CD
:0D16780049E54834FFF54880C553C4F7220A
:101685008F4F8E4E8D4D8C4C75C40743C408E4FFB7
:10169500FEFDFCAB4FAA4EA94DA84CC3120E7260BD
:1016A5002875C5D875C6FFE5C430E4FB53C4EFE51E
:1016B5004F24FFF54FE54E34FFF54EE54D34FFF56C
:0D16C5004DE54C34FFF54C80C553C4F722B1
:0C17BB00015100015300015200015000D8
:0D1A3700E4FFC2EFD2EE30EFFDAFC305516A
:011A4400227F
:10145E00E5526066E553120E9614A70114A7021406
:10146E00A70314AC0414B10514B60614C0071493E4
:10147E0010149D2014A230149840148FF000001404
:10148E00C5B2048032433602802D43360180284394
:10149E0036048023433608801E1219938019752F47
:1014AE00018008752F028003752F03120EBCD20522
:0B14BE008005120038D205E4F5522230
:10003E0053B1EF53B2EF53E8F043E80543B1105319
:0C004E00B2EFE4F5F643F62043E1012296
:03005B00021A92F4
:091A9200C2EF85C3507552013208
:1017C70002230000012700C102C100C101C10301BA
:0817D70022000126000125009B
:101A1500538EF75389F0438901758CCB758AEAD2C9
:021A2500A922F4
:03000B00020FA839
:100FA800C0E0C0F0C083C082C0D075D000C000C00F
:100FB80001C002C003C004C005C006C007C28C75CA
:100FC8008CEA758AEA05220525E525D394144003A1
:100FD800752601E522D394055003021073121A37BF
:100FE8007523008F24852427E527C394FD5079E5D0
:100FF8002794B0400C7552017553F0C200C20180AD
:1010080067E527D394904016755201755320200048
:10101800077F1E7E00121979D200C201804AE52797
:10102800D3947040167552017553302001077F1E06
:101038007E00121979D201C200802DE527D3945081
:10104800400E755201755340C200C2017F1E8013C5
:10105800E527D394304011755201755310C200C270
:10106800017F0F7E00121979752200D28CD007D02B
:1010780006D005D004D003D002D001D000D0D0D003
:0810880082D083D0F0D0E032E9
:10005E0000A50000A50000C30000A41100000000D0
:10006E000000000000101D3F000000000000000016
:10007E00000000000000000000007FFFFF000000F5
:10008E000000000000000000000000007FFFFF00E5
:10009E00C80083C4D5FFABFB241009FFABFA0800E0
:1000AE0009FFABFA000009FFABFBA41829FFAD84D2
:1000BE00000018FFAD85001FFFFFAD81001212FF7B
:1000CE00AD82001414FFAD83000088FFAD80005494
:1000DE0054FFAD87005454FFAD86000000FFAD867F
:1000EE00000001FFAD8600000000C20000C97A00CA
:1000FE00DF1E00DB7800DB7800C70000E00A00D5C9
:10010E005300E33E00CF0000E17000CB0000E22F71
:10011E0000D96200E52F00E47000D73001D09A00BC
:10012E00C60100DD0100D40A00DA0600DC0000A1E1
:10013E000500000000000400002700001600006B00
:10014E0000D80000A105000001000000000017000B
:10015E00003A00007B00D80000A10500000200005C
:10016E000300007C00003A00000000D80000A1054A
:10017E0000000300000000002300007F0000630069
:10018E00D80000A1050000040000000000310000AE
:10019E000D00002A00D80000A10500000500000097
:1001AE0000005600000D00003B00D80000A1050025
:1001BE00000600000000004400003A00004A00D88B
:1001CE000000A105000007000000000066000024EA
:1001DE0000001600D80000A1050000080000000075
:1001EE00005C00002400001D00D80000A1050000E6
:1001FE000900000000006D00003A00002500D80044
:10020E0000CF0100D10000D10900D11200D11B0096
:10021E00D12400D12D00D13600D13F00D14800D1DC
:10022E004C00D10C00CF0000D21300CF0000D32120
:10023E0000D61900CF0000E86100E94700CF00FFAB
:10024E00ABF30000C1FFABF4000001FFABF5301AB9
:10025E0048FFABF620EE7DFFABF7029078FFABF4D4
:10026E00000002FFABF5101A4AFFABF621E60006BE
:10027E00AA0600A27B61F4000000906170000002EB
:10028E00473C0A00380A0064F40000013460F400B0
:10029E000001DA05F420FFFFFF0464A0204C0020CB
:1002AE00480044B8000CC4A000001657F4007FF7B5
:1002BE00055F5C005F580057F4007FFF385F5C00FD
:1002CE005F5800205C0020580057F4007FFFBC5F91
:1002DE005C005F580057F4007FC7295F5C005F58D1
:1002EE00000AF08000007857F4007FF63A5F5C0059
:1002FE005F580057F4007FFF275F5C005F580020B7
:10030E005C0020580057F4007FFFB65F5C005F581A
:10031E000057F4007FC2235F5C005F580054F0006A
:10032E00FFFFF10C1EE20140C60000070140C500B0
:10033E0000010AF0A200008961F40000CDAC6170EA
:10034E000000021461F40000C8326170000001FF69
:10035E0060F4000000986070000001F80BF080005F
:10036E00009800000C0BF08000D36846F4004DF8A6
:10037E00F074F40000001E4E6C0000000C55BE0020
:10038E000140CEFFFF3F30FF0004CDCD20001B22E9
:10039E00090000000B0D104A00000A0A9DA1000082
:1003AE009F22090000000B0D104A0000040A9D81D7
:1003BE000000A508451A56F4000003FF200062084D
:1003CE00CC1A07F02D00003E57F0000002AC45F4A9
:1003DE000000000245F46AFF0FFF20006E5570000A
:0C03EE000002AC00000C00AC0000850018
:1007960000A50000A50000C30000A4110000000091
:1007A6000000000000101D3F0000000000000000D7
:1007B600000000000000000000007FFFFF000000B6
:1007C6000000000000000000000000007FFFFF00A6
:1007D600C80083C4D5FFABFB241009FFABFA0800A1
:1007E60009FFABFA000009FFABFBA41829FFAD8493
:1007F600000018FFAD85001FFFFFAD81001212FF3C
:10080600AD82001414FFAD83000088FFAD80005454
:1008160054FFAD87005454FFAD86000000FFAD863F
:10082600000001FFAD8600000000C20000C978008C
:10083600DF1E00DB7800DB7800C70000E00A00D589
:100846005300E33E00CF0400E17000CB0000E22F2E
:1008560000D97500E52F00E47000D73001D09A006A
:10086600C60100DD0100D40000DA0600DC0000A1AC
:100876000500000000000400001B00001600003BFD
:1008860000D80000A10500000100000000001200D1
:10089600003A00003F00D80000A105000002000059
:1008A6000000001800003A00005D00D80000A10515
:1008B60000000300000000002100000D00002100E0
:1008C600D80000A10500000400000000003200006E
:1008D6000D00003900D80000A10500000500000049
:1008E60000006800003A00002F00D80000A10500B3
:1008F600000600000000006E00003A00004100D82B
:100906000000A105000007000000000065000024AB
:1009160000002600D80000A1050000080000030022
:10092600007D00000D00000D00D80000A1050000AC
:100936000900000000006100000D00003F00D80023
:1009460000CF0100D10000D10900D11200D11B0057
:10095600D12400D12D00D13600D13F00D14800D19D
:100966004C00D11400CF0400D21400CF0400CF04F1
:1009760000E85800E94E00CF04FFABF30000C1FFCA
:10098600ABF4000001FFABF5301A48FFABF620EEE2
:100996007DFFABF7029078FFABF4000002FFABF5EA
:1009A600101A4AFFABF621E60006AA0600A27B61F2
:1009B600F4000000906170000002473C0A00380A0B
:1009C6000064F40000013460F4000001DA05F4204C
:1009D600FFFFFF0464A0204C0020480044B8000C30
:1009E600C4A000001657F4007FF7055F5C005F584F
:1009F6000057F4007FFF385F5C005F5800205C0002
:100A060020580057F4007FFFBC5F5C005F5800571A
:100A1600F4007FC7295F5C005F58000AF080000081
:100A26007857F4007FF63A5F5C005F580057F40091
:100A36007FFF275F5C005F5800205C00205800574E
:100A4600F4007FFFB65F5C005F580057F4007FC27A
:100A5600235F5C005F580054F000FFFFF10C1EE2BC
:100A66000140C60000070140C50000010AF0A200CF
:100A7600008961F40000CDAC61700000021461F4DD
:100A86000000C8326170000001FF60F400000098A9
:100A96006070000001F80BF08000009800000C0B5D
:100AA600F08000D36846F4004DF8F074F4000000BE
:100AB6001E4E6C0000000C55BE000140CEFFFF3FED
:100AC60030FF0004CDCD20001B22090000000B0DD5
:100AD600104A00000A0A9DA100009F22090000009A
:100AE6000B0D104A0000040A9D810000A508451A56
:100AF60056F4000003FF20006208CC1A07F02D0010
:100B0600003E57F0000002AC45F40000000245F438
:100B16006AFF0FFF20006E5570000002AC00000C4B
:060B260000AC0000850098
:1003FA0000A50000A50000C30000A4110000000031
:10040A000000000000101D3F000000000000000076
:10041A00000000000000000000007FFFFF00000055
:10042A000000000000000000000000007FFFFF0045
:10043A00C80083C4D5FFABFB241009FFABFA080040
:10044A0009FFABFA000009FFABFBA41829FFAD8432
:10045A00000018FFAD85001FFFFFAD81001212FFDB
:10046A00AD82001414FFAD83000088FFAD800054F4
:10047A0054FFAD87005454FFAD86000000FFAD86DF
:10048A00000001FFAD8600000000C20000C97A002A
:10049A00DF1E00DB7800DB7800C70000E00A00D529
:1004AA005900E35000CF0000E17000CB0000E22FBA
:1004BA0000D96F00E52F00E47000D73001D09A0010
:1004CA00C60100DD0100D40000DA0000DC0000A152
:1004DA000500000000000400001E00001600006B6A
:1004EA0000D80000A1050000010000000000000083
:1004FA00003A00003F00D80000A1050000020000F9
:10050A000000002B00003A00002B00D80000A105D3
:10051A0000000300000000002400003A00005E0012
:10052A00D80000A105000004000000000037000008
:10053A000D00003000D80000A105000005000000F1
:10054A0000006E00000D00002B00D80000A105007D
:10055A00000600000000004300003A00004500D8F1
:10056A000000A10500000700000000006500000D62
:10057A0000002900D80000A10500000800000000C2
:10058A00001200000D00001B00D80000A1050000A9
:10059A000900000200007000001700003D00D800AA
:1005AA0000CF0100D10000D10900D11200D11B00F7
:1005BA00D12400D12D00D13600D13F00D14800D13D
:1005CA004C00D10700CF0000D22E00CF0000D31379
:1005DA0000D60B00CF0000E85100E94800CF00FF29
:1005EA00ABF30000C1FFABF4000001FFABF5301A1A
:1005FA0048FFABF620EE7DFFABF7029078FFABF435
:10060A00000002FFABF5101A4AFFABF621E600061E
:10061A00AA0600A27B61F40000009061700000024B
:10062A00473C0A00380A0064F40000013460F40010
:10063A000001DA05F420FFFFFF0464A0204C00202B
:10064A00480044B8000CC4A000001657F4007FF715
:10065A00055F5C005F580057F4007FFF385F5C005D
:10066A005F5800205C0020580057F4007FFFBC5FF1
:10067A005C005F580057F4007FC7295F5C005F5831
:10068A00000AF08000007857F4007FF63A5F5C00B9
:10069A005F580057F4007FFF275F5C005F58002017
:1006AA005C0020580057F4007FFFB65F5C005F587B
:1006BA000057F4007FC2235F5C005F580054F000CB
:1006CA00FFFFF10C1EE20140C60000070140C50011
:1006DA0000010AF0A200008961F40000CDAC61704B
:1006EA000000021461F40000C8326170000001FFCA
:1006FA0060F4000000986070000001F80BF08000C0
:10070A00009800000C0BF08000D36846F4004DF806
:10071A00F074F40000001E4E6C0000000C55BE0080
:10072A000140CEFFFF3F30FF0004CDCD20001B2249
:10073A00090000000B0D104A00000A0A9DA10000E2
:10074A009F22090000000B0D104A0000040A9D8137
:10075A000000A508451A56F4000003FF20006208AD
:10076A00CC1A07F02D00003E57F0000002AC45F409
:10077A000000000245F46AFF0FFF20006E5570006A
:0C078A000002AC00000C00AC0000850078
:0519EE001219F3D29371
:0E19F300E4FFFE0FBF00010EEF64324E70F5F0
:011A010022C2
:041AB300C29280FC5F
:0A1A6A00D2931219F3D2940219F37B
:0A1A7400D2941219EEC2940219F385
:10187D00900000D2931219F3309423AF82AE83E41B
:10188D00FCFD7B507AC3F9F8D3120E5C4010A3E532
:10189D0082B488E4E583B413DF121AB380DAC293FD
:0318AD000219F32A
:0A1A7E00C2941219EED2940219F37B
:1018B000AD07E4FCC2931219F3ED30E704D2948033
:1018C00002C294ED25E0FD1219EE0CBC08E6C293AD
:0818D0001219F3D2940219F37E
:10000E00C2081219F3D2071219F3E4FCD20812191E
:10001E00F3ED25E0FFA207E4334FFDC2081219F3FA
:09002E000CBC08E81219F3AF053F
:0100370022A6
:0816D2008B158A168917AD077C
:1016DA00E4F51C121A74AF051218B012187DE4F55D
:1016EA001CAF1CE4FCFDFEAB1BAA1AA919A818D34F
:1016FA00120E72401CAB150517E517AA16700205E3
:10170A001614F9120D63FF1218B012187D051C8009
:04171A00D0021A7E61
:0E17DF00042800000000012C00C10A012D00AA
:1019C40043B10853B2F7D28353E9DF43EA0853EB38
:0519D400F7439B022215
:03003B0002109020
:10109000C0E0C0F0C083C082C0D075D000C000C026
:0D10A00001C002C003C004C005C006C007A7
:1010AD00750800750900750A00E5EC20E3030211CF
:1010BD005853ECF7539BFD0508050A7F017E007D13
:1010CD00007C0012171E3083F0750A00050A7F019F
:1010DD007E007D007C0012171E2083F0750A0075BE
:1010ED0008007509003083FD7F017E007D007C00C6
:1010FD0012171E30831C74282508F8C000E6FFC3A4
:10110D0013D000F674282508F8E64480F6308310D5
:10111D0080FB74282508F8C000E6FFC313D000F645
:10112D000509E509C3940840BC0508E508C3940406
:10113D0040B03083FD1219D97F1E7E007D007C00EA
:0E114D0012171E121A88439B02800375EC00D5
:10115B00D007D006D005D004D003D002D001D000E8
:0B116B00D0D0D082D083D0F0D0E03292
:1019D900E52BF4B52A09852A2C121A88D20A22E4A1
:0519E900F52CC20A22EA
:091A88007F047828E4F608DFFC75
:011A91002232
:10135800E4F511200A030213E3E52C120E96138B11
:101368001013931113C31213CB1313D31413DB15D8
:10137800139B1613A34113AB4A13B34B13BB4C0077
:101388000013E1755280755301804E755280755374
:10139800028046755280755303803E75528075539E
:1013A800408036755280755304802E75528075536F
:1013B800058026755280755306801E7552807553B8
:1013C800208016755280755330800E755280755383
:0B13D800F08006755280755307C20AB2
:0113E30022E7
:1017FC00FFAD83000088FFAD86000000FFAD8600C2
:10180C000001FFAD86000000FFAD83000099FFAD25
:10181C0086000000FFAD86000001FFAD86000000D1
:10182C00FFAD830000AAFFAD86000000FFAD86006F
:08183C000001FFAD8600000071
:0E17ED00012E01012F0101330F033001D09AAC
:100EBC00D291E52F24FE6052147003020F5A2402C3
:100ECC006003020F9CE4F511F512AE11AF127C0019
:100EDC007D03120D7C74FA2FF974033EFA7BFFE448
:100EEC00751B03F51AF519F5187FE61216D21219AF
:100EFC00F31219F30512E51270020511C39434E5CF
:100F0C00116480948140C3020F9CE4F511F512AE7C
:100F1C0011AF127C007D03120D7C74962FF97407AF
:100F2C003EFA7BFFE4751B03F51AF519F5187FE6FD
:100F3C001216D21219F31219F30512E512700205EA
:100F4C0011C39434E5116480948140C38042E4F56C
:100F5C0011F512AE11AF127C007D03120D7C745E84
:100F6C002FF974003EFA7BFFE4751B03F51AF51993
:100F7C00F5187FE61216D21219F31219F30512E5C1
:100F8C001270020511C39434E5116480948140C33E
:0B0F9C00121222753316120B2CC291AA
:010FA7002227
:100B2C00E533B41F004003020D62900B3DF82828FA
:100B3C0073020B9A020BA1020BA9020BB1020BB9A7
:100B4C00020BC1020BCF020BDF020BEF020BFF02F9
:100B5C000C0F020C1F020C2F020C3F020C4F020C4C
:100B6C005F020C6F020C7F020C8F020C9F020CAF09
:100B7C00020CBF020CCF020CDE020CED020CFC02CC
:100B8C000D0B020D1A020D29020D38020D47E4F56A
:100B9C0030F5328026E4F530753250801EE4F530A5
:100BAC007532648016E4F530753296800EE4F530BB
:100BBC007532C88006E4F5307532FAFB7A0079306C
:100BCC00020D547530017532137B007A007930E4D4
:100BDC00020D5475300175322C7B007A007930E4AB
:100BEC00020D547530017532317B007A007930E496
:100BFC00020D547530017532367B007A007930E481
:100C0C00020D5475300175323B7B007A007930E46B
:100C1C00020D547530017532407B007A007930E456
:100C2C00020D547530017532457B007A007930E441
:100C3C00020D5475300175324A7B007A007930E42C
:100C4C00020D5475300175324F7B007A007930E417
:100C5C00020D547530017532547B007A007930E402
:100C6C00020D547530017532597B007A007930E4ED
:100C7C00020D5475300175325E7B007A007930E4D8
:100C8C00020D547530017532637B007A007930E4C3
:100C9C00020D547530017532687B007A007930E4AE
:100CAC00020D5475300175326D7B007A007930E499
:100CBC00020D547530017532727B007A007930E484
:100CCC00020D547530017532777B007A007930E46F
:100CDC00807675300175327C7B007A007930E48047
:100CEC00677530017532817B007A007930E4805869
:100CFC007530017532867B007A007930E480497555
:100D0C00300175328B7B007A007930E4803A753093
:100D1C00017532907B007A007930E4802B753001BC
:100D2C007532957B007A007930E4801C7530017542
:100D3C0032987B007A007930E4800D753001753281
:100D4C009A7B007A007930E4751B03F51AF519F5D6
:070D5C00187FE61216D222F7
:011ABA002209
:031AB700020EBC60
:10122200E52E64017031F513E51375F003A424FC77
:10123200F9741735F0FA7BFFE4751B03F51AF519FB
:10124200F5187FE61216D21219F31219F30513E5F7
:1012520013C3940840D222E52E64027031F513E5DF
:101262001375F003A42414F9741835F0FA7BFFE423
:10127200751B03F51AF519F5187FE61216D2121925
:10128200F31219F30513E513C3940840D222E52E95
:1012920064037030F513E51375F003A4242CF9747C
:1012A2001835F0FA7BFFE4751B03F51AF519F518EA
:1012B2007FE61216D21219F31219F30513E513C3BE
:0412C200940840D27A
:0112C6002205
:10199300308516E55324FE600A14600A2402700998
:0A19A300021A27021A5E121A5222DD
:101A0200D287D2867F3C7E00121979C287C286E4D1
:031A1200F51D229D
:101A2700D287D2867F197E00121979C287C2862291
:0C1A5200D2877F197E00121979C287220A
:0C1A5E00D2867F197E00121979C2862200
:0300000002117674
:1011760075C7AA75C75575FD5A75C7AA75C755753A
:10118600FDA5787FE4F6D8FD9000007FFF7E03E49E
:0C119600F0A3DFFCDEFA7581530211DDCE
:1011A2000213E4E493A3F8E493A34003F68001F26C
:1011B20008DFF48029E493A3F85407240CC8C3334E
:1011C200C4540F4420C8834004F456800146F6DF1D
:1011D200E4800B01020408102040809017B4E47EE2
:1011E200019360BCA3FF543F30E509541FFEE49312
:1011F200A360010ECF54C025E060A840B8E493A3D9
:10120200FAE493A3F8E493A3C8C582C8CAC583CA03
:10121200F0A3C8C582C8CAC583CADFE9DEE780BEBB
:0117FB0000ED
:100D6300BB010689828A83E0225002E722BBFE028E
:090D7300E32289828A83E49322C1
:100D7C00EF8DF0A4A8F0CF8CF0A428CE8DF0A42E8B
:020D8C00FE2245
:100D8E0075F008758200EF2FFFEE33FECD33CDCC1C
:100D9E0033CCC58233C5829BED9AEC99E58298409F
:100DAE000CF582EE9BFEED9AFDEC99FC0FD5F0D67C
:100DBE00E4CEFBE4CDFAE4CCF9A88222B800C1B9A6
:100DCE000059BA002DEC8BF084CFCECDFCE5F0CBE4
:100DDE00F97818EF2FFFEE33FEED33FDEC33FCEB1D
:100DEE0033FB10D703994004EB99FB0FD8E5E4F9D8
:100DFE00FA227818EF2FFFEE33FEED33FDEC33FCC5
:100E0E00C933C910D7059BE99A4007EC9BFCE99AB8
:100E1E00F90FD8E0E4C9FAE4CCFB2275F010EF2FFD
:100E2E00FFEE33FEED33FDCC33CCC833C810D707FD
:100E3E009BEC9AE899400AED9BFDEC9AFCE899F838
:0E0E4E000FD5F0DAE4CDFBE4CCFAE4C8F922CB
:100E5C00EB9FF5F0EA9E42F0E99D42F0EC6480C80D
:060E6C0064809845F022AD
:100E7200EB9FF5F0EA9E42F0E99D42F0E89C45F0D6
:010E8200224D
:100E8300E8600FECC313FCED13FDEE13FEEF13FF4D
:030E9300D8F12271
:100E9600D083D082F8E4937012740193700DA3A3EB
:100EA60093F8740193F5828883E4737402936860FF
:060EB600EFA3A3A380DFFF
:00000001FF
