:1013A000E4F50FF510121508E50F1460121460171C
:1013B00014601C240370F112143A750F0180E912B5
:1013C00012E2750F0280E1121328750F0380D91203
:0713D000140AE4F50F80D1BF
:0D15AD007596307597307F027E000214EEB7
:1014D400E4F5B1F5B2F5B3F5B4F5ACF5AD53B3FE3F
:0A14E40043B401C290C202C200220C
:101508001215AD1214D412158D1214B812154F12EB
:0915180015BAD2AFD28CD2CA225E
:10143A0030021A300017D291D290C202C280C297EB
:10144A007F027E001214EE1210D5C2912220020BE6
:0C145A00200008C290D202D280D297225B
:06160200300902B2912242
:1012E200300142E5277006C280D282D281E527B45E
:1012F2000106D280C282D281E527B40206D280D210
:1013020082C281E5287006C297D296D295E528B4AA
:101312000106D297C296D295E528B40206D297D298
:0613220096C295C20122F3
:01160C0022BB
:1013670053B1BF53B2BF53B17F53B27F7598504348
:101377008920438780438E1053C4DFAB07AA06A991
:1013870005A8047F407E427D0F7C00120B93EF047B
:09139700F404F58DD28ED29922E6
:100F20008F1F8E1E8D1D8C1C53B1BF53B2BF53B18A
:100F30007F53B27F75985043878053C4F843C420D1
:100F4000AB1FAA1EA91DA81C7F407E427D0F7C00FE
:100F5000120B93C374FF9FFF74FF9EFEE49DFDE49C
:100F60009CFC7808120C4C8FC6AB1FAA1EA91DA8AA
:100F70001C7F407E427D0F7C00120B93C374FF9F49
:090F8000FF8FC543C408D2992279
:070003003098FDAF99C2988F
:01000A0022D3
:0815E200C2998F993099FD2296
:100F89008F2F8E2E8D2D8C2C53B1FB53B2FB53B367
:100F9900BF53B4BF75F85075C40853C4DFAB2FAA4B
:100FA9002EA92DA82C7F407E427D0F7C00120B9329
:100FB900C374FF9FFF74FF9EFEE49DFDE49CFC78D3
:100FC90008120C4C8FC6AB2FAA2EA92DA82C7F4036
:100FD9007E427D0F7C00120B93C374FF9FFF8FC568
:040FE90043C40822D3
:0715EA0030F8FDAF9AC2F8D2
:0115F10022D7
:0815F200C2F98F9A30F9FD22C5
:1014EE00EF4E6015E4FDFC0DBD00010CBC38F8BDDF
:0914FE0054F5EF1F70EA1E80E7AF
:0115070022C1
:10116E008F0E8E0D8D0C8C0B538EF7438901D28C06
:10117E00E4FFFEFDFCAB0EAA0DA90CA80BC3120CCE
:10118E003B6025758A7E758CFF308DFDC28DE50E18
:10119E0024FFF50EE50D34FFF50DE50C34FFF50CCF
:0B11AE00E50B34FFF50B80C8C28C225B
:1011B9008F168E158D148C13538EF7438901D28C9B
:1011C900E4FFFEFDFCAB16AA15A914A813C3120C63
:1011D9003B6025758ACA758CFA308DFDC28DE5167E
:1011E90024FFF516E51534FFF515E51434FFF5145C
:0B11F900E51334FFF51380C8C28C2200
:101204008F338E328D318C30538EEF438910D28ED2
:10121400E4FFFEFDFCAB33AA32A931A830C3120CA3
:101224003B6025758BCA758DFA308FFDC28FE5330F
:1012340024FFF533E53234FFF532E53134FFF5317F
:0B124400E53034FFF53080C8C28E2278
:10124F008F378E368D358C34538EEF438910D28E77
:10125F00E4FFFEFDFCAB37AA36A935A834C3120C48
:10126F003B6025758BEA758DCB308FFDC28FE537CF
:10127F0024FFF537E53634FFF536E53534FFF53520
:0B128F00E53434FFF53480C8C28E2225
:100FED008F3B8E3A8D398C3853C9BF53C9DF43C9F6
:100FFD0010D2CAE4FFFEFDFCAB3BAA3AA939A838D2
:10100D00C3120C3B602575CC3075CDF830CFFDC2C9
:10101D00CFE53B24FFF53BE53A34FFF53AE53934AE
:0E102D00FFF539E53834FFF53880C8C2CA2215
:10103B008F3F8E3E8D3D8C3C75C40743C408E4FF47
:10104B00FEFDFCAB3FAA3EA93DA83CC3120C3B6086
:10105B002875C52C75C6CFE5C430E4FB53C4EFE54A
:10106B003F24FFF53FE53E34FFF53EE53D34FFF50C
:0D107B003DE53C34FFF53C80C553C4F72231
:101088008F438E428D418C4075C40743C408E4FFEA
:10109800FEFDFCAB43AA42A941A840C3120C3B6029
:1010A8002875C5D875C6FFE5C430E4FB53C4EFE521
:1010B8004324FFF543E54234FFF542E54134FFF5AB
:0D10C80041E54034FFF54080C553C4F722D8
:08000E00014900C1080148008E
:0D159F00E4FFC2EFD2EE30EFFDAFC305490F
:0115AC00221C
:10140A0030082CE5487002B200E548B41005120015
:10141A003ED201E548B42003121521E548B4300351
:10142A00121538E548B44005120C5FD201C20822F1
:1014B80053B1EF53B2EF53E8F043E80543B110538B
:0C14C800B2EFE4F5F643F62043E1012208
:03005B000215FA91
:0815FA00C2EF85C348D208329C
:0E00160002450000014700C103C1040144007F
:10158D00538EF75389F0438901758CCB758AEAD256
:02159D00A92281
:03000B00020E885A
:100E8800C0E0C0F0C083C082C0D075D000C000C030
:100E980001C002C003C004C005C006C007C28C75EB
:100EA8008CEA758AEA0544E544D39405404D121549
:100EB8009F7545008F46854647E547C394FD5038E2
:100EC800E54794B04004B200802EE547D3949040A3
:100ED80004B2978023E547D394704004B2968018F3
:100EE800E547D3945040060527D201800BE547D348
:100EF800943040040528D201754400D28CD007D024
:100F080006D005D004D003D002D001D000D0D0D074
:080F180082D083D0F0D0E0325A
:10005E0000A50000A50000C30000A41100000000D0
:10006E000000000000101D3F000000000000000016
:10007E00000000000000000000007FFFFF000000F5
:10008E000000000000000000000000007FFFFF00E5
:10009E00C80083C4D5FFABFB241009FFABFA0800E0
:1000AE0009FFABFA000009FFABFBA41829FFAD84D2
:1000BE00000018FFAD85001FFFFFAD81001212FF7B
:1000CE00AD82001414FFAD83000088FFAD80005494
:1000DE0054FFAD87005454FFAD86000000FFAD867F
:1000EE00000001FFAD8600000000C20000C97A00CA
:1000FE00DF1E00DB7800DB7800C70000E00A00D5C9
:10010E005300E33E00CF0000E17000CB0000E22F71
:10011E0000D96200E52F00E47000D73001D09A00BC
:10012E00C60100DD0100D40A00DA0600DC0000A1E1
:10013E000500000000000400002700001600006B00
:10014E0000D80000A105000001000000000017000B
:10015E00003A00007B00D80000A10500000200005C
:10016E000300007C00003A00000000D80000A1054A
:10017E0000000300000000002300007F0000630069
:10018E00D80000A1050000040000000000310000AE
:10019E000D00002A00D80000A10500000500000097
:1001AE0000005600000D00003B00D80000A1050025
:1001BE00000600000000004400003A00004A00D88B
:1001CE000000A105000007000000000066000024EA
:1001DE0000001600D80000A1050000080000000075
:1001EE00005C00002400001D00D80000A1050000E6
:1001FE000900000000006D00003A00002500D80044
:10020E0000CF0100D10000D10900D11200D11B0096
:10021E00D12400D12D00D13600D13F00D14800D1DC
:10022E004C00D10C00CF0000D21300CF0000D32120
:10023E0000D61900CF0000E86100E94700CF00FFAB
:10024E00ABF30000C1FFABF4000001FFABF5301AB9
:10025E0048FFABF620EE7DFFABF7029078FFABF4D4
:10026E00000002FFABF5101A4AFFABF621E60006BE
:10027E00AA0600A27B61F4000000906170000002EB
:10028E00473C0A00380A0064F40000013460F400B0
:10029E000001DA05F420FFFFFF0464A0204C0020CB
:1002AE00480044B8000CC4A000001657F4007FF7B5
:1002BE00055F5C005F580057F4007FFF385F5C00FD
:1002CE005F5800205C0020580057F4007FFFBC5F91
:1002DE005C005F580057F4007FC7295F5C005F58D1
:1002EE00000AF08000007857F4007FF63A5F5C0059
:1002FE005F580057F4007FFF275F5C005F580020B7
:10030E005C0020580057F4007FFFB65F5C005F581A
:10031E000057F4007FC2235F5C005F580054F0006A
:10032E00FFFFF10C1EE20140C60000070140C500B0
:10033E0000010AF0A200008961F40000CDAC6170EA
:10034E000000021461F40000C8326170000001FF69
:10035E0060F4000000986070000001F80BF080005F
:10036E00009800000C0BF08000D36846F4004DF8A6
:10037E00F074F40000001E4E6C0000000C55BE0020
:10038E000140CEFFFF3F30FF0004CDCD20001B22E9
:10039E00090000000B0D104A00000A0A9DA1000082
:1003AE009F22090000000B0D104A0000040A9D81D7
:1003BE000000A508451A56F4000003FF200062084D
:1003CE00CC1A07F02D00003E57F0000002AC45F4A9
:1003DE000000000245F46AFF0FFF20006E5570000A
:0C03EE000002AC00000C00AC0000850018
:1007960000A50000A50000C30000A4110000000091
:1007A6000000000000101D3F0000000000000000D7
:1007B600000000000000000000007FFFFF000000B6
:1007C6000000000000000000000000007FFFFF00A6
:1007D600C80083C4D5FFABFB241009FFABFA0800A1
:1007E60009FFABFA000009FFABFBA41829FFAD8493
:1007F600000018FFAD85001FFFFFAD81001212FF3C
:10080600AD82001414FFAD83000088FFAD80005454
:1008160054FFAD87005454FFAD86000000FFAD863F
:10082600000001FFAD8600000000C20000C978008C
:10083600DF1E00DB7800DB7800C70000E00A00D589
:100846005300E33E00CF0400E17000CB0000E22F2E
:1008560000D97500E52F00E47000D73001D09A006A
:10086600C60100DD0100D40000DA0600DC0000A1AC
:100876000500000000000400001B00001600003BFD
:1008860000D80000A10500000100000000001200D1
:10089600003A00003F00D80000A105000002000059
:1008A6000000001800003A00005D00D80000A10515
:1008B60000000300000000002100000D00002100E0
:1008C600D80000A10500000400000000003200006E
:1008D6000D00003900D80000A10500000500000049
:1008E60000006800003A00002F00D80000A10500B3
:1008F600000600000000006E00003A00004100D82B
:100906000000A105000007000000000065000024AB
:1009160000002600D80000A1050000080000030022
:10092600007D00000D00000D00D80000A1050000AC
:100936000900000000006100000D00003F00D80023
:1009460000CF0100D10000D10900D11200D11B0057
:10095600D12400D12D00D13600D13F00D14800D19D
:100966004C00D11400CF0400D21400CF0400CF04F1
:1009760000E85800E94E00CF04FFABF30000C1FFCA
:10098600ABF4000001FFABF5301A48FFABF620EEE2
:100996007DFFABF7029078FFABF4000002FFABF5EA
:1009A600101A4AFFABF621E60006AA0600A27B61F2
:1009B600F4000000906170000002473C0A00380A0B
:1009C6000064F40000013460F4000001DA05F4204C
:1009D600FFFFFF0464A0204C0020480044B8000C30
:1009E600C4A000001657F4007FF7055F5C005F584F
:1009F6000057F4007FFF385F5C005F5800205C0002
:100A060020580057F4007FFFBC5F5C005F5800571A
:100A1600F4007FC7295F5C005F58000AF080000081
:100A26007857F4007FF63A5F5C005F580057F40091
:100A36007FFF275F5C005F5800205C00205800574E
:100A4600F4007FFFB65F5C005F580057F4007FC27A
:100A5600235F5C005F580054F000FFFFF10C1EE2BC
:100A66000140C60000070140C50000010AF0A200CF
:100A7600008961F40000CDAC61700000021461F4DD
:100A86000000C8326170000001FF60F400000098A9
:100A96006070000001F80BF08000009800000C0B5D
:100AA600F08000D36846F4004DF8F074F4000000BE
:100AB6001E4E6C0000000C55BE000140CEFFFF3FED
:100AC60030FF0004CDCD20001B22090000000B0DD5
:100AD600104A00000A0A9DA100009F22090000009A
:100AE6000B0D104A0000040A9D810000A508451A56
:100AF60056F4000003FF20006208CC1A07F02D0010
:100B0600003E57F0000002AC45F40000000245F438
:100B16006AFF0FFF20006E5570000002AC00000C4B
:060B260000AC0000850098
:1003FA0000A50000A50000C30000A4110000000031
:10040A000000000000101D3F000000000000000076
:10041A00000000000000000000007FFFFF00000055
:10042A000000000000000000000000007FFFFF0045
:10043A00C80083C4D5FFABFB241009FFABFA080040
:10044A0009FFABFA000009FFABFBA41829FFAD8432
:10045A00000018FFAD85001FFFFFAD81001212FFDB
:10046A00AD82001414FFAD83000088FFAD800054F4
:10047A0054FFAD87005454FFAD86000000FFAD86DF
:10048A00000001FFAD8600000000C20000C97A002A
:10049A00DF1E00DB7800DB7800C70000E00A00D529
:1004AA005900E35000CF0000E17000CB0000E22FBA
:1004BA0000D96F00E52F00E47000D73001D09A0010
:1004CA00C60100DD0100D40000DA0000DC0000A152
:1004DA000500000000000400001E00001600006B6A
:1004EA0000D80000A1050000010000000000000083
:1004FA00003A00003F00D80000A1050000020000F9
:10050A000000002B00003A00002B00D80000A105D3
:10051A0000000300000000002400003A00005E0012
:10052A00D80000A105000004000000000037000008
:10053A000D00003000D80000A105000005000000F1
:10054A0000006E00000D00002B00D80000A105007D
:10055A00000600000000004300003A00004500D8F1
:10056A000000A10500000700000000006500000D62
:10057A0000002900D80000A10500000800000000C2
:10058A00001200000D00001B00D80000A1050000A9
:10059A000900000200007000001700003D00D800AA
:1005AA0000CF0100D10000D10900D11200D11B00F7
:1005BA00D12400D12D00D13600D13F00D14800D13D
:1005CA004C00D10700CF0000D22E00CF0000D31379
:1005DA0000D60B00CF0000E85100E94800CF00FF29
:1005EA00ABF30000C1FFABF4000001FFABF5301A1A
:1005FA0048FFABF620EE7DFFABF7029078FFABF435
:10060A00000002FFABF5101A4AFFABF621E600061E
:10061A00AA0600A27B61F40000009061700000024B
:10062A00473C0A00380A0064F40000013460F40010
:10063A000001DA05F420FFFFFF0464A0204C00202B
:10064A00480044B8000CC4A000001657F4007FF715
:10065A00055F5C005F580057F4007FFF385F5C005D
:10066A005F5800205C0020580057F4007FFFBC5FF1
:10067A005C005F580057F4007FC7295F5C005F5831
:10068A00000AF08000007857F4007FF63A5F5C00B9
:10069A005F580057F4007FFF275F5C005F58002017
:1006AA005C0020580057F4007FFFB65F5C005F587B
:1006BA000057F4007FC2235F5C005F580054F000CB
:1006CA00FFFFF10C1EE20140C60000070140C50011
:1006DA0000010AF0A200008961F40000CDAC61704B
:1006EA000000021461F40000C8326170000001FFCA
:1006FA0060F4000000986070000001F80BF08000C0
:10070A00009800000C0BF08000D36846F4004DF806
:10071A00F074F40000001E4E6C0000000C55BE0080
:10072A000140CEFFFF3F30FF0004CDCD20001B2249
:10073A00090000000B0D104A00000A0A9DA10000E2
:10074A009F22090000000B0D104A0000040A9D8137
:10075A000000A508451A56F4000003FF20006208AD
:10076A00CC1A07F02D00003E57F0000002AC45F409
:10077A000000000245F46AFF0FFF20006E5570006A
:0C078A000002AC00000C00AC0000850078
:0515790012157ED29363
:0E157E00E4FFFE0FBF00010EEF64324E70F569
:01158C00223C
:04160800C29280FC0E
:0A15BA00D29312157ED29402157E22
:0A15C400D294121579C29402157E2C
:1013D700900000D29312157E309423AF82AE83E43F
:1013E700FCFD7B507AC3F9F8D3120C254010A3E516
:1013F70082B488E4E583B413DF12160880DAC29357
:0314070002157E4D
:0A15CE00C294121579D29402157E22
:10149000AD07E4FCC29312157EED30E704D29480D0
:1014A00002C294ED25E0FD1215790CBC08E6C2934A
:0814B00012157ED29402157E94
:10146600C20612157ED20512157EE4FCD2061215AE
:101476007EED25E0FFA205E4334FFDC20612157E80
:091486000CBC08E812157EAF054C
:01148F00223A
:081122008B148A158916AD0734
:10112A00E4F51B1215C4AF051214901213D7E4F597
:10113A001BAF1BE4FCFDFEAB1AAA19A918A817D30A
:10114A00120C3B401CAB140516E516AA15700205D5
:10115A001514F9120B2CFF1214901213D7051B80C9
:04116A00D00215CECC
:0B002400042200000000012600C109BA
:10154F0043B10853B2F7D28353E9DF43EA0853EBB1
:05155F00F7439B02228E
:03003B00020D1F94
:100D1F00C0E0C0F0C083C082C0D075D000C000C09A
:0D0D2F0001C002C003C004C005C006C0071B
:100D3C00750800750900750A00E5EC30E37453EC96
:100D4C00F7539BFD7F017E007D007C0012116E0528
:100D5C000A308309E50AC394075002804D3083E4BE
:100D6C002083FD7508007509003083FD30831C74E9
:100D7C00222508F8C000E6FFC313D000F674222524
:100D8C0008F8E64480F630831080FB74222508F8BE
:100D9C00C000E6FFC313D000F60509E509B408C985
:100DAC000508E508B404BF3083FD1215D8439B0237
:050DBC00800375EC004E
:100DC100D007D006D005D004D003D002D001D00086
:0B0DD100D0D0D082D083D0F0D0E03230
:10156400E525F4B524098524261215D8D20922E4E8
:05157400F526C209226A
:0915D8007F047822E4F608DFFC30
:0115E10022E7
:1013280030093BE52624F3600F24FB601514601A8E
:1013380014601F1460208024309021120C5FD201A9
:10134800801A309017121521801230900F1215381C
:0F135800800AB2008006309003121602C20922EA
:10129A00FFAD83000088FFAD86000000FFAD860029
:1012AA000001FFAD86000000FFAD83000099FFAD8D
:1012BA0086000000FFAD86000001FFAD8600000039
:1012CA00FFAD830000AAFFAD86000000FFAD8600D7
:0812DA000001FFAD86000000D9
:0B002F000127000128000329FFD09AE0
:1010D500752701E4F528F511F512AE11AF127C0064
:1010E5007D03120B4574FA2FF974033EFA7BFFE476
:1010F500751A03F519F518F5177FE61211227F0108
:101105007E007D007C001211B90512E51270020502
:0C11150011C39434E5116480948140BE45
:0111210022AB
:10152100052B7B007A007929E4751A03F519F51862
:07153100F5177FE60211220D
:10153800152B7B007A007929E4751A03F519F5183B
:07154800F5177FE6021122F6
:01160D0022BA
:10003E000528E528B401157BFF7A0379FAE4751AD1
:0D004E000AF519F518F5177FE612112222A8
:100C5F000527E527D394034003752701E527640192
:100C6F007036F511E51175F003A4249AF974123555
:100C7F00F0FA7BFFE4751A03F519F518F5177FE6FF
:100C8F001211227F017E007D007C001211B9051127
:100C9F00E511C3940840CD22E52764027036F511A3
:100CAF00E51175F003A424B2F9741235F0FA7BFF45
:100CBF00E4751A03F519F518F5177FE61211227F5F
:100CCF00017E007D007C001211B90511E511C3945E
:100CDF000840CD22E52764037035F511E51175F055
:100CEF0003A424CAF9741235F0FA7BFFE4751A03D2
:100CFF00F519F518F5177FE61211227F017E007D99
:0F0D0F00007C001211B90511E511C3940840CD05
:010D1E0022B2
:03000000020DDC12
:100DDC0075C7AA75C75575FD5A75C7AA75C75575D8
:100DEC00FDA5787FE4F6D8FD9000007FFF7E03E43C
:0C0DFC00F0A3DFFCDEFA75814A020E4312
:100E08000213A0E493A3F8E493A34003F68001F24D
:100E180008DFF48029E493A3F85407240CC8C333EB
:100E2800C4540F4420C8834004F456800146F6DFBA
:100E3800E4800B010204081020408090000EE47E3C
:100E4800019360BCA3FF543F30E509541FFEE493AF
:100E5800A360010ECF54C025E060A840B8E493A376
:100E6800FAE493A3F8E493A3C8C582C8CAC583CAA1
:100E7800F0A3C8C582C8CAC583CADFE9DEE780BE59
:01003A0000C5
:100B2C00BB010689828A83E0225002E722BBFE02C7
:090B3C00E32289828A83E49322FA
:100B4500EF8DF0A4A8F0CF8CF0A428CE8DF0A42EC4
:020B5500FE227E
:100B570075F008758200EF2FFFEE33FECD33CDCC55
:100B670033CCC58233C5829BED9AEC99E5829840D8
:100B77000CF582EE9BFEED9AFDEC99FC0FD5F0D6B5
:100B8700E4CEFBE4CDFAE4CCF9A88222B800C1B9DF
:100B97000059BA002DEC8BF084CFCECDFCE5F0CB1D
:100BA700F97818EF2FFFEE33FEED33FDEC33FCEB56
:100BB70033FB10D703994004EB99FB0FD8E5E4F911
:100BC700FA227818EF2FFFEE33FEED33FDEC33FCFE
:100BD700C933C910D7059BE99A4007EC9BFCE99AF2
:100BE700F90FD8E0E4C9FAE4CCFB2275F010EF2F37
:100BF700FFEE33FEED33FDCC33CCC833C810D70737
:100C07009BEC9AE899400AED9BFDEC9AFCE899F871
:0E0C17000FD5F0DAE4CDFBE4CCFAE4C8F92204
:100C2500EB9FF5F0EA9E42F0E99D42F0EC6480C846
:060C350064809845F022E6
:100C3B00EB9FF5F0EA9E42F0E99D42F0E89C45F00F
:010C4B002286
:100C4C00E8600FECC313FCED13FDEE13FEEF13FF86
:030C5C00D8F122AA
:00000001FF
